:100000000C94FA020C9400000C9400000C94000074
:100010000C9400000C9400000C9400000C94000060
:100020000C9400000C9400000C9400000C94000050
:100030000C9400000C9400000C9400000C94000040
:100040000C9400000C9400000C9400000C94000030
:100050000C9400000C9400000C9400000C94000020
:100060000C9400000C9400000C9400000C94000010
:100070000C9400000C9400000C9400000C94000000
:100080000C9400000C9400000C9400005E01000031
:100090005F0100006B0100006B01000076010000B1
:1000A000830100008E01000099010000A9010000F9
:1000B000B3010000BC010000CE010000E10100001E
:1000C000F201000001020000120200002202000002
:1000D000809A90418E418F804545454949498E8F90
:1000E0009092924F994F555559999A9B9C9D9E9FDE
:1000F00041494F55A5A5A6A7A8A9AAABAC21AEAF6B
:10010000B0B1B2B3B4B5B6B7B8B9BABBBCBDBEBF77
:10011000C0C1C2C3C4C5C6C7C8C9CACBCCCDCECF67
:10012000D0D1D2D3D4D5D6D7D8D9DADBDCDDDEDF57
:10013000E0E1E2E3E4E5E6E7E8E9EAEBECEDEEEF47
:10014000F0F1F2F3F4F5F6F7F8F9FAFBFCFDFEFF37
:10015000DBF9EBF93535414136364242434300463F
:10016000525F4449534B5F4552520046525F494EDD
:10017000545F4552520046525F4E4F545F524541C4
:1001800044590046525F4E4F5F46494C4500465227
:100190005F4E4F5F504154480046525F494E5641B2
:1001A0004C49445F4E414D450046525F44454E49DF
:1001B00045440046525F45584953540046525F49F2
:1001C0004E56414C49445F4F424A454354004652C3
:1001D0005F57524954455F50524F5445435445442C
:1001E0000046525F494E56414C49445F445249567D
:1001F000450046525F4E4F545F454E41424C454488
:100200000046525F4E4F5F46494C45535953544543
:100210004D0046525F4D4B46535F41424F5254454D
:10022000440046525F54494D454F55540045525283
:100230004F523A005344204F4B3A2000534420453C
:1002400052524F523A20002C004C6F676963616C28
:1002500020647269766520303A206D6F756E746522
:1002600064204F4B0D0A0044415441344B00464931
:100270004E442055504441544500340055504441AB
:100280005445340033005550444154453300320046
:10029000555044415445320046494C452045584943
:1002A0005354530046494C45204E4F54204558491D
:1002B00053540046494E44204241434B555000465A
:1002C000494E442054454D50444154410054454DFD
:1002D00050202020203030310054454D50444154AE
:1002E00041202020004241434B5550202020202017
:1002F0000046696C652044415441344B206F706561
:100300006E6564204F4B0D0A0052656164204441C4
:100310005441344B204F4B0D0A00577269746520CD
:1003200044415441344B204F4B0D0A0046696C65E3
:100330002054454D5044415441206F70656E6564B2
:10034000204F4B0D0A0057726974652054454D507B
:1003500044415441204F4B0D0A00555044415445EF
:10036000350070666620555044415445005265730F
:10037000756C743A005465737420646F6E652E005A
:100380000BFA2BFA01002D4E414E00494E4600005B
:1003900080C004000A0050010000070020092D025F
:1003A0000000010027095E0100001E002809490223
:1003B0000000010046095E010000010047095E01DE
:1003C000000007004809670200001E004F094902AB
:1003D000000001006D095E01000001006E095E0170
:1003E000000008006F097C020000010077095E012F
:1003F00000000800780986020000010080095E0103
:1004000000000800810990020000010089095E01D6
:10041000000007008A09B8020000010091095E018E
:10042000000009009209C402000001009B095E015E
:10043000000009009C09C40200000C00A509CD02BF
:1004400000000100B1095E0100000700B209B80216
:1004500000000900B909C40200000100C2095E01E0
:1004600000000700C309730200000700CA09B802B0
:1004700000000100D1095E0100000700D2097302EB
:1004800000000700D909B80200000100E0095E0180
:1004900000000C00E109D90200000100ED095E0135
:1004A00000000900EE09C40200000900F709C402B7
:1004B00000000100000A5E0100000C00010AE502D4
:1004C000000001000D0A5E01000007000E0AB802DC
:1004D00000000700150AB802000001001C0A5E01B6
:1004E00000000C001D0AD90200000100290A5E016B
:1004F000000009002A0AC40200000900330AC402ED
:1005000000001E003C0A4902000001005A0A5E0178
:1005100000001E005B0A490200000100790A5E012A
:10052000000007007A0A670200001800810AF10241
:1005300000000100990A5E01000011009A0A0903F7
:1005400000000100AB0A5E0100001E00AC0A490277
:1005500000000100CA0A5E0100000700CB0A670222
:1005600000001800D20AF10200000100EA0A5E0150
:1005700000001200EB0A1A0300000100FD0A5E01F0
:1005800000001E00FE0A4902000001001C0B5E0173
:10059000000009001D0BC40200001A00260B2C03EA
:1005A00000000100400B5E0100001400410B4603F7
:1005B00000000100550B5E0100000100560B5E01BA
:1005C00000000900570BC40200000800600B5A032A
:1005D00000000200980D8003000002009A0D8203C3
:1005E00000000100A10D840300000200A50D90038E
:1005F00000000000F894EE27ECBBF1E0F5BFE5BF8A
:10060000E0936C008DE0A2E0BB27ED938A95E9F7BB
:1006100080E090E1A0E0B1E0ED930197E9F7E2E935
:10062000F3E0D0E0DBBF87919791009781F0A7912D
:10063000B79107901790C791D791BF01DBB7F00131
:10064000CBBF07900D920197E1F7FB01EBCFEFEFE6
:10065000EDBFE0E1EEBFC0E2D9E00C9419060C94C6
:10066000670622960895AA932597AD81A53610F0C6
:10067000E4E6ED83ED810E943713AE81A03010F0E7
:10068000A83008F03BC00E943E13E0E2F9E0FA9384
:10069000EA93A7E2B9E0E5DFEE81E03029F4A4E3D4
:1006A000B2E080E090E004C0ACE3B2E080E090E033
:1006B0000E94EE12A4E6B0E00E9472160E9443135C
:1006C000A7E4B2E080E090E00E94EE12EE810E948A
:1006D00037130E9443130E944613EE81ACE8B0E04A
:1006E00080E0FF27662777270E94B3160E94B31683
:1006F0000E947C160E9441170E94EE12BECFAA9360
:10070000A6971A930E944B13ACA5BDA50E94F710A3
:100710001E2F103019F01A93A5E1A5DF0E944B138C
:10072000DE0153960E9427111E2F103019F4AA8D56
:10073000A03009F423C0E98DE071F9F4EFA1E030B5
:1007400069F0E8A5F9A5FA93EA93DE015C960E94A8
:100750004E12E03011F4E1E012C00FC0E8A5F9A597
:10076000FA93EA93FE017C96FA93EA93A6E00E943C
:100770006E12E03011F4E1E002C0D0CFE0E0188169
:10078000AC9608951A9310E00E94501341F4E8E2E9
:10079000F9E0FA93EA93A6E4B9E063DF02C00E94AD
:1007A0005713E7E4F9E0FA93EA93E8E4F9E00E94EA
:1007B0005B13103019F0E0E00C947106E1E00C944A
:1007C00071060E94741710E000E030E00E945013A0
:1007D00041F4EFE4F9E0FA93EA93ADE6B9E041DFE2
:1007E00002C00E9457130E943E13AEE6B2E080E0C2
:1007F00090E00E946213AAE7B2E080E090E00E94DD
:100800006213EEE6F9E0FA93EA93EFE6F9E00E946C
:100810005B13E030F1F4A4E8B2E080E090E00E94E5
:100820006213E7E7F9E0FA93EA93E8E7F9E00E9458
:100830005B13E03071F4AEE8B2E080E090E00E943B
:100840006213E0E8F9E0FA93EA93E1E8F9E00E9444
:100850005B130E944613103019F00E94681302C007
:100860000E946D130E94EE120E947213A3EBB2E07D
:1008700080E090E00E946213E9E8F9E0FA93EA93DD
:10088000EAE8F9E0FA93EA93A0E039DF0E2F0E943C
:100890004613003019F00E94681302C00E946D13C5
:1008A0000E94EE120E947213AFEBB2E080E090E083
:1008B0000E946213E1E9F9E0FA93EA93E2E9F9E0D0
:1008C000FA93EA93A0E01BDF3E2F0E9446133030DC
:1008D00019F00E94681302C00E946D130E94EE126C
:1008E000A8EEB3E00E947216103009F462C0003026
:1008F00099F1303069F0EBE9F9E0FA93EA93ECE929
:10090000F9E0FA93EA93A5EAB9E00E9461117E2E1C
:10091000E1EBF9E0FA93EA93E2EBF9E0FA93EA9378
:10092000A9EBB9E00E94771311F0E1E07AC0E2ECA4
:10093000F9E0FA93EA93E3ECF9E0FA93EA93AAEC8C
:10094000B9E00E94771311F0E1E06BC0303011F094
:10095000E3E067C0E0E065C0303049F1E1EDF9E087
:10096000FA93EA93E2EDF9E0FA93EA93A9EDB9E09C
:100970000E94771311F0E1E054C0E0EEF9E0FA9341
:10098000EA93E1EEF9E00E947C1379F0EDEEF9E0F4
:10099000FA93EA93EEEEF9E0FA93EA93A7EFB9E05F
:1009A0000E94771311F0E1E03CC0E0E03AC0E1E0E2
:1009B00038C0003011F0303009F432C0E0E0FAE025
:1009C000FA93EA93E1E0FAE00E947C1379F0EDE01B
:1009D000FAE0FA93EA93EEE0FAE0FA93EA93A5E1FB
:1009E000BAE00E94771311F0E1E01BC0ECE1FAE0FD
:1009F000FA93EA93EDE1FAE00E947C1379F0E9E2E0
:100A0000FAE0FA93EA93EAE2FAE0FA93EA93A3E3CC
:100A1000BAE00E94771311F0E1E003C0E0E001C00A
:100A2000E4E00E947B1724960895BA93AA930E944B
:100A3000501341F4EBE5FAE0FA93EA93A9E7BAE040
:100A400010DE02C00E945713AAE7BAE00E94560DBA
:100A50007E2EE03041F4E1E8FAE0FA93EA93A9E966
:100A6000BAE0FFDD03C07A92A2E0FDDD0E948313AD
:100A70000E9412107E2E0E9488130E948D13AC815A
:100A8000BD810E949B0D7E2EE03041F4EAE9FAE040
:100A9000FA93EA93ABEABAE0E4DD03C07A92A3E00A
:100AA000E2DD39C0BA93AA930E94501341F4ECEAF4
:100AB000FAE0FA93EA93AAECBAE0D3DD02C00E940E
:100AC0005713ABECBAE00E94560D7E2EE03041F495
:100AD000E2EDFAE0FA93EA93AAEEBAE0C2DD03C0CF
:100AE0007A92A2E0C0DD0E9488130E9492130E94B5
:100AF0009213AE81BF810E94970F7E2EE03041F4A9
:100B0000EBEEFAE0FA93EA93ADEFBAE0AADD03C0A8
:100B10007A92A3E0A8DDE0E02A960895AA932497AC
:100B20000E9497130E94A113A030E2E0BE07E0E00C
:100B30008E07E0E09E0768F4E091680BF091690B86
:100B4000E856F44FAC81A083A8E6BBE00E94AA134C
:100B5000E9CF0E949713ED81FE816F8178850E9415
:100B6000A1130E946D1738F5E8E9FBE0FA93EA93C8
:100B70000E94B3130E9447170E94BC13A8E0B0E084
:100B800091DFE03011F0E1E017C0E0E0F2E08E1616
:100B90009F0610F4E2E010C00E94B313E050FE4F35
:100BA0006F4F7F4FE093680BF093690B60936A0B74
:100BB00070936B0BD0CFE0E0299608952A978AE0D6
:100BC000A0E0B0E0E4E5F1E060E00E9480171A9355
:100BD000F8DD1E2F103011F0E1E028C0D3DD1E2F0C
:100BE000103011F0E2E022C0E0E0F0E160E070E0FF
:100BF0000E944717A0E292DF1E2FE03011F0E5E0DF
:100C000015C00E944B130E94C1134CDF1E2FE03011
:100C100011F0E6E00BC00E944B130E94C11305DFE8
:100C20001E2FE03011F0E7E001C0E12F18812B9674
:100C30000895D1507894A895A0E10E9408130E94CD
:100C4000B6120E94B612A2E6B3E080E090E00E94E5
:100C5000EE12A0EDB7E00E947216A895AFDF3E2F0E
:100C60000E943E13ADE6B3E080E090E00E94EE12F9
:100C7000E32FE05DE883E0E0E9830E944313ACEEFC
:100C8000B2E080E090E00E94EE12ACEDB5E00E9490
:100C900072163A93A0E0E3DC0E943E13A5E7B3E0AE
:100CA00080E090E00E94EE12FFCFFFCFE7B3E76055
:100CB000E7BBE8B3EF60E8BBE0E5EDB9E1E0EEB932
:100CC0000895AA93E881EFB9A895779BFECF219666
:100CD00008951A93A895EFEFEFB9779BFECF1FB158
:100CE000E12F19910895F5DF08950E944C171A938A
:100CF0000A93EE81E07849F0EE81EF77EE83E7E743
:100D00000E94CE130E2F023070F5C09AE2DFC09819
:100D1000E0DFAE810E94D513E8E10E949516AE2F68
:100D2000D0DF0E94DC130E94B816AE2F0E94D513AC
:100D3000E8E00E949516AE2FC4DFAA81C2DF11E061
:100D4000AE81A03409F415E9AE81A83409F417E89E
:100D5000A12FB7DF1AE0BDDF0E2F07FF02C0115031
:100D600009F401C0F8CFE02F198108812796089572
:100D700024970E94721720E0253008F08BC096DF80
:100D800014E6103019F0A5DF1150FBCF30E0E0E49D
:100D90000E94CE13E13009F072C0E8E4EA93AAEAB7
:100DA000B1E080E090E0A1DFE13009F044C010E064
:100DB000143050F40E94E113FF93EF938ADFAF9158
:100DC000BF91EC931F5FF4CFA885A13019F4A985DA
:100DD000AA3A09F02FC040EE5EE2042E052A49F03F
:100DE000E9EEEA93A0E0B0E080E090E47EDFE0305E
:100DF00009F403C041505040F0CF042E052A29F0D9
:100E0000EAE70E94CE13E03009F014C010E014307D
:100E100050F40E94E113FF93EF935BDFAF91BF911A
:100E2000EC931F5FF4CFEE81E07411F0ECE001C0B1
:100E3000E4E03E2F24C0E9EE0E94CE13E23018F425
:100E400032E009EE02C031E001E448EA51E6042E46
:100E5000052A31F00A930E94E81347DFE03009F4D5
:100E600003C041505040F3CF042E052A39F0E0E58D
:100E7000EA930E94ED1339DFE03009F030E030935F
:100E80009C0D31DF303031F42F5FA8ECB0E00E94D0
:100E9000721672CF303011F0E0E001C0E1E035C4ED
:100EA0000E94F213E0919C0DE87041F40E94F71348
:100EB0000E94FC13E887F9876A877B8711E0E1E5E8
:100EC000EA930E94001411DFE03009F047C020E3EC
:100ED00035E7FFDE0E2F0F3F19F42150304009F4A3
:100EE00001C0F7CF0E3FD1F5AE81BF81E2E0F2E065
:100EF000EA1BFB0BDF01EC81FD81AE1BBF0B9D01EB
:100F0000EE81FF81309739F0E4DEEE81FF81319789
:100F1000EE83FF83C9F7EC85FD85309799F0EC856A
:100F2000FD853196EC87FD873197FF93EF93D1DEF6
:100F3000AF91BF91EC93EC81FD813197EC83FD8300
:100F400071F706C0EC81FD813197EC83FD83D1F709
:100F5000C0DEF90131979F01D9F710E0C4DEE12F1F
:100F60000E947B1773C30E944C170E94741711E0F4
:100F7000E885F9853097F9F02C813D81022E032A0E
:100F800031F0E0919D0DF0919E0D309709F411C064
:100F9000A885B985ED91A887B987AE2F92DEADE916
:100FA000BDE0ED91FD913197FE93EE9321503040DD
:100FB000E5CF10E049C00E9405140E945E1709F1B8
:100FC000E0919C0DE87041F40E9405140E94FC130E
:100FD000EC83FD836E837F83E8E5EA93AD81BE8178
:100FE0008F81988582DEE03059F4AFEF6ADEAEEF94
:100FF00068DEE0E0F2E0E0939D0DF0939E0D10E0DE
:1010000023C0E0919D0DF0919E0D32969F01F90154
:1010100021503040309719F0A0E053DEF8CF59DE70
:10102000EF71E53081F428EE3DEF53DEEF3F19F02C
:10103000022E032A09F403C021503040F6CF022EBD
:10104000032A09F010E04FDEE12F0E947B175FC3F7
:10105000BA93AA931A930A930E811F81EA81FB81A6
:101060003197EA83FB83319649F01F930F930F5F0B
:101070001F4FEC81AF91BF91EC93F0CF19810881A4
:10108000B4C30E940A140A851B852885398540E06F
:1010900050E0EE81FF813197EE83FF83319681F03E
:1010A000D8010F5F1F4F0C901124D9012F5F3F4FC4
:1010B000AC91BB27F001EA1BFB0BAF01309709F0A5
:1010C00001C0E7CFFA010E9479172C9608950E947B
:1010D0004C1726970E9472170E940F14EE83FF830D
:1010E0000E9414140E94191450F0AE81BF8118960A
:1010F0000E942C170E9414140E946D1708F0A0C0C3
:10110000AE81BF81EC91F0E0E130A0E0FA0709F098
:1011100047C02C853D85F901F695E7952E0F3F1FB9
:10112000F901F170AF01D901E0E0F2E00E94EC16A4
:101130009F01EFEFF1E0E417F50749F00E94211459
:101140005A934A930E94331409F07AC01BC00E943C
:101150002114EFEFF1E00E94391409F071C0FE0193
:1011600039960E944114F9010E944A14EF5FFF4F23
:101170006F4F7F4F0E944717E0E0F0E00E94391464
:1011800009F05EC008851985EC85E17021F0F80151
:101190000E94AA1602C0F801FF706627772754C084
:1011A000E230A0E0FA0709F5FE0138960E944114EA
:1011B0009F938F93BF93AF930E944F14E0E0F1E0B1
:1011C00060E070E00E94FF16AF91BF918F919F91F8
:1011D0000E945414F070EE0FFF1F0E945B1481F503
:1011E000E885F985662777272FC0E330A0E0FA0766
:1011F00039F5FE0138960E9441149F938F93BF9357
:10120000AF930E944F14E0E8F0E060E070E00E94CD
:10121000FF16AF91BF918F919F910E945414EF7769
:10122000F0700E94A516FA93EA93A4E00E945E145F
:1012300039F40E94F713EF7FFF7F6F7F7F7004C048
:10124000E1E0F0E060E070E00E94791760960895B8
:101250000E944C170E9463140E94DC13E250F0407D
:10126000604070400E946A14F801A085B1858285B3
:101270009385E2E0F0E060E070E00E9451170E9488
:1012800081160E946F140E946D1728F00E9474143A
:1012900019810881E6C2F801E181F0E00E946F1433
:1012A0000E94C2160E94CC167F936F93FF93EF9318
:1012B000D80154960E942C17AF91BF918F919F91A6
:1012C0000E947C1619810881CCC2BA93AA932497F4
:1012D0000E946314AE81BF810E947914AE81BF81E8
:1012E00014960E947E140E946F14A130E0E0BE07A5
:1012F000E0E08E07E0E09E0749F0D80118960E94D2
:101300002C170E946F140E946D1720F0E1E01981E4
:1013100008816BC20E94DC130E945E1721F4D80181
:10132000AC91A33009F004C0D80150960E947E14FD
:101330000E94DC13AE81BF8118960E9437170E946D
:10134000DC130E945E1721F00E946F1481DF04C03D
:10135000D80150960E942C17AE81BF811C960E9426
:101360003717E0E01981088140C2BA93AA93249705
:101370000E948114A885B9850E94281731968F0193
:10138000002E012A19F00E94881421F4E3E00E9443
:101390007B17BDC1F801EF7009F055C0A885B9856C
:1013A0001C960E94AA13A885B98518960E942C172E
:1013B0000E945E1761F4D90114960E9428170E1737
:1013C0001F0720F0E3E00E947B17A1C13CC0F80199
:1013D0000E94AA16DF01F901E181F0E03197EA23CA
:1013E000FB23309781F5E885F985A085B185828555
:1013F00093856DDEEC83FD836E837F830E94831370
:101400000E94191420F4E1E00E947B1780C1D901E9
:1014100018960E942C170E9483130E946D1720F0CB
:10142000E3E00E947B1773C10E940514A885B9856B
:1014300018960E9437170E9483130ADFA885B98582
:101440001C960E943717A885B9850D931C93E0E080
:101450000E947B175CC10E94F213AC81BD8135DF15
:101460001E2F103019F00E947B17FBC10E949014B0
:101470002D913C913A932A93EE81FF810E9496141C
:10148000AA85BB850E949D1411F0E1E001C0E0E057
:101490001E2F1030F9F4D9010C91003011F413E033
:1014A00019C0F901E385E87069F43A932A93EE8153
:1014B000FF81A281B381BA93AA93ABE0B0E0E1DDF2
:1014C000309709F001C006C0AC81BD814EDF1E2FF0
:1014D000103081F2E12F0E947B17C3C10E940A14D1
:1014E00013E00E9490144D915C91AE81BF811C96D7
:1014F0000E942C170E945E1749F15A934A93E8857F
:10150000F9850E949614AC85BD850E949D1411F04A
:10151000E1E001C0E0E01E2F1030C1F4DA013C919F
:10152000303011F413E012C0FA01E385EF730E2F8F
:10153000353E21F03E3211F003FF01C001C006C06C
:10154000AE81BF8112DF1E2F103079F2103021F0F2
:10155000AE81BF810E94A814E12F0E94791745C176
:10156000BA93AA9324970E947217AC85BD851296F0
:101570000E942817E887F9870E948813E0E2F0E0CC
:10158000FA93EA93ABE0B0E063DDE0E05E2F2E2F4C
:1015900038E0AA85BB850E942817EE83FF830E944E
:1015A000AD141C91113210F01F3209F439C01E32F3
:1015B00011F0531740F0383011F41E3209F030C0EA
:1015C00058E03BE02CC0103858F0E12FF0E0E05834
:1015D000F04066277727E053FF4F6F4F6BBF1691A0
:1015E000E0E0E03041F0E32FF0E03197A52FB0E0EC
:1015F000AE17BF070CF40AC00E94AD140C910E94F4
:10160000B51410830E94B514008309C0113610F080
:101610001B3708F001C010520E94B5141083BFCFD1
:10162000E22FAE81BF81F0E0EA0FFB1FAA85BB85E8
:10163000ED93FC93113210F4E1E001C0E0E0A885E5
:10164000B9851B96EC93E0E00E9479172E960895D9
:101650000E940A14EE81FF813996AF010E9488141E
:1016600009F450C00E9490142D913C9110E0183064
:1016700080F40E94BD1469F0053009F405EE5F9313
:101680004F934F5F5F4FE02FAF91BF91EC931F5F80
:10169000EECFF901A085A032A9F0DA014F5F5F4FCC
:1016A000EEE2EC9318E01B3068F40E94BD1451F098
:1016B0005F934F934F5F5F4FE02FAF91BF91EC93DC
:1016C0001F5FF1CFF901E385AE81BF811896EC93DE
:1016D000D9015C960E942C17AE81BF810E943717FA
:1016E000D90158960E942817AE81BF811496ED93B8
:1016F000FC93D90156960E942817AE81BF81169699
:10170000ED93FC93DA01E0E0EC930E9479172A96BE
:1017100008950E94F213AC81BD81AC91A03231F4E6
:10172000EC81FD813196EC83FD83F5CFAC81BD81E9
:10173000AC91AF3229F4EC81FD813196EC83FD83CD
:10174000AE81BF8114960E94C414AC81BD81AC915E
:10175000A13258F4AE81BF81B8DD1E2F0E940F1454
:10176000A681B781E0E0EC933DC00E949213DE01B8
:101770001696F6DE1E2F1030A9F5AE81BF816BDE06
:101780001E2F103041F0133019F40E94C81409F0D4
:1017900001C014E027C00E94C81421F50E949014D3
:1017A0002D913C91F901E385E07111F414E01AC028
:1017B000D90154960E94D0140E94BD167F936F9356
:1017C000FF93EF93D9015A960E942817AF91BF91CA
:1017D0008F919F910E94D514AE81BF8114960E9473
:1017E0003717C3CFE12F0E947B17289608950E94D8
:1017F0004C170E948D130E94DA14EEEFF1E00E9464
:101800005B1411F0E3E02DC00E94DE14E535AAEA76
:10181000FA0711F0E2E025C00E948D130E94DA144D
:10182000E6E3F0E00E945B1431F40E94DE14E6343B
:10183000A1E4FA0709F002C0E0E013C00E948D1392
:101840000E94DA14E2E5F0E00E945B1431F40E9499
:10185000DE14E634A1E4FA0709F002C0E0E001C0BA
:10186000E1E026960895BA93AA93E4971A93E0E0EC
:10187000E0939F0DE093A00DEDA9FEA9309709F428
:1018800011C176DAE17011F0E2E00DC1E0E0ED8720
:10189000EE87EF87E88B0E94E3140E94E814113072
:1018A000E9F40E94E3140E94F014EEEBF1E0FA93E5
:1018B000EA93A0E10E945E1411F013E00FC0ED89DD
:1018C000E03061F0E98DFA8D6B8D7C8DED87FE87C0
:1018D0006F87788B0E94E3140E94E814133011F490
:1018E000E1E0E1C0103011F0E7E0DDC00E94E31458
:1018F0000E94F014EDE0F0E0FA93EA93A4E20E9473
:101900005E1411F0E1E0CFC0FE01B7963D97DF0114
:101910000E94D0140E94F7140E94FC140E945E17CB
:1019200041F4FE01F5963D97DF010E942C170E94BD
:10193000F714EC89F0E00E9400140E94C2160E9485
:10194000CC160E94F7140E940115AD85BE858F85C7
:1019500098890E944A14ADA9BEA91C960E94371707
:10196000E989ADA9BEA91196EC93FE01B2963D9707
:10197000DF010E942817ADA9BEA91496ED93FC9330
:10198000FE01B4963D97DF010E94D014ED83FE83E3
:101990006F8378870E945E1751F4FE01F1963D97A0
:1019A000DF010E942C17ED83FE836F8378870E94EE
:1019B0000115AD81BE818F819885662777270E94AA
:1019C00051170E9481160E9400140E9481167F9375
:1019D0006F93FF93EF930E940815AF91BF918F9182
:1019E0009F91662777270E948616EDA9FEA90E947F
:1019F00010150E94FF16EE5FFF4F6F4F7F4FE98378
:101A0000FA836B837C83ADA9BEA918960E94371711
:101A100011E0A981BA818B819C81A73FEFE0BE07CD
:101A2000E0E08E07E0E09E0708F012E0A981BA81AD
:101A30008B819C81A73FEFEFBE07E0E08E07E0E0DF
:101A40009E0708F013E0ADA9BEA91C93133029F43A
:101A5000E8A9F9A96AA97BA902C00E941515ADA938
:101A6000BEA950960E9437170E9415157F936F9359
:101A7000FF93EF930E940815AF91BF918F919F91B3
:101A80000E944A14ADA9BEA954960E943717ADA969
:101A9000BEA91296E0E0EC93EDA9FEA9E0939F0D9C
:101AA000F093A00DE0E01881E7960895BA93AA9309
:101AB000EC970E948114022E032A11F4E6E036C04E
:101AC000D9011296E0E0EC930E941F15EAABFBAB44
:101AD000FE01F096FA93EA93DE01AE5BBF4F0D90E4
:101AE000BC91A02D16DE1E2F103009F01FC0EC8116
:101AF000E03019F0EF85E07111F0E3E017C00E94CB
:101B00002815D90190960E943717E8A1F9A16AA17A
:101B10007BA1D9015C960E943717D90158960E9483
:101B2000C414D9011296E1E0EC93E0E00E947B1727
:101B3000EF9623960895BA93AA932E970E94721750
:101B4000288D398D0E940F14EE83FF83AC89BD89E7
:101B50000E947914EE81FF81309711F4E6E0D6C03F
:101B6000EE81FF81A281A17011F4E5E0CFC0EE818A
:101B7000FF81A48DB58D868D978D9F938F93BF9395
:101B8000AF930E943315EF91FF916F917F910E9467
:101B90008116E887F9876A877B870E94F713AE89E9
:101BA000BF89882799270E94681720F4E885F9855E
:101BB000EE8BFF8BEE89FF89309709F4A1C00E945C
:101BC0003315FD01BC01F170309709F04DC00E9442
:101BD00033150E943A15EE81FF810E9410150E9474
:101BE00024170E945E1741F50E9433150E94621768
:101BF00031F4AE81BF8190960E942C1703C00E94E1
:101C0000431565DAE88BF98B6A8B7B8BA889B989D8
:101C10008A899B890E94191408F474C0E889F9899B
:101C20006A897B89AE81BF8194960E943717AE8105
:101C3000BF811396E0E0EC930E94431509DBEC872B
:101C4000FD876E877F870E945E1709F45BC0AE81B7
:101C5000BF810E944A150E9414140E945115AE8142
:101C6000BF8198960E943717EE81FF810E9456151A
:101C7000A0E0B2E0AE1BBF0BAD01EE89FF89E41717
:101C8000F50710F44E895F89E88DF98D309719F4C6
:101C9000E0E0F0E001C0F901FA93EA93E885F98504
:101CA000A0A5B1A582A593A50E944C17AC85BD85C2
:101CB00058960E942817F170FA93EA93DA01F0D847
:101CC0001E2F1030F9F4EE81FF810E945B15DF01B9
:101CD000CB01FA010E944A14D0010E943717240F49
:101CE000351FEE89FF89E41BF50BEE8BFF8BAC896A
:101CF000BD89ED91FD91E40FF51FFE93EE935ACF50
:101D0000E0E004C0AE81BF810E9461150E94791796
:101D10006A960895BA93AA932C970E9472170E8917
:101D20001F8940919F0D5091A00DAA89BB890E94E7
:101D30007914042E052A11F4E6E0F5C0FA01A28117
:101D4000A17011F4E5E0EFC0EC89FD893097A1F4B2
:101D5000FA01A281A07439F00E9466150E94E8136E
:101D600002D9E03009F401C0DBC0DA011296EC912F
:101D7000EF7BEC93E0E0D7C0FA01A281A07441F4BC
:101D8000DA015896ED91FD91E070FE7FFE93EE939F
:101D9000FA01A48DB58D868D978D9F938F93BF93F8
:101DA000AF930E946B15EF91FF916F917F910E940D
:101DB00081160E947115AC89BD89882799270E94D8
:101DC000681720F4EE81FF81EC8BFD8BEC89FD8997
:101DD000309709F4A3C0FA010E945615309709F014
:101DE00059C00E946B150E943A15FA010E94101505
:101DF0000E9424170E945E1711F50E946B150E9425
:101E0000621729F4DA0190960E942C1706C0FA0195
:101E1000A4A1B5A186A197A15AD90E9476150E94C6
:101E20004F140E94191408F47BC00E947B15DA013C
:101E300094960E943717DA011396E0E0EC93FA01CA
:101E4000A4A1B5A186A197A103DAEA87FB876C87D5
:101E50007D870E9480150E945E1709F461C0DA0137
:101E60000E944A150E9485150E945115DA01989624
:101E70000E9437170E946615FA01A0A5B1A582A598
:101E800093A571D8E03009F04BC0DA011296EC91BD
:101E9000E064EC93FA010E945615A0E0B2E0AE1B9C
:101EA000BF0B9D01EC89FD89E217F30710F42C8923
:101EB0003D891A930A93D9018827992754D8E0308D
:101EC00079F5FA010E945B15DF01CB01F9010E944F
:101ED0004A14D0010E943717020F131FEC89FD89A5
:101EE000E21BF30BEC8BFD8BAA89BB89ED91FD9175
:101EF000E20FF31FFE93EE93FA010E9456153097FE
:101F000061F40E9466150E94E8132DD8E03041F478
:101F1000DA011296EC91EF7BEC9358CFE0E003C02E
:101F2000DA010E9461150E94791768960895BA93A4
:101F3000AA932297D2500E9472170E948A159F017D
:101F400040E050E00E940F14EE83FF830E94921540
:101F5000A130E2E0BE0710F0E1E05FC00E949915F9
:101F6000E0E0F2E00E94EC16EE0FFF1FFE2FE0E033
:101F700066277727DF01CB0155D01E2F0E948A15D7
:101F80000E949215AE0FBF1FA130E2E0BE0708F11C
:101F90000E94A0150E949915CEDD1E2F103009F069
:101FA0003CC02030E2E03E0738F40E94A5152F5FC8
:101FB0003F4F4F5F5F4FF5CF0E9433150E94B8151A
:101FC0000E94A0150E94C01511F0E12F26C020E04C
:101FD00030E00E94A0150E949915ADDD1E2F0E94D1
:101FE00033150E94B815103011F0E12F16C0FE0114
:101FF000E65FFD4F0190F081E02D4E175F0738F44A
:102000000E94A5152F5F3F4F4F5F5F4FF0CF0E949B
:10201000A0150E94C01509F0E12F0E947917609663
:10202000DE5F08950E944C1760970E946314002E93
:10203000012A11F4E6E0D7C0F801A281A17011F4E1
:10204000E5E0D1C0D8015C960E94C6150E946817D1
:1020500040F4D8015C960E942C17EA8BFB8B6C8BAA
:102060007D8BD80158960E947E14D80158960E9404
:10207000C4140E94CD150E94621708F0AFC0F80189
:102080000E9410150E94FC13EA87FB876C877D87EE
:102090000E946F140E94621798F40E94D2150E9449
:1020A000D7157F936F93FF93EF930E94DC130E94E9
:1020B000D715AF91BF918F919F910E946D1708F432
:1020C00023C00E94DC130E94E115DF01CB010E94B6
:1020D00080150E94E1150E94C7160E948B16D80138
:1020E00058960E943717D80158960E94C6150E942C
:1020F0008616AA8BBB8B8C8B9D8BD80194960E94E5
:102100002C170E94761508C0D80190960E942C17B3
:102110000E9476150E94E6150E9480150E94CD153A
:102120000E94681760F50E944F140E9467080E9481
:1021300076150E944F140E94191448F0D801189681
:102140000E942C170E944F140E946D1708F048C07F
:102150000E94E615F8010E945B150E9485150E94F9
:102160007C16D0010E9437170E9485150E94D21557
:102170000E948116EA8BFB8B6C8B7D8BCDCFF80197
:102180000E945B150E94CD150E947C16D0010E9412
:1021900037170E944F145CD80E9471150E945E1779
:1021A000F9F00E94CD15E0E0F2E060E070E00E94FE
:1021B000FF16D8011396EC930E94D215F170309758
:1021C00069F0D8010E944A15AE81BF818885998542
:1021D0000E945115D80198960E943717E0E003C07D
:1021E000D8010E9461151981088166960895BA93F5
:1021F000AA93AC970E948114022E032A11F416E0D0
:1022000025C00E941F15AAA9BBA91296ED93FC93A5
:102210000E94EC157EDA1E2F1030A9F4EC81E0301C
:1022200061F0EF85E07141F00E942815AAA9BBA9D1
:1022300014960E94371701C014E0103021F4AAA9A7
:10224000BBA943D81E2F133009F414E035C0BA934C
:10225000AA93AC970E948114022E032A11F416E06F
:102260002BC00E941F15AAA9BBA91296ED93FC933F
:10227000E8A9F9A9309729F4AAA9BBA926D81E2F45
:102280001BC0AAA9BBA92AD91E2F133029F4AAA9B9
:10229000BBA90E94A81410E0103071F40E94EC1544
:1022A000D7D9AAA9BBA961D81E2F133029F4AAA98E
:1022B000BBA90E94A81410E0E12F0E947B17E496AE
:1022C0000895BA93AA93A897D2500E9472170E94B9
:1022D000F3150E94F91509F0ADC00E9404160E9482
:1022E0006212AF010E94F3150E940B1631F4FE0139
:1022F000E85EFD4FA185A03011F433E06FC00E946D
:1023000013160E941A16A417B5078CF40E94211602
:102310001C900E9429160E940416AE0FBF1FEC915C
:10232000E11511F033E003C00E943016EACF0E949D
:102330002916E417F50709F04FC0FE013696FA9307
:10234000EA930E9439160E9447170E946615A0E082
:10235000B2E00E9450073E2F303009F03FC00E948B
:1023600041160E946212AF010E9413160E941A16B3
:102370001B97C4F40E941A16A417B50754F40E94C0
:102380004816EA0FFB1FBF010E945A16EC91DB01B1
:1023900005C00E944816AE0FBF1FE0E2EC930E94FA
:1023A0003016E4CF0E9466150E943916DF01CB017A
:1023B0000E945F1699F4FE013696FA93EA930E9402
:1023C000ED130E945F1651F40E9466150E94E813F7
:1023D0000E945F1619F402C033E084CF303051F50B
:1023E0000E94F3150E94F91529F50E94F3150E9429
:1023F0000B1631F4FE01E85EFD4FA185A03009F413
:1024000019C00E9413160E941A16A417B5076CF47F
:102410000E9421161C910E945A160C91011711F06E
:1024200033E003C00E943016EECF0E942916E41755
:10243000F507D9F6E32F0E947917E496DE5F089539
:10244000BA93AA93A991B991E991F99130962AF496
:10245000E095F09531966DE26D93E89480E197E216
:102460000DD088EE93E00AD084E6992707D08AE061
:1024700005D06E2F10D066276C9308956627E81755
:10248000F90720F06395E81BF90BC9F7662311F4EF
:1024900016F008956894605D6D930895BA93AA93B9
:1024A000E991F991A991B9916D917191671721F411
:1024B0006623D1F7EE270895671BE1F3E1E008F406
:1024C000E2500895BA93AA93A991B991EE27FF27F4
:1024D0006D91662311F03196FBCF0895AA9366277C
:1024E00077278991E991F991A991B991882349F0C8
:1024F0008A956D917191671721F46623B9F7EE27DC
:102500000895671BE1F3E1E008F4E2500895AA930F
:10251000E5B3EF70AE2FE881E07FEA2BE5BB81E108
:102520008A95F1F7A99A81E18A95F1F7A99881E155
:102530008A95F1F79AC0AA93A881E9DFE881E2952C
:10254000E883A881E4DF87EA8A95F1F78EC0AA9331
:10255000E881F0E0EB55F24FE081A981AE0FEBDFAF
:102560006980E881E093A90D22960895A2E00E9477
:102570006416ACE0E0DFA1E00E946416E0E0E093C6
:10258000A90D6E2E0895AA93A881AA3021F0E0919A
:10259000AA0D6E1660F0E0E0EA93A091A90DAF5F7E
:1025A000A093A90DD4DFA881AA3009F45EC063947A
:1025B000AA9AA881C0DFAA9858C0BA93AA931A937E
:1025C000A981BA81ED91A983BA831E2FE03019F059
:1025D000A12FD9DFF5CF1881239608950E944C17BB
:1025E0001A93DE0111960E943217EF5FFF4F6F4F73
:1025F0007F4F0E943C170E94E1156BBFE6911E2F92
:10260000E03019F0A12FBFDFECCF18812596089597
:10261000AA93E4B3E06FE4BBA19AA29AA39AA99803
:10262000AA98AB98E881E093AA0DE058E093A70D33
:10263000E881E054E093A80DA4E1B0E00E94721696
:102640000E946A160E946A160E946A16A0E25FDF64
:102650008AEF90E00197F1F7A8E26DDFA4E06BDF6D
:10266000A5E869DFA6E067DF81DF21960895F0E045
:10267000FA93EA93DE0112960C942012E0E0EA93BA
:10268000A0E00C94A712DE010C94DD12E0E0EA93C6
:10269000A1E00C94A712FE013196FA93EA930895F3
:1026A000ACE6BBE00E94330C7E2E772008957A9230
:1026B000A1E00C943303FA93EA93A1E00E947F0314
:1026C0001E2F08950E94EE12A8EEB3E00C9472162D
:1026D000A8E9B2E080E090E00895A4EAB2E080E0EA
:1026E00090E00895A8EEB3E00E947216C7CF0E9452
:1026F00061117E2EE0300895FA93EA93A1E00E94E2
:102700007F03E0300895AC81BD818E819F81089563
:10271000E885F985FA93EA930895EC81FD81FA93AF
:10272000EA930895EE81FF81FA93EA930895E0E039
:10273000E093680BE093690BE0936A0BE0936B0BFB
:102740000895A091680BB091690B80916A0B9091EC
:102750006B0B08950E943217EF5FFF4F6F4F7F4F53
:102760000E943C170895E091680BF091690B60910D
:102770006A0B70916B0B0895E0E0F2E0FA93EA9334
:102780000895E0E0F0E060E070E00E944717E5E0C7
:10279000F0E0FA93EA93A8E0B0E00895EA93A0E0AD
:1027A000B0E080E090E00C9475060E946106AA817A
:1027B000BB818C819D810895EA81FB816C817D8143
:1027C0000895E12FF0E0DE011696EA0FFB1F089551
:1027D000A0E0B0E080E090E00895A0E0B2E080E00A
:1027E00090E00895BA93AA930E9474170895E8851B
:1027F000F9856A857B850895F0DF0E94CC160895DF
:10280000A985BA858B859C850895EC81FD816E81B3
:102810007F810895BA93AA930E9472170895E09158
:102820009F0DF091A00D0895AC85BD858E859F8587
:102830000895A230E0E0BE07E0E08E07E0E09E07EA
:102840000895FE013896FA93EA93E885F985A48500
:10285000B58586859785F901662777270E947C16BE
:102860000E9447170895A2E0B0E00E945007E030B0
:102870000895FA93EA93A1E0B0E00E945007E03097
:102880000895FA93EA93E885F985A485B585868548
:1028900097850895662777270E947C160895AE8550
:1028A000BF858889998908950E947C160E944717E0
:1028B000EA89FB890895FA93EA93D5CFB0E00E94A4
:1028C0005007E03008951A930A9300919F0D1091DC
:1028D000A00D0895EA83FB836C837D830895AA810C
:1028E000BB818C819D810895E0E0F0E060E070E0C4
:1028F0000895E0E0F0E0ED93FC9308950E942C171A
:10290000E9CF0E94741720919F0D3091A00D08957A
:10291000A885B9851C960E942C170E945E17089501
:10292000A0919F0DB091A00D16960895A485B58530
:10293000868597850E944C1708950E942817EF708E
:10294000F070EE0F0E94A116FA93EA93A0E2B6CFC0
:102950001C96CADF0E9437170895E22F2F5FAE81C1
:10296000BF81F0E0AE0FBF1F0895E52F5F5FA88520
:10297000B985F0E0EA0FFB1F0895D901EE27A10FFA
:10298000BE1F0C9100320895AFDF0E9437170895E3
:10299000AE81BF8112960E942817E385E03008952A
:1029A0000E942817662777270895662777270E94B1
:1029B0009016089501DF0E9447170895AC81BD81EC
:1029C0000E9428170895FE017196FA93EA930895DC
:1029D000AF85B88989899A890E94F70B1E2F0895BF
:1029E000EF85F88969897A890E9447170895E987F0
:1029F000FA876B877C870895E985FA856B857C85E6
:102A00000895FE017F963D97DF010E9428170895E3
:102A1000EDA9FEA9A481B581FD010E94AA16089521
:102A2000E181F0E00E94C2160895EDA9FEA9A485F7
:102A3000B58586859785E0DF0E947C160895FE01A6
:102A40003496D9011696ED93FC93FE01B496089541
:102A5000E88DF98D662777270E94BD16DF01CB012F
:102A6000EE8DFF8DA2CFEE81FF81A08DB18D828D85
:102A7000938D0895E0E0F2E060E070E00E94FF16C0
:102A8000DF01CB010895EE81FF81A4A1B5A186A14C
:102A900097A108951396EC91EF5FEC93E150F0E06D
:102AA00008950E94C2160E947C160895A08DB18DD3
:102AB000FD01F170089578960F01DF010E942C1737
:102AC00008951296E0E0EC93E1E00895E0E0F0E094
:102AD000FA93EA930895FA01A08DB18D828D938DBA
:102AE0000895EE83FF83688779870895EE87FF87CF
:102AF000688B798B0895EE85FF85688979890895BB
:102B0000EA85FB856C857D850895AA85BB858C85C6
:102B10009D850895FE01E45FFD4F0190F081E02D59
:102B2000F1700895DE01A65FBD4F0D90BC91A02D00
:102B30000895DE01A45FBD4F0D90BC91A02D0895B6
:102B4000FE013896FA93EA9317CEF901DE01189642
:102B5000EA0FFB1FBF01FA01DE01A25FBD4F0D901E
:102B6000BC91A02DAE0FBF1FEC91DB01EC9308953B
:102B7000A050B240804090400E9412101E2F089535
:102B8000D8DF0E948A0E1E2F103008950E942C1745
:102B9000AA89BB898C899D890895AA89BB898C895A
:102BA0009D890895EA89FB896C897D890895E150A2
:102BB000F04060407040DF01CB01A2DF0E94FF16B1
:102BC0000895E150F04060407040089594DFD801CE
:102BD00094960E9437170895EAA9FBA9FA93EA93FD
:102BE000AAA9BBA90895FE01E85FFD4FFA93EA93F5
:102BF0000895DE01AC5CBD4F0D90BC91A02D0E94EC
:102C0000F7103E2F30300895DE01A05DBD4F0D90CE
:102C1000BC91A02D0895DE01A65EBD4F0E94271134
:102C20003E2F30300895E0E0DE01AA5FBD4FED9306
:102C3000EC930895DE01AA5FBD4F0D90BC91A02DCD
:102C40000895FE01E85EFD4F3996F4DFAE0FBF1F19
:102C50000895FE01EA5FFD4F0190F081E02D089597
:102C6000DE01AA5FBD4FED91FD913196FE93EE938B
:102C70000895FE01E65FFD4F3C96DF010E942C1790
:102C80000895DE01A25DBD4F0D90BC91A02D089569
:102C9000FE01E85FFD4F0190F081E02D3197EE0FCE
:102CA000FF1F0E94A116F170C5DFEA0FFB1FDE01B6
:102CB00016960895CEDFE5DFAE0FBF1F08950E9480
:102CC000B3073E2F303008950E949B12A3E0B0E07E
:102CD0000C947216A0E30E9487128AEF90E001978D
:102CE000F1F70895109639F0A89584EC99E00197D2
:102CF000F1F71197C9F70895EA0FFB1F681F791FB5
:102D00000895EA1BFB0B680B790B0895AE1BBF0BF4
:102D1000860B970B0895EA23FB23682379230895F4
:102D2000EA2BFB2B682B792B0895EE230E2EFD0149
:102D3000BC0131F076956795F795E7950A94D1F740
:102D40000895EE0FFF1FEE0FFF1FEE0FFF1FEE0F98
:102D5000FF1F0895F695E795F695E795F695E795A3
:102D6000F695E7950895EE0FFF1F661F771F0895EC
:102D7000E62FF72F60E070E008956E2F7F2FE0E0E0
:102D8000F0E008956F2F660F660B762F0895E0959B
:102D9000F0956095709508957A9F702D6B9F700DDA
:102DA000F89F700DE99F700D6A9F602D710DFB9F5C
:102DB000600D711DE89F600D711D8827FA9FF02D31
:102DC000610D781FEB9FF00D611D781FEA9FE02DCC
:102DD000F10D681F781F08950024112490E1AA0FB7
:102DE000BB1F001C111C0E1A1F0A18F40E0E1F1E0A
:102DF00001C0A1609A9599F7FD01D00108953F9314
:102E00004F935F93002411244427552730E2AA0FE3
:102E1000BB1F881F991F001C111C441F551F0E1A31
:102E20001F0A460B570B28F40E0E1F1E461F571F76
:102E300001C0A1603A9559F7FD01BC01D001CA015A
:102E40005F914F913F910895DADFFD01BC01089534
:102E5000ED91FC9111970895ED91FD916D917C910B
:102E600013970895ED91FD916D917D910895ED93E6
:102E7000FD936D937C9308957E936E93FE93EE93F2
:102E800008956BBFA791B7918791969108957A9312
:102E90006A93FA93EA9308959A938A93BA93AA93BA
:102EA0000895182E862F612D192E972F712D1B2E08
:102EB000BF2FF12D1A2EAE2FE12D089530976040CF
:102EC0007040089500240A160B06080609060895A6
:102ED000EA17FB07680779070895AE17BF0786074B
:102EE000970708955A934A933A932A931A930A9309
:102EF00008955D814C813B812A8119810881089563
:102F0000AC0FBD1F6BBF07900D928A95E1F7089536
:00000001FF
