:060000000C94EF020C94C9
:1000060000000C9400000C9400000C9400000C946A
:1000160000000C9400000C9400000C9400000C945A
:1000260000000C9400000C9400000C9400000C944A
:1000360000000C9400000C9400000C9400000C943A
:1000460000000C9400000C9400000C9400000C942A
:1000560000000C9400000C9400000C9400000C941A
:1000660000000C9400000C9400000C9400000C940A
:1000760000000C9400000C9400000C9400000C94FA
:1000860000000C9400005E0100005F0100006B019F
:1000960000006B01000076010000830100008E0164
:1000A600000099010000A9010000B3010000BC0195
:1000B6000000CE010000E1010000F2010000010293
:1000C60000001202000022020000809A90418E4138
:1000D6008F804545454949498E8F9092924F994F59
:1000E600555559999A9B9C9D9E9F41494F55A5A54B
:1000F600A6A7A8A9AAABAC21AEAFB0B1B2B3B4B5AE
:10010600B6B7B8B9BABBBCBDBEBFC0C1C2C3C4C511
:10011600C6C7C8C9CACBCCCDCECFD0D1D2D3D4D501
:10012600D6D7D8D9DADBDCDDDEDFE0E1E2E3E4E5F1
:10013600E6E7E8E9EAEBECEDEEEFF0F1F2F3F4F5E1
:10014600F6F7F8F9FAFBFCFDFEFFDBF9EBF93535BE
:1001560041413636424243430046525F4449534B7F
:100166005F4552520046525F494E545F4552520017
:1001760046525F4E4F545F52454144590046525FC6
:100186004E4F5F46494C450046525F4E4F5F5041C9
:1001960054480046525F494E56414C49445F4E41D1
:1001A6004D450046525F44454E4945440046525F20
:1001B60045584953540046525F494E56414C4944AE
:1001C6005F4F424A4543540046525F575249544591
:1001D6005F50524F5445435445440046525F494E82
:1001E60056414C49445F44524956450046525F4E7B
:1001F6004F545F454E41424C45440046525F4E4F78
:100206005F46494C4553595354454D0046525F4D40
:100216004B46535F41424F525445440046525F5449
:10022600494D454F5554004552524F523A0053449A
:10023600204F4B3A20005344204552524F523A2009
:10024600002C004C6F676963616C20647269766587
:1002560020303A206D6F756E746564204F4B0D0A21
:100266000044415441344B005550444154450055D7
:100276007064617465205965732E005570646174ED
:1002860065204E6F2E004241434B55500042756328
:100296006B7570205965732E004275636B757020FF
:1002A6004E6F2E0054454D50444154410054656DE7
:1002B6007064617461205965732E0054656D7064B5
:1002C600617461204E6F2E0054454D502020202031
:1002D600303031004241434B5550330054454D5068
:1002E60044415441202020004241434B5550332085
:1002F6002020200046696C652044415441344B203F
:100306006F70656E6564204F4B0D0A00526561641F
:100316002044415441344B204F4B0D0A005772691B
:1003260074652044415441344B204F4B0D0A00461E
:10033600696C652054454D5044415441206F7065A9
:100346006E6564204F4B0D0A005772697465205420
:10035600454D5044415441204F4B0D0A00555044E1
:1003660041544533007066662054657374352E001B
:10037600526573756C743A00546573743320646FF8
:100386006E652E000BFA2BFA01002D4E414E0049E8
:100396004E46000080C004000A005001000007001D
:1003A60020092D020000010027095E0100001E0041
:1003B600280949020000010046095E01000001000B
:1003C60047095E01000007004809670200001E0099
:1003D6004F094902000001006D095E01000001009D
:1003E6006E095E01000007006F096E020000010041
:1003F60076095E010000070077098C020000010003
:100406007E095E01000009007F09AA0200000100C2
:1004160088095E01000009008909AA0200000C0093
:100426009209CE02000001009E095E01000007004D
:100436009F098C0200000900A609AA02000001001B
:10044600AF095E0100000700B0096E020000080057
:10045600B709DA0200000100BF095E0100000700CB
:10046600C0096E0200000800C709DA020000010098
:10047600CF095E0100000C00D009E2020000010075
:10048600DC095E0100000900DD09AA02000009007E
:10049600E609AA0200000100EF095E0100000C0057
:1004A600F009EE0200000100FC095E0100000700F1
:1004B600FD098C0200000800040ADA0200000100AF
:1004C6000C0A5E0100000C000D0AE20200000100A9
:1004D600190A5E01000009001A0AAA0200000900B2
:1004E600230AAA0200001E002C0A4902000001008D
:1004F6004A0A5E0100001E004B0A49020000010084
:10050600690A5E01000007006A0A67020000180017
:10051600710AFA0200000100890A5E01000011005A
:100526008A0A1203000001009B0A5E0100001E00F9
:100536009C0A490200000100BA0A5E010000070099
:10054600BB0A670200001800C20AFA020000010096
:10055600DA0A5E0100001200DB0A23030000010034
:10056600ED0A5E0100001E00EE0A490200000100CD
:100576000C0B5E01000009000D0BAA0200001A0018
:10058600160B350300000100300B5E01000014005D
:10059600310B4F0300000100450B5E010000010016
:1005A600460B5E0100000900470BAA020000080086
:1005B600500B630300000200880D8A03000002004E
:1005C6008A0D8C0300000100910D8E0300000200CD
:1005D600950D9A0300000000F894EE27ECBBF1E0BD
:1005E600F5BFE5BFE0936C008DE0A2E0BB27ED937D
:1005F6008A95E9F780E090E1A0E0B1E0ED930197FC
:10060600E9F7ECE9F3E0D0E0DBBF8791979100973B
:1006160081F0A791B79107901790C791D791BF0125
:10062600DBB7F001CBBF07900D920197E1F7FB0115
:10063600EBCFEFEFEDBFE0E1EEBFC0E2D9E00C9407
:10064600E2050C942C0622960895AA932597AD816F
:10065600A53610F0E4E6ED83ED810E94FC12AE8132
:10066600A03010F0A83008F03EC00E940313E0E26C
:10067600F9E0FA93EA93A7E2B9E0E5DFEE81E0302C
:1006860029F4A4E3B2E080E090E004C0ACE3B2E079
:1006960080E090E00E94B312A4E6B0E00E941D162E
:1006A6000E940813A7E4B2E080E090E00E94B31233
:1006B600EE810E94FC120E940813E0E0EA93A1E09A
:1006C6000E946C12EE81ACE8B0E080E0FF2766275E
:1006D60077270E945E160E945E160E9427160E94C9
:1006E600EC160E94B312BBCFAA93A6971A930E9448
:1006F6000B13ACA5BDA50E94BC101E2F103019F01F
:100706001A93A5E1A2DF0E940B13DE0153960E9405
:10071600EC101E2F103019F4AA8DA03009F423C056
:10072600E98DE071F9F4EFA1E03069F0E8A5F9A5EB
:10073600FA93EA93DE015C960E941312E03011F4FC
:10074600E1E012C00FC0E8A5F9A5FA93EA93FE010D
:100756007C96FA93EA93A6E00E943312E03011F4F5
:10076600E1E002C0D0CFE0E01881AC9608951A937C
:1007760010E00E94101341F4E8E2F9E0FA93EA93DC
:10078600A6E4B9E060DF02C00E941713E7E4F9E0CF
:10079600FA93EA93E8E4F9E00E941B131E2F103047
:1007A60019F0E0E00C943606E1E00C9436060E945F
:1007B6001F1710E000E030E00E94101341F4EFE450
:1007C600F9E0FA93EA93ADE6B9E03DDF02C00E9494
:1007D6001713EEE6F9E0FA93EA93EFE6F9E00E94E2
:1007E60020131E2F0E940313103029F0A5E7B2E054
:1007F60080E090E004C0A1E8B2E080E090E00E94D2
:10080600B3120E942513E6E7F9E0FA93EA93E7E7C5
:10081600F9E00E9420130E2F0E940313003029F0E6
:10082600A3E9B2E080E090E004C0AFE9B2E080E086
:1008360090E00E94B3120E942513EEE7F9E0FA93C6
:10084600EA93EFE7F9E00E9420133E2F0E9403137C
:10085600303029F0A3EBB2E080E090E004C0A1ECD8
:10086600B2E080E090E00E94B3120E94251310309F
:1008760009F463C0003099F1303069F0E8E8F9E036
:10088600FA93EA93E9E8F9E0FA93EA93A2E9B9E080
:100896000E9426117E2EEEE9F9E0FA93EA93EFE93B
:1008A600F9E0FA93EA93A6EAB9E00E94291311F057
:1008B600E1E07DC0EFEAF9E0FA93EA93E0EBF9E0D4
:1008C600FA93EA93A7EBB9E00E94291311F0E1E04D
:1008D6006EC0303011F0E3E06AC0E0E068C030304E
:1008E60051F1EFEBF9E0FA93EA93E0ECF9E0FA93D1
:1008F600EA93A7ECB9E00E94291311F0E1E057C092
:10090600EFECF9E0FA93EA93E0EDF9E00E941B13AD
:10091600E03079F0ECEDF9E0FA93EA93EDEDF9E0E9
:10092600FA93EA93A6EEB9E00E94291311F0E1E0EA
:100936003EC0E0E03CC0E1E03AC0003011F03030AB
:1009460009F434C0EFEEF9E0FA93EA93E0EFF9E048
:100956000E941B13E03079F0ECEFF9E0FA93EA938A
:10096600EDEFF9E0FA93EA93A4E0BAE00E942913C6
:1009760011F0E1E01CC0ECE0FAE0FA93EA93EDE056
:10098600FAE00E941B13E03079F0E9E1FAE0FA930D
:10099600EA93EAE1FAE0FA93EA93A3E2BAE00E9464
:1009A600291311F0E1E003C0E0E001C0E4E00E9499
:1009B600261724960895BA93AA930E94101341F419
:1009C600EBE4FAE0FA93EA93A9E6BAE03CDE02C069
:1009D6000E941713AAE6BAE00E941B0D7E2EE03095
:1009E60041F4E1E7FAE0FA93EA93A9E8BAE02BDEEC
:1009F60003C07A92A2E029DE0E942E130E94D70F2E
:100A06007E2E0E9433130E943813AC81BD810E9452
:100A1600600D7E2EE03041F4EAE8FAE0FA93EA93BC
:100A2600ABE9BAE010DE03C07A92A3E00EDE39C06D
:100A3600BA93AA930E94101341F4ECE9FAE0FA93F0
:100A4600EA93AAEBBAE0FFDD02C00E941713ABEBF4
:100A5600BAE00E941B0D7E2EE03041F4E2ECFAE093
:100A6600FA93EA93AAEDBAE0EEDD03C07A92A2E029
:100A7600ECDD0E9433130E943D130E943D13AE81AC
:100A8600BF810E945C0F7E2EE03041F4EBEDFAE070
:100A9600FA93EA93ADEEBAE0D6DD03C07A92A3E00C
:100AA600D4DDE0E02A960895AA9324970E94421383
:100AB6000E944C13A030E2E0BE07E0E08E07E0E0C3
:100AC6009E0768F4E091580BF091590BE857F44FE4
:100AD600AC81A083A8E5BBE00E945513E9CF0E9434
:100AE6004213ED81FE816F8178850E944C130E942E
:100AF600181738F5E8E8FBE0FA93EA930E945E13CC
:100B06000E94F2160E946713A8E0B0E091DFE03081
:100B160011F0E1E017C0E0E0F2E08E169F0610F457
:100B2600E2E010C00E945E13E050FE4F6F4F7F4F11
:100B3600E093580BF093590B60935A0B70935B0B31
:100B4600D0CFE0E0299608952A978AE0A0E0B0E0A9
:100B5600E4E5F1E060E00E942B171A9328DE1E2FD1
:100B6600103011F0E1E028C002DE1E2F103011F027
:100B7600E2E022C0E0E0F0E160E070E00E94F21600
:100B8600A0E292DF1E2FE03011F0E5E015C00E94D2
:100B96000B130E946C134CDF1E2FE03011F0E6E0C1
:100BA6000BC00E940B130E946C1305DF1E2FE03052
:100BB60011F0E7E001C0E12F18812B960895D1507E
:100BC6007894A895A0E10E94CD120E947B120E9403
:100BD6007B12ABE6B3E080E090E00E94B312A895EA
:100BE600B3DF3E2F0E940313A6E7B3E080E090E058
:100BF6000E94B312E32FE05DE883E0E0E9830E9400
:100C06000813A5EFB2E080E090E00E94B312ACEDCD
:100C1600B5E00E941D163A93A0E013DD0E9403136F
:100C2600AEE7B3E080E090E00E94B312FFCFFFCFC3
:100C3600E7B3E760E7BBE8B3EF60E8BBE0E5EDB933
:100C4600E1E0EEB90895AA93E881EFB9A895779BFC
:100C5600FECF219608951A93A895EFEFEFB9779BEB
:100C6600FECF1FB1E12F19910895F5DF08950E9477
:100C7600F7161A930A93EE81E07849F0EE81EF7742
:100C8600EE83E7E70E9479130E2F023070F5C09AC3
:100C9600E2DFC098E0DFAE810E948013E8E10E94A7
:100CA6004016AE2FD0DF0E9487130E946316AE2F28
:100CB6000E948013E8E00E944016AE2FC4DFAA818E
:100CC600C2DF11E0AE81A03409F415E9AE81A83483
:100CD60009F417E8A12FB7DF1AE0BDDF0E2F07FFD3
:100CE60002C0115009F401C0F8CFE02F1981088124
:100CF6002796089524970E941D1720E0253008F0B6
:100D06008BC096DF14E6103019F0A5DF1150FBCF2B
:100D160030E0E0E40E947913E13009F072C0E8E4C3
:100D2600EA93AAEAB1E080E090E0A1DFE13009F0C1
:100D360044C010E0143050F40E948C13FF93EF93DC
:100D46008ADFAF91BF91EC931F5FF4CFA885A130E6
:100D560019F4A985AA3A09F02FC040EE5EE2042EE6
:100D6600052A49F0E9EEEA93A0E0B0E080E090E4DD
:100D76007EDFE03009F403C041505040F0CF042E2E
:100D8600052A29F0EAE70E947913E03009F014C039
:100D960010E0143050F40E948C13FF93EF935BDF46
:100DA600AF91BF91EC931F5FF4CFEE81E07411F029
:100DB600ECE001C0E4E03E2F24C0E9EE0E94791386
:100DC600E23018F432E009EE02C031E001E448EA0C
:100DD60051E6042E052A31F00A930E94931347DF49
:100DE600E03009F403C041505040F3CF042E052AE9
:100DF60039F0E0E5EA930E94981339DFE03009F014
:100E060030E030938C0D31DF303031F42F5FA8ECB9
:100E1600B0E00E941D1672CF303011F0E0E001C044
:100E2600E1E035C40E949D13E0918C0DE87041F419
:100E36000E94A2130E94A713E887F9876A877B8717
:100E460011E0E1E5EA930E94AB1311DFE03009F00F
:100E560047C020E335E7FFDE0E2F0F3F19F4215080
:100E6600304009F401C0F7CF0E3FD1F5AE81BF8106
:100E7600E2E0F2E0EA1BFB0BDF01EC81FD81AE1B39
:100E8600BF0B9D01EE81FF81309739F0E4DEEE81E4
:100E9600FF813197EE83FF83C9F7EC85FD85309797
:100EA60099F0EC85FD853196EC87FD873197FF93A8
:100EB600EF93D1DEAF91BF91EC93EC81FD81319739
:100EC600EC83FD8371F706C0EC81FD813197EC83DD
:100ED600FD83D1F7C0DEF90131979F01D9F710E004
:100EE600C4DEE12F0E94261773C30E94F7160E94E4
:100EF6001F1711E0E885F9853097F9F02C813D81BF
:100F0600022E032A31F0E0918D0DF0918E0D30976F
:100F160009F411C0A885B985ED91A887B987AE2FC8
:100F260092DEADE8BDE0ED91FD913197FE93EE9333
:100F360021503040E5CF10E049C00E94B0130E9416
:100F4600091709F1E0918C0DE87041F40E94B01385
:100F56000E94A713EC83FD836E837F83E8E5EA9303
:100F6600AD81BE818F81988582DEE03059F4AFEF86
:100F76006ADEAEEF68DEE0E0F2E0E0938D0DF0931E
:100F86008E0D10E023C0E0918D0DF0918E0D3296FE
:100F96009F01F90121503040309719F0A0E053DE4F
:100FA600F8CF59DEEF71E53081F428EE3DEF53DEE0
:100FB600EF3F19F0022E032A09F403C021503040F6
:100FC600F6CF022E032A09F010E04FDEE12F0E9431
:100FD60026175FC3BA93AA931A930A930E811F81A9
:100FE600EA81FB813197EA83FB83319649F01F93AF
:100FF6000F930F5F1F4FEC81AF91BF91EC93F0CF32
:1010060019810881B4C30E94B5130A851B852885FA
:10101600398540E050E0EE81FF813197EE83FF8312
:10102600319681F0D8010F5F1F4F0C901124D90122
:101036002F5F3F4FAC91BB27F001EA1BFB0BAF01C3
:10104600309709F001C0E7CFFA010E9424172C96C9
:1010560008950E94F71626970E941D170E94BA133C
:10106600EE83FF830E94BF130E94C41350F0AE812B
:10107600BF8118960E94D7160E94BF130E941817A8
:1010860008F0A0C0AE81BF81EC91F0E0E130A0E0B5
:10109600FA0709F047C02C853D85F901F695E795D5
:1010A6002E0F3F1FF901F170AF01D901E0E0F2E028
:1010B6000E9497169F01EFEFF1E0E417F50749F05C
:1010C6000E94CC135A934A930E94DE1309F07AC009
:1010D6001BC00E94CC13EFEFF1E00E94E41309F06D
:1010E60071C0FE0139960E94EC13F9010E94F513B6
:1010F600EF5FFF4F6F4F7F4F0E94F216E0E0F0E088
:101106000E94E41309F05EC008851985EC85E1703C
:1011160021F0F8010E94551602C0F801FF706627FB
:10112600772754C0E230A0E0FA0709F5FE013896A9
:101136000E94EC139F938F93BF93AF930E94FA1371
:10114600E0E0F1E060E070E00E94AA16AF91BF9186
:101156008F919F910E94FF13F070EE0FFF1F0E9468
:10116600061481F5E885F985662777272FC0E330D1
:10117600A0E0FA0739F5FE0138960E94EC139F931A
:101186008F93BF93AF930E94FA13E0E8F0E060E01C
:1011960070E00E94AA16AF91BF918F919F910E9415
:1011A600FF13EF77F0700E945016FA93EA93A4E0CB
:1011B6000E94091439F40E94A213EF7FFF7F6F7F0C
:1011C6007F7004C0E1E0F0E060E070E00E94241768
:1011D600609608950E94F7160E940E140E948713C7
:1011E600E250F040604070400E941514F801A0855E
:1011F600B18582859385E2E0F0E060E070E00E94D0
:10120600FC160E942C160E941A140E94181728F029
:101216000E941F1419810881E6C2F801E181F0E0FD
:101226000E941A140E946D160E9477167F936F9380
:10123600FF93EF93D80154960E94D716AF91BF91B2
:101246008F919F910E94271619810881CCC2BA936B
:10125600AA9324970E940E14AE81BF810E94241483
:10126600AE81BF8114960E9429140E941A14A130DF
:10127600E0E0BE07E0E08E07E0E09E0749F0D80117
:1012860018960E94D7160E941A140E94181720F06A
:10129600E1E0198108816BC20E9487130E94091739
:1012A60021F4D801AC91A33009F004C0D8015096BE
:1012B6000E9429140E948713AE81BF8118960E944E
:1012C600E2160E9487130E94091721F00E941A1441
:1012D60081DF04C0D80150960E94D716AE81BF8127
:1012E6001C960E94E216E0E01981088140C2BA937A
:1012F600AA9324970E942C14A885B9850E94D31618
:1013060031968F01002E012A19F00E94331421F420
:10131600E3E00E942617BDC1F801EF7009F055C041
:10132600A885B9851C960E945513A885B985189677
:101336000E94D7160E94091761F4D90114960E94DB
:10134600D3160E171F0720F0E3E00E942617A1C14F
:101356003CC0F8010E945516DF01F901E181F0E079
:101366003197EA23FB23309781F5E885F985A08537
:10137600B185828593856DDEEC83FD836E837F83E5
:101386000E942E130E94C41320F4E1E00E94261747
:1013960080C1D90118960E94D7160E942E130E946A
:1013A600181720F0E3E00E94261773C10E94B013BD
:1013B600A885B98518960E94E2160E942E130ADFA8
:1013C600A885B9851C960E94E216A885B9850D9355
:1013D6001C93E0E00E9426175CC10E949D13AC811D
:1013E600BD8135DF1E2F103019F00E942617FBC174
:1013F6000E943B142D913C913A932A93EE81FF81F2
:101406000E944114AA85BB850E94481411F0E1E0B0
:1014160001C0E0E01E2F1030F9F4D9010C91003024
:1014260011F413E019C0F901E385E87069F43A9301
:101436002A93EE81FF81A281B381BA93AA93ABE08E
:10144600B0E0E1DD309709F001C006C0AC81BD8196
:101456004EDF1E2F103081F2E12F0E942617C3C1E6
:101466000E94B51313E00E943B144D915C91AE812E
:10147600BF811C960E94D7160E94091749F15A93FC
:101486004A93E885F9850E944114AC85BD850E9482
:10149600481411F0E1E001C0E0E01E2F1030C1F465
:1014A600DA013C91303011F413E012C0FA01E38501
:1014B600EF730E2F353E21F03E3211F003FF01C0CF
:1014C60001C006C0AE81BF8112DF1E2F103079F237
:1014D600103021F0AE81BF810E945314E12F0E948B
:1014E600241745C1BA93AA9324970E941D17AC8569
:1014F600BD8512960E94D316E887F9870E9433139A
:10150600E0E2F0E0FA93EA93ABE0B0E063DDE0E01E
:101516005E2F2E2F38E0AA85BB850E94D316EE8358
:10152600FF830E9458141C91113210F01F3209F4E7
:1015360039C01E3211F0531740F0383011F41E3204
:1015460009F030C058E03BE02CC0103858F0E12FCD
:10155600F0E0E058F04066277727E053FF4F6F4FE3
:101566006BBF1691E0E0E03041F0E32FF0E03197F9
:10157600A52FB0E0AE17BF070CF40AC00E9458149E
:101586000C910E94601410830E946014008309C0AD
:10159600113610F01B3708F001C010520E9460147B
:1015A6001083BFCFE22FAE81BF81F0E0EA0FFB1FB1
:1015B600AA85BB85ED93FC93113210F4E1E001C0DE
:1015C600E0E0A885B9851B96EC93E0E00E9424171D
:1015D6002E9608950E94B513EE81FF813996AF01CC
:1015E6000E94331409F450C00E943B142D913C9183
:1015F60010E0183080F40E94681469F0053009F490
:1016060005EE5F934F934F5F5F4FE02FAF91BF9112
:10161600EC931F5FEECFF901A085A032A9F0DA01A5
:101626004F5F5F4FEEE2EC9318E01B3068F40E94C8
:10163600681451F05F934F934F5F5F4FE02FAF9168
:10164600BF91EC931F5FF1CFF901E385AE81BF81B6
:101656001896EC93D9015C960E94D716AE81BF818D
:101666000E94E216D90158960E94D316AE81BF8118
:101676001496ED93FC93D90156960E94D316AE812B
:10168600BF811696ED93FC93DA01E0E0EC930E949D
:1016960024172A9608950E949D13AC81BD81AC91B2
:1016A600A03231F4EC81FD813196EC83FD83F5CFD8
:1016B600AC81BD81AC91AF3229F4EC81FD813196CC
:1016C600EC83FD83AE81BF8114960E946F14AC81BA
:1016D600BD81AC91A13258F4AE81BF81B8DD1E2F19
:1016E6000E94BA13A681B781E0E0EC933DC00E9448
:1016F6003D13DE011696F6DE1E2F1030A9F5AE81DB
:10170600BF816BDE1E2F103041F0133019F40E949A
:10171600731409F001C014E027C00E94731421F568
:101726000E943B142D913C91F901E385E07111F47F
:1017360014E01AC0D90154960E947B140E946816C0
:101746007F936F93FF93EF93D9015A960E94D31616
:10175600AF91BF918F919F910E948014AE81BF81FE
:1017660014960E94E216C3CFE12F0E9426172896F0
:1017760008950E94F7160E9438130E948514EEEF12
:10178600F1E00E94061411F0E3E02DC00E948914D6
:10179600E535AAEAFA0711F0E2E025C00E943813FF
:1017A6000E948514E6E3F0E00E94061431F40E94DC
:1017B6008914E634A1E4FA0709F002C0E0E013C098
:1017C6000E9438130E948514E2E5F0E00E94061498
:1017D60031F40E948914E634A1E4FA0709F002C044
:1017E600E0E001C0E1E026960895BA93AA93E49753
:1017F6001A93E0E0E0938F0DE093900DEDA9FEA91A
:10180600309709F411C176DAE17011F0E2E00DC10A
:10181600E0E0ED87EE87EF87E88B0E948E140E944A
:1018260093141130E9F40E948E140E949B14EEEB7F
:10183600F1E0FA93EA93A0E10E94091411F013E093
:101846000FC0ED89E03061F0E98DFA8D6B8D7C8DEE
:10185600ED87FE876F87788B0E948E140E94931403
:10186600133011F4E1E0E1C0103011F0E7E0DDC023
:101876000E948E140E949B14EDE0F0E0FA93EA9326
:10188600A4E20E94091411F0E1E0CFC0FE01B79670
:101896003D97DF010E947B140E94A2140E94A714A8
:1018A6000E94091741F4FE01F5963D97DF010E945B
:1018B600D7160E94A214EC89F0E00E94AB130E9496
:1018C6006D160E9477160E94A2140E94AC14AD8574
:1018D600BE858F8598890E94F513ADA9BEA91C9671
:1018E6000E94E216E989ADA9BEA91196EC93FE0104
:1018F600B2963D97DF010E94D316ADA9BEA91496F4
:10190600ED93FC93FE01B4963D97DF010E947B1494
:10191600ED83FE836F8378870E94091751F4FE01D9
:10192600F1963D97DF010E94D716ED83FE836F8304
:1019360078870E94AC14AD81BE818F819885662719
:1019460077270E94FC160E942C160E94AB130E9459
:101956002C167F936F93FF93EF930E94B314AF916E
:10196600BF918F919F91662777270E943116EDA927
:10197600FEA90E94BB140E94AA16EE5FFF4F6F4F8E
:101986007F4FE983FA836B837C83ADA9BEA9189642
:101996000E94E21611E0A981BA818B819C81A73F42
:1019A600EFE0BE07E0E08E07E0E09E0708F012E0F9
:1019B600A981BA818B819C81A73FEFEFBE07E0E04A
:1019C6008E07E0E09E0708F013E0ADA9BEA91C93C0
:1019D600133029F4E8A9F9A96AA97BA902C00E94D3
:1019E600C014ADA9BEA950960E94E2160E94C0146A
:1019F6007F936F93FF93EF930E94B314AF91BF91C0
:101A06008F919F910E94F513ADA9BEA954960E948D
:101A1600E216ADA9BEA91296E0E0EC93EDA9FEA9E7
:101A2600E0938F0DF093900DE0E01881E79608950E
:101A3600BA93AA93EC970E942C14022E032A11F44F
:101A4600E6E036C0D9011296E0E0EC930E94CA1493
:101A5600EAABFBABFE01F096FA93EA93DE01AE5BCE
:101A6600BF4F0D90BC91A02D16DE1E2F103009F031
:101A76001FC0EC81E03019F0EF85E07111F0E3E072
:101A860017C00E94D314D90190960E94E216E8A1CD
:101A9600F9A16AA17BA1D9015C960E94E216D9013F
:101AA60058960E946F14D9011296E1E0EC93E0E09B
:101AB6000E942617EF9623960895BA93AA932E9717
:101AC6000E941D17288D398D0E94BA13EE83FF835D
:101AD600AC89BD890E942414EE81FF81309711F4F0
:101AE600E6E0D6C0EE81FF81A281A17011F4E5E0A7
:101AF600CFC0EE81FF81A48DB58D868D978D9F9386
:101B06008F93BF93AF930E94DE14EF91FF916F9175
:101B16007F910E942C16E887F9876A877B870E9447
:101B2600A213AE89BF89882799270E94131720F42C
:101B3600E885F985EE8BFF8BEE89FF89309709F4EE
:101B4600A1C00E94DE14FD01BC01F170309709F0BE
:101B56004DC00E94DE140E94E514EE81FF810E94B2
:101B6600BB140E94CF160E94091741F50E94DE148D
:101B76000E940D1731F4AE81BF8190960E94D71650
:101B860003C00E94EE1465DAE88BF98B6A8B7B8BB7
:101B9600A889B9898A899B890E94C41308F474C0EC
:101BA600E889F9896A897B89AE81BF8194960E940A
:101BB600E216AE81BF811396E0E0EC930E94EE142C
:101BC60009DBEC87FD876E877F870E94091709F47A
:101BD6005BC0AE81BF810E94F5140E94BF130E94B4
:101BE600FC14AE81BF8198960E94E216EE81FF81B9
:101BF6000E940115A0E0B2E0AE1BBF0BAD01EE895D
:101C0600FF89E417F50710F44E895F89E88DF98D91
:101C1600309719F4E0E0F0E001C0F901FA93EA9395
:101C2600E885F985A0A5B1A582A593A50E94F7161A
:101C3600AC85BD8558960E94D316F170FA93EA9347
:101C4600DA01F0D81E2F1030F9F4EE81FF810E94E0
:101C56000615DF01CB01FA010E94F513D0010E949F
:101C6600E216240F351FEE89FF89E41BF50BEE8B78
:101C7600FF8BAC89BD89ED91FD91E40FF51FFE93B5
:101C8600EE935ACFE0E004C0AE81BF810E940C15EE
:101C96000E9424176A960895BA93AA932C970E94D5
:101CA6001D170E891F8940918F0D5091900DAA899D
:101CB600BB890E942414042E052A11F4E6E0F5C01F
:101CC600FA01A281A17011F4E5E0EFC0EC89FD896B
:101CD6003097A1F4FA01A281A07439F00E9411157F
:101CE6000E94931302D9E03009F401C0DBC0DA0187
:101CF6001296EC91EF7BEC93E0E0D7C0FA01A2815B
:101D0600A07441F4DA015896ED91FD91E070FE7FE2
:101D1600FE93EE93FA01A48DB58D868D978D9F93D4
:101D26008F93BF93AF930E941615EF91FF916F911A
:101D36007F910E942C160E941C15AC89BD898827AC
:101D460099270E94131720F4EE81FF81EC8BFD8BFF
:101D5600EC89FD89309709F4A3C0FA010E940115A8
:101D6600309709F059C00E9416150E94E514FA0131
:101D76000E94BB140E94CF160E94091711F50E94FB
:101D860016150E940D1729F4DA0190960E94D716AF
:101D960006C0FA01A4A1B5A186A197A15AD90E94AD
:101DA60021150E94FA130E94C41308F47BC00E94F6
:101DB6002615DA0194960E94E216DA011396E0E0FF
:101DC600EC93FA01A4A1B5A186A197A103DAEA874B
:101DD600FB876C877D870E942B150E94091709F4E3
:101DE60061C0DA010E94F5140E9430150E94FC14AD
:101DF600DA0198960E94E2160E941115FA01A0A532
:101E0600B1A582A593A571D8E03009F04BC0DA01DF
:101E16001296EC91E064EC93FA010E940115A0E0A1
:101E2600B2E0AE1BBF0B9D01EC89FD89E217F307FB
:101E360010F42C893D891A930A93D901882799278A
:101E460054D8E03079F5FA010E940615DF01CB017E
:101E5600F9010E94F513D0010E94E216020F131F2A
:101E6600EC89FD89E21BF30BEC8BFD8BAA89BB8900
:101E7600ED91FD91E20FF31FFE93EE93FA010E949E
:101E86000115309761F40E9411150E9493132DD805
:101E9600E03041F4DA011296EC91EF7BEC9358CFE7
:101EA600E0E003C0DA010E940C150E942417689630
:101EB6000895BA93AA932297D2500E941D170E94A2
:101EC60035159F0140E050E00E94BA13EE83FF8370
:101ED6000E943D15A130E2E0BE0710F0E1E05FC0D0
:101EE6000E944415E0E0F2E00E949716EE0FFF1FF5
:101EF600FE2FE0E066277727DF01CB0155D01E2FA6
:101F06000E9435150E943D15AE0FBF1FA130E2E0BD
:101F1600BE0708F10E944B150E944415CEDD1E2F08
:101F2600103009F03CC02030E2E03E0738F40E9451
:101F360050152F5F3F4F4F5F5F4FF5CF0E94DE1466
:101F46000E9463150E944B150E946B1511F0E12F3C
:101F560026C020E030E00E944B150E944415ADDDFE
:101F66001E2F0E94DE140E946315103011F0E12F1F
:101F760016C0FE01E65FFD4F0190F081E02D4E1781
:101F86005F0738F40E9450152F5F3F4F4F5F5F4F3A
:101F9600F0CF0E944B150E946B1509F0E12F0E94AD
:101FA60024176096DE5F08950E94F71660970E94D8
:101FB6000E14002E012A11F4E6E0D7C0F801A28122
:101FC600A17011F4E5E0D1C0D8015C960E947115AC
:101FD6000E94131740F4D8015C960E94D716EA8B2C
:101FE600FB8B6C8B7D8BD80158960E942914D801E7
:101FF60058960E946F140E9478150E940D1708F0DB
:10200600AFC0F8010E94BB140E94A713EA87FB87A2
:102016006C877D870E941A140E940D1798F40E94FF
:102026007D150E9482157F936F93FF93EF930E9415
:1020360087130E948215AF91BF918F919F910E9445
:10204600181708F423C00E9487130E948C15DF011D
:10205600CB010E942B150E948C150E9472160E94BD
:102066003616D80158960E94E216D80158960E9454
:1020760071150E943116AA8BBB8B8C8B9D8BD80158
:1020860094960E94D7160E94211508C0D8019096F2
:102096000E94D7160E9421150E9491150E942B15A9
:1020A6000E9478150E94131760F50E94FA130E9489
:1020B6002C080E9421150E94FA130E94C41348F0AE
:1020C600D80118960E94D7160E94FA130E94181774
:1020D60008F048C00E949115F8010E9406150E945A
:1020E60030150E942716D0010E94E2160E94301574
:1020F6000E947D150E942C16EA8BFB8B6C8B7D8BC8
:10210600CDCFF8010E9406150E9478150E94271669
:10211600D0010E94E2160E94FA135CD80E941C1598
:102126000E940917F9F00E947815E0E0F2E060E0FD
:1021360070E00E94AA16D8011396EC930E947D15B2
:10214600F170309769F0D8010E94F514AE81BF8115
:10215600888599850E94FC14D80198960E94E216FB
:10216600E0E003C0D8010E940C151981088166962B
:102176000895BA93AA93AC970E942C14022E032AB0
:1021860011F416E025C00E94CA14AAA9BBA912968A
:10219600ED93FC930E9497157EDA1E2F1030A9F45A
:1021A600EC81E03061F0EF85E07141F00E94D314DC
:1021B600AAA9BBA914960E94E21601C014E0103029
:1021C60021F4AAA9BBA943D81E2F133009F414E0A1
:1021D60035C0BA93AA93AC970E942C14022E032AF8
:1021E60011F416E02BC00E94CA14AAA9BBA9129624
:1021F600ED93FC93E8A9F9A9309729F4AAA9BBA9FC
:1022060026D81E2F1BC0AAA9BBA92AD91E2F133058
:1022160029F4AAA9BBA90E94531410E0103071F446
:102226000E949715D7D9AAA9BBA961D81E2F13302A
:1022360029F4AAA9BBA90E94531410E0E12F0E9419
:102246002617E4960895BA93AA93A897D2500E94A7
:102256001D170E949E150E94A41509F0ADC00E948C
:10226600AF150E942712AF010E949E150E94B61557
:1022760031F4FE01E85EFD4FA185A03011F433E094
:102286006FC00E94BE150E94C515A417B5078CF431
:102296000E94CC151C900E94D4150E94AF15AE0F5B
:1022A600BF1FEC91E11511F033E003C00E94DB156E
:1022B600EACF0E94D415E417F50709F04FC0FE01D6
:1022C6003696FA93EA930E94E4150E94F2160E944B
:1022D6001115A0E0B2E00E9415073E2F303009F03C
:1022E6003FC00E94EC150E942712AF010E94BE1546
:1022F6000E94C5151B97C4F40E94C515A417B507FF
:1023060054F40E94F315EA0FFB1FBF010E94051645
:10231600EC91DB0105C00E94F315AE0FBF1FE0E292
:10232600EC930E94DB15E4CF0E9411150E94E41580
:10233600DF01CB010E940A1699F4FE013696FA9344
:10234600EA930E9498130E940A1651F40E941115EE
:102356000E9493130E940A1619F402C033E084CF38
:10236600303051F50E949E150E94A41529F50E9451
:102376009E150E94B61531F4FE01E85EFD4FA1855B
:10238600A03009F419C00E94BE150E94C515A417F5
:10239600B5076CF40E94CC151C910E9405160C9191
:1023A600011711F033E003C00E94DB15EECF0E9447
:1023B600D415E417F507D9F6E32F0E942417E496FF
:1023C600DE5F0895BA93AA93A991B991E991F9911B
:1023D60030962AF4E095F09531966DE26D93E89487
:1023E60080E197E20DD088EE93E00AD084E6992743
:1023F60007D08AE005D06E2F10D066276C9308951B
:102406006627E817F90720F06395E81BF90BC9F76B
:10241600662311F416F008956894605D6D9308952F
:10242600BA93AA93E991F991A991B9916D91719194
:10243600671721F46623D1F7EE270895671BE1F3AA
:10244600E1E008F4E2500895BA93AA93A991B991EC
:10245600EE27FF276D91662311F03196FBCF089585
:10246600AA93662777278991E991F991A991B9915C
:10247600882349F08A956D917191671721F4662337
:10248600B9F7EE270895671BE1F3E1E008F4E2509F
:102496000895AA93E5B3EF70AE2FE881E07FEA2BAB
:1024A600E5BB81E18A95F1F7A99A81E18A95F1F771
:1024B600A99881E18A95F1F79AC0AA93A881E9DFE4
:1024C600E881E295E883A881E4DF87EA8A95F1F757
:1024D6008EC0AA93E881F0E0EB56F24FE081A98125
:1024E600AE0FEBDF6980E881E093990D229608959F
:1024F600A2E00E940F16ACE0E0DFA1E00E940F16FA
:10250600E0E0E093990D6E2E0895AA93A881AA3073
:1025160021F0E0919A0D6E1660F0E0E0EA93A0914A
:10252600990DAF5FA093990DD4DFA881AA3009F465
:102536005EC06394AA9AA881C0DFAA9858C0BA93CD
:10254600AA931A93A981BA81ED91A983BA831E2F02
:10255600E03019F0A12FD9DFF5CF18812396089521
:102566000E94F7161A93DE0111960E94DD16EF5FA0
:10257600FF4F6F4F7F4F0E94E7160E948C156BBF6F
:10258600E6911E2FE03019F0A12FBFDFECCF1881A6
:1025960025960895AA93E4B3E06FE4BBA19AA29AA4
:1025A600A39AA998AA98AB98E881E0939A0DE05867
:1025B600E093970DE881E054E093980DA4E1B0E034
:1025C6000E941D160E9415160E9415160E941516C9
:1025D600A0E25FDF8AEF90E00197F1F7A8E26DDFF6
:1025E600A4E06BDFA5E869DFA6E067DF81DF21965F
:1025F6000895F0E0FA93EA93DE0112960C94E51141
:10260600E0E0EA93A0E00C946C12DE010C94A212B6
:10261600FE013196FA93EA930895ACE5BBE00E9479
:10262600F80B7E2E772008957A92A1E00C94280369
:10263600FA93EA93A1E00C947703FA93EA93A0E065
:102646000C947703A8EEB3E00C941D160E94261195
:102656007E2EE0300895AC81BD818E819F810895E4
:10266600E885F985FA93EA930895EC81FD81FA935A
:10267600EA930895EE81FF81FA93EA930895E0E0E4
:10268600E093580BE093590BE0935A0BE0935B0BE6
:102696000895A091580BB091590B80915A0B9091C7
:1026A6005B0B08950E94DD16EF5FFF4F6F4F7F4F64
:1026B6000E94E7160895E091580BF091590B60912E
:1026C6005A0B70915B0B0895E0E0F2E0FA93EA93FF
:1026D6000895E0E0F0E060E070E00E94F216E5E0C8
:1026E600F0E0FA93EA93A8E0B0E00895EA93A0E058
:1026F600B0E080E090E00C943A060E942606AA819B
:10270600BB818C819D810895EA81FB816C817D81ED
:102716000895E12FF0E0DE011696EA0FFB1F0895FB
:10272600A0E0B0E080E090E00895A0E0B2E080E0B4
:1027360090E00895BA93AA930E941F170895E8851A
:10274600F9856A857B850895F0DF0E9477160895DE
:10275600A985BA858B859C850895EC81FD816E815E
:102766007F810895BA93AA930E941D170895E09158
:102776008F0DF091900D0895AC85BD858E859F8552
:102786000895A230E0E0BE07E0E08E07E0E09E0795
:102796000895FE013896FA93EA93E885F985A485AB
:1027A600B58586859785F901662777270E942716BE
:1027B6000E94F2160895A2E0B0E00E941507E030EC
:1027C6000895FA93EA93A1E0B0E00E941507E0307D
:1027D6000895FA93EA93E885F985A485B5858685F3
:1027E60097850895662777270E9427160895AE8550
:1027F600BF858889998908950E9427160E94F21636
:10280600EA89FB890895FA93EA93D5CFB0E00E944E
:102816001507E03008951A930A9300918F0D1091D1
:10282600900D0895EA83FB836C837D830895AA81C6
:10283600BB818C819D810895E0E0F0E060E070E06E
:102846000895E0E0F0E0ED93FC9308950E94D7161A
:10285600E9CF0E941F1720918F0D3091900D08959A
:10286600A885B9851C960E94D7160E940917089557
:10287600A0918F0DB091900D16960895A485B585FB
:10288600868597850E94F71608950E94D316EF70E5
:10289600F070EE0F0E944C16FA93EA93A0E2B6CFC0
:1028A6001C96CADF0E94E2160895E22F2F5FAE81C2
:1028B600BF81F0E0AE0FBF1F0895E52F5F5FA885CB
:1028C600B985F0E0EA0FFB1F0895D901EE27A10FA5
:1028D600BE1F0C9100320895AFDF0E94E2160895E4
:1028E600AE81BF8112960E94D316E385E03008952B
:1028F6000E94D316662777270895662777270E94B2
:102906003B16089501DF0E94F2160895AC81BD8141
:102916000E94D3160895FE017196FA93EA930895DC
:10292600AF85B88989899A890E94BC0B1E2F0895A4
:10293600EF85F88969897A890E94F2160895E987F0
:10294600FA876B877C870895E985FA856B857C8590
:102956000895FE017F963D97DF010E94D3160895E4
:10296600EDA9FEA9A481B581FD010E945516089521
:10297600E181F0E00E946D160895EDA9FEA9A485F7
:10298600B58586859785E0DF0E9427160895FE01A6
:102996003496D9011696ED93FC93FE01B4960895EC
:1029A600E88DF98D662777270E946816DF01CB012F
:1029B600EE8DFF8DA2CFEE81FF81A08DB18D828D30
:1029C600938D0895E0E0F2E060E070E00E94AA16C0
:1029D600DF01CB010895EE81FF81A4A1B5A186A1F7
:1029E60097A108951396EC91EF5FEC93E150F0E018
:1029F60008950E946D160E9427160895A08DB18D28
:102A0600FD01F170089578960F01DF010E94D71637
:102A160008951296E0E0EC93E1E00895E0E0F0E03E
:102A2600FA93EA930895FA01A08DB18D828D938D64
:102A36000895EE83FF83688779870895EE87FF8779
:102A4600688B798B0895EE85FF8568897989089565
:102A5600EA85FB856C857D850895AA85BB858C8571
:102A66009D850895FE01E45FFD4F0190F081E02D04
:102A7600F1700895DE01A65FBD4F0D90BC91A02DAB
:102A86000895DE01A45FBD4F0D90BC91A02D089561
:102A9600FE013896FA93EA9317CEF901DE011896ED
:102AA600EA0FFB1FBF01FA01DE01A25FBD4F0D90C9
:102AB600BC91A02DAE0FBF1FEC91DB01EC930895E6
:102AC600A050B240804090400E94D70F1E2F08951C
:102AD600D8DF0E944F0E1E2F103008950E94D71681
:102AE600AA89BB898C899D890895AA89BB898C8905
:102AF6009D890895EA89FB896C897D890895E1504D
:102B0600F04060407040DF01CB01A2DF0E94AA16B0
:102B16000895E150F04060407040089594DFD80178
:102B260094960E94E2160895EAA9FBA9FA93EA93FD
:102B3600AAA9BBA90895FE01E85FFD4FFA93EA939F
:102B46000895DE01AC5CBD4F0D90BC91A02D0E9496
:102B5600BC103E2F30300895DE01A05DBD4F0D90B4
:102B6600BC91A02D0895DE01A65EBD4F0E94EC101B
:102B76003E2F30300895E0E0DE01AA5FBD4FED93B1
:102B8600EC930895DE01AA5FBD4F0D90BC91A02D78
:102B96000895FE01E85EFD4F3996F4DFAE0FBF1FC4
:102BA6000895FE01EA5FFD4F0190F081E02D089542
:102BB600DE01AA5FBD4FED91FD913196FE93EE9336
:102BC6000895FE01E65FFD4F3C96DF010E94D71691
:102BD6000895DE01A25DBD4F0D90BC91A02D089514
:102BE600FE01E85FFD4F0190F081E02D3197EE0F79
:102BF600FF1F0E944C16F170C5DFEA0FFB1FDE01B6
:102C060016960895CEDFE5DFAE0FBF1F08950E942A
:102C160078073E2F303008950E946012A3E0B0E09E
:102C26000C941D16A0E30E944C128AEF90E00197C7
:102C3600F1F70895109639F0A89584EC99E001977C
:102C4600F1F71197C9F70895EA0FFB1F681F791F5F
:102C56000895EA1BFB0B680B790B0895AE1BBF0B9F
:102C6600860B970B0895EA23FB236823792308959F
:102C7600EA2BFB2B682B792B0895EE230E2EFD01F4
:102C8600BC0131F076956795F795E7950A94D1F7EB
:102C96000895EE0FFF1FEE0FFF1FEE0FFF1FEE0F43
:102CA600FF1F0895F695E795F695E795F695E7954E
:102CB600F695E7950895EE0FFF1F661F771F089597
:102CC600E62FF72F60E070E008956E2F7F2FE0E08B
:102CD600F0E008956F2F660F660B762F0895E09546
:102CE600F0956095709508957A9F702D6B9F700D85
:102CF600F89F700DE99F700D6A9F602D710DFB9F07
:102D0600600D711DE89F600D711D8827FA9FF02DDB
:102D1600610D781FEB9FF00D611D781FEA9FE02D76
:102D2600F10D681F781F08950024112490E1AA0F61
:102D3600BB1F001C111C0E1A1F0A18F40E0E1F1EB4
:102D460001C0A1609A9599F7FD01D00108953F93BE
:102D56004F935F93002411244427552730E2AA0F8E
:102D6600BB1F881F991F001C111C441F551F0E1ADC
:102D76001F0A460B570B28F40E0E1F1E461F571F21
:102D860001C0A1603A9559F7FD01BC01D001CA0105
:102D96005F914F913F910895DADFFD01BC010895DF
:102DA600ED91FC9111970895ED91FD916D917C91B6
:102DB60013970895ED91FD916D917D910895ED9391
:102DC600FD936D937C9308957E936E93FE93EE939D
:102DD60008956BBFA791B7918791969108957A93BD
:102DE6006A93FA93EA9308959A938A93BA93AA9365
:102DF6000895182E862F612D192E972F712D1B2EB3
:102E0600BF2FF12D1A2EAE2FE12D08953097604079
:102E16007040089500240A160B0608060906089550
:102E2600EA17FB07680779070895AE17BF078607F5
:102E3600970708955A934A933A932A931A930A93B3
:102E460008955D814C813B812A811981088108950D
:102E5600AC0FBD1F6BBF07900D928A95E1F70895E1
:00000001FF
