:0C0000000C94B2010C9400000C94000061
:10000C000C9400000C9400000C9400000C94000064
:10001C000C9400000C9400000C9400000C94000054
:10002C000C9400000C9400000C9400000C94000044
:10003C000C9400000C9400000C9400000C94000034
:10004C000C9400000C9400000C9400000C94000024
:10005C000C9400000C9400000C9400000C94000014
:10006C000C9400000C9400000C9400000C94000004
:10007C000C9400000C9400000C9400000C940000F4
:10008C0072010000730100007F0100007F0100007D
:10009C008A01000097010000A2010000AD010000E0
:1000AC00BD010000C7010000D0010000E20100000A
:1000BC00F5010000060200001502000026020000F7
:1000CC0036020000809A90418E418F80454545490B
:1000DC0049498E8F9092924F994F555559999A9BA9
:1000EC009C9D9E9F41494F55A5A5A6A7A8A9AAAB23
:1000FC00AC21AEAFB0B1B2B3B4B5B6B7B8B9BABB48
:10010C00BCBDBEBFC0C1C2C3C4C5C6C7C8C9CACBAB
:10011C00CCCDCECFD0D1D2D3D4D5D6D7D8D9DADB9B
:10012C00DCDDDEDFE0E1E2E3E4E5E6E7E8E9EAEB8B
:10013C00ECEDEEEFF0F1F2F3F4F5F6F7F8F9FAFB7B
:10014C00FCFDFEFF1027E80364000A00010000100C
:10015C00000110000100DBF9EBF9556E69742054B5
:10016C006573742031000046525F4449534B5F4520
:10017C0052520046525F494E545F4552520046520D
:10018C005F4E4F545F52454144590046525F4E4FAB
:10019C005F46494C450046525F4E4F5F50415448B4
:1001AC000046525F494E56414C49445F4E414D45C5
:1001BC000046525F44454E4945440046525F4558FF
:1001CC004953540046525F494E56414C49445F4F87
:1001DC00424A4543540046525F57524954455F507A
:1001EC00524F5445435445440046525F494E564184
:1001FC004C49445F44524956450046525F4E4F5459
:10020C005F454E41424C45440046525F4E4F5F465F
:10021C00494C4553595354454D0046525F4D4B463E
:10022C00535F41424F525445440046525F54494D2E
:10023C00454F5554004552524F523A2025700D0AE5
:10024C00005344204552524F523A20002C002F307C
:10025C002F756E6974746573742E747874004C6F9A
:10026C00676963616C20647269766520303A206D31
:10027C006F756E746564204F4B0D0A002573200D4D
:10028C000A0046696C65202573206372656174658C
:10029C0064204F4B0D0A002575206279746573201C
:1002AC007772697474656E206F662025750D0A006F
:1002BC0046696C65202573206F70656E6564204FF0
:1002CC004B0D0A0025752062797465732072656187
:1002DC00640D0A005265616420746578743A2022BA
:1002EC002573220D0A0070666620546573742E0007
:1002FC00546573743220646F6E652E000BFA2BFA02
:10030C0001002D4E414E00494E46000080C00400B5
:10031C000A00620100000B00BC096601000010001D
:10032C0020095A020000100030095A020000100087
:10033C0040095A0200000200C90A0803000002002A
:10034C00CB0A0A0300000100D00A0C0300000200D3
:10035C00D40A180300000000F894EE27ECBBF1E07F
:10036C00F5BFE5BFE0936C008DE0A2E0BB27ED93F9
:10037C008A95E9F780E090E1A0E0B1E0ED93019778
:10038C00E9F7EAE1F3E0D0E0DBBF879197910097C2
:10039C0081F0A791B79107901790C791D791BF01A2
:1003AC00DBB7F001CBBF07900D920197E1F7FB0192
:1003BC00EBCFEFEFEDBFE0E1EEBFC0E2D9E00C9484
:1003CC00E701D1507894EFEFE4BBE5BBA0E10E94CC
:1003DC00C3040E9480040E948004A2EFB2E080E07B
:1003EC0090E00E94A704A0EDB7E00E946A05E0E04F
:1003FC00EA93A0E00E947104ACEFB2E080E090E0E0
:10040C000E94A704A8980E94F204A89A0E94F904DA
:10041C00ECEFE5BBF7CF0030E1E01E0744F4F80148
:10042C00DE01EA0FFB1F00830F5F1F4FF4CF0E940A
:10043C00FD04FE013496FA93EA93A0E0B1E0BED03D
:10044C00E03009F0AA980E94FD040E940405E09196
:10045C00C80AE03029F5E3E0F0E060E070E00E94CB
:10046C000C05A091C80AA13031F4E0E0F1E060E0A5
:10047C0070E00E940C05A091C80AAE3F31F4E1E097
:10048C00F1E060E070E00E940C05A091C80AAF3F5B
:10049C0039F4A8980E94F904A89A0E94F904F9CF9B
:1004AC000E94F2040E94F904FBCFFFCF0E94A10529
:1004BC000E940F050E940F056BBFE691EAC10E94D6
:1004CC0012050E9417050E941705E030C9F400E0E0
:1004DC0010E00030E1E01E0778F4F801AA81BB813E
:1004EC00EA0FFB1FFF93EF930E941C05AF91BF9186
:1004FC00EC930F5F1F4FEDCFE1E019810881ABC189
:10050C00E0E019810881A7C10E941205EE81FF81EC
:10051C0068857985E050F0426F4F7F4FEE83FF8303
:10052C006887798700E010E0EA81FB810E171F07CE
:10053C00B8F4F801AC81BD81EA0FFB1FFF93EF9378
:10054C00F801AE81BF8188859985662777270E943F
:10055C007905ACDFAF91BF91EC930F5F1F4FE4CFE8
:10056C00E1E0198108812A9608950E9412050E94E3
:10057C001705E030F1F400E010E00030E1E01E0778
:10058C00A0F4F801AA81BB81AE0FBF1FEC91EF93D1
:10059C000E941C05AF91EA1729F0AE98E0E0198192
:1005AC00088159C10F5F1F4FE8CFE1E01981088125
:1005BC0052C1AF98E0E0198108814DC1BA93AA935A
:1005CC002897D1500E94DC050E942705309709F42A
:1005DC0095C00E942E050E943B050E948305A887AA
:1005EC00B9878A879B870E944405E050FF4F6F4F65
:1005FC007F4FEC83FD836E837F830E943B050E94BB
:10060C0017050E947E05DF01CB010E942705662796
:10061C0077270E94D70560F0FE01E45FFE4F019141
:10062C001081E0E0DE01A45FBE4FED93EC9314C0AB
:10063C00DE01A05FBE4F0D90BC91A02DEC81FD8121
:10064C00EA1BFB0B8F010E942705E01BF10BDE015F
:10065C00A45FBE4FED93FC930E9444050E949C0541
:10066C00DE0150962CDFE03019F4AB98E0E047C087
:10067C00FE01E05FFE4F0190F081E02DF0709F01D4
:10068C000E942E05DF01CB01F801662777270E9417
:10069C007405D901882799270E94D705A8F4F90178
:1006AC00DE011C96EA0FFB1F0F01DE01A25FBE4F9D
:1006BC00ED91FD913196FE93EE933197E081D0014F
:1006CC00EC932F5F3F4FDCCF0E941705DE01A05F3C
:1006DC00BE4FED93FD936D937C930E944405E050C7
:1006EC00F0426F4F7F4F0E949C05DE0150960CD05C
:1006FC00E03019F4AC98E0E002C066CFE1E00E9473
:10070C00E1056496DF5F0895BA93AA9324970E943B
:10071C00DC050E9449050E944E059FD0E03009F48B
:10072C005AC00E9449050E949C05E0E0F1E0FA9352
:10073C00EA93AE85BF8554D0E03011F4E0E04CC0B4
:10074C00ECB3E8703E2FE398E199FECF2FB7F89405
:10075C000E944E05E091C90AF091CA0A099500E081
:10076C0010E00030E1E01E07E0F4F801662777277F
:10077C000E949C05F801AC85BD85AE0FBF1F0C9087
:10078C0011243196AC85BD85AE0FBF1FEC91FE2FA9
:10079C00E0E0D001AE0FBF1FF50109950E5F1F4FB2
:1007AC00E0CF0E944E05F60109950E9449050E9472
:1007BC009C05AC85BD85D9DEE03011F4E0E00CC0C1
:1007CC00ECB3E32BECBB2FBFA0E1B0E0E0E00E9468
:1007DC00C205E1E001C0E0E00E94E1052E9608951B
:1007EC00BA93AA930E941705AAE0B0E00E94B20542
:1007FC00AEE0B0E0EA81FB810E94BA05AA81BB8120
:10080C000E94D30518F5A1E1B0E0EA81FB81319794
:10081C00EA0FFB1F0F010E945305D0010E94C20575
:10082C00A1E1B0E0EA81FB813197AE0FBF1F0E94BE
:10083C00A6050E2E0E945305E01511F0E0E00BC04A
:10084C00EA81FB813197EA83FB83D8CFA0E1B0E04A
:10085C00E1E00E94C205289608950E94A1050E941D
:10086C009705A030E0EEBE07E0E08E07E0E09E07C3
:10087C0060F0A030E0EEBE07E1E08E07E0E09E07FE
:10088C0020F40E940F05E03009F002C0E1E001C045
:10089C00E0E024960895AA93E5B3EF70AE2FE881BB
:1008AC00E07FEA2BE5BB81E18A95F1F7A99A81E11A
:1008BC008A95F1F7A99881E18A95F1F78BC0AA93F3
:1008CC00A881E9DFE881E295E883A881E4DF87EA83
:1008DC008A95F1F77FC0AA93E881F0E0EC52F54FCE
:1008EC00E081A981AE0FEBDF6980E881E093D80A43
:1008FC0022960895A2E00E945C05ACE0E0DFA1E046
:10090C000E945C05E0E0E093D80A6E2E0895AA934D
:10091C00A881AA3021F0E091D90A6E1660F0E0E0CF
:10092C00EA93A091D80AAF5FA093D80AD4DFA8812C
:10093C00AA3009F44FC06394AA9AA881C0DFAA9880
:10094C0049C00E94A1051A93DE0111960E948805E8
:10095C00EF5FFF4F6F4F7F4F0E948D05E150F040CE
:10096C00604070406BBFE6911E2FE03019F0A12F54
:10097C00CEDFEACF188125960895AA93E4B3E06FF1
:10098C00E4BBA19AA29AA39AA998AA98AB98E881D9
:10099C00E093D90AE058E093D60AE881E054E0935A
:1009AC00D70AA4E1B0E00E946A050E9462050E9489
:1009BC0062050E946205A0E26EDF8AEF90E001976B
:1009CC00F1F7A8E27CDFA4E07ADFA5E878DFA6E007
:1009DC0076DF90DF21960895A998A4EFB1E00E94EC
:1009EC006A05A99A0895A4EFB1E00C946A05E2E0B7
:1009FC00F0E060E070E00E949C050895E8ECFAE0FD
:100A0C00FA93EA93A1E0B0E00C948A020E949C0550
:100A1C00F5CF0E9492050895BA93AA931A930A935C
:100A2C000895EC81FD816E817F810895F801AC8180
:100A3C00BD818E819F81662777270E9479050C9452
:100A4C005C02FE01E45FFE4F0190F081E02D089501
:100A5C00FE01E05FFE4F0190119061917081F001F9
:100A6C00EF7FF070607070700895DE01A05FBE4F74
:100A7C000D901D908D919C91D0010895E885F9857C
:100A8C006A857B850895EA85FB856C857D8508954F
:100A9C00AA85BB858C859D850895EA81FB8131975C
:100AAC00A881B981AE0FBF1FEC9108950E94650417
:100ABC00A3E0B0E00C946A05A0E30E9451048AEF15
:100ACC0090E00197F1F70895109639F084EC99E0D5
:100ADC000197F1F7A8951197C9F70895EA0FFB1F35
:100AEC00681F791F0895AE0FBF1F861F971F0895AB
:100AFC00EA1BFB0B680B790B0895AE1BBF0B860B27
:100B0C00970B0895ED91FD916D917D9108957E93D4
:100B1C006E93FE93EE930895E881F9816A817B814F
:100B2C000895A881B9818A819B8108957A936A93EB
:100B3C00FA93EA9308959A938A93BA93AA93089591
:100B4C00E199FECFFF93FFB7F894AEBBBFBBE09A21
:100B5C00EDB3FFBFFF91089507D012960F01FB0173
:100B6C0003D0F0011297089507D01196EF93EF2F51
:100B7C0003D0EF9111970895E19B02C0A895FCCF8B
:100B8C009FB7F894AEBBBFBBE09A8DB3E81719F0D2
:100B9C00EDBBE29AE19A9FBF089500240A160B065A
:100BAC000895AE17BF078607970708953A932A93BF
:100BBC001A930A9308953B812A811981088108951B
:00000001FF
