:0C0000000C9412020C9400000C94000000
:10000C000C9400000C9400000C9400000C94000064
:10001C000C9400000C9400000C9400000C94000054
:10002C000C9400000C9400000C9400000C944702FB
:10003C000C9400000C9400000C9400000C94000034
:10004C000C9400000C9400000C9400000C94000024
:10005C000C9400000C9400000C9400000C94000014
:10006C000C9400000C9400000C9400000C94000004
:10007C000C9400000C9400000C9400000C940000F4
:10008C007602000077020000830200008302000069
:10009C008E0200009B020000A6020000B1020000CC
:1000AC00C1020000CB020000D4020000E6020000F6
:1000BC00F90200000A030000190300002A030000E3
:1000CC003A030000809A90418E418F804545454906
:1000DC0049498E8F9092924F994F555559999A9BA9
:1000EC009C9D9E9F41494F55A5A5A6A7A8A9AAAB23
:1000FC00AC21AEAFB0B1B2B3B4B5B6B7B8B9BABB48
:10010C00BCBDBEBFC0C1C2C3C4C5C6C7C8C9CACBAB
:10011C00CCCDCECFD0D1D2D3D4D5D6D7D8D9DADB9B
:10012C00DCDDDEDFE0E1E2E3E4E5E6E7E8E9EAEB8B
:10013C00ECEDEEEFF0F1F2F3F4F5F6F7F8F9FAFB7B
:10014C00FCFDFEFF1027E80364000A00010000100C
:10015C00000110000100DBF9EBF90BFA2BFA556EDC
:10016C00697420546573742031002F302F756E69BB
:10017C0074746573742E74787400000000000000B1
:10018C000000000000000000000000000000000063
:10019C000000000000000000000000000000000053
:1001AC000000000000000000000000000000000043
:1001BC000000000000000000000000000000000033
:1001CC000000000000000000000000000000000023
:1001DC000000000000000000000000000000000013
:1001EC000000000000000000000000000000000003
:1001FC0000000000000000000000000000000000F3
:10020C0000000000000000000000000000000000E2
:10021C0000000000000000000000000000000000D2
:10022C0000000000000000000000000000000000C2
:10023C0000000000000000000000000000000000B2
:10024C0000000000000000000000000000000000A2
:10025C000000000000000000000000000000000092
:10026C00000000000000000000000046525F4449FE
:10027C00534B5F4552520046525F494E545F4552B4
:10028C00520046525F4E4F545F524541445900460E
:10029C00525F4E4F5F46494C450046525F4E4F5F92
:1002AC00504154480046525F494E56414C49445FB8
:1002BC004E414D450046525F44454E49454400462B
:1002CC00525F45584953540046525F494E56414C73
:1002DC0049445F4F424A4543540046525F57524986
:1002EC0054455F50524F5445435445440046525F69
:1002FC00494E56414C49445F44524956450046527A
:10030C005F4E4F545F454E41424C45440046525F50
:10031C004E4F5F46494C4553595354454D00465238
:10032C005F4D4B46535F41424F5254454400465239
:10033C005F54494D454F5554004552524F523A2047
:10034C0025700D0A005344204552524F523A002C4E
:10035C00004C6F676963616C20647269766520304C
:10036C003A206D6F756E746564204F4B0D0A002535
:10037C0073200D0A0046696C652025732063726535
:10038C0061746564204F4B0D0A00257520627974E9
:10039C006573207772697474656E206F662025759D
:1003AC000D0A0046696C65202573206F70656E65BB
:1003BC0064204F4B0D0A00257520627974657320FB
:1003CC00726561640D0A005265616420746578740D
:1003DC003A20222573220D0A007070662054657332
:1003EC00742E00546573743120646F6E652E00009A
:1003FC0001002D4E414E00494E46000080C00800C1
:10040C0004006201000001002609FC030000020048
:10041C002A09080400000000F894EE27ECBBF1E078
:10042C00F5BFE5BFE0936C008DE0A2E0BB27ED9338
:10043C008A95E9F780E090E1A0E0B1E0ED930197B7
:10044C00E9F7EAE0F4E0D0E0DBBF87919791009701
:10045C0081F0A791B79107901790C791D791BF01E1
:10046C00DBB7F001CBBF07900D920197E1F7FB01D1
:10047C00EBCFEFEFEDBFE0E1EEBFC0E2D9E00C94C3
:10048C004E03EA93EFEFEDBDEFE9ECBDE991189562
:10049C00AA931A930A93EA810E940011AB81A130AE
:1004AC0010F0A83008F033C0E0E0EA93A0E00E941E
:1004BC007E10E5E4F3E060E070E00E940414EF814C
:1004CC000E9406110E94ED130E941311A1E5B3E0E6
:1004DC0080E090E00E94BF10D8010E94AE10ABE506
:1004EC00B3E080E090E00E94BF10EB810E9400110D
:1004FC00D8010E94AE10E0E0EA93A1E00E947E10C9
:10050C00EB810E9406110E94F4130E94BF10A89860
:10051C00A998A2E3B0E00E941613A99AA89AA2E3A4
:10052C00B0E00E941613ECEFE5BBF1CFEF972F97DD
:10053C00D2508CE091E0A0E0B1E0EAE6F1E060E0BE
:10054C000E946E140E946214DE01AA5DBD4F0E94CF
:10055C002D091E2FE03059F4EDE5F3E060E070E07A
:10056C000E94041480E00E94EF0F249603C01A939B
:10057C00A1E08EDFEBE7F3E060E070E00E941A117F
:10058C000E94221139F4E1E8F3E060E070E00E948F
:10059C001A1105C0133019F01A93A2E079DFFE018D
:1005AC00EC5FFE4FFA93EA93EBE0F0E0FA93EA93F8
:1005BC00ADB7BEB711973F932F930E94A00B2F910D
:1005CC003F911E2FE030B1F4E6E9F3E060E070E01B
:1005DC000E940414F901662777270E940414EBE0AB
:1005EC00F0E060E070E00E94041488E00E94EF0FDD
:1005FC002C9603C01A93A3E04BDF0E94221139F40E
:10060C00EFEAF3E060E070E00E941A1103C01A9365
:10061C00A7E03EDFFE013496FA93EA93EFEFF0E0A9
:10062C00FA93EA93ADB7BEB711973F932F930E94FD
:10063C00AA0A2F913F911E2FE03001F5E3ECF3E075
:10064C0060E070E00E940414F901662777270E948D
:10065C001311F9013196DE011496AE0FBF1FE0E0C5
:10066C00EC93E3EDF3E060E070E00E940414FE0113
:10067C003896662777270E94131103C01A93A6E0B9
:10068C0007DFE1E00E946914EF966396DE5F089540
:10069C00D150E0E0EFBDE5E0EEBDEFEFEDBDEFE9F1
:1006AC00ECBDE4E0E7BF7894EFEFE4BBE5BBA0E181
:1006BC000E94D1100E948B100E948B10A5EEB3E00B
:1006CC0080E090E00E94BF1031DFE0E0EA93A0E010
:1006DC000E947E10AFEEB3E080E090E00E94BF106D
:1006EC00A8980E942A11A89A0E943111ECEFE5BB40
:1006FC00F7CF0030E1E01E0744F4F801DE01EA0F09
:10070C00FB1F00830F5F1F4FF4CF0E943511FE01BA
:10071C003496FA93EA93A0E0B1E0B9D0E03009F056
:10072C00AA980E9435110E943C11E0912009E030FA
:10073C0029F5E3E0F0E060E070E00E944411A09144
:10074C002009A13031F4E0E0F1E060E070E00E94BB
:10075C004411A0912009AE3F31F4E1E0F1E060E0FA
:10076C0070E00E944411A0912009AF3F39F4A89881
:10077C000E943111A89A0E943111F9CF0E942A11BE
:10078C000E943111FBCFFFCF0E9409140E94471128
:10079C000E9447116BBFE691E2C10E944A110E9470
:1007AC004F110E944F11E030C9F400E010E000300E
:1007BC00E1E01E0778F4F801AA81BB81EA0FFB1F68
:1007CC00FF93EF930E945411AF91BF91EC930F5F85
:1007DC001F4FEDCFE1E01981088101C5E0E01981DF
:1007EC000881FDC40E944A110E945F11E050F04242
:1007FC006F4F7F4F0E94641100E010E0EA81FB8193
:10080C000E171F07B8F4F801AC81BD81EA0FFB1F6E
:10081C00FF93EF93F801AE81BF8188859985662798
:10082C0077270E942913B0DFAF91BF91EC930F5F34
:10083C001F4FE4CFE1E0198108819AC30E944A114D
:10084C000E944F11E030F1F400E010E00030E1E0E4
:10085C001E07A0F4F801AA81BB81AE0FBF1FEC915B
:10086C00EF930E945411AF91EA1729F0AE98E0E093
:10087C0019810881B4C40F5F1F4FE8CFE1E01981E3
:10088C000881ADC4AF98E0E019810881A8C4BA937F
:10089C00AA932897D1500E9462140E946911309734
:1008AC0009F491C00E9470110E947D110E943313B3
:1008BC00A887B9878A879B870E948611E050FF4FD3
:1008CC006F4F7F4F0E948B110E947D110E944F1120
:1008DC000E942E13DF01CB010E9469116627772736
:1008EC000E945B1460F0FE01E45FFE4F01911081E9
:1008FC00E0E0DE01A45FBE4FED93EC9314C0DE018B
:10090C00A05FBE4F0D90BC91A02DEC81FD81EA1B28
:10091C00FB0B8F010E946911E01BF10BDE01A45F40
:10092C00BE4FED93FC930E9486110E940414DE01CD
:10093C00509633DFE03019F4AB98E0E045C0FE018F
:10094C00E05FFE4F0190F081E02DF0709F010E945E
:10095C007011DF01CB01F8010E949011D901882799
:10096C0099270E945B14A8F4F901DE011C96EA0F8A
:10097C00FB1F0F01DE01A25FBE4FED91FD91319681
:10098C00FE93EE933197E081D001EC932F5F3F4FB4
:10099C00DECF0E944F11DE01A05FBE4FED93FD93A1
:1009AC006D937C930E948611E050F0426F4F7F4F05
:1009BC000E940414DE0150960CD0E03019F4AC986F
:1009CC00E0E002C06ACFE1E00E9469146496DF5F48
:1009DC000895BA93AA9324970E9462140E949511C9
:1009EC000E949A11A0D0E03009F45DC00E949511CC
:1009FC000E940414E0E0F1E0FA93EA93AE85BF851F
:100A0C0056D0E03021F4E0E00E94691476C3ECB3D8
:100A1C00E8703E2FE398E199FECF2FB7F8940E942F
:100A2C009A11F401099500E010E00030E1E01E0796
:100A3C00E0F4F801662777270E940414F801AC85CE
:100A4C00BD85AE0FBF1F0C9011243196AC85BD85B2
:100A5C00AE0FBF1FEC91FE2FE0E0D001AE0FBF1F19
:100A6C00F20109950E5F1F4FE0CF0E949A11F3011E
:100A7C0009950E9495110E940414AC85BD85DEDE9B
:100A8C00E03021F4E0E00E94691437C3ECB3E32BAF
:100A9C00ECBB2FBFA0E1B0E0E0E00E943714E1E036
:100AAC000E9469142AC3E0E00E94691426C3BA9319
:100ABC00AA930E944F11AAE0B0E00E942714AEE066
:100ACC00B0E0EA81FB810E942F14AA81BB810E94B5
:100ADC004C1418F5A1E1B0E0EA81FB813197EA0FE3
:100AEC00FB1F0F010E949F11D0010E943714A1E13E
:100AFC00B0E0EA81FB813197AE0FBF1F0E941B143F
:100B0C000E2E0E949F11E01511F0E0E068C3EA81FF
:100B1C00FB813197EA83FB83D8CFA0E1B0E0E1E021
:100B2C000E9437145CC30E9409140E94FF13A0306A
:100B3C00E0EEBE07E0E08E07E0E09E0760F0A0303C
:100B4C00E0EEBE07E1E08E07E0E09E0720F40E9495
:100B5C004711E03009F002C0E1E001C0E0E024966A
:100B6C0008950E944A110E811F81EA81FB81319701
:100B7C00EA83FB83319649F01F930F930F5F1F4F4E
:100B8C00EC81AF91BF91EC93F0CF1981088127C311
:100B9C00BA93AA930E9460140A851B85288539850F
:100BAC0040E050E0EE81FF813197EE83FF83319678
:100BBC0081F0D8010F5F1F4F0C901124D9012F5FCA
:100BCC003F4FAC91BB27F001EA1BFB0BAF013097F9
:100BDC0009F001C0E7CFFA010E9467142C96089522
:100BEC000E94091426970E9460140E94A811EE839B
:100BFC00FF830E94AD110E94B21150F0AE81BF81F3
:100C0C0018960E94D3130E94AD110E945B1408F039
:100C1C00A2C0AE81BF81EC91F0E0E130A0E0FA0718
:100C2C0009F049C02C853D85F901F695E7952E0F05
:100C3C003F1FF901F170AF01D901E0E0F2E00E9431
:100C4C0093139F01EFEFF1E0E417F50759F00E94C1
:100C5C00BA110E9404145A934A930E94C61109F0C7
:100C6C007AC01BC00E94BA110E940414EFEFF1E08D
:100C7C000E94CC1109F06FC0FE0139960E94D4116C
:100C8C00F9010E9490110E94DD110E940414E0E011
:100C9C00F0E00E94CC1109F05EC008851985EC8546
:100CAC00E17021F0F8010E94561302C0F801FF70A8
:100CBC006627772754C0E230A0E0FA0709F5FE0159
:100CCC0038960E94D4119F938F93BF93AF930E9439
:100CDC00E211E0E0F1E060E070E00E94A613AF9159
:100CEC00BF918F919F910E94E711F070EE0FFF1F43
:100CFC000E94EE1181F5E885F985662777272FC0CC
:100D0C00E330A0E0FA0739F5FE0138960E94D411C1
:100D1C009F938F93BF93AF930E94E211E0E8F0E0B2
:100D2C0060E070E00E94A613AF91BF918F919F91EC
:100D3C000E94E711EF77F0700E945113FA93EA9337
:100D4C00A4E00E94F11139F40E948611EF7FFF7F1D
:100D5C006F7F7F7004C0E1E0F0E060E070E00E9423
:100D6C006714609608950E9409140E94F6110E945F
:100D7C00FD11E250F040604070400E940212F801F8
:100D8C00A085B18582859385E2E0F0E060E070E0BB
:100D9C000E940E140E942E130E9407120E945B14D4
:100DAC0028F00E940C12198108814FC2F801E181D0
:100DBC00F0E00E9407120E946E130E9473137F933F
:100DCC006F93FF93EF93D80154960E94D313AF9176
:100DDC00BF918F919F910E9424131981088135C274
:100DEC00BA93AA9324970E94F611AE81BF810E94F8
:100DFC001112AE81BF8114960E94D3130E9402126D
:100E0C000E940712A130E0E0BE07E0E08E07E0E0B0
:100E1C009E0749F0D80118960E94D3130E9407121E
:100E2C000E945B1420F0E1E019810881D8C10E9476
:100E3C00FD110E94481421F4D801AC91A33009F0A3
:100E4C0006C0D80150960E94D3130E9402120E9431
:100E5C00FD11AE81BF8118960E94DE130E94FD1118
:100E6C000E94481421F00E9407127DDF04C0D801B3
:100E7C0050960E94D313AE81BF811C960E94DE1344
:100E8C00E0E019810881ABC1BA93AA9324970E9420
:100E9C001612A885B9850E94CF1331968F01002EAA
:100EAC00012A31F01C960E94D3130E94481411F4AD
:100EBC00E3E05CC0F801EF7009F053C0A885B98578
:100ECC001C960E94D913EF5FFF4F6F4F7F4F0E940C
:100EDC00E313A885B98518960E94D3130E94481471
:100EEC0051F4D90114960E94CF130E171F0710F05E
:100EFC00E3E03CC036C0F8010E945613DF01F90153
:100F0C00E181F0E03197EA23FB23309751F5E88536
:100F1C00F985A085B1858285938562DE0E948B114F
:100F2C000E941D120E94B21110F4E1E01FC0D90101
:100F3C0018960E94D3130E941D120E945B1410F08D
:100F4C00E3E014C00E944F11A885B98518960E9441
:100F5C00DE130E941D1207DFA885B9851C960E941E
:100F6C00DE13A885B9850D931C93E0E00E946914EB
:100F7C002A9608950E942212AC81BD8131DF1E2F6A
:100F8C00103019F00E94691460C10E9427123A9324
:100F9C002A93EE81FF810E942F120E940914AA85C8
:100FAC00BB850E94CF13EF70F070EE0F0E944D13B3
:100FBC00FA93EA93A0E20E94F11111F0E1E001C072
:100FCC00E0E01E2F1030F9F4D9010C91003011F42F
:100FDC0013E019C0F901E385E87069F43A932A9398
:100FEC00EE81FF81A281B381BA93AA93ABE0B0E00A
:100FFC00CFDD309709F001C006C0AC81BD8144DF64
:10100C001E2F103021F2E12F0E9469141EC1BA93D9
:10101C00AA9324970E946014AC85BD8512960E94F9
:10102C00CF13E887F987FA93EA93E0E2F0E0FA93BA
:10103C00EA93ABE0B0E095DDE0E05E2F2E2F38E0D8
:10104C00AA85BB850E94CF13EE83FF830E943412C6
:10105C001C91113210F01F3209F439C01E3211F0FC
:10106C00531740F0383011F41E3209F030C058E0FC
:10107C003BE02CC0103858F0E12FF0E0E058F04085
:10108C0066277727E053FF4F6F4F6BBF1691E0E059
:10109C00E03041F0E32FF0E03197A52FB0E0AE1730
:1010AC00BF070CF40AC00E9434120C910E943C122F
:1010BC0010830E943C12008309C0113610F01B37BC
:1010CC0008F001C010520E943C121083BFCFE22FD7
:1010DC00AE81BF81F0E0EA0FFB1FAA85BB85ED93C3
:1010EC00FC93113210F4E1E001C0E0E0A885B98571
:1010FC001B96EC93E0E00E9467142E9608950E94D4
:10110C002212AC81BD81AC91A03231F4EC81FD8115
:10111C003196EC83FD83F5CFAC81BD81AC91AF32C0
:10112C0029F4EC81FD813196EC83FD83AE81BF8186
:10113C0014960E940C120E94DE13AC81BD81AC91FE
:10114C00A13258F4AE81BF814BDE1E2F0E94A81134
:10115C00A681B781E0E0EC933FC0EE81FF81FA936A
:10116C00EA93DE01169653DF1E2F1030A9F5AE81DF
:10117C00BF8100DF1E2F103041F0133019F40E9494
:10118C00441209F001C014E027C00E94441221F55A
:10119C000E942712F901E385E07111F414E01CC0E0
:1011AC00D90154960E944C120E9469137F936F933D
:1011BC00FF93EF93D9015A960E94CF13AF91BF9131
:1011CC008F919F91662777270E943813AE81BF813C
:1011DC0014960E94DE13C1CFE12F0E946914289649
:1011EC0008950E9409140E945112EEEFF1E00E9442
:1011FC00EE1111F0E3E029C00E945912E535AAEA7C
:10120C00FA0711F0E2E021C00E945112E6E3F0E08F
:10121C000E94EE1131F40E945912E634A1E4FA074F
:10122C0009F002C0E0E011C00E945112E2E5F0E0CA
:10123C000E94EE1131F40E945912E634A1E4FA072F
:10124C0009F002C0E0E001C0E1E026960895BA93EF
:10125C00AA93E4971A93E0E0E0932109E093220922
:10126C00EDA9FEA9309709F412C10E941A0DE17084
:10127C0011F0E2E00DC1E0E0ED87EE87EF87E88B3F
:10128C000E945E120E9463121130E9F40E945E12F9
:10129C000E946B12EEEBF1E0FA93EA93A0E10E944C
:1012AC00F11111F013E00FC0ED89E03061F0E98D20
:1012BC00FA8D6B8D7C8DED87FE876F87788B0E9406
:1012CC005E120E946312133011F4E1E0E1C01030A1
:1012DC0011F0E7E0DDC00E945E120E946B12EDE09F
:1012EC00F0E0FA93EA93A4E20E94F11111F0E1E02C
:1012FC00CFC0FE01B7963D97DF010E944C120E94B1
:10130C0072120E9477120E94481441F4FE01F59665
:10131C003D97DF010E94D3130E947212EC89F0E01A
:10132C000E947C120E946E130E9473130E94721210
:10133C000E948112AD85BE858F8598890E9490117F
:10134C00ADA9BEA91C960E94DE13E989ADA9BEA960
:10135C001196EC93FE01B2963D97DF010E94CF13DC
:10136C00ADA9BEA91496ED93FC93FE01B4963D97DE
:10137C00DF010E944C12ED83FE836F8378870E94FD
:10138C00481451F4FE01F1963D97DF010E94D313EE
:10139C00ED83FE836F8378870E948112AD81BE81BD
:1013AC008F819885662777270E940E140E942E1332
:1013BC000E947C120E942E137F936F93FF93EF93E6
:1013CC000E948812AF91BF918F919F9166277727CA
:1013DC000E943313EDA9FEA90E9490120E94A6133D
:1013EC00EE5FFF4F6F4F7F4FE983FA836B837C83F4
:1013FC00ADA9BEA918960E94DE1311E0A981BA818D
:10140C008B819C81A73FEFE0BE07E0E08E07E0E018
:10141C009E0708F012E0A981BA818B819C81A73FBD
:10142C00EFEFBE07E0E08E07E0E09E0708F013E068
:10143C00ADA9BEA91C93133029F4E8A9F9A96AA98E
:10144C007BA902C00E949512ADA9BEA950960E941C
:10145C00DE130E9495127F936F93FF93EF930E947C
:10146C008812AF91BF918F919F910E949011ADA95D
:10147C00BEA954960E94DE13ADA9BEA91296E0E057
:10148C00EC93EDA9FEA9E0932109F0932209E0E089
:10149C001881E7960895BA93AA93EC970E941612B6
:1014AC00022E032A11F4E6E04AC0D9011296E0E0BC
:1014BC00EC93FE013496D9011696ED93FC93FE0144
:1014CC00B496EAABFBABFE01F096FA93EA93DE011D
:1014DC00AE5BBF4F0D90BC91A02D11DE1E2F1030B6
:1014EC0009F02DC0EC81E03019F0EF85E07111F0BE
:1014FC00E3E025C0E88DF98D662777270E946913F4
:10150C00DF01CB01EE8DFF8D662777270E94381304
:10151C00D90190960E94DE13E8A1F9A16AA17BA1E2
:10152C00D9015C960E94DE13D90158960E940C12C8
:10153C000E94DE13D9011296E1E0EC93E0E00E94E8
:10154C006914EF9623960895BA93AA932E970E9446
:10155C006014288D398D0E94A811EE83FF83AC890D
:10156C00BD890E941112EE81FF81309711F4E6E0E3
:10157C00DDC0EE81FF81A281A17011F4E5E0D6C03F
:10158C00EE81FF81A48DB58D868D978D9F938F9362
:10159C00BF93AF930E949C12EF91FF916F917F913B
:1015AC000E942E13E887F9876A877B870E94861131
:1015BC00AE89BF89882799270E94561420F4E885A4
:1015CC00F985EE8BFF8BEE89FF89309709F4A6C065
:1015DC000E949C12FD01BC01F170309709F04FC0C4
:1015EC000E949C120E94A312EE81FF810E94901215
:1015FC000E94CB130E94481441F50E949C120E9439
:10160C00501431F4AE81BF8190960E94D31303C065
:10161C000E94AC12E5DAE88BF98B6A8B7B8BA8897C
:10162C00B9898A899B890E94B21108F479C0E8892A
:10163C00F9896A897B89AE81BF8194960E94DE13F9
:10164C00AE81BF811396E0E0EC930E94AC128BDB71
:10165C00EC87FD876E877F870E94481409F460C071
:10166C00AE81BF810E94B3120E94AD110E946E1315
:10167C000E942413AE81BF8198960E94DE13EE81E6
:10168C00FF810E94BA12A0E0B2E0AE1BBF0BAD010D
:10169C00EE89FF89E417F50710F44E895F89E88D10
:1016AC00F98D309719F4E0E0F0E001C0F901FA93FC
:1016BC00EA93E885F985A0A5B1A582A593A50E941A
:1016CC000914AC85BD8558960E94CF13F170FA931E
:1016DC00EA93DA0146D21E2F103011F5EE81FF810C
:1016EC0078960F01DF010E94D313DF01CB01FA01C1
:1016FC000E949011D0010E94DE13240F351FEE8939
:10170C00FF89E41BF50BEE8BFF8BAC89BD89ED914A
:10171C00FD91E40FF51FFE93EE9355CFE0E006C06C
:10172C00AE81BF811296E0E0EC93E1E00E94671479
:10173C006A960895BA93AA932C970E9460140E8906
:10174C001F894091210950912209AA89BB890E94C5
:10175C001112042E052A19F4E6E00C94EB0FFA0191
:10176C00A281A17019F4E5E00C94EB0FEC89FD89D2
:10177C00309799F4FA01A281A07429F00E94BF124B
:10178C000E94C41209F401C0E6C0DA011296EC9171
:10179C00EF7BEC93E0E00C94EB0FFA01A281A074C8
:1017AC0041F4DA015896ED91FD91E070FE7FFE93C5
:1017BC00EE93FA01A48DB58D868D978D9F938F93A3
:1017CC00BF93AF930E94CC12EF91FF916F917F91D9
:1017DC000E942E130E9464110E945F11AC89BD8976
:1017EC00882799270E94561420F4EE81FF81EC8BF8
:1017FC00FD8BEC89FD89309709F4AAC0FA010E948F
:10180C00BA12309709F05FC00E94CC120E94A3124A
:10181C00FA010E9490120E94CB130E94481431F5D9
:10182C000E94CC120E94501429F4DA0190960E9466
:10183C00D31306C0FA01A4A1B5A186A197A1D0D952
:10184C00EE87FF87688B798B0E94E2110E94B211A0
:10185C0008F481C0EE85FF8568897989DA01949650
:10186C000E94DE13DA011396E0E0EC93FA01A4A1D6
:10187C00B5A186A197A177DAEA87FB876C877D876C
:10188C000E9495110E94481409F465C0DA010E9467
:10189C00B3120E949A110E946E130E942413DA0153
:1018AC0098960E94DE130E94BF12FA01A0A5B1A562
:1018BC0082A593A5BCD1E03009F04DC0DA01129697
:1018CC00EC91E064EC93FA010E94BA12A0E0B2E051
:1018DC00AE1BBF0B9D01EC89FD89E217F30710F4D9
:1018EC002C893D891A930A93D901882799279FD16E
:1018FC00E03089F5FA0178960F01DF010E94D313CD
:10190C00DF01CB01F9010E949011D0010E94DE137E
:10191C00020F131FEC89FD89E21BF30BEC8BFD8B83
:10192C00AA89BB89ED91FD91E20FF31FFE93EE9313
:10193C00FA010E94BA12309751F40E94BF120E9411
:10194C00C41249F4DA011296EC91EF7BEC9351CF6F
:10195C00E0E00C94EB0FDA011296E0E0EC93E1E09E
:10196C000C94EB0FE7B3E760E7BBE8B3EF60E8BBC1
:10197C00E0E5EDB9E1E0EEB90895AA93E881EFB99D
:10198C00779BFECF0C94FE101A93EFEFEFB9779B79
:10199C00FECF1FB1E12F19910895F6DF08950E9433
:1019AC0009141A930A93EE81E07849F0EE81EF77EF
:1019BC00EE83E7E70E94D2120E2F023080F5C09A18
:1019CC00E3DFC098E1DFAE81D8DF0E940712E8E1C7
:1019DC000E944113AE2FD1DF0E94FD110E946413AF
:1019EC00AE2FCBDF0E940712E8E00E944113AE2F0E
:1019FC00C4DFAA81C2DF11E0AE81A03409F415E97D
:101A0C00AE81A83409F417E8A12FB7DF1AE0BCDFC8
:101A1C000E2F07FF02C0115009F401C0F8CFE02FC0
:101A2C00198108812796089524970E9460149ADFE3
:101A3C00C09907C00E94BF12A0E0B0E080E090E027
:101A4C00F6D014E6103019F09FDF1150FBCF30E0C8
:101A5C00E0E40E94D212E13009F074C0E8E4EA93A9
:101A6C00AAEAB1E080E090E09ADFE13009F044C0EE
:101A7C0010E0143050F40E94D912FF93EF9384DFDE
:101A8C00AF91BF91EC931F5FF4CFA885A13019F4EF
:101A9C00A985AA3A09F02FC040EE5EE2042E052A71
:101AAC0049F0E9EEEA93A0E0B0E080E090E477DF63
:101ABC00E03009F403C041505040F0CF042E052A09
:101ACC0029F0EAE70E94D212E03009F014C010E0CD
:101ADC00143050F40E94D912FF93EF9355DFAF915D
:101AEC00BF91EC931F5FF4CFEE81E07411F0ECE04A
:101AFC0001C0E4E03E2F26C0E9EE0E94D212E23093
:101B0C0018F432E009EE02C031E001E448EA51E693
:101B1C00042E052A41F00A93A0E0B0E080E090E0AA
:101B2C003EDFE03009F403C041505040F1CF042EA9
:101B3C00052A39F0E0E5EA930E94E01230DFE0304C
:101B4C0009F030E03093230928DFEDB1EC7FEDB9DB
:101B5C00709A303011F0E0E001C0E1E00E946714AF
:101B6C00DAC00E942212E0912309E87051F40E941D
:101B7C0086110E94E0120E947313E887F9876A8726
:101B8C007B8711E0E1E5EA930E947C1208DFE030EC
:101B9C0009F047C020E335E7F7DE0E2F0F3F19F4AD
:101BAC002150304009F401C0F7CF0E3FD1F5AE8182
:101BBC00BF81E2E0F2E0EA1BFB0BDF01EC81FD816F
:101BCC00AE1BBF0B9D01EE81FF81309739F0DCDE3F
:101BDC00EE81FF813197EE83FF83C9F7EC85FD859C
:101BEC00309799F0EC85FD853196EC87FD87319720
:101BFC00FF93EF93C9DEAF91BF91EC93EC81FD8124
:101C0C003197EC83FD8371F706C0EC81FD81319730
:101C1C00EC83FD83D1F7B8DEF90131979F01D9F739
:101C2C0010E0BBDEE12F0E9469142E9608950E94ED
:101C3C0009140E94621411E0E885F9853097F9F0D7
:101C4C002C813D81022E032A31F0E0912409F09180
:101C5C002509309709F411C0A885B985ED91A8879D
:101C6C00B987AE2F8ADEA4E2B9E0ED91FD913197F0
:101C7C00FE93EE9321503040E5CF10E049C00E9416
:101C8C004F110E94481409F1E0912309E87041F4C6
:101C9C000E944F110E94E0120E9473130E948B113C
:101CAC00E8E5EA93AD81BE818F81988578DEE030DE
:101CBC0059F4AFEF62DEAEEF60DEE0E0F2E0E0930D
:101CCC002409F093250910E023C0E0912409F09138
:101CDC00250932969F01F90121503040309719F0B7
:101CEC00A0E04BDEF8CF50DEEF71E53081F428EE4A
:101CFC003DEF4ADEEF3F19F0022E032A09F403C030
:101D0C0021503040F6CF022E032A09F010E045DEB8
:101D1C00E12F0E9469142A960895AA935D9BFECF29
:101D2C00E881ECB90C94FE10BA93AA93AA81F5DF62
:101D3C00A881B981ED91FD913196FE93EE930C94AF
:101D4C00BD10BA93AA9328970E94601410E0AE8538
:101D5C00BF850E941112DE0154960E94E5126BBFE2
:101D6C00E6912E2FE03009F42CC1E12FE03039F44C
:101D7C00253211F411E002C00E94EF1221C1E130B2
:101D8C00A9F4253219F40E94EF1219C112E040E0B7
:101D9C0000E02D3211F401E013C12B3211F44BE2AF
:101DAC000FC1203211F440E20BC102C0E23039F411
:101DBC0050E013E0203311F4006802C103C0E3309B
:101DCC0009F0FEC0203310F02A3308F007C0AAE057
:101DDC005A9F502DE22FE0535E0FF2C0E22FE336F4
:101DEC0049F40E94F612EA89FB89A481AA930E9405
:101DFC00FC12E5C0E33761F40E94F6120E94021354
:101E0C00EE83FF83AE81BF810E9442101E2F13C050
:101E1C00E037A9F40E94F612AA89BB8914960E9495
:101E2C00D3130E946411AE81BF81888599850E946D
:101E3C004E101E2F086002600F7730E03AC0E43677
:101E4C0011F0E93611F4046002C0E53741F4E0E525
:101E5C00F1E060E070E00E94641115E00EC0E8351E
:101E6C0011F4086003C0E83709F0A9C0EAE5F1E015
:101E7C0060E070E00E94641114E002FF14C00E9444
:101E8C00F6120E940213EC87FD87AD85AA232AF473
:101E9C000E943D13EC87FD874DE2403011F01F5F2F
:101EAC0001C00B7F06C00E94F6120E940213EC8741
:101EBC00FD8700FD11C0151778F407FF08C002FF5D
:101ECC0004C00B7F242F115001C020E301C020E27D
:101EDC000E94EF125150EFCF312F01FF18C030305C
:101EEC00A9F003FF07C0DE0116960E94E5126BBF36
:101EFC00269105C0AE81BF812D91AE83BF830E9418
:101F0C00EF12503009F051503150E9CF4EC020E360
:101F1C000E945F110E94E813EA87FB870E945F1101
:101F2C00EE5FFF4F6F4F7F4F0E946411EA85FB8578
:101F3C00AC85BD85AE17BF0750F02F5FAA85BB855A
:101F4C00EC85FD85EA1BFB0BEC87FD87EFCF2A3375
:101F5C0028F003FF02C0295F01C0295D04FD1AC0EF
:101F6C00213320F4AA85BB85119709F409C05317B6
:101F7C0010F000FF01C013C020E207FF0BC020E3EC
:101F8C00006102FF07C00B7F4A930E94FC12503085
:101F9C0009F051500E94EF12503009F0515031505D
:101FAC00AA85BB85129708F0B2CF00FF08C050304D
:101FBC0031F05150E0E2EA930E94FC12F8CF10E0AD
:101FCC00CACEAE85BF850E94CF130E946714689657
:101FDC000895FF92F82E26971A930A93DE01149611
:101FEC000E9420138D01E0E0EC83ED83EE83EF8300
:101FFC00DE0118960E9420130E94D3130E94041431
:10200C001A930A93EAE9FEE0FA93EA93DE011A9630
:10201C0098DE198108812896FF900895BA93AA93A7
:10202C00A991B991E991F99130962AF4E095F0953E
:10203C0031966DE26D93E89480E197E20DD088EED5
:10204C0093E00AD084E6992707D08AE005D06E2F5A
:10205C0010D066276C9308956627E817F90720F0CF
:10206C006395E81BF90BC9F7662311F416F0089574
:10207C006894605D6D930895BA93AA93A991B991F0
:10208C00EE27FF276D91662311F03196FBCF089553
:10209C000E940914AA27BB27E991F99169917991BA
:1020AC006BBF0790002011F01196FBCFFD01089536
:1020BC00AA93E5B3EF70AE2FE881E07FEA2BE5BB86
:1020CC0081E18A95F1F7A99A81E18A95F1F7A998AE
:1020DC0081E18A95F1F78CC0AA93A881E9DFE881A8
:1020EC00E295E883A881E4DF87EA8A95F1F780C05E
:1020FC00AA93E881F0E0E65DF64FE081A981AE0F8E
:10210C00EBDFD980C88022960895A2E00E940813C4
:10211C00ACE0E2DFA1E00E940813E0E0CE2EDE2E60
:10212C000895AA93A881AA3021F0E0912E09DE1619
:10213C0048F0E0E0EA93C394AC2DDADFA881AA3032
:10214C0009F456C0D394AA9AA881C6DFAA9850C0A5
:10215C00BA93AA931A93A981BA81ED91A983BA83F0
:10216C001E2FE03019F0A12FDCDFF5CF188123965C
:10217C0008950E9409141A93DE0111960E94E5122B
:10218C006BBFE6911E2FE03019F0A12FCADFF4CF00
:10219C00188125960895AA93E4B3E06FE4BBA19A45
:1021AC00A29AA39AA998AA98AB98E881E0932E09D1
:1021BC00E058E0932C09E881E054E0932D09A4E168
:1021CC00B0E00E9416130E940E130E940E130E9480
:1021DC000E13A0E26DDF8AEF90E00197F1F7A8E211
:1021EC007BDFA4E079DFA5E877DFA6E075DF8DDF84
:1021FC0021960895F0E0FA93EA93D8010C94141008
:10220C00ACE8B0E080E0FF27662777270E945F13D9
:10221C000E945F130E94241308950E94041484E00A
:10222C000E94EF0F289608950E940414FE01EC5EA4
:10223C00FE4F66277727F1CFDE01A05FBE4F0E94CD
:10224C00510A1E2FE0300895A998A4EFB1E00E9426
:10225C001613A99A0895A4EFB1E00C941613E2E0BA
:10226C00F0E060E070E00E9404140895E0E2F9E010
:10227C00FA93EA93A1E0B0E00C94F8030E940414E2
:10228C00F5CF0E94FA130895BA93AA931A930A935E
:10229C000895EC81FD816E817F810895F801AC81F8
:1022AC00BD818E819F81662777270E9429130C940C
:1022BC00CA03EE81FF81688579850895EE83FF83DB
:1022CC00688779870895FE01E45FFE4F0190F081E5
:1022DC00E02D0895FE01E05FFE4F01901190619199
:1022EC007081F001EF7FF070607070700895DE0106
:1022FC00A05FBE4F0D901D908D919C91D0010895C3
:10230C00E885F9856A857B850895EC83FD836E836A
:10231C007F830895662777270E9424130895EA8502
:10232C00FB856C857D850895AA85BB858C859D85EF
:10233C000895EA81FB813197A881B981AE0FBF1F47
:10234C00EC910895E0912109F09122090895AC8552
:10235C00BD858E859F850895A230E0E0BE07E0E044
:10236C008E07E0E09E070895FE013896FA93EA93F3
:10237C00E885F985A485B58586859785F901CACF49
:10238C00A2E0B0E00E94B70DE0300895FA93EA9312
:10239C00A1E0B0E00E94B70DE0300895FA93EA9303
:1023AC00E885F985A485B585868597850895EF5FC1
:1023BC00FF4F6F4F7F4F0895AE85BF8588899989F0
:1023CC0008950E9424130E940414EA89FB8908953D
:1023DC00FA93EA93D5CFB0E00E94B70DE0300895A0
:1023EC001A930A9300912109109122090895EA8108
:1023FC00FB816C817D810895EA83FB836C837D83F3
:10240C000895AA81BB818C819D810895E0E0F0E064
:10241C0060E070E00895E0E0F0E0ED93FC93089547
:10242C000E94621420912109309122090895AC81F7
:10243C00BD818E819F810895BA93AA930E946214E4
:10244C000895A0912109B091220916962D913C91E5
:10245C000895A485B585868597850895E22F2F5F0D
:10246C00AE81BF81F0E0AE0FBF1F0895E52F5F5F17
:10247C00A885B985F0E0EA0FFB1F0895AE81BF81F6
:10248C0012960E94CF13E385E03008950E94CF137B
:10249C00662777270895EC81FD81FA93EA93A7DFED
:1024AC000E9404140895AC81BD810E94CF1308953D
:1024BC00FE017196FA93EA930895AF85B8898989DC
:1024CC009A890E94F7081E2F0895EF85F88969896B
:1024DC007A890E9404140895E987FA876B877C87B0
:1024EC000895E985FA856B857C850895A985BA855B
:1024FC008B859C850895FE017F963D97DF010E9498
:10250C00CF130895EDA9FEA9A481B581FD010E9408
:10251C0056130895E181F0E00E946E130895EDA921
:10252C00FEA997DFDEDF0E9424130895EE81FF8160
:10253C00A08DB18D828D938D0895E0E0F2E060E086
:10254C0070E00E94A613DF01CB010895EE81FF819C
:10255C00A4A1B5A186A197A108951396EC91EF5F64
:10256C00EC93E150F0E00895A08DB18DFD01F17078
:10257C000895E0E0F0E0FA93EA930895A0E0B0E06B
:10258C0080E090E00E941D0EE0300895FA01A08DCD
:10259C00B18D828D938D0895EA93A0E0B0E080E038
:1025AC0090E00C94D50CE12FF0E0DE011696EA0FCA
:1025BC00FB1F0895A0E0B2E080E090E008950E9437
:1025CC00D913F5DE0E94E313E150F04060407040F7
:1025DC0008952A93AF85B889E989FA8909950895F0
:1025EC00EA89FB893497EA8BFB8B0895AF85B88910
:1025FC00E989FA8909950895AA89BB8914960E94DC
:10260C00CF1308950E947210A3E0B0E00C9416133F
:10261C00A0E30E945E108AEF90E00197F1F7089515
:10262C00109639F084EC99E00197F1F7A895119781
:10263C00C9F708950024AF0DB01D0895EA0FFB1FD4
:10264C00681F791F0895AE0FBF1F861F971F08952F
:10265C00EA1BFB0B680B790B0895AE1BBF0B860BAB
:10266C00970B0895EA2BFB2B682B792B0895F1958A
:10267C00E195F0400895EE230E2EFD01BC0131F0E2
:10268C0076956795F795E7950A94D1F70895EE0F2F
:10269C00FF1FEE0FFF1FEE0FFF1FEE0FFF1F089522
:1026AC00F695E795F695E795F695E795F695E79502
:1026BC000895EE0FFF1F661F771F0895E62FF72F63
:1026CC0060E070E008956E2F7F2FE0E0F0E0089559
:1026DC006F2F660F660B762F08957A9F702D6B9F68
:1026EC00700DF89F700DE99F700D6A9F602D710D34
:1026FC00FB9F600D711DE89F600D711D8827FA9F6F
:10270C00F02D610D781FEB9FF00D611D781FEA9F76
:10271C00E02DF10D681F781F08950024112490E11D
:10272C00AA0FBB1F001C111C0E1A1F0A18F40E0E48
:10273C001F1E01C0A1609A9599F7FD01D001089563
:10274C003F934F935F93002411244427552730E285
:10275C00AA0FBB1F881F991F001C111C441F551F5B
:10276C000E1A1F0A460B570B28F40E0E1F1E461F7F
:10277C00571F01C0A1603A9559F7FD01BC01D0016A
:10278C00CA015F914F913F910895DADFFD01BC01C1
:10279C000895ED91FC9111970895ED91FD916D9136
:1027AC007C9113970895ED91FD916D917D91089514
:1027BC00ED93FD936D937C9308957E936E93FE93AE
:1027CC00EE9308956BBF0790F691E02D08956BBFC3
:1027DC000790179067917691F00108956BBFA791C0
:1027EC00B791879196910895E881F9816A817B81EF
:1027FC000895A881B9818A819B8108957A936A93FF
:10280C00FA93EA9308959A938A93BA93AA930895A4
:10281C00182E862F612D192E972F712D1B2EBF2F41
:10282C00F12D1A2EAE2FE12D0895E199FECFFF93D5
:10283C00FFB7F894AEBBBFBBE09AEDB3FFBFFF91FF
:10284C00089507D012960F01FB0103D0F0011297E7
:10285C00089507D01196EF93EF2F03D0EF911197B6
:10286C000895E19B02C0A895FCCF9FB7F894AEBB2E
:10287C00BFBBE09A8DB3E81719F0EDBBE29AE19A71
:10288C009FBF0895309760407040089500240A1649
:10289C000B06089500240A160B060806090608956F
:1028AC00EA17FB07680779070895AE17BF07860775
:1028BC00970708955A934A933A932A931A930A9333
:1028CC0008955D814C813B812A811981088108958D
:1028DC00AC0FBD1F6BBF07900D920197E1F70895E8
:00000001FF
