:0E0000000C94DE010C9400000C9400000C9493
:10000E0000000C9400000C9400000C9400000C9462
:10001E0000000C9400000C9400000C9400000C9452
:10002E0000000C9400000C9400000C9400000C9442
:10003E0000000C9400000C9400000C9400000C9432
:10004E0000000C9400000C9400000C9400000C9422
:10005E0000000C9400000C9400000C9400000C9412
:10006E0000000C9400000C9400000C9400000C9402
:10007E0000000C9400000C9400000C9400007C0115
:10008E0000007D010000890100008901000094013B
:10009E000000A1010000AC010000B7010000C70183
:1000AE000000D1010000DA010000EC010000FF01A8
:1000BE000000100200001F0200003002000040028B
:1000CE000000809A90418E418F80454545494949AF
:1000DE008E8F9092924F994F555559999A9B9C9D00
:1000EE009E9F41494F55A5A5A6A7A8A9AAABAC218D
:1000FE00AEAFB0B1B2B3B4B5B6B7B8B9BABBBCBD9A
:10010E00BEBFC0C1C2C3C4C5C6C7C8C9CACBCCCD89
:10011E00CECFD0D1D2D3D4D5D6D7D8D9DADBDCDD79
:10012E00DEDFE0E1E2E3E4E5E6E7E8E9EAEBECED69
:10013E00EEEFF0F1F2F3F4F5F6F7F8F9FAFBFCFD59
:10014E00FEFF1027E80364000A0001000010000102
:10015E0010000100DBF9EBF9556E697420546573DC
:10016E007420310035354141363642424343004614
:10017E00525F4449534B5F4552520046525F494EBF
:10018E00545F4552520046525F4E4F545F524541A6
:10019E0044590046525F4E4F5F46494C4500465209
:1001AE005F4E4F5F504154480046525F494E564194
:1001BE004C49445F4E414D450046525F44454E49C1
:1001CE0045440046525F45584953540046525F49D4
:1001DE004E56414C49445F4F424A454354004652A5
:1001EE005F57524954455F50524F5445435445440E
:1001FE000046525F494E56414C49445F445249565F
:10020E00450046525F4E4F545F454E41424C454469
:10021E000046525F4E4F5F46494C45535953544525
:10022E004D0046525F4D4B46535F41424F5254452F
:10023E00440046525F54494D454F55540045525265
:10024E004F523A2025700D0A005344204F4B3A204E
:10025E00005344204552524F523A20002C002F306A
:10026E002F756E6974746573742E747874002F30E4
:10027E002F555044415445332E444154004C6F6722
:10028E006963616C20647269766520303A206D6F07
:10029E00756E746564204F4B0D0A002F300055505B
:1002AE004441544500444F4E453030300064617433
:1002BE00612E7478740046696C6520257320637214
:1002CE006561746564204F4B0D0A002575206279B7
:1002DE00746573207772697474656E206F6620255D
:1002EE00750D0A0046696C65202573206F70656E6A
:1002FE006564204F4B0D0A00257520627974657375
:10030E0020726561640D0A0052656164207465781F
:10031E00743A20222573220D0A00706666205465F9
:10032E007374332E00546573743320646F6E652EB0
:10033E0000000BFA2BFA01002D4E414E00494E469D
:10034E00000080C004000A00620100000B00D60904
:10035E0066010000100020096C0200001000300938
:10036E006C0200000F0040097C02000003004F09E0
:10037E00A902000007005209AC020000080059094A
:10038E00B302000009006109BB0200000200E30A8B
:10039E00400300000200E50A420300000100EC0ADF
:1003AE00440300000200F00A500300000000F8941D
:1003BE00EE27ECBBF1E0F5BFE5BFE0936C008DE0FE
:1003CE00A2E0BB27ED938A95E9F780E090E1A0E0EB
:1003DE00B1E0ED930197E9F7E2E5F3E0D0E0DBBFA2
:1003EE0087919791009781F0A791B79107901790F9
:1003FE00C791D791BF01DBB7F001CBBF07900D922C
:10040E000197E1F7FB01EBCFEFEFEDBFE0E1EEBFC0
:10041E00C0E2D9E00C943503AA932597AD81A53699
:10042E0010F0E4E6ED83ED810E94E413AE81A0307E
:10043E0010F0A83008F03FC0E0E0EA93A0E00E9480
:10044E005C13EBE4F2E060E070E00E940D18EA85C8
:10045E000E94EB130E94F6170E94F813EE81E03013
:10046E0029F4A7E5B2E080E090E004C0AFE5B2E089
:10047E0080E090E00E94A313A4E6B0E00E9415175E
:10048E00DE010E949213AAE6B2E080E090E00E94A4
:10049E00A313EE810E94E413DE010E949213E0E0AA
:1004AE00EA93A1E00E945C13EE810E94EB130E947E
:1004BE00FD170E94A313A898A998A6E9B0E00E9480
:1004CE001517A99AA89AA6E9B0E00E941517ECEFA5
:1004DE00E5BBACCF2A978AE0A0E0B0E0E2E7F1E01E
:1004EE0060E00E947718E6E9F9E0FA93EA93A0E457
:1004FE00B9E00E94131344245524E5E0F0E04E16B3
:10050E005F066CF4AAE6B9E00E947C0B7E2E772083
:10051E0031F00E94FF13F20131962F01EECF7720BA
:10052E0059F4EBE8F2E060E070E00E940D1880E014
:10053E000E94C012249603C07A92A1E06DDFEFE410
:10054E00F9E0FA93EA93E2E5F9E0FA93EA93A9E582
:10055E00B9E00E94AC107E2E772019F07A92A6E1B7
:10056E005BDFA1E6B9E00E949F0C7E2EE03039F4ED
:10057E00E4ECF2E060E070E00E94031406C0E3E0F9
:10058E00E71519F07A92A2E047DFFE01FA93EA939B
:10059E00E8E0F2E0FA93EA93EAE0F0E00E940A144F
:1005AE000E94E50E7E2EE03019F40E940F1403C057
:1005BE007A92ADE531DFE6EDF9E0FA93EA93EBE0FE
:1005CE00F0E00E940A140E94D30D7E2EE03019F442
:1005DE000E940F1403C07A92A3E01EDFA6E9B9E0D1
:1005EE000E949F0C7E2EE03039F4E2EFF2E060E0E4
:1005FE0070E00E94031403C07A92A7E00DDFE2EED2
:10060E00F9E0FA93EA93EFEFF0E00E940A140E94E9
:10061E00E40C7E2EE030E9F4E6E0F3E060E070E01A
:10062E000E940D18F401662777270E94F813F40133
:10063E00ED51F64FA0E0A083E6E1F3E060E070E05C
:10064E000E940D18E2EEF9E0662777270E94F81354
:10065E0003C07A92A6E0E0DEE1E0D1C0D1507894FA
:10066E00EFEFE4BBE5BBA0E10E94B5130E946B1354
:10067E000E946B13A8E2B3E080E090E00E94A31307
:10068E00A8ECB0E00E94151725DFE0E0EA93A0E0A9
:10069E000E945C13A3E3B3E080E090E00E94A313FA
:1006AE00A898A9980E94FF13A99AA89A0E94FF13CE
:1006BE00ECEFE5BBF5CF0030E1E01E0744F4F801A6
:1006CE00DE01EA0FFB1F00830F5F1F4FF4CF0E9466
:1006DE002514FE013496FA93EA93A0E0B1E0BAD065
:1006EE00E03009F0AA980E9425140E942C14E09183
:1006FE00E20AE03029F5E3E0F0E060E070E00E940D
:10070E003414A091E20AA13031F4E0E0F1E060E0AF
:10071E0070E00E943414A091E20AAE3F31F4E1E0A1
:10072E00F1E060E070E00E943414A091E20AAF3F65
:10073E0039F4A8980E94FF13A89A0E94FF13F9CFCC
:10074E00A9980E94FF13A99A0E94FF13F9CFFFCF19
:10075E000E9412180E9437140E9437146BBFE69144
:10076E00E9C10E943A140E943F140E943F14E030E7
:10077E00C9F400E010E00030E1E01E0778F4F80163
:10078E00AA81BB81EA0FFB1FFF93EF930E944414D3
:10079E00AF91BF91EC930F5F1F4FEDCFE1E0198149
:1007AE000881AAC1E0E019810881A6C10E943A140D
:1007BE000E944F14E050F0426F4F7F4F0E9454142E
:1007CE0000E010E0EA81FB810E171F07A8F4F80184
:1007DE00AC81BD81EA0FFB1FFF93EF93F8010E94DE
:1007EE005914662777270E942817B2DFAF91BF9161
:1007FE00EC930F5F1F4FE6CFE1E0198108812A9637
:10080E0008950E943A140E943F14E030F1F400E083
:10081E0010E00030E1E01E07A0F4F801AA81BB81D0
:10082E00AE0FBF1FEC91EF930E944414AF91EA17E5
:10083E0029F0AE98E0E0198108815EC10F5F1F4F6D
:10084E00E8CFE1E01981088157C1AF98E0E0198146
:10085E00088152C1BA93AA932897D1500E946B185F
:10086E000E945E14309709F491C00E9465140E9494
:10087E0072140E943217A887B9878A879B870E94B5
:10088E007B14E050FF4F6F4F7F4F0E9480140E94E9
:10089E0072140E943F140E942D17DF01CB010E949B
:1008AE005E14662777270E94641860F0FE01E45FED
:1008BE00FE4F01911081E0E0DE01A45FBE4FED938B
:1008CE00EC9314C0DE01A05FBE4F0D90BC91A02D25
:1008DE00EC81FD81EA1BFB0B8F010E945E14E01B75
:1008EE00F10BDE01A45FBE4FED93FC930E947B14CF
:1008FE000E940D18DE01509634DFE03019F4AB98EB
:10090E00E0E045C0FE01E05FFE4F0190F081E02D7A
:10091E00F0709F010E946514DF01CB01F8010E9467
:10092E008514D901882799270E946418A8F4F90123
:10093E00DE011C96EA0FFB1F0F01DE01A25FBE4F08
:10094E00ED91FD913196FE93EE933197E081D001BA
:10095E00EC932F5F3F4FDECF0E943F14DE01A05F6E
:10096E00BE4FED93FD936D937C930E947B14E050EC
:10097E00F0426F4F7F4F0E940D18DE0150960CD043
:10098E00E03019F4AC98E0E002C06ACFE1E00E94DA
:10099E0072186496DF5F0895BA93AA9324970E9403
:1009AE006B180E948A140E948F14A8D0E03009F4AC
:1009BE0063C00E948A140E940D18E0E0F1E0FA93E1
:1009CE00EA93AE85BF855DD0E03029F4E0E00E9469
:1009DE0072182E960895ECB3E8703E2FE398E199C5
:1009EE00FECF2FB7F8940E948F14E091E30AF09196
:1009FE00E40A099500E010E00030E1E01E07E0F4A3
:100A0E00F801662777270E940D18F801AC85BD8581
:100A1E00AE0FBF1F0C9011243196AC85BD85AE0F65
:100A2E00BF1FEC91FE2FE0E0D001AE0FBF1FF5010E
:100A3E0009950E5F1F4FE0CF0E948F14F6010995A6
:100A4E000E948A140E940D18AC85BD85DADEE03056
:100A5E0029F4E0E00E9472180C94730AECB3E32BB5
:100A6E00ECBB2FBFA0E1B0E0E0E00E944018E1E057
:100A7E000E9472180C94730AE0E00E9472180C9493
:100A8E00730ABA93AA930E943F14AAE0B0E00E94A0
:100A9E003018AEE0B0E0EA81FB810E943818AA81DE
:100AAE00BB810E94551818F5A1E1B0E0EA81FB81E7
:100ABE003197EA0FFB1F0F010E949414D0010E9480
:100ACE004018A1E1B0E0EA81FB813197AE0FBF1F64
:100ADE000E9424180E2E0E949414E01511F0E0E0EE
:100AEE000BC0EA81FB813197EA83FB83D8CFA0E16B
:100AFE00B0E0E1E00E944018289608950E94121876
:100B0E000E940818A030E0EEBE07E0E08E07E0E09D
:100B1E009E0760F0A030E0EEBE07E1E08E07E0E059
:100B2E009E0720F40E943714E03009F002C0E1E085
:100B3E0001C0E0E024960895E7B3E760E7BBE8B3B1
:100B4E00EF60E8BBE0E5EDB9E1E0EEB90895AA93F8
:100B5E00E881EFB9779BFECF219608951A93EFEFB8
:100B6E00EFB9779BFECF1FB1E12F19910895F6DFF4
:100B7E0008950E9412181A930A93EE81E07849F0B4
:100B8E00EE81EF77EE83E7E70E949D140E2F023081
:100B9E0070F5C09AE3DFC098E1DFAE810E94A41425
:100BAE00E8E10E944517AE2FD2DF0E94AB140E94DF
:100BBE006817AE2F0E94A414E8E00E944517AE2FCE
:100BCE00C6DFAA81C4DF11E0AE81A03409F415E9B5
:100BDE00AE81A83409F417E8A12FB9DF1AE0BEDF01
:100BEE000E2F07FF02C0115009F401C0F8CFE02FFD
:100BFE00198108812796089524970E94691820E08C
:100C0E00253008F08BC098DF14E6103019F0A6DFFF
:100C1E001150FBCF30E0E0E40E949D14E13009F06A
:100C2E0072C0E8E4EA93AAEAB1E080E090E0A1DFC6
:100C3E00E13009F044C010E0143050F40E94B014BA
:100C4E00FF93EF938BDFAF91BF91EC931F5FF4CFC8
:100C5E00A885A13019F4A985AA3A09F02FC040EE53
:100C6E005EE2042E052A49F0E9EEEA93A0E0B0E038
:100C7E0080E090E47EDFE03009F403C04150504044
:100C8E00F0CF042E052A29F0EAE70E949D14E030E9
:100C9E0009F014C010E0143050F40E94B014FF9309
:100CAE00EF935CDFAF91BF91EC931F5FF4CFEE81BA
:100CBE00E07411F0ECE001C0E4E03E2F24C0E9EE58
:100CCE000E949D14E23018F432E009EE02C031E0C9
:100CDE0001E448EA51E6042E052A31F00A930E94F7
:100CEE00B71447DFE03009F403C041505040F3CF52
:100CFE00042E052A39F0E0E5EA930E94BC1439DF90
:100D0E00E03009F030E03093E70A31DF303031F473
:100D1E002F5FA8ECB0E00E94151772CF303011F0A3
:100D2E00E0E001C0E1E037C40E94C114E091E70A9F
:100D3E00E87041F40E947B140E94C614E887F9877C
:100D4E006A877B8711E0E1E5EA930E94CA1411DFFE
:100D5E00E03009F047C020E335E700DF0E2F0F3FEC
:100D6E0019F42150304009F401C0F7CF0E3FD1F5F0
:100D7E00AE81BF81E2E0F2E0EA1BFB0BDF01EC810A
:100D8E00FD81AE1BBF0B9D01EE81FF81309739F0C7
:100D9E00E5DEEE81FF813197EE83FF83C9F7EC85A7
:100DAE00FD85309799F0EC85FD853196EC87FD87B2
:100DBE003197FF93EF93D2DEAF91BF91EC93EC811D
:100DCE00FD813197EC83FD8371F706C0EC81FD81C7
:100DDE003197EC83FD83D1F7C1DEF90131979F0185
:100DEE00D9F710E0C4DEE12F0E94721875C30E947D
:100DFE0012180E946B1811E0E885F9853097F9F00A
:100E0E002C813D81022E032A31F0E091E80AF09107
:100E1E00E90A309709F411C0A885B985ED91A88724
:100E2E00B987AE2F94DEA8EEBAE0ED91FD91319721
:100E3E00FE93EE9321503040E5CF10E047C00E9464
:100E4E003F140E945118F9F0E091E70AE87031F46E
:100E5E000E943F140E94C6140E948014E8E5EA9393
:100E6E00AD81BE818F81988584DEE03059F4AFEF7D
:100E7E006EDEAEEF6CDEE0E0F2E0E093E80AF093B7
:100E8E00E90A10E023C0E091E80AF091E90A3296EF
:100E9E009F01F90121503040309719F0A0E057DE44
:100EAE00F8CF5CDEEF71E53081F428EE3DEF56DED3
:100EBE00EF3F19F0022E032A09F403C021503040EF
:100ECE00F6CF022E032A09F010E051DEE12F0E9428
:100EDE00721863C30E943A140E811F81EA81FB814E
:100EEE003197EA83FB83319649F01F930F930F5F7F
:100EFE001F4FEC81AF91BF91EC93F0CF1981088118
:100F0E00BCC30E94CF140A851B852885398540E015
:100F1E0050E0EE81FF813197EE83FF83319681F0B1
:100F2E00D8010F5F1F4F0C901124D9012F5F3F4F37
:100F3E00AC91BB27F001EA1BFB0BAF01309709F018
:100F4E0001C0E7CFFA010E9470182C9608950E94F6
:100F5E00121826970E9469180E94D414EE83FF83FC
:100F6E000E94D9140E94DE1450F0AE81BF811896F3
:100F7E000E94DC170E94D9140E94641808F0A2C0C7
:100F8E00AE81BF81EC91F0E0E130A0E0FA0709F00C
:100F9E0049C02C853D85F901F695E7952E0F3F1F2B
:100FAE00F901F170AF01D901E0E0F2E00E949C1767
:100FBE009F01EFEFF1E0E417F50759F00E94E614F8
:100FCE000E940D185A934A930E94F21409F07AC0A7
:100FDE001BC00E94E6140E940D18EFEFF1E00E9474
:100FEE00F81409F06FC0FE0139960E940015F90140
:100FFE000E9485140E9409150E940D18E0E0F0E091
:10100E000E94F81409F05EC008851985EC85E17020
:10101E0021F0F8010E945A1702C0F801FF706627EE
:10102E00772754C0E230A0E0FA0709F5FE013896A2
:10103E000E9400159F938F93BF93AF930E940E153E
:10104E00E0E0F1E060E070E00E94AF17AF91BF9179
:10105E008F919F910E941315F070EE0FFF1F0E944B
:10106E001A1581F5E885F985662777272FC0E330B5
:10107E00A0E0FA0739F5FE0138960E9400159F93FD
:10108E008F93BF93AF930E940E15E0E8F0E060E0FF
:10109E0070E00E94AF17AF91BF918F919F910E9408
:1010AE001315EF77F0700E945517FA93EA93A4E0A8
:1010BE000E941D1539F40E947B14EF7FFF7F6F7F16
:1010CE007F7004C0E1E0F0E060E070E00E94701814
:1010DE00609608950E9412180E9422150E94AB1469
:1010EE00E250F040604070400E942915F801A08542
:1010FE00B18582859385E2E0F0E060E070E00E94C9
:10110E0017180E942D170E942E150E94641828F0A1
:10111E000E94331519810881E6C2F801E181F0E0E1
:10112E000E942E150E9472170E947C177F936F9358
:10113E00FF93EF93D80154960E94DC17AF91BF91A5
:10114E008F919F910E94231719810881CCC2BA9367
:10115E00AA9324970E942215AE81BF810E94381552
:10116E00AE81BF8114960E943D150E942E15A130AE
:10117E00E0E0BE07E0E08E07E0E09E0749F0D80110
:10118E0018960E94DC170E942E150E94641820F0FB
:10119E00E1E01981088171C20E94AB140E945118BE
:1011AE0021F4D801AC91A33009F004C0D8015096B7
:1011BE000E943D150E94AB14AE81BF8118960E940D
:1011CE00E7170E94AB140E94511821F00E942E15B1
:1011DE0081DF04C0D80150960E94DC17AE81BF811A
:1011EE001C960E94E717E0E01981088146C2BA9367
:1011FE00AA9324970E944015A885B9850E94D817F6
:10120E0031968F01002E012A19F00E94471521F404
:10121E00E3E00E947218C1C1F801EF7009F059C0E5
:10122E00A885B9851C960E94E217EF5FFF4F6F4F9E
:10123E007F4F0E94EC17A885B98518960E94DC177F
:10124E000E94511861F4D90114960E94D8170E17F6
:10125E001F0720F0E3E00E9472189FC13AC0F80108
:10126E000E945A17DF01F901E181F0E03197EA237C
:10127E00FB23309771F5E885F985A085B1858285C8
:10128E00938565DE0E9480140E944F150E94DE1425
:10129E0020F4E1E00E94721880C1D90118960E94D4
:1012AE00DC170E944F150E94641820F0E3E00E94A4
:1012BE00721873C10E943F14A885B98518960E94B2
:1012CE00E7170E944F1506DFA885B9851C960E9468
:1012DE00E717A885B9850D931C93E0E00E9472185C
:1012EE005CC10E94C114AC81BD8131DF1E2F103054
:1012FE0019F00E947218F7C10E9454152D913C915D
:10130E003A932A93EE81FF810E945A15AA85BB85D6
:10131E000E94611511F0E1E001C0E0E01E2F1030D7
:10132E00F9F4D9010C91003011F413E019C0F90150
:10133E00E385E87069F43A932A93EE81FF81A281E6
:10134E00B381BA93AA93ABE0B0E0DBDD309709F03E
:10135E0001C006C0AC81BD814ADF1E2F103081F264
:10136E00E12F0E947218BFC10E94CF1413E00E9499
:10137E0054154D915C91AE81BF811C960E94DC1775
:10138E000E94511849F15A934A93E885F9850E94B3
:10139E005A15AC85BD850E94611511F0E1E001C0C2
:1013AE00E0E01E2F1030C1F4DA013C91303011F420
:1013BE0013E012C0FA01E385EF730E2F353E21F0D4
:1013CE003E3211F003FF01C001C006C0AE81BF81E5
:1013DE000EDF1E2F103079F2103021F0AE81BF815A
:1013EE000E946C15E12F0E94701847C1BA93AA9300
:1013FE0024970E946918AC85BD8512960E94D81755
:10140E00E887F987FA93EA93E0E2F0E0FA93EA9339
:10141E00ABE0B0E05FDDE0E05E2F2E2F38E0AA8576
:10142E00BB850E94D817EE83FF830E9471151C9115
:10143E00113210F01F3209F439C01E3211F0531759
:10144E0040F0383011F41E3209F030C058E03BE065
:10145E002CC0103858F0E12FF0E0E058F04066272D
:10146E007727E053FF4F6F4F6BBF1691E0E0E030F0
:10147E0041F0E32FF0E03197A52FB0E0AE17BF0794
:10148E000CF40AC00E9471150C910E9479151083FC
:10149E000E947915008309C0113610F01B3708F031
:1014AE0001C010520E9479151083BFCFE22FAE817A
:1014BE00BF81F0E0EA0FFB1FAA85BB85ED93FC937D
:1014CE00113210F4E1E001C0E0E0A885B9851B9669
:1014DE00EC93E0E00E9470182E9608950E94CF14AF
:1014EE00EE81FF813996AF010E94471509F450C075
:1014FE000E9454152D913C9110E0183080F40E94FA
:10150E00811569F0053009F405EE5F934F934F5F37
:10151E005F4FE02FAF91BF91EC931F5FEECFF901BC
:10152E00A085A032A9F0DA014F5F5F4FEEE2EC9397
:10153E0018E01B3068F40E94811551F05F934F93B1
:10154E004F5F5F4FE02FAF91BF91EC931F5FF1CFD5
:10155E00F901E385AE81BF811896EC93D9015C96B3
:10156E000E94DC17AE81BF810E94E717D901589601
:10157E000E94D817AE81BF811496ED93FC93D901CA
:10158E0056960E94D817AE81BF811696ED93FC93A6
:10159E00DA01E0E0EC930E9470182A9608950E94FA
:1015AE00C114AC81BD81AC91A03231F4EC81FD81CE
:1015BE003196EC83FD83F5CFAC81BD81AC91AF321A
:1015CE0029F4EC81FD813196EC83FD83AE81BF81E0
:1015DE0014960E948815AC81BD81AC91A13258F44D
:1015EE00AE81BF81B4DD1E2F0E94D414A681B781B7
:1015FE00E0E0EC933FC0EE81FF81FA93EA93DE01C7
:10160E001696F4DE1E2F1030A9F5AE81BF8169DE6D
:10161E001E2F103041F0133019F40E948C1509F072
:10162E0001C014E027C00E948C1521F50E945415AC
:10163E002D913C91F901E385E07111F414E01AC08B
:10164E00D90154960E9494150E946D177F936F9343
:10165E00FF93EF93D9015A960E94D817AF91BF917D
:10166E008F919F910E949915AE81BF8114960E9411
:10167E00E717C1CFE12F0E947218289608950E9495
:10168E0012180E949E15EEEFF1E00E941A1511F04D
:10169E00E3E029C00E94A615E535AAEAFA0711F083
:1016AE00E2E021C00E949E15E6E3F0E00E941A15CA
:1016BE0031F40E94A615E634A1E4FA0709F002C03F
:1016CE00E0E011C00E949E15E2E5F0E00E941A15BE
:1016DE0031F40E94A615E634A1E4FA0709F002C01F
:1016EE00E0E001C0E1E026960895BA93AA93E4974C
:1016FE001A93E0E0E093EA0AE093EB0AEDA9FEA963
:10170E00309709F411C178DAE17011F0E2E00DC101
:10171E00E0E0ED87EE87EF87E88B0E94AB150E9425
:10172E00B0151130E9F40E94AB150E94B815EEEB1E
:10173E00F1E0FA93EA93A0E10E941D1511F013E077
:10174E000FC0ED89E03061F0E98DFA8D6B8D7C8DE7
:10175E00ED87FE876F87788B0E94AB150E94B015C0
:10176E00133011F4E1E0E1C0103011F0E7E0DDC01C
:10177E000E94AB150E94B815EDE0F0E0FA93EA93E3
:10178E00A4E20E941D1511F0E1E0CFC0FE01B79654
:10179E003D97DF010E9494150E94BF150E94C4154B
:1017AE000E94511841F4FE01F5963D97DF010E940B
:1017BE00DC170E94BF15EC89F0E00E94CA140E944B
:1017CE0072170E947C170E94BF150E94C915AD8525
:1017DE00BE858F8598890E948514ADA9BEA91C96D9
:1017EE000E94E717E989ADA9BEA91196EC93FE01F7
:1017FE00B2963D97DF010E94D817ADA9BEA91496E7
:10180E00ED93FC93FE01B4963D97DF010E94941573
:10181E00ED83FE836F8378870E94511851F4FE0189
:10182E00F1963D97DF010E94DC17ED83FE836F83F7
:10183E0078870E94C915AD81BE818F8198856627F4
:10184E0077270E9417180E942D170E94CA140E9413
:10185E002D177F936F93FF93EF930E94D015AF9147
:10186E00BF918F919F91662777270E943217EDA91E
:10187E00FEA90E94D8150E94AF17EE5FFF4F6F4F63
:10188E007F4FE983FA836B837C83ADA9BEA918963B
:10189E000E94E71711E0A981BA818B819C81A73F35
:1018AE00EFE0BE07E0E08E07E0E09E0708F012E0F2
:1018BE00A981BA818B819C81A73FEFEFBE07E0E043
:1018CE008E07E0E09E0708F013E0ADA9BEA91C93B9
:1018DE00133029F4E8A9F9A96AA97BA902C00E94CC
:1018EE00DD15ADA9BEA950960E94E7170E94DD1521
:1018FE007F936F93FF93EF930E94D015AF91BF919B
:10190E008F919F910E948514ADA9BEA954960E94F5
:10191E00E717ADA9BEA91296E0E0EC93EDA9FEA9DA
:10192E00E093EA0AF093EB0AE0E01881E796089557
:10193E00BA93AA93EC970E944015022E032A11F433
:10194E00E6E036C0D9011296E0E0EC930E94E7156E
:10195E00EAABFBABFE01F096FA93EA93DE01AE5BC7
:10196E00BF4F0D90BC91A02D1ADE1E2F103009F026
:10197E001FC0EC81E03019F0EF85E07111F0E3E06B
:10198E0017C00E94F015D90190960E94E717E8A1A2
:10199E00F9A16AA17BA1D9015C960E94E717D90132
:1019AE0058960E948815D9011296E1E0EC93E0E07A
:1019BE000E947218EF9623960895BA93AA932E97C3
:1019CE000E946918288D398D0E94D414EE83FF83EE
:1019DE00AC89BD890E943815EE81FF81309711F4D4
:1019EE00E6E0D6C0EE81FF81A281A17011F4E5E0A0
:1019FE00CFC0EE81FF81A48DB58D868D978D9F937F
:101A0E008F93BF93AF930E94FB15EF91FF916F9150
:101A1E007F910E942D17E887F9876A877B870E943E
:101A2E007B14AE89BF89882799270E945F1820F4FE
:101A3E00E885F985EE8BFF8BEE89FF89309709F4E7
:101A4E00A1C00E94FB15FD01BC01F170309709F099
:101A5E004DC00E94FB150E940216EE81FF810E946E
:101A6E00D8150E94D4170E94511841F50E94FB15FB
:101A7E000E94591831F4AE81BF8190960E94DC17F6
:101A8E0003C00E940B1663DAE88BF98B6A8B7B8B93
:101A9E00A889B9898A899B890E94DE1408F474C0CA
:101AAE00E889F9896A897B89AE81BF8194960E9403
:101ABE00E717AE81BF811396E0E0EC930E940B1600
:101ACE0009DBEC87FD876E877F870E94511809F42A
:101ADE005BC0AE81BF810E9412160E94D9140E9473
:101AEE001916AE81BF8198960E94E717EE81FF818D
:101AFE000E941E16A0E0B2E0AE1BBF0BAD01EE8938
:101B0E00FF89E417F50710F44E895F89E88DF98D8A
:101B1E00309719F4E0E0F0E001C0F901FA93EA938E
:101B2E00E885F985A0A5B1A582A593A50E941218F6
:101B3E00AC85BD8558960E94D817F170FA93EA933A
:101B4E00DA01F2D81E2F1030F9F4EE81FF810E94D7
:101B5E002316DF01CB01FA010E948514D0010E94E9
:101B6E00E717240F351FEE89FF89E41BF50BEE8B6B
:101B7E00FF8BAC89BD89ED91FD91E40FF51FFE93AE
:101B8E00EE935ACFE0E004C0AE81BF810E942916C9
:101B9E000E9470186A960895BA93AA932C970E9481
:101BAE0069180E891F894091EA0A5091EB0AAA8999
:101BBE00BB890E943815042E052A11F4E6E005C0F3
:101BCE00FA01A281A17029F4E5E00E9470186896CE
:101BDE000895EC89FD893097A9F4FA01A281A074C9
:101BEE0039F00E942E160E94B71401D9E03009F484
:101BFE0001C0DFC0DA011296EC91EF7BEC93E0E0CE
:101C0E000C94BC12FA01A281A07441F4DA01589628
:101C1E00ED91FD91E070FE7FFE93EE93FA01A48D9F
:101C2E00B58D868D978D9F938F93BF93AF930E94A3
:101C3E003316EF91FF916F917F910E942D170E94A5
:101C4E0054140E944F14AC89BD89882799270E948D
:101C5E005F1820F4EE81FF81EC8BFD8BEC89FD8902
:101C6E00309709F4A3C0FA010E941E16309709F0AE
:101C7E0059C00E9433160E940216FA010E94D8150E
:101C8E000E94D4170E94511811F50E9433160E941B
:101C9E00591829F4DA0190960E94DC1706C0FA0151
:101CAE00A4A1B5A186A197A152D90E9439160E946E
:101CBE000E150E94DE1408F47CC00E943E16DA0156
:101CCE0094960E94E717DA011396E0E0EC93FA017E
:101CDE00A4A1B5A186A197A1FDD9EA87FB876C8740
:101CEE007D870E948A140E94511809F462C0DA019D
:101CFE000E9412160E948F140E941916DA019896ED
:101D0E000E94E7170E942E16FA01A0A5B1A582A582
:101D1E0093A56DD8E03009F04CC0DA011296EC9123
:101D2E00E064EC93FA010E941E16A0E0B2E0AE1B36
:101D3E00BF0B9D01EC89FD89E217F30710F42C8986
:101D4E003D891A930A93D9018827992750D8E030F4
:101D5E0081F5FA010E942316DF01CB01F9010E94E1
:101D6E008514D0010E94E717020F131FEC89FD891D
:101D7E00E21BF30BEC8BFD8BAA89BB89ED91FD91D8
:101D8E00E20FF31FFE93EE93FA010E941E16309798
:101D9E0061F40E942E160E94B71429D8E03049F43F
:101DAE00DA011296EC91EF7BEC9358CFE0E00C94B5
:101DBE00BC12DA010E9429160C94BC12BA93AA9393
:101DCE002297D2500E9469180E9443169F0140E04C
:101DDE0050E00E94D414EE83FF830E944B16A13074
:101DEE00E2E0BE0710F0E1E05BC00E945216E0E0B8
:101DFE00F2E00E949C17EE0FFF1FFE2FE0E0662719
:101E0E007727DF01CB0151D01E2F0E9443160E946F
:101E1E004B16AE0FBF1FA130E2E0BE07F8F00E94D6
:101E2E005916CBDD1E2F103009F03AC02030E2E0FB
:101E3E003E0738F40E9462162F5F3F4F4F5F5F4F91
:101E4E00F5CF0E94FB150E9475160E945916A4DE4E
:101E5E001E2F103009F024C020E030E00E945916E9
:101E6E00ACDD1E2F0E94FB150E947516103011F06E
:101E7E00E12F16C0FE01E65FFD4F0190F081E02DCF
:101E8E004E175F0738F40E9462162F5F3F4F4F5F69
:101E9E005F4FF0CF0E9459167FDE1E2F103001F0DB
:101EAE000E9470186096DE5F08950E941218609767
:101EBE000E942215002E012A11F4E6E0D7C0F80187
:101ECE00A281A17011F4E5E0D1C0D8015C960E9408
:101EDE007D160E945F1840F4D8015C960E94DC17B4
:101EEE00EA8BFB8B6C8B7D8BD80158960E943D152F
:101EFE00D80158960E9488150E9484160E9459187F
:101F0E0008F0AFC0F8010E94D8150E94C614EA87E7
:101F1E00FB876C877D870E942E150E94591898F4B6
:101F2E000E9489160E948E167F936F93FF93EF93F4
:101F3E000E94AB140E948E16AF91BF918F919F910C
:101F4E000E94641808F423C00E94AB140E949816D5
:101F5E00DF01CB010E948A140E9498160E94771707
:101F6E000E943717D80158960E94E717D801589645
:101F7E000E947D160E943217AA8BBB8B8C8B9D8B79
:101F8E00D80194960E94DC170E94391608C0D80119
:101F9E0090960E94DC170E9439160E949D160E9490
:101FAE008A140E9484160E945F1860F50E940E1516
:101FBE000E94AE070E9439160E940E150E94DE1472
:101FCE0048F0D80118960E94DC170E940E150E9448
:101FDE00641808F048C00E949D16F8010E9423164E
:101FEE000E948F140E942317D0010E94E7170E94AF
:101FFE008F140E9489160E942D17EA8BFB8B6C8B17
:10200E007D8BCDCFF8010E9423160E9484160E946C
:10201E002317D0010E94E7170E940E155BD80E946D
:10202E0054140E944F140E945118E9F00E94841615
:10203E00E0E0F2E060E070E00E94AF17D801139686
:10204E00EC930E948916F170309759F0D8010E94D6
:10205E0012160E9459140E941916D80198960E94C1
:10206E00E717E0E003C0D8010E9429161981088104
:10207E0066960895BA93AA93AC970E944015022EC5
:10208E00032A11F416E025C00E94E715AAA9BBA9E0
:10209E001296ED93FC930E94A31681DA1E2F103038
:1020AE00A9F4EC81E03061F0EF85E07141F00E941F
:1020BE00F015AAA9BBA914960E94E71701C014E057
:1020CE00103021F4AAA9BBA942D81E2F133009F44F
:1020DE0014E036C0BA93AA93AC970E944015022E14
:1020EE00032A11F416E02CC00E94E715AAA9BBA979
:1020FE001296ED93FC93E8A9F9A9309731F4AAA9A9
:10210E00BBA90E94AE081E2F1BC0AAA9BBA92CD921
:10211E001E2F133029F4AAA9BBA90E946C1510E03A
:10212E00103071F40E94A316D9D9AAA9BBA95FD801
:10213E001E2F133029F4AAA9BBA90E946C1510E01A
:10214E00E12F0E947218E4960895BA93AA93A69767
:10215E00D2500E9469180E94AA160E94B01609F069
:10216E00A8C00E94BB169F010E94BB16AF010E9421
:10217E00AA160E94C31631F4FE01EA5EFD4FA18538
:10218E00A03009F496C040E050E04217530784F4A3
:10219E000E94CB16DE01A25DBD4F0D90BC91A02D0D
:1021AE00AE0FBF1FEC91E11519F44F5F5F4FEDCFEE
:1021BE004217530709F07BC0FE013696FA93EA9355
:1021CE000E94D4160E940D180E942E16A0E0B2E0B6
:1021DE000E949B061E2F103009F06BC00E94DC1669
:1021EE000E9420139F0140E050E042175307F4F481
:1021FE00FE01EA5FFD4F0190F081E02D3197EE0F69
:10220E00FF1F0E945117F170E40FF51FDE011696A5
:10221E00EA0FFB1FBF01FA010E94DC16AE0FBF1FB3
:10222E00EC91DB01EC934F5F5F4FDFCF0E942E16D8
:10223E000E94D416DF01CB010E94E316D1F5FE01F8
:10224E003696FA93EA930E94BC140E94E31689F51F
:10225E000E942E160E94B7140E94E31651F50E949A
:10226E00AA160E94B01629F50E94AA160E94C3163D
:10227E0031F4FE01EA5EFD4FA185A03009F419C0CC
:10228E0040E050E04217530774F40E94CB160E94B0
:10229E00DC16AE0FBF1FEC91E11511F0E3E00AC0A2
:1022AE004F5F5F4FEFCF4217530719F001C013E096
:1022BE005ECFE12F0E947018E296DE5F0895AA931A
:1022CE005D9BFECFE881ECB90C94E213BA93AA930E
:1022DE00AA81F5DFA881B981ED91FD913196FE932A
:1022EE00EE930C94A113BA93AA9328970E9469189F
:1022FE0010E0AE85BF850E943815DE0154960E940F
:10230E00E8166BBFE6912E2FE03009F42AC1E12FBB
:10231E00E03039F4253211F411E002C00E94EE16BD
:10232E001FC1E130A9F4253219F40E94EE1617C12F
:10233E0012E040E000E02D3211F401E011C12B3229
:10234E0011F44BE20DC1203211F440E209C102C07A
:10235E00E23039F450E013E0203311F4006800C18C
:10236E0003C0E33009F0FCC0203310F02A3308F02C
:10237E0007C0AAE05A9F502DE22FE0535E0FF0C027
:10238E00E22FE33649F40E94F516EA89FB89A4810F
:10239E00AA930E94FB16E3C0E33761F40E94F51680
:1023AE000E940117EE83FF83AE81BF810E9420132E
:1023BE001E2F11C0E03799F40E94F516AA89BB8929
:1023CE0014960E94DC170E9454140E9459140E9405
:1023DE002C131E2F086002600F7730E03AC0E436EF
:1023EE0011F0E93611F4046002C0E53741F4E0E57E
:1023FE00F1E060E070E00E94541415E00EC0E83584
:10240E0011F4086003C0E83709F0A9C0EAE5F1E06D
:10241E0060E070E00E94541414E002FF14C00E94A9
:10242E00F5160E940117EC87FD87AD85AA232AF4C5
:10243E000E944117EC87FD874DE2403011F01F5F7F
:10244E0001C00B7F06C00E94F5160E940117EC8793
:10245E00FD8700FD11C0151778F407FF08C002FFB5
:10246E0004C00B7F242F115001C020E301C020E2D5
:10247E000E94EE165150EFCF312F01FF18C03030B1
:10248E00A9F003FF07C0DE0116960E94E8166BBF87
:10249E00269105C0AE81BF812D91AE83BF830E9470
:1024AE00EE16503009F051503150E9CF4EC020E3B6
:1024BE000E944F140E94F117EA87FB870E944F1467
:1024CE00EE5FFF4F6F4F7F4F0E945414EA85FB85DE
:1024DE00AC85BD85AE17BF0750F02F5FAA85BB85B3
:1024EE00EC85FD85EA1BFB0BEC87FD87EFCF2A33CE
:1024FE0028F003FF02C0295F01C0295D04FD1AC048
:10250E00213320F4AA85BB85119709F409C053170E
:10251E0010F000FF01C013C020E207FF0BC020E344
:10252E00006102FF07C00B7F4A930E94FB165030DA
:10253E0009F051500E94EE16503009F051503150B2
:10254E00AA85BB85129708F0B2CF00FF08C05030A5
:10255E0031F05150E0E2EA930E94FB16F8CF10E002
:10256E00CCCEAE85BF850E94D8170E947018689693
:10257E000895FF92F82E26971A930A93DE01149669
:10258E000E941F178D01E0E0EC83ED83EE83EF8355
:10259E00DE0118960E941F170E94DC170E940D186C
:1025AE001A930A93EDE6F1E1FA93EA93DE011A9695
:1025BE009ADE198108812896FF900895BA93AA93FE
:1025CE00A991B991E991F99130962AF4E095F09597
:1025DE0031966DE26D93E89480E197E20DD088EE2E
:1025EE0093E00AD084E6992707D08AE005D06E2FB3
:1025FE0010D066276C9308956627E817F90720F028
:10260E006395E81BF90BC9F7662311F416F00895CC
:10261E006894605D6D930895BA93AA93E991F991C8
:10262E00A991B991CD0161916D936623E1F7FC01FA
:10263E000895BA93AA93A991B991EE27FF276D91A8
:10264E00662311F03196FBCF08950E941218AA2727
:10265E00BB27E991F991699179916BBF07900020A1
:10266E0011F01196FBCFFD010895AA93E5B3EF701B
:10267E00AE2FE881E07FEA2BE5BB81E18A95F1F789
:10268E00A99A81E18A95F1F7A99881E18A95F1F7E6
:10269E0092C0AA93A881E9DFE881E295E883A88138
:1026AE00E4DF87EA8A95F1F786C0AA93E881F0E025
:1026BE00E051F54FE081A981AE0FEBDF6980E88133
:1026CE00E093F40A22960895A2E00E940717ACE068
:1026DE00E0DFA1E00E940717E0E0E093F40A6E2E1F
:1026EE000895AA93A881AA3021F0E091F50A6E16FA
:1026FE0060F0E0E0EA93A091F40AAF5FA093F40AD1
:10270E00D4DFA881AA3009F456C06394AA9AA8818E
:10271E00C0DFAA9850C0BA93AA931A93A981BA811E
:10272E00ED91A983BA831E2FE03019F0A12FD9DFC6
:10273E00F5CF1881239608950E9412181A93DE0180
:10274E0011960E94E8166BBFE6911E2FE03019F02D
:10275E00A12FC7DFF4CF188125960895AA93E4B36D
:10276E00E06FE4BBA19AA29AA39AA998AA98AB98F3
:10277E00E881E093F50AE058E093F20AE881E0542C
:10278E00E093F30AA4E1B0E00E9415170E940D1722
:10279E000E940D170E940D17A0E267DF8AEF90E0EE
:1027AE000197F1F7A8E275DFA4E073DFA5E871DF0A
:1027BE00A6E06FDF89DF21960895F0E0FA93EA93A1
:1027CE00DE0112960C94E512ACE8B0E080E0FF2733
:1027DE00662777270E9463170E9463170E942317AC
:1027EE0008950E940D1884E00E94C0122896089544
:1027FE00A4EFB1E00C9415170E940D18E6E9F9E06C
:10280E0066277727EECFFA93EA93A8E0B0E0089513
:10281E00E9EDF2E060E070E00E940D18F401662729
:10282E0077270E940D18EBE0F0E060E070E00E9468
:10283E000D1888E00E94C0122C960895E2E0F0E098
:10284E0060E070E00E940D180895E2EEFAE0FA934F
:10285E00EA93A1E0B0E00C94DD030E940D18F5CFD1
:10286E000E9403180895BA93AA931A930A9308958F
:10287E00EC81FD816E817F810895F801AC81BD816F
:10288E008E819F81662777270E9428170C94AF03AD
:10289E00EE81FF81688579850895EE83FF836887D1
:1028AE0079870895AE81BF81888599850895FE0147
:1028BE00E45FFE4F0190F081E02D0895FE01E05F90
:1028CE00FE4F0190119061917081F001EF7FF070D9
:1028DE00607070700895DE01A05FBE4F0D901D9068
:1028EE008D919C91D0010895E885F9856A857B8547
:1028FE000895EC83FD836E837F8308956627772783
:10290E000E9423170895EA85FB856C857D850895C1
:10291E00AA85BB858C859D850895EA81FB813197BB
:10292E00A881B981AE0FBF1FEC910895EA93A0E084
:10293E00B0E080E090E00C94C0050E94AE05AA8144
:10294E00BB818C819D810895EA81FB816C817D81A3
:10295E000895E12FF0E0DE011696EA0FFB1F0895B1
:10296E00A0E0B0E080E090E00895A0E0B2E080E06A
:10297E0090E00895BA93AA930E946B180895F5DF1C
:10298E000E947C170895A985BA858B859C8508952C
:10299E00BA93AA930E9469180895E091EA0AF091F9
:1029AE00EB0A0895AC85BD858E859F850895A2306E
:1029BE00E0E0BE07E0E08E07E0E09E070895FE012E
:1029CE003896FA93EA93E885F985A485B5858685C8
:1029DE009785F90193CFA2E0B0E00E949B06E0300C
:1029EE000895FA93EA93A1E0B0E00E949B06E030CE
:1029FE000895FA93EA93E885F985A485B5858685C9
:102A0E0097850895EF5FFF4F6F4F7F4F0895AE8507
:102A1E00BF858889998908950E9423170E940D18F1
:102A2E00EA89FB890895FA93EA93D5CFB0E00E9424
:102A3E009B06E03008951A930A930091EA0A1091CA
:102A4E00EB0A0895EA83FB836C837D830895AA8144
:102A5E00BB818C819D810895E0E0F0E060E070E044
:102A6E000895E0E0F0E0ED93FC9308950E94DC17EA
:102A7E00E9CF0E946B182091EA0A3091EB0A089573
:102A8E00A885B9851C960E94DC170E9451180895DE
:102A9E00AC81BD818E819F810895A091EA0AB0918B
:102AAE00EB0A16960895A485B585868597850E94AE
:102ABE00121808950E94D817EF70F070EE0F0E9452
:102ACE005117FA93EA93A0E2B1CF1C96C5DF0E948C
:102ADE00E7170895E22F2F5FAE81BF81F0E0AE0FB2
:102AEE00BF1F0895E52F5F5FA885B985F0E0EA0F57
:102AFE00FB1F0895D901EE27A10FBE1F0C910032C6
:102B0E000895AADF0E94E7170895AE81BF8112963D
:102B1E000E94D817E385E03008950E94D8176627E3
:102B2E0077270895662777270E943C170895EC8132
:102B3E00FD81FA93EA9308DF0E940D180895AC8187
:102B4E00BD810E94D8170895FE017196FA93EA93FB
:102B5E000895AF85B88989899A890E94460B1E2FE0
:102B6E000895EF85F88969897A890E940D1808956C
:102B7E00E987FA876B877C870895E985FA856B85E7
:102B8E007C850895FE017F963D97DF010E94D81740
:102B9E000895EDA9FEA9A481B581FD010E945A17E1
:102BAE000895E181F0E00E9472170895EDA9FEA943
:102BBE00A485B58586859785E0DF0E942317089545
:102BCE00FE013496D9011696ED93FC93FE01B49650
:102BDE000895E88DF98D662777270E946D17DF011E
:102BEE00CB01EE8DFF8D9ECFEE81FF81A08DB18D3D
:102BFE00828D938D0895E0E0F2E060E070E00E9437
:102C0E00AF17DF01CB010895EE81FF81A4A1B5A11D
:102C1E0086A197A108951396EC91EF5FEC93E15086
:102C2E00F0E008950E9472170E9423170895A08D58
:102C3E00B18DFD01F170089578960F01DF010E94AC
:102C4E00DC1708951296E0E0EC93E1E00895E0E0E1
:102C5E00F0E0FA93EA930895FA01A08DB18D828D7A
:102C6E00938D0895EE87FF87688B798B0895EE8597
:102C7E00FF85688979890895FE01E45FFD4F019013
:102C8E00F081E02DF1700895DE01A65FBD4F0D902D
:102C9E00BC91A02D0895DE01A45FBD4F0D90BC9197
:102CAE00A02D0895FE013896FA93EA93E0E0F2E043
:102CBE00FA93EA93F0CFF901DE011896EA0FFB1FA3
:102CCE00BF01FA01DE01A25FBD4F0D90BC91A02D98
:102CDE00AE0FBF1FEC91DB01EC930895A050B240F4
:102CEE00804090400E945C0F1E2F08950E94DC17BA
:102CFE00AA89BB898C899D890895AA89BB898C89EB
:102D0E009D890895EA89FB896C897D890895E15032
:102D1E00F04060407040DF01CB01F5DD0E94AF173F
:102D2E000895E150F040604070400895A0DFD80152
:102D3E0094960E94E7170895EAA9FBA9FA93EA93DD
:102D4E00AAA9BBA90895FE01EA5FFD4FFA93EA9383
:102D5E000895DE01AE5CBD4F0D90BC91A02D0E947A
:102D6E0041101E2F10300895DE01A25DBD4F0D9053
:102D7E00BC91A02D0C942013DE01A85EBD4F0E94C5
:102D8E0071101E2F10300895FE01EA5EFD4F399628
:102D9E00E40FF51F1080FA010895FE01E85FFD4F64
:102DAE003C96DF010E94DC170895DE01A45DBD4F45
:102DBE000D90BC91A02D08950E94FE061E2F10307E
:102DCE0008950E94E2171EDE0E94EC17AACF2A93E6
:102DDE00AF85B889E989FA8909950895EA89FB8949
:102DEE003497EA8BFB8B0895AF85B889E989FA8908
:102DFE0009950895AA89BB8914960E94D81708953B
:102E0E000E945013A3E0B0E00C941517A0E30E94AB
:102E1E003C138AEF90E00197F1F70895109639F080
:102E2E0084EC99E00197F1F7A8951197C9F70895E9
:102E3E000024AF0DB01D0895EA0FFB1F681F791F08
:102E4E000895AE0FBF1F861F971F0895EA1BFB0B39
:102E5E00680B790B0895AE1BBF0B860B970B08956D
:102E6E00EA23FB23682379230895EA2BFB2B682B97
:102E7E00792B0895F195E195F0400895EE230E2EED
:102E8E00FD01BC0131F076956795F795E7950A94AB
:102E9E00D1F70895EE0FFF1FEE0FFF1FEE0FFF1F6E
:102EAE00EE0FFF1F0895F695E795F695E795F695C3
:102EBE00E795F695E7950895EE0FFF1F661F771FAE
:102ECE000895E62FF72F60E070E008956E2F7F2FA4
:102EDE00E0E0F0E008956F2F660F660B762F0895F1
:102EEE00E095F0956095709508957A9F702D6B9F83
:102EFE00700DF89F700DE99F700D6A9F602D710D1A
:102F0E00FB9F600D711DE89F600D711D8827FA9F54
:102F1E00F02D610D781FEB9FF00D611D781FEA9F5C
:102F2E00E02DF10D681F781F08950024112490E103
:102F3E00AA0FBB1F001C111C0E1A1F0A18F40E0E2E
:102F4E001F1E01C0A1609A9599F7FD01D001089549
:102F5E003F934F935F93002411244427552730E26B
:102F6E00AA0FBB1F881F991F001C111C441F551F41
:102F7E000E1A1F0A460B570B28F40E0E1F1E461F65
:102F8E00571F01C0A1603A9559F7FD01BC01D00150
:102F9E00CA015F914F913F910895DADFFD01BC01A7
:102FAE000895ED91FC9111970895ED91FD916D911C
:102FBE007C9113970895ED91FD916D917D910895FA
:102FCE00ED93FD936D937C9308957E936E93FE9394
:102FDE00EE9308956BBF0790F691E02D08956BBFA9
:102FEE000790179067917691F00108956BBFA791A6
:102FFE00B791879196910895E881F9816A817B81D5
:10300E000895A881B9818A819B8108957A936A93E4
:10301E00FA93EA9308959A938A93BA93AA9308958A
:10302E00182E862F612D192E972F712D1B2EBF2F27
:10303E00F12D1A2EAE2FE12D0895E199FECFFF93BB
:10304E00FFB7F894AEBBBFBBE09AEDB3FFBFFF91E5
:10305E00089507D012960F01FB0103D0F0011297CD
:10306E00089507D01196EF93EF2F03D0EF9111979C
:10307E000895E19B02C0A895FCCF9FB7F894AEBB14
:10308E00BFBBE09A8DB3E81719F0EDBBE29AE19A57
:10309E009FBF0895309760407040089500240A162F
:1030AE000B06089500240A160B0608060906089555
:1030BE00EA17FB07680779070895AE17BF0786075B
:1030CE00970708955A934A933A932A931A930A9319
:1030DE0008955D814C813B812A8119810881089573
:1030EE00AC0FBD1F6BBF07900D928A95E1F7089547
:00000001FF
