:040000000C944F000D
:100004000C9400000C9400000C9400000C9400006C
:100014000C9400000C9400000C9400000C9400005C
:100024000C9400000C9400000C9400000C9400004C
:100034000C9400000C9400000C9400000C9400003C
:100044000C9400000C9400000C9400000C9400002C
:100054000C9400000C9400000C9400000C9400001C
:100064000C9400000C9400000C9400000C9400000C
:100074000C9400000C9400000C9400000C940000FC
:100084000C9400000C940000DBF9EBF90BFA2BFA4A
:10009400080004008C0000000000F894EE27ECBB7C
:1000A400F1E0F5BFE5BFE0936C008DE0A2E0BB2773
:1000B400ED938A95E9F780E090E1A0E0B1E0ED935B
:1000C4000197E9F7E4E9F0E0D0E0DBBF879197918D
:1000D400009781F0A791B79107901790C791D79196
:1000E400BF01DBB7F001CBBF07900D920197E1F799
:1000F400FB01EBCFEFEFEDBFE0E1EEBFC4E6D5E0EF
:100104000C948400D150EFEFE4BBE5BB00E010E0B9
:100114000030E1E01E0744F4F801DE01EA0FFB1FA2
:1001240000830F5F1F4FF4CF08D2FE013496FA9379
:10013400EA93A0E0B1E0ADD0E03009F0AA98FDD197
:1001440003D2E0916405E03001F5E3E0F0E060E023
:1001540070E001D2A0916405A13029F4E0E0F1E05F
:1001640060E070E0F8D1A0916405AE3F29F4E1E0CD
:10017400F1E060E070E0EFD1A0916405AF3F29F4B5
:10018400A898ECD1A89AEAD1FBCFA998E7D1A99A6B
:10019400E5D1FBCFFFCF0E942D03E4D1E3D16BBFA8
:1001A400E691C9C1E2D1E6D1E5D1E030C1F400E085
:1001B40010E00030E1E01E0770F4F801AA81BB8171
:1001C400EA0FFB1FFF93EF93DAD1AF91BF91EC934A
:1001D4000F5F1F4FEECFE1E0198108818FC1E0E08E
:1001E400198108818BC1C1D1EE81FF816885798530
:1001F400E050F0426F4F7F4FEE83FF83688779872B
:1002040000E010E0EA81FB810E171F07B8F4F80143
:10021400AC81BD81EA0FFB1FFF93EF93F801AE8120
:10022400BF8188859985662777270E940F03B3DFEE
:10023400AF91BF91EC930F5F1F4FE4CFE1E01981C1
:1002440008812A96089591D195D1E030E9F400E02F
:1002540010E00030E1E01E0798F4F801AA81BB81A8
:10026400AE0FBF1FEC91EF938AD1AF91EA1729F03B
:10027400AE98E0E01981088141C10F5F1F4FE9CFBB
:10028400E1E0198108813AC1AF98E0E01981088161
:1002940035C1BA93AA932897D1500E94680379D1A3
:1002A400309709F48AC07CD188D10E941903A887A9
:1002B400B9878A879B878AD1E050FF4F6F4F7F4F62
:1002C400EC83FD836E837F8378D154D10E94140321
:1002D400DF01CB015ED1662777270E94630360F0BC
:1002E400FE01E45FFE4F01911081E0E0DE01A45FB6
:1002F400BE4FED93EC9313C0DE01A05FBE4F0D9093
:10030400BC91A02DEC81FD81EA1BFB0B8F0141D137
:10031400E01BF10BDE01A45FBE4FED93FC9356D1BD
:100324000E942803DE0150963DDFE03019F4AB98BB
:10033400E0E044C0FE01E05FFE4F0190F081E02D5B
:10034400F0709F012DD1DF01CB01F80166277727DB
:100354000E940A03D901882799270E946303A8F4FD
:10036400F901DE011C96EA0FFB1F0F01DE01A25FFB
:10037400BE4FED91FD913196FE93EE933197E0815E
:10038400D001EC932F5F3F4FDDCFF4D0DE01A05FAF
:10039400BE4FED93FD936D937C9318D1E050F042E2
:1003A4006F4F7F4F0E942803DE0150960CD0E0303F
:1003B40019F4AC98E0E002C072CFE1E00E946D0352
:1003C4006496DF5F0895BA93AA9324970E94680302
:1003D40002D106D195D0E03009F453C0FCD00E947C
:1003E4002803E0E0F1E0FA93EA93AE85BF854ED0AE
:1003F400E03011F4E0E046C0ECB3E8703E2FE3983F
:10040400E199FECF2FB7F894EBD0F401099500E001
:1004140010E00030E1E01E07E0F4F80166277727DA
:100424000E942803F801AC85BD85AE0FBF1F0C9058
:1004340011243196AC85BD85AE0FBF1FEC91FE2F04
:10044400E0E0D001AE0FBF1FF20109950E5F1F4F10
:10045400E0CFC6D0F3010995BED00E942803AC8535
:10046400BD85F1DEE03011F4E0E00CC0ECB3E32B29
:10047400ECBB2FBFA0E1B0E0E0E00E944E03E1E05E
:1004840001C0E0E00E946D032E960895BA93AA93EA
:1004940071D0AAE0B0E00E943E03AEE0B0E0EA8191
:1004A400FB810E944603AA81BB810E945F0308F579
:1004B400A1E1B0E0EA81FB813197EA0FFB1F0F0154
:1004C40094D0D0010E944E03A1E1B0E0EA81FB8107
:1004D4003197AE0FBF1F0E9432030E2E86D0E01557
:1004E40011F0E0E00BC0EA81FB813197EA83FB83E2
:1004F400DACFA0E1B0E0E1E00E944E03289608952F
:100504000E942D030E942303A030E0EEBE07E0E02A
:100514008E07E0E09E0758F0A030E0EEBE07E1E071
:100524008E07E0E09E0718F41DD0E03009F002C009
:10053400E1E001C0E0E024960895E2E0F0E060E04C
:1005440070E00E9428030895E4E6F5E0FA93EA9344
:10055400A1E0B0E048CE0E942803F6CFA4EFB1E0BA
:100564000C9400030E941E030895BA93AA931A934D
:100574000A930895EC81FD816E817F810895F801CD
:10058400AC81BD818E819F81662777270E940F03EE
:1005940002CEFE01E45FFE4F0190F081E02D08954C
:1005A400FE01E05FFE4F0190119061917081F001B6
:1005B400EF7FF070607070700895DE01A05FBE4F31
:1005C4000D901D908D919C91D0010895E885F98539
:1005D4006A857B850895EA85FB856C857D8508950C
:1005E400AA85BB858C859D850895EA81FB81319719
:1005F400A881B981AE0FBF1FEC910895109639F010
:1006040080ED97E00197F1F7A8951197C9F7089540
:10061400EA0FFB1F681F791F0895AE0FBF1F861FC7
:10062400971F0895EA1BFB0B680B790B0895AE1B0B
:10063400BF0B860B970B0895E881F9816A817B8152
:100644000895A881B9818A819B8108957A936A93D8
:10065400FA93EA9308959A938A93BA93AA9308957E
:10066400E199FECFFF93FFB7F894AEBBBFBBE09A0E
:10067400EDB3FFBFFF91089507D012960F01FB0160
:1006840003D0F0011297089507D01196EF93EF2F3E
:1006940003D0EF9111970895E19B02C0A895FCCF78
:1006A4009FB7F894AEBBBFBBE09A8DB3E81719F0BF
:1006B400EDBBE29AE19A9FBF089500240A160B0647
:1006C4000895AE17BF078607970708953A932A93AC
:1006D4001A930A9308953B812A8119810881089508
:00000001FF
