:020000021000EC
:0AE000000C9402F10C9400F00C9453
:10E00A0000F00C9400F00C9400F00C9400F00C94C6
:10E01A0000F00C9400F00C9400F00C9400F00C94B6
:10E02A0000F00C9400F00C9400F00C9400F00C94A6
:10E03A0000F00C9400F00C9400F00C9400F00C9496
:10E04A0000F00C9400F00C9400F00C9400F00C9486
:10E05A0000F00C9400F00C9400F00C9400F00C9476
:10E06A0000F00C9400F00C9400F00C9400F00C9466
:10E07A0000F00C9400F00C9400F00C9400F00C9456
:10E08A0000F0E0F9B4F9424F4F542053445245414D
:10E09A00442056313400534420494E4954204641C5
:10E0AA00494C004A554D5020544F20465700312EB6
:10E0BA0046494E442054525900302E46494E442077
:10E0CA0055504441544500382E46494E4420424159
:10E0DA00434B555000392E46494E4420464143543D
:10E0EA004F5259004E4F2055504441544500555007
:10E0FA00444154494E4720465700504C45415345E8
:10E10A002057414954005B73657474696E67735D87
:10E11A0000474F20544F2046570053442046494C4D
:10E12A0045204552524F5200494E495420534420EB
:10E13A004641494C202000494E495420534443410A
:10E14A005244204F4B200052454144204D42522018
:10E15A004641494C200052454144204D425220201C
:10E16A00204F4B200052454144204641542046410D
:10E17A00494C200052454144204641542020204F1A
:10E18A004B2000464F554E44204F4B202020202044
:10E19A0000534420464154414C204552524F52218B
:10E1AA000020380020390020300080C001002D4EA8
:10E1BA00414E00494E460000040004008CE0010074
:10E1CA0004000009BFE0010007000409CAE00100D9
:10E1DA0007000B09D8E0010008001209E6E0010077
:10E1EA000B001A0910E101000200560BB4E101000C
:10E1FA0001005C0BB6E101000000F894EE27ECBBCD
:10E20A00F1E0F5BFF2E0F5BFE0936C008DE0A2E02B
:10E21A00BB27ED938A95E9F780E090E1A0E0B1E0B1
:10E22A00ED930197E9F7E2ECF1EED1E0DBBF8791DC
:10E23A009791009781F0A791B79107901790C7918E
:10E24A00D791BF01DBB7F001CBBF07900D920197C1
:10E25A00E1F7FB01EBCFEFEFEDBFE0E1EEBFC0E08E
:10E26A00D9E00C9455F2BA93AA930E94B1FAAE81FE
:10E27A00BF818885998556D0E03009F44EC0ECB349
:10E28A00E8703E2FE398E199FECF2FB7F894A8954E
:10E29A00E1EFFFEFE017F10791F40E9476F8A0E0B2
:10E2AA00B0E00E941BF20E947DF80E942BF20E94AD
:10E2BA007DF80E9439F20E947DF80E9447F2E091AF
:10E2CA006800E170E1F700E010E00030E1E01E07CD
:10E2DA00C8F4F801662777270E949CFAF8010E9481
:10E2EA0082F80C901124F80131960E9482F8EC9180
:10E2FA00FE2FE0E0D001AE0FBF1F0E941BF20E5F9F
:10E30A001F4FE3CFAE81BF818885998526D0ECB3B4
:10E31A00E32BECBB2FBFE1E001C0E0E00E94B8FABA
:10E32A002A9608950E94A1FA0E9487F80E94A6FAE6
:10E33A0070F00E9487F8A030E0EFBE07E1E08E0798
:10E34A00E0E09E0720F40E948DFAE03009F002C056
:10E35A00E1E001C0E0E0249608950E94A1FAA895A0
:10E36A000E9487F80E9447F20C94ABF663E0609330
:10E37A006800E895E0916800E170E1F765E0609374
:10E38A006800E895E0916800E170E1F7E0916800C3
:10E39A00E07449F061E160936800E895E0916800F3
:10E3AA00E170E1F7F3CF089565E060936800E895BE
:10E3BA00E0916800E170E1F7E0916800E07449F0EB
:10E3CA0061E160936800E895E0916800E170E1F727
:10E3DA00F3CF089563E060936800E895E0916800E0
:10E3EA00E170E1F7E0916800E07449F061E160935F
:10E3FA006800E895E0916800E170E1F7F3CF0895CD
:10E40A0061E060936800E895E0916800E170E1F7E7
:10E41A00E0916800E07449F061E160936800E89572
:10E42A00E0916800E170E1F7F3CF0895BA93AA93F7
:10E43A00E0916800E170E1F7EA81FB816C816BBFD2
:10E44A00088019800E9405F2269608950E94A1FA72
:10E45A00E0916800E170E1F7E881F9816A816BBFB8
:10E46A000E94D9F10C94ABF60E94A1FAE0916800DF
:10E47A00E170E1F7E881F9816A816BBF0E94EFF1EF
:10E48A000C94ABF60E94A1FAE0916800E170E1F702
:10E49A00E881F9816A816BBF0E94BBF10C94ABF6EB
:10E4AA002C97A09AA898A8EEB3E00E94D9F9A0E107
:10E4BA000E9447F80E948AF8A89A0E9491F8A0E957
:10E4CA00B0EE81E090E00E9495F80E949CF856D246
:10E4DA00E0932509E03061F00E948AF8A0EAB0EEE4
:10E4EA0081E090E00E9495F80E94A0F80E94A6F8A8
:10E4FA000E948AF8A8EBB0EE81E090E00E94B0F8A2
:10E50A00E0E0F9E0FA93EA93A0E0D6D2E093250995
:10E51A00E03071F40E948AF8A3ECB0EE81E090E05A
:10E52A000E94B0F8E4E0F9E0FA93EA93A1E023C08C
:10E53A00A0912509A83071F40E948AF8A1EDB0EEE5
:10E54A0081E090E00E94B0F8EBE0F9E0FA93EA93F8
:10E55A00A2E011C0A0912509A93081F40E948AF88D
:10E56A00AFEDB0EE81E090E00E94B0F8E2E1F9E0B0
:10E57A00FA93EA93A3E0A0D2E0932509E091250952
:10E58A00E03089F00E948AF8AEEEB0EE81E090E0C9
:10E59A000E9495F80E94A0F80E949CF8E091540B02
:10E5AA00F091550B09950E948AF8A8EFB0EE81E028
:10E5BA0090E00E9495F8A4E0B1EE81E090E00E941C
:10E5CA00B0F8E0E0E0934A0BE0934B0BE0934C0B7E
:10E5DA00E0934D0B0E94B3F80E94BCF808F07EC18C
:10E5EA000E94C4F80E9409FA0E9409FADF01CB01CD
:10E5FA00E0E0F2E060E070E00E9450FA0E94CDF89C
:10E60A000E94D8F819F0A7E081D1FFCFA0913E0B64
:10E61A00B0913F0BE4E00E9445FAF170E65DF64FD7
:10E62A000E94E6F8E093420BF093430B6093440B8D
:10E63A007093450B0E94EBF800E010E0E82DD8013A
:10E64A00F0E0AE17BF0708F03EC10E940BF911F0C7
:10E65A00A8E05CD10E9414F9A030E2E0BE07E0E035
:10E66A008E07E0E09E0708F044C020E030E020304A
:10E67A00E1E03E07C0F5A89500240216030608F556
:10E68A0040E050E04A30E0E05E07D8F4FA01DE01EB
:10E69A00EA0FFB1FBF01AAE2B9E0A40FB51FEC9174
:10E6AA00EE0F0E2EAAE2B9E0A40FB51F0E941DF9C3
:10E6BA00DE01A40FB51FEC91E227EC934F5F5F4F89
:10E6CA00E1CFEAE1F9E0FA93EA93DE01129608D182
:10E6DA00E0932609E0912609E03011F02B8703C068
:10E6EA002F5F3F4FC4CFE0912609E03011F4A9E033
:10E6FA000DD120E030E02030E2E03E0758F5A89541
:10E70A00EB85E030B1F0F901E65DF64FBF010E94FA
:10E71A0025F9EC91EE0F0E2E0E9425F90E941DF9A3
:10E72A00F901E65DF64F0F01E081AB85EA27D001DA
:10E73A00EC930E9425F9EC91F0E0A091500BB09176
:10E74A00510BEA0FFB1FE093500BF093510B2F5F15
:10E75A003F4FD1CFE0914A0BF0914B0B60914C0B9C
:10E76A0070914D0BE050FE4F6F4F7F4FE0934A0B75
:10E77A00F0934B0B60934C0B70934D0B0E9414F962
:10E78A00A130E8E0BE07E0E08E07E0E09E07A0F1D6
:10E79A00BB24E2E0BE1678F50E942AF90E949CFA90
:10E7AA00AB2DB0E0E0E0F1E00E944BFAE65DF64FF7
:10E7BA00DF010E9438F1E03009F4FFCF0E942AF904
:10E7CA00E050FF4F6F4F7F4F0E9433F9F6013197A8
:10E7DA006F010C2C0D2869F40E9404F8ABE1B1EE2C
:10E7EA0081E090E00E94B0F8E091540BF091550B53
:10E7FA000995B394CECF48C00E9414F9A03DE7E032
:10E80A00BE07E0E08E07E0E09E07F0F1E091FA0A29
:10E81A00F0E00E9418FA0E9413FA0E9433F9E0917C
:10E82A00FB0AF0E00E9418FADF01CB01E8E00E943F
:10E83A00F1F90E943CF9E091FC0AF0E00E9418FA12
:10E84A000E943CF9F091FD0AE0E06F01E091FE0AB6
:10E85A00F0E0CE2ADF2AF091FF0AE0E0E0934E0BC7
:10E86A00F0934F0BE091000BF0E0A0914E0BB091AA
:10E87A004F0BEA2BFB2BE0934E0BF0934F0BE0E090
:10E88A00E093500BE093510BA091420BB091430BD4
:10E89A008091440B9091450B0E94BCF878F0E0916E
:10E8AA00460BF091470B6091480B7091490B0E94FF
:10E8BA0014F90E94AAFA38F4AAE028D00E9447F96B
:10E8CA000F5F1F4FBBCEE091420BF091430B60915B
:10E8DA00440B7091450B0E9452F97CCEFFCFFFCFBB
:10E8EA00BA93AA93AA81BB81EC91E03069F00D90AA
:10E8FA00AA83BB83A881B981ED91A883B983E01566
:10E90A0011F0E0E023C2EECFE1E020C2AA930E9418
:10E91A0004F8A4E2B1EE81E090E00E9495F80E942A
:10E92A00A0F80E94A6F80C9474F8AA932497E0E041
:10E93A00E883E983EA83EB83AC81A130E0F00E94AB
:10E94A0087F8E8E00E94F1F90E9497FAEC81F0E07A
:10E95A003197AD81BE81AE0FBF1FEC910E9487F83F
:10E96A00FF27662777270E94E8F90E9497FAEC8129
:10E97A00E150EC83E1CF0E948DFA8CC149D2E09339
:10E98A002509E03059F0A1E00E945BF9A2E3B1EE5B
:10E99A0081E090E00E94B0F8E1E008950E9462F9F7
:10E9AA00A1E4B1EE81E090E00E94B0F80E9476F80E
:10E9BA000E9467F969D2E0932509E03059F0A2E094
:10E9CA000E945BF9A1E5B1EE81E090E00E94B0F807
:10E9DA00E2E008950E9462F9A0E6B1EE81E090E0DB
:10E9EA000E94B0F8E0EFFAE00E94E6F8E0932E0BFE
:10E9FA00F0932F0B6093300B7093310B0E940BF93D
:10EA0A0059F0A3E00E945BF9AFE6B1EE81E090E035
:10EA1A000E94B0F8E3E008950E9462F9AEE7B1EE11
:10EA2A0081E090E00E94B0F880903709EEE4F9E0C6
:10EA3A000E94E6F8E093320BF093330B6093340BA9
:10EA4A007093350BE8E3F9E00E946EF9E093520BFC
:10EA5A00F093530BA0912E0BB0912F0B8091300B9A
:10EA6A009091310B662777270E94E3F9E093360BE2
:10EA7A00F093370B6093380B7093390BE091320B9C
:10EA8A00F091330B6091340B7091350B0E9409FAA7
:10EA9A000E94CDF8E0933A0BF0933B0B60933C0B4A
:10EAAA0070933D0BE2E0F0E060E070E00E9452F902
:10EABA000E94EBF8E0E00895AA930E94B1FA5EDFA3
:10EACA00E09325090E94EBF800E010E0E82DD80158
:10EADA00F0E0AE17BF0708F052C00E940BF921F010
:10EAEA00A6E014DFE6E0D4C020E030E02031E0E028
:10EAFA003E0788F4ED81FE81FA93EA930E9473F946
:10EB0A00E65DF64FDF01ECDEE0932609E03019F40A
:10EB1A002F5F3F4FEBCFE0912609E03059F10E9479
:10EB2A0073F9E25CF64F0E946EF90E9452F90E9454
:10EB3A00C4F80E9413FA0E9452F90E9473F9EC5B1E
:10EB4A00F64F0E946EF90E94B3F80E94E8F90E94FB
:10EB5A0052F90E9473F9EA5BF64FFA93EA93A8E036
:10EB6A00E4DEE093460BF093470B6093480B7093F7
:10EB7A00490B05C00E9447F90F5F1F4FA7CFE091CD
:10EB8A002609E03021F4A6E0C1DEE6E081C00E9459
:10EB9A0062F9ADE8B1EE81E090E00E942BF8EC81D9
:10EBAA00E03031F40E9473F9E35DF64FA08101C0B1
:10EBBA00A0E20E9411F80E949CF8EC81E03009F072
:10EBCA005CC00E9473F9E35DF64FA081A03359F44B
:10EBDA000E9404F8ABE9B1EE81E090E00E942BF8C4
:10EBEA000E9491F8FDCF0E9473F9E35DF64FA08170
:10EBFA00A63348F40E9473F9E35DF64FDF01EC9106
:10EC0A00E150EC9306C00E9473F9E35DF64FA5E369
:10EC1A00A083E0912E0BF0912F0B6091300B709135
:10EC2A00310B0E949CFA0E9467F96ED1E093250984
:10EC3A000E9473F9E35DF64FA081A23320F50E948A
:10EC4A0073F9E35DF64FA081A13341F4ABEAB1EE6B
:10EC5A0081E090E00E94B0F8E8E01AC00E9473F9DF
:10EC6A00E35DF64FA081A03341F4AEEAB1EE81E054
:10EC7A0090E00E94B0F8E9E00BC0A1EBB1EE81E0B0
:10EC8A0090E00E942BF8A4E6B0E00E94D9F9E0E0F7
:10EC9A000E94B8FA27960895E7E0E7BBC09ABB98A6
:10ECAA00C398E0E5EDB90895AA93E881EFB9779999
:10ECBA0002C0A895FCCFEFB10C9474F81A93ECDF5C
:10ECCA00C09AA1E0B0E00E94D9F910E01A3020F40D
:10ECDA00AFEFEADF1F5FFACF0E9479F997C0AA93D4
:10ECEA001A930A93EF81E0640E947DF9E8E10E9499
:10ECFA00FDF9AE2FD9DFEB81FC816D817E810E9407
:10ED0A000EFA0E947DF9E8E00E94FDF9AE2FCCDFF1
:10ED1A00AB81CADFEA81E160AE2FC6DF05D01E2FC4
:10ED2A0019810881289608950E94B1FA20E030E0FE
:10ED3A00AFEFBADF1E2FE07831F02F5F3F4F203060
:10ED4A00E2E03E07A8F3E12F0E94B8FA249608955C
:10ED5A000E9485F9E0E0EA930E9476F8A4E951C09E
:10ED6A00BA93AA93A881B981AC91A23010F00C94FD
:10ED7A0002F8AFEF99DFA881B9811196EC93AFEF52
:10ED8A0093DFA881B9811296EC93AFEF8DDFA8814A
:10ED9A00B9811396EC93AFEF87DFA881B9811496F6
:10EDAA00EC930C9402F80E948BF9E8E0EA93EAEA01
:10EDBA00F1E060E070E00E949CFAA6E80E9492F9F5
:10EDCA000C9402F80E948BF9EAE3EA930E9476F81F
:10EDDA00A0E00E9492F90C9402F80E9485F9E7E3F8
:10EDEA00EA93E0E0F0E060E070E008C00E9485F994
:10EDFA00E9E2EA93E0E0F0E060E070E40E949CFA65
:10EE0A00A0E06DDF1E2F0E949DF9E12F1991089550
:10EE1A0025971A9310E052DF9BDFE983E13031F046
:10EE2A001F5F153610F0E1E02CC0F6CFDE01119617
:10EE3A00BADFA981A13011F0E1E023C0AD81AA3A7D
:10EE4A0011F0E1E01EC010E0153610F0E1E019C043
:10EE5A00C4DFE983A981A23010F4C8DFE983E9811C
:10EE6A00E03011F00E9491F81F5FE981E03061F70C
:10EE7A00DE011196A7DFEA81E07811F4E1E001C032
:10EE8A00E0E0188126960895BA93AA930E94AFFAF1
:10EE9A00A8950E94A1F9E1E10E94B8F91F3F69F122
:10EEAA0040E050E0FA013196AF01EB31A6E0FA07F3
:10EEBA0029F0AFEFF9DE0E2FEF3FA1F30E3FD1F4A9
:10EECA0020E030E02030E2E03E0780F4E885F98572
:10EEDA003196E887F9873197FF93EF93AFEFE4DE36
:10EEEA00AF91BF91EC932F5F3F4FECCFAFEFDCDEDA
:10EEFA00AFEFDADEAE81BF810C930E949DF90E3F1F
:10EF0A0009F449C0E1E048C0BA93AA930E94AFFA53
:10EF1A00A8950E94A1F9AFEFC7DEE8E10E94B8F90F
:10EF2A001030B9F5AEEFC0DE20E030E02030E2E08C
:10EF3A003E0740F4F9010E9482F8AC91B5DE2F5FDA
:10EF4A003F4FF4CF40E050E00E94C4F959F0AFEFD0
:10EF5A00ABDE0E2FEF3F29F0AE81BF81EFEFEC93CE
:10EF6A0001C0F2CFE02FEF71E53099F4AE81BF8195
:10EF7A00E5E0EC9340E050E0AFEF96DEE03049F494
:10EF8A000E94C4F929F4AE81BF81E0E0EC9301C08C
:10EF9A00F3CF0E949DF9E12F0E94B6FA2E960895AA
:10EFAA00AA93E5B3EF70AE2FE881E07FEA2BE5BBC9
:10EFBA0081E18A95F1F7A99A81E18A95F1F7A998F1
:10EFCA0081E18A95F1F78BC0AA93A881E9DFE881EC
:10EFDA00E295E883A881E4DF87EA8A95F1F77FC0A2
:10EFEA00AA93E881F0E0EA5AF44FE081A981AE0FD2
:10EFFA00EBDFA980E881E0935A0B22960895A2E0FC
:10F00A000E94CBF9ACE0E0DFA1E00E94CBF9E0E09E
:10F01A00E0935A0BAE2E0895AA93A881AA3021F044
:10F02A00E0915B0BAE1660F0E0E0EA93A0915A0B18
:10F03A00AF5FA0935A0BD4DFA881AA3009F44FC05E
:10F04A00A394AA9AA881C0DFAA9849C00E94A1FAEB
:10F05A001A93DE0111960E9483FAEF5FFF4F6F4FFA
:10F06A007F4F0E9488FAE150F040604070406BBFC9
:10F07A00E6911E2FE03019F0A12FCEDFEACF1881DA
:10F08A0025960895AA93E4B3E06FE4BBA19AA29AE5
:10F09A00A39AA998AA98AB98E881E0935B0BE058E9
:10F0AA00E093580BE881E054E093590BA4E1B0E0F7
:10F0BA000E94D9F90E94D1F90E94D1F90E94D1F98E
:10F0CA00A0E26EDF8AEF90E00197F1F7A8E27CDF19
:10F0DA00A4E07ADFA5E878DFA6E076DF90DF219664
:10F0EA000895E0E0F0E060E070E00E949CFA089584
:10F0FA00A0E0BFEE81E090E00895A885B985AE0F43
:10F10A00BF1F08950E9492FA0895E0E0EA93A0E0F2
:10F11A000E94F5F70C9404F8AAE0B0E00C94D9F92F
:10F12A000E942BF8E0E0EA93A1E00C94F5F7A4E63C
:10F13A00B0E00C94D9F9ADEAB0EE81E090E00C941D
:10F14A002BF8A8ECB0E00E94D9F9E091540BF091A9
:10F15A00550B099508950E942BF8E9CFA0913E0B13
:10F16A00B0913F0B8091400B9091410B0895A83FBD
:10F17A00EFEFBE07EFEF8E07EFE09E070895E091ED
:10F18A003E0BF0913F0B6091400B7091410B08953B
:10F19A00A091360BB091370B8091380B9091390BB7
:10F1AA000E94E3F908950E949CFAEAE2F9E0FA93D0
:10F1BA00EA93A9E0B0E00E9449F7E0932509E0301C
:10F1CA000895FA93EA93A4E00C949AF4D8DFE250F3
:10F1DA00F04060407040DF01CB01E82DF0E00E9472
:10F1EA0018FA0E9425FAA0913A0BB0913B0B809134
:10F1FA003C0B90913D0B0E94E3F9E0932E0BF093A8
:10F20A002F0B6093300B7093310B0895E0912E0B06
:10F21A00F0912F0B6091300B7091310BC4CFA091FC
:10F22A004A0BB0914B0B80914C0B90914D0B08956A
:10F23A00EC91EE1FE0E0EE1FE029DB01EC9308956C
:10F24A00AAE2B9E0A20FB31F0895E0912A0BF09148
:10F25A002B0B60912C0B70912D0B0895E0932A0BC8
:10F26A00F0932B0B60932C0B70932D0B0895A091A8
:10F27A002A0BB0912B0B80912C0B90912D0B0E9495
:10F28A00E8F9ECCFAEE2BBE00E9483FAEF5FFF4FF2
:10F29A006F4F7F4F0E9488FA0895E0933E0BF093D8
:10F2AA003F0B6093400B7093410B08950E948BF4BF
:10F2BA00E0E0EA93A1E00C94F5F7E0E0EA93A1E03C
:10F2CA000C94F5F7EAE2F9E0FA93EA93A9E0B0E0E0
:10F2DA000895FA93EA93A2E00C949AF4A0E2A29F0A
:10F2EA00F001A39FF00D0895C09AAFEF0C9459F660
:10F2FA00AE2F0E9459F6AB81BC818D819E81089503
:10F30A001A93AFEF0E9459F6C0980895BA93AA9338
:10F31A00AFEF0E9459F6C09808950E9474F6A8812A
:10F32A00B981EC930E94B5F6AFEF0E9459F6DCCF93
:10F33A00AFEF0E9459F6D8CFEA85FB856C857D85AB
:10F34A00A0E0B2E080E090E00E9425FAEA87FB871D
:10F35A006C877D87AE81BF81EFEFEC93AFEF0E94A0
:10F36A0059F6C0980895EA93EB85FC856D857E85EC
:10F37A000E949CFAA0E00E9474F61E2F0895FA01DA
:10F38A003196AF01E334AFE0FA0708950E94E9F736
:10F39A00A3E0B0E00C94D9F9A0E30E94D5F78AEF74
:10F3AA0090E00197F1F70895109639F0A89584EC4A
:10F3BA0099E00197F1F71197C9F70895EA0FFB1F32
:10F3CA00681F791F0895EA2BFB2B682B792B089568
:10F3DA00F195E195F0400895EE230E2EFD01BC0152
:10F3EA0031F0EE0FFF1F661F771F0A94D1F70895B9
:10F3FA00EE230E2EFD01BC0131F076956795F79547
:10F40A00E7950A94D1F70895EE0FFF1F661F771F3D
:10F41A000895E62FF72F60E070E008956E2F7F2F92
:10F42A00E0E0F0E008956F2F660F660B762F0895DF
:10F43A00FA9FF02DEB9FF00DEA9FE02DF10D089554
:10F44A007A9F702D6B9F700DF89F700DE99F700D5C
:10F45A006A9F602D710DFB9F600D711DE89F600D05
:10F46A00711D8827FA9FF02D610D781FEB9FF00D13
:10F47A00611D781FEA9FE02DF10D681F781F08951E
:10F48A006E2F6A9FF0016B9FF00D089529D0D0DF8F
:10F49A000EF49EDF08953F934F935F930024112447
:10F4AA004427552730E2AA0FBB1F881F991F001C4B
:10F4BA00111C441F551F0E1A1F0A460B570B28F41E
:10F4CA000E0E1F1E461F571F01C0A1603A9559F71D
:10F4DA00FD01BC01D001CA015F914F913F9108958E
:10F4EA00E894F7FF02C074DF6894B7FF06C0A095DE
:10F4FA00B095119600F8039400FA0895ED91FD91E4
:10F50A006D917D9108957E936E93FE93EE93089587
:10F51A00E881F9816A817B810895A881B9818A810C
:10F52A009B810895E883F9836A837B8308957A939C
:10F53A006A93FA93EA9308959A938A93BA93AA9349
:10F54A0008951097804090400895AE17BF07860728
:10F55A00970708955A934A933A932A931A930A93C8
:10F56A0008955D814C813B812A8119810881089522
:00000001FF
