:020000021000EC
:0AF000000C945EF80C9400F80C94D8
:10F00A0000F80C9400F80C9400F80C9400F80C9496
:10F01A0000F80C9400F80C9400F80C9400F80C9486
:10F02A0000F80C9400F80C9400F80C9400F80C9476
:10F03A0000F80C9400F80C9400F80C9400F80C9466
:10F04A0000F80C9400F80C9400F80C9400F80C9456
:10F05A0000F80C9400F80C9400F80C9400F80C9446
:10F06A0000F80C9400F80C9400F80C9400F80C9436
:10F07A0000F80C9400F80C9400F80C9400F80C9426
:10F08A0000F8E0F9B4F9555044415445005B736502
:10F09A007474696E67735D00040004008CF00100EB
:10F0AA000700000990F001000B00070997F0010022
:10F0BA000000F894EE27ECBBF1E0F5BFF2E0F5BFF3
:10F0CA00E0936C008DE0A2E0BB27ED938A95E9F707
:10F0DA0080E090E1A0E0B1E0ED930197E9F7E2EA80
:10F0EA00F0EFD1E0DBBF87919791009781F0A7916C
:10F0FA00B79107901790C791D791BF01DBB7F0017D
:10F10A00CBBF07900D920197E1F7FB01EBCFEFEF31
:10F11A00EDBFE0E1EEBFC0E0D9E00C94ACF9BA93E0
:10F12A00AA930E94D9FFAE81BF818885998555D05F
:10F13A00E03009F44DC0ECB3E8703E2FE398E19952
:10F14A00FECF2FB7F894E1EFFFEFE017F10791F444
:10F15A000E94F0FDA0E0B0E00E9472F90E94F7FD63
:10F16A000E9482F90E94F7FD0E9490F90E94F7FD21
:10F17A000E949EF9E0916800E170E1F700E010E07A
:10F18A000030E1E01E07C8F4F801662777270E94DD
:10F19A00C4FFF8010E94FCFD0C901124F80131967D
:10F1AA000E94FCFDEC91FE2FE0E0D001AE0FBF1FE4
:10F1BA000E9472F90E5F1F4FE3CFAE81BF8188852F
:10F1CA00998525D0ECB3E32BECBB2FBFE1E001C05E
:10F1DA00E0E00E94E0FF2A9608950E9401FE0E9444
:10F1EA00CEFF70F00E9406FEA030E0EFBE07E1E01D
:10F1FA008E07E0E09E0720F40E94B5FFE03009F098
:10F20A0003C0E1E00C94D7FCE0E00C94D7FC0E9428
:10F21A0001FE0E949EF90C94D7FC63E0609368009B
:10F22A00E895E0916800E170E1F765E060936800B5
:10F23A00E895E0916800E170E1F7E0916800E07418
:10F24A0049F061E160936800E895E0916800E17037
:10F25A00E1F7F3CF089565E060936800E895E091DF
:10F26A006800E170E1F7E0916800E07449F061E15B
:10F27A0060936800E895E0916800E170E1F7F3CFE8
:10F28A00089563E060936800E895E0916800E17092
:10F29A00E1F7E0916800E07449F061E16093680089
:10F2AA00E895E0916800E170E1F7F3CF089561E035
:10F2BA0060936800E895E0916800E170E1F7E091F9
:10F2CA006800E07449F061E160936800E895E091B4
:10F2DA006800E170E1F7F3CF0895BA93AA93E09139
:10F2EA006800E170E1F7EA81FB816C816BBF0880FD
:10F2FA0019800E945CF90C946BFD0E94C9FFE09191
:10F30A006800E170E1F7E881F9816A816BBF0E94C8
:10F31A0030F90C94D7FC0E94C9FFE0916800E170B3
:10F32A00E1F7E881F9816A816BBF0E9446F90C9482
:10F33A00D7FC0E94C9FFE0916800E170E1F7E8811B
:10F34A00F9816A816BBF0E9412F90C94D7FC2C9741
:10F35A007894C8D1E0931209A0E0B9E02FD2E093E3
:10F36A001209E03029F0E091410BF091420B099526
:10F37A00E0E0E093370BE093380BE093390BE0932E
:10F38A003A0B0E9409FE0E9412FE08F069C10E940F
:10F39A001AFE0E9431FF0E9431FFDF01CB01E0E03B
:10F3AA00F2E060E070E00E9478FF0E9423FE0E9473
:10F3BA002EFEE03009F0FFCFA0912B0BB0912C0B61
:10F3CA00E4E00E946DFFF170E95EF64F0E943AFE9A
:10F3DA00E0932F0BF093300B6093310B7093320B49
:10F3EA000E943FFE00E010E0E82DD801F0E0AE17E1
:10F3FA00BF0708F02AC10E945FFE0E9468FEA03083
:10F40A00E2E0BE07E0E08E07E0E09E0708F03DC0BC
:10F41A0020E030E02030E1E03E07B8F50024021693
:10F42A00030608F540E050E04A30E0E05E07D8F411
:10F43A00FA01DE01EA0FFB1FBF01A7E1B9E0A40F41
:10F44A00B51FEC91EE0F0E2EA7E1B9E0A40FB51F80
:10F45A000E9471FEDE01A40FB51FEC91E227EC9326
:10F46A004F5F5F4FE1CFE7E0F9E0FA93EA93DE01FD
:10F47A001296F8D0E0931309E0911309E03011F0E5
:10F48A002B8703C02F5F3F4FC5CF20E030E02030ED
:10F49A00E2E03E0750F5EB85E030B1F0F901E95EB4
:10F4AA00F64FBF010E9479FEEC91EE0F0E2E0E94DC
:10F4BA0079FE0E9471FEF901E95EF64F0F01E081C3
:10F4CA00AB85EA27D001EC930E9479FEEC91F0E03B
:10F4DA00A0913D0BB0913E0BEA0FFB1FE0933D0B51
:10F4EA00F0933E0B2F5F3F4FD2CFE091370BF09155
:10F4FA00380B6091390B70913A0BE050FE4F6F4F09
:10F50A007F4FE093370BF093380B6093390B70936E
:10F51A003A0B0E9468FEA130E8E0BE07E0E08E07E1
:10F52A00E0E09E0768F1BB24E2E0BE1640F5A8952C
:10F53A000E947EFE0E94C4FFAB2DB0E0E0E0F1E045
:10F54A000E9473FFE95EF64FDF010E9494F8E030F3
:10F55A0009F4FFCF0E947EFEE050FF4F6F4F7F4FAE
:10F56A000E9487FEF60131976F010C2C0D2829F4B1
:10F57A00E091410BF091420B0995B394D5CF48C065
:10F58A000E9468FEA03DE7E0BE07E0E08E07E0E0EB
:10F59A009E07F0F1E091E70AF0E00E9440FF0E9426
:10F5AA003BFF0E9487FEE091E80AF0E00E9440FFDC
:10F5BA00DF01CB01E8E00E9419FF0E9490FEE09172
:10F5CA00E90AF0E00E9440FF0E9490FEF091EA0AE8
:10F5DA00E0E06F01E091EB0AF0E0CE2ADF2AF09139
:10F5EA00EC0AE0E0E0933B0BF0933C0BE091ED0A70
:10F5FA00F0E0A0913B0BB0913C0BEA2BFB2BE09384
:10F60A003B0BF0933C0BE0E0E0933D0BE0933E0BA9
:10F61A00A0912F0BB091300B8091310B9091320B4E
:10F62A000E9412FE68F0E091330BF091340B609166
:10F63A00350B7091360B0E9468FE0E94D2FF28F4A7
:10F64A000E949BFE0F5F1F4FCFCEE0912F0BF091D0
:10F65A00300B6091310B7091320B0E94A6FE91CE55
:10F66A00FFCFFFCFBA93AA93AA81BB81EC91E03076
:10F67A0069F00D90AA83BB83A881B981ED91A88313
:10F68A00B983E01511F0E0E08DC1EECFE1E08AC167
:10F69A00AA932497E0E0E883E983EA83EB83AC81C9
:10F6AA00A130E0F00E9406FEE8E00E9419FF0E94E5
:10F6BA00BFFFEC81F0E03197AD81BE81AE0FBF1F75
:10F6CA00EC910E9406FEFF27662777270E9410FF0B
:10F6DA000E94BFFFEC81E150EC83E1CF0E94B5FFAD
:10F6EA0027960895B7D1E0931209E03011F0E1E0CE
:10F6FA0008950E94F0FD0E94AFFEEAD1E09312093C
:10F70A00E03011F0E2E00895EDEDFAE00E943AFEF1
:10F71A00E0931B0BF0931C0B60931D0B70931E0B55
:10F72A000E945FFEE03011F0E3E008958090240922
:10F73A00EBE3F9E00E943AFEE0931F0BF093200BF3
:10F74A006093210B7093220BE5E2F9E00E94B6FE6A
:10F75A00E0933F0BF093400BA0911B0BB0911C0B55
:10F76A0080911D0B90911E0B662777270E940BFF35
:10F77A00E093230BF093240B6093250B7093260BD5
:10F78A00E0911F0BF091200B6091210B7091220BDD
:10F79A000E9431FF0E9423FEE093270BF093280B6F
:10F7AA006093290B70932A0BE2E0F0E060E070E0CE
:10F7BA000E94A6FE0E943FFEE0E00895BA93AA9333
:10F7CA000E94D9FF0E943FFE00E010E0E82DD80118
:10F7DA00F0E0AE17BF0708F051C00E945FFEE030AC
:10F7EA0021F0E6E00E94E0FF71C120E030E0203124
:10F7FA00E0E03E0788F4EC81FD81FA93EA930E94E7
:10F80A00BBFEE95EF64FDF012DDFE0931309E0301E
:10F81A0019F42F5F3F4FEBCFE0911309E03049F124
:10F82A000E94BBFEE55DF64F0E94B6FE0E94A6FE50
:10F83A00FCD10E943BFF0E94A6FE0E94BBFEEF5C29
:10F84A00F64F0E94B6FEE0D10E9410FF0E94A6FE6B
:10F85A000E94BBFEED5CF64FFA93EA93A8E018DF2C
:10F86A00E093330BF093340B6093350B7093360BA4
:10F87A0005C00E949BFE0F5F1F4FA8CFE09113099E
:10F88A00E03021F4E6E00E94E0FF20C10E94BBFEC6
:10F89A00E35EF64FA081A03321F4E7E00E94E0FF87
:10F8AA0015C10E94BBFEE35EF64FA081A13310F49E
:10F8BA00AA3348F40E94BBFEE35EF64FDF01EC91E7
:10F8CA00E150EC9306C00E94BBFEE35EF64FA9E34B
:10F8DA00A083E0911B0BF0911C0B60911D0B7091A2
:10F8EA001E0B0E94C4FF0E94AFFE2FD1E0931209A3
:10F8FA00E0E00E94E0FFEAC0E7E0E7BBC09ABB98FD
:10F90A00C398E0E5EDB90895AA93E881EFB9A895FF
:10F91A00779BFECFEFB1219608951A93EDDFC09A37
:10F92A00A1E0B0E00E9401FF10E01A3020F4AFEF2E
:10F93A00EBDF1F5FFACF20D28BC0AA931A930A93E8
:10F94A00EF81E0641CD2E8E10E9425FFAE2FDCDFE4
:10F95A00EB81FC816D817E810E9436FF10D2E8E046
:10F96A000E9425FFAE2FD0DFAB81CEDFEA81E160B6
:10F97A00AE2FCADF05D01E2F198108812896089557
:10F98A000E94D9FF20E030E0AFEFBEDF1E2FE07803
:10F99A0031F02F5F3F4F2030E2E03E07A8F3E12F1E
:10F9AA000E94E0FF24960895F1D1E0E0EA9313D192
:10F9BA00A4E94AC0BA93AA93A881B981AC91A230AA
:10F9CA0078F5AFEFA1DFA881B9811196EC93AFEF7B
:10F9DA009BDFA881B9811296EC93AFEF95DFA881DE
:10F9EA00B9811396EC93AFEF8FDFA881B981149692
:10F9FA00EC9316C0D0D1E8E0EA93EAEAF1E060E0DD
:10FA0A0070E00E94C4FFA6E805C0C5D1EAE3EA9304
:10FA1A00E2D0A0E092DFA881B981EC93CBDFC1D11B
:10FA2A0022960895B3D1E7E3EA93E0E0F0E060E0DC
:10FA3A0070E007C0ABD1E9E2EA93E0E0F0E060E011
:10FA4A0070E40E94C4FFA0E078DF1E2FAAD1E12F44
:10FA5A001991089525971A9310E05FDFA5DFE983CE
:10FA6A00E13031F01F5F153610F0E1E02EC0F6CF1D
:10FA7A00DE011196BFDFA981A13011F0E1E025C0B6
:10FA8A00AD81AA3A11F0E1E020C010E0153610F07D
:10FA9A00E1E01BC0C7DFE983A981A23010F4CADF05
:10FAAA00E983E981E03021F0AAE0B0E00E9401FF99
:10FABA001F5FE981E03051F7DE011196A6DFEA8186
:10FACA00E07811F4E1E001C0E0E01881269608959B
:10FADA00BA93AA930E94D7FFA89566D1E1E17AD199
:10FAEA001F3F69F140E050E0FA013196AF01EB3176
:10FAFA00A6E0FA0729F0AFEF07DF0E2FEF3FA1F3D9
:10FB0A000E3FD1F420E030E02030E2E03E0780F4FE
:10FB1A00E885F9853196E887F9873197FF93EF935E
:10FB2A00AFEFF2DEAF91BF91EC932F5F3F4FECCF77
:10FB3A00AFEFEADEAFEFE8DEAE81BF810C9331D1E1
:10FB4A000E3F09F443C0E1E042C0BA93AA930E946F
:10FB5A00D7FFA89529D1AFEFD7DEE8E13BD1103026
:10FB6A00A1F5AEEFD1DE20E030E02030E2E03E0742
:10FB7A0038F4F9013CD0AC91C7DE2F5F3F4FF5CF87
:10FB8A0040E050E032D159F0AFEFBEDE0E2FEF3F2A
:10FB9A0029F0AE81BF81EFEFEC9301C0F3CFE02FE4
:10FBAA00EF71E53091F4AE81BF81E5E0EC9340E07E
:10FBBA0050E0AFEFA9DEE03041F417D129F4AE816D
:10FBCA00BF81E0E0EC9301C0F4CFEBD0E12F0E94BB
:10FBDA00DEFF2E960895E0E0F0E060E070E00E941B
:10FBEA00C4FF0895A0E0BFEE81E090E00895A885E3
:10FBFA00B985AE0FBF1F08950E94C9FF0E94BAFFC0
:10FC0A0008950E94BAFF0895A0912B0BB0912C0B76
:10FC1A0080912D0B90912E0B0895A83FEFEFBE0710
:10FC2A00EFEF8E07EFE09E070895E0912B0BF0911E
:10FC3A002C0B60912D0B70912E0B0895A091230B24
:10FC4A00B091240B8091250B9091260B0E940BFFFB
:10FC5A0008950E94C4FFE7E1F9E0FA93EA93A9E064
:10FC6A00B0E036DFE09312090895FA93EA93A4E02C
:10FC7A000C944DFBDADFE250F04060407040DF0147
:10FC8A00CB01E82DF0E00E9440FF0E944DFFA091B9
:10FC9A00270BB091280B8091290B90912A0B0E9477
:10FCAA000BFFE0931B0BF0931C0B60931D0B7093DF
:10FCBA001E0B0895E0911B0BF0911C0B60911D0B1C
:10FCCA0070911E0BC6CFA091370BB091380B809163
:10FCDA00390B90913A0B0895EC91EE1FE0E0EE1F7C
:10FCEA00E029DB01EC930895A7E1B9E0A20FB31F65
:10FCFA000895E091170BF091180B6091190B709110
:10FD0A001A0B0895E093170BF093180B6093190BD5
:10FD1A0070931A0B0895A091170BB091180B80914C
:10FD2A00190B90911A0B0E9410FFECCFABE1BBE0CC
:10FD3A000E94ABFFEF5FFF4F6F4F7F4F0E94B0FFF4
:10FD4A000895E0932B0BF0932C0B60932D0B70937B
:10FD5A002E0B0895E7E1F9E0FA93EA93A9E0B0E0FF
:10FD6A000895FA93EA93A2E00C944DFBA0E2A29FB5
:10FD7A00F001A39FF00D0895C09AAFEFC5CDAE2F45
:10FD8A00C3DDAB81BC818D819E8108951A93AFEF4B
:10FD9A00BBDDC0980895BA93AA93AFEFB5DDC098BA
:10FDAA000895AFEFB1DDE8CFEA85FB856C857D85E7
:10FDBA00A0E0B2E080E090E00E944DFFEA87FB8776
:10FDCA006C877D87AE81BF81EFEFEC93AFEF9CDD4F
:10FDDA00C0980895EA93EB85FC856D857E850E941F
:10FDEA00C4FFA0E0AADD1E2F0895FA013196AF01E3
:10FDFA00E334AFE0FA070895109639F0A89584EC39
:10FE0A0099E00197F1F71197C9F70895EA0FFB1FD7
:10FE1A00681F791F0895EA2BFB2B682B792B08950D
:10FE2A00F195E195F0400895EE230E2EFD01BC01F7
:10FE3A0031F0EE0FFF1F661F771F0A94D1F708955E
:10FE4A00EE230E2EFD01BC0131F076956795F795EC
:10FE5A00E7950A94D1F70895EE0FFF1F661F771FE3
:10FE6A000895E62FF72F60E070E008956E2F7F2F38
:10FE7A00E0E0F0E008956F2F660F660B762F089585
:10FE8A00FA9FF02DEB9FF00DEA9FE02DF10D0895FA
:10FE9A007A9F702D6B9F700DF89F700DE99F700D02
:10FEAA006A9F602D710DFB9F600D711DE89F600DAB
:10FEBA00711D8827FA9FF02D610D781FEB9FF00DB9
:10FECA00611D781FEA9FE02DF10D681F781F0895C4
:10FEDA006E2F6A9FF0016B9FF00D089529D0D0DF35
:10FEEA000EF49EDF08953F934F935F9300241124ED
:10FEFA004427552730E2AA0FBB1F881F991F001CF1
:10FF0A00111C441F551F0E1A1F0A460B570B28F4C3
:10FF1A000E0E1F1E461F571F01C0A1603A9559F7C2
:10FF2A00FD01BC01D001CA015F914F913F91089533
:10FF3A00E894F7FF02C074DF6894B7FF06C0A09583
:10FF4A00B095119600F8039400FA0895ED91FD9189
:10FF5A006D917D9108957E936E93FE93EE9308952D
:10FF6A00E881F9816A817B810895A881B9818A81B2
:10FF7A009B810895E883F9836A837B8308957A9342
:10FF8A006A93FA93EA9308959A938A93BA93AA93EF
:10FF9A0008951097804090400895AE17BF078607CE
:10FFAA00970708955A934A933A932A931A930A936E
:10FFBA0008955D814C813B812A81198108810895C8
:00000001FF
