:020000021000EC
:04E000000C94EBF0A1
:10E004000C9400F00C9400F00C9400F00C9400F0CC
:10E014000C9400F00C9400F00C9400F00C9400F0BC
:10E024000C9400F00C9400F00C9400F00C9400F0AC
:10E034000C9400F00C9400F00C9400F00C9400F09C
:10E044000C9400F00C9400F00C9400F00C9400F08C
:10E054000C9400F00C9400F00C9400F00C9400F07C
:10E064000C9400F00C9400F00C9400F00C9400F06C
:10E074000C9400F00C9400F00C9400F00C9400F05C
:10E084000C9400F00C9400F0E0F9B4F9302E424FF7
:10E094004F54205245414420534400534420494E98
:10E0A4004954204641494C004A554D5020544F2074
:10E0B400465700312E46494E44205550444154455C
:10E0C40000382E46494E44204241434B5550004EA1
:10E0D4004F20555044415445005550444154494EF5
:10E0E4004720465700504C45415345205741495419
:10E0F400005B73657474696E67735D00474F2054E9
:10E104004F20465700494E49542053442046414924
:10E114004C202000494E495420534443415244204A
:10E124004F4B200052454144204D42522046414924
:10E134004C200052454144204D42522020204F4B58
:10E1440020005245414420464154204641494C2038
:10E154000052454144204641542020204F4B20008A
:10E16400464F554E44204F4B20202020200020476E
:10E174004F204649524D41574152452000204552B7
:10E18400524F522020202020202020002038002020
:10E19400300080C001002D4E414E00494E46000023
:10E1A400040004008CE0010007000009BEE0010047
:10E1B40007000709CCE001000B000E09F5E001009F
:10E1C40002004A0B96E101000100500B98E10100A6
:10E1D4000000F894EE27ECBBF1E0F5BFF2E0F5BFE8
:10E1E400E0936C008DE0A2E0BB27ED938A95E9F7FC
:10E1F40080E090E1A0E0B1E0ED930197E9F7E4EA73
:10E20400F1EED1E0DBBF87919791009781F0A79160
:10E21400B79107901790C791D791BF01DBB7F00171
:10E22400CBBF07900D920197E1F7FB01EBCFEFEF26
:10E23400EDBFE0E1EEBFC0E0D9E00C943FF2BA9349
:10E24400AA930E9446FAAE81BF818885998556D0EB
:10E25400E03009F44EC0ECB3E8703E2FE398E19946
:10E26400FECF2FB7F894A895E1EFFFEFE017F10781
:10E2740091F40E9414F8A0E0B0E00E9405F20E941C
:10E284001BF80E9415F20E941BF80E9423F20E94C0
:10E294001BF80E9431F2E0916800E170E1F700E0C0
:10E2A40010E00030E1E01E07C8F4F8016627772784
:10E2B4000E9431FAF8010E9420F80C901124F80110
:10E2C40031960E9420F8EC91FE2FE0E0D001AE0FD1
:10E2D400BF1F0E9405F20E5F1F4FE3CFAE81BF81C7
:10E2E4008885998527D0ECB3E32BECBB2FBFE1E005
:10E2F40001C0E0E00E944DFA2A9608950E9436FA81
:10E304000E9425F80E943BFA70F00E9425F8A03084
:10E31400E0EFBE07E1E08E07E0E09E0720F40E94F4
:10E3240022FAE03009F003C0E1E00C9447F6E0E0A3
:10E334000C9447F60E9436FAA8950E9425F80E948C
:10E3440031F20C9447F663E060936800E895E0913D
:10E354006800E170E1F765E060936800E895E0919A
:10E364006800E170E1F7E0916800E07449F061E170
:10E3740060936800E895E0916800E170E1F7F3CFFD
:10E38400089565E060936800E895E0916800E170A5
:10E39400E1F7E0916800E07449F061E1609368009E
:10E3A400E895E0916800E170E1F7F3CF089563E048
:10E3B40060936800E895E0916800E170E1F7E0910E
:10E3C4006800E07449F061E160936800E895E091C9
:10E3D4006800E170E1F7F3CF089561E060936800AD
:10E3E400E895E0916800E170E1F7E0916800E0747D
:10E3F40049F061E160936800E895E0916800E1709C
:10E40400E1F7F3CF0895BA93AA93E0916800E1701D
:10E41400E1F7EA81FB816C816BBF088019800E945F
:10E42400EFF1269608950E9436FAE0916800E170B3
:10E43400E1F7E881F9816A816BBF0E94C3F10C9412
:10E4440047F60E9436FAE0916800E170E1F7E8814E
:10E45400F9816A816BBF0E94D9F10C9447F60E943E
:10E4640036FAE0916800E170E1F7E881F9816A81A8
:10E474006BBF0E94A5F10C9447F62C97A09AA8981C
:10E484000E9428F8A0E10E94E5F70E942CF8A89ABF
:10E49400AAE0B0E00E946EF9A0E9B0EE81E090E05D
:10E4A4000E9433F80E9428F816D2E0931909E0304C
:10E4B40081F00E942CF8AFE9B0EE81E090E00E9478
:10E4C40033F80E943AF8A0EDB7E00E946EF90E947A
:10E4D40040F80E942CF80E9446F80E942CF80E94F2
:10E4E40046F8E0E0F9E0FA93EA93A0E090D2E093F2
:10E4F4001909A0911909A83081F40E942CF8A5ECFF
:10E50400B0EE81E090E00E944DF8E7E0F9E0FA9384
:10E51400EA93A1E07CD2E0931909E0911909E03073
:10E5240071F00E942CF8A3EDB0EE81E090E00E941F
:10E5340033F80E943AF80E9428F80E9440F80E949A
:10E544002CF8ADEDB0EE81E090E00E9433F8A9EE36
:10E55400B0EE81E090E00E944DF8E0E0E0933E0BE5
:10E56400E0933F0BE093400BE093410B0E9450F883
:10E574000E9459F808F06EC10E9461F80E949EF949
:10E584000E949EF9DF01CB01E0E0F2E060E070E080
:10E594000E94E5F90E946AF80E9475F8E03009F0DB
:10E5A400FFCFA091320BB091330BE4E00E94DAF973
:10E5B400F170E25EF64F0E9482F8E093360BF0931E
:10E5C400370B6093380B7093390B0E9487F800E087
:10E5D40010E0E82DD801F0E0AE17BF0708F02FC116
:10E5E4000E94A7F80E94B0F8A030E2E0BE07E0E085
:10E5F4008E07E0E09E0708F03DC020E030E02030C8
:10E60400E1E03E07B8F500240216030608F540E0F1
:10E6140050E04A30E0E05E07D8F4FA01DE01EA0F88
:10E62400FB1FBF01AEE1B9E0A40FB51FEC91EE0FE3
:10E634000E2EAEE1B9E0A40FB51F0E94B9F8DE01B9
:10E64400A40FB51FEC91E227EC934F5F5F4FE1CF2E
:10E65400EEE0F9E0FA93EA93DE011296FDD0E0933E
:10E664001A09E0911A09E03011F02B8703C02F5FDB
:10E674003F4FC5CF20E030E02030E2E03E0758F5C0
:10E68400A895EB85E030B1F0F901E25EF64FBF01E9
:10E694000E94C1F8EC91EE0F0E2E0E94C1F80E9468
:10E6A400B9F8F901E25EF64F0F01E081AB85EA2784
:10E6B400D001EC930E94C1F8EC91F0E0A091440BDE
:10E6C400B091450BEA0FFB1FE093440BF093450B0D
:10E6D4002F5F3F4FD1CFE0913E0BF0913F0B609104
:10E6E400400B7091410BE050FE4F6F4F7F4FE09312
:10E6F4003E0BF0933F0B6093400B7093410B0E94D1
:10E70400B0F8A130E8E0BE07E0E08E07E0E09E0745
:10E7140088F1BB24E2E0BE1660F50E94C6F80E94B0
:10E7240031FAAB2DB0E0E0E0F1E00E94E0F9E25E06
:10E73400F64FDF010E9421F1E03009F4FFCF0E947F
:10E74400C6F8E050FF4F6F4F7F4F0E94CFF8F6019D
:10E7540031976F010C2C0D2851F40E94A2F7A0E010
:10E76400B1EE81E090E00E944DF80E9440F8B3942D
:10E77400D1CF48C00E94B0F8A03DE7E0BE07E0E07A
:10E784008E07E0E09E07F0F1E091EE0AF0E00E94CF
:10E79400ADF90E94A8F90E94CFF8E091EF0AF0E0E9
:10E7A4000E94ADF9DF01CB01E8E00E9486F90E94E6
:10E7B400D8F8E091F00AF0E00E94ADF90E94D8F890
:10E7C400F091F10AE0E06F01E091F20AF0E0CE2A64
:10E7D400DF2AF091F30AE0E0E093420BF093430B5D
:10E7E400E091F40AF0E0A091420BB091430BEA2BC4
:10E7F400FB2BE093420BF093430BE0E0E093440BDC
:10E80400E093450BA091360BB091370B8091380BF8
:10E814009091390B0E9459F868F0E0913A0BF0910D
:10E824003B0B60913C0B70913D0B0E94B0F80E9431
:10E834003FFA28F40E94E3F80F5F1F4FCACEE0911D
:10E84400360BF091370B6091380B7091390B0E94A5
:10E85400EEF88CCEFFCFFFCFBA93AA93AA81BB81E7
:10E86400EC91E03069F00D90AA83BB83A881B98153
:10E87400ED91A883B983E01511F0E0E006C2EECF74
:10E88400E1E003C2AA932497E0E0E883E983EA8302
:10E89400EB83AC81A130E0F00E9425F8E8E00E940F
:10E8A40086F90E942CFAEC81F0E03197AD81BE81AB
:10E8B400AE0FBF1FEC910E9425F8FF27662777272C
:10E8C4000E947DF90E942CFAEC81E150EC83E1CFA7
:10E8D4000E9422FA7EC13BD2E0931909E03051F044
:10E8E4000E94F7F8A9E0B1EE81E090E00E944DF8B3
:10E8F400E1E008950E94F7F8A8E1B1EE81E090E02C
:10E904000E944DF80E9414F80E94FCF85ED2E09335
:10E914001909E03051F00E94F7F8A8E2B1EE81E065
:10E9240090E00E944DF8E2E008950E94F7F8A7E312
:10E93400B1EE81E090E00E944DF8E4EEFAE00E942E
:10E9440082F8E093220BF093230B6093240B7093D3
:10E95400250B0E94A7F8E03051F00E94F7F8A6E4D6
:10E96400B1EE81E090E00E944DF8E3E008950E944A
:10E97400F7F8A5E5B1EE81E090E00E944DF88090B3
:10E984002B09E2E4F9E00E9482F8E093260BF0936D
:10E99400270B6093280B7093290BECE2F9E00E949B
:10E9A40003F9E093460BF093470BA091220BB0912F
:10E9B400230B8091240B9091250B662777270E94C7
:10E9C40078F9E0932A0BF0932B0B60932C0B709344
:10E9D4002D0BE091260BF091270B6091280B709181
:10E9E400290B0E949EF90E946AF8E0932E0BF09383
:10E9F4002F0B6093300B7093310BE2E0F0E060E09A
:10EA040070E00E94EEF80E9487F8E0E00895AA936F
:10EA14000E9446FA60DFE09319090E9487F800E03B
:10EA240010E0E82DD801F0E0AE17BF0708F051C0A0
:10EA34000E94A7F8E03011F0E6E0C9C020E030E021
:10EA44002031E0E03E0788F4ED81FE81FA93EA93F9
:10EA54000E9408F9E25EF64FDF01FEDEE0931A0938
:10EA6400E03019F42F5F3F4FEBCFE0911A09E0300B
:10EA740059F10E9408F9EE5CF64F0E9403F90E94D6
:10EA8400EEF80E9461F80E94A8F90E94EEF80E9434
:10EA940008F9E85CF64F0E9403F90E9450F80E94BE
:10EAA4007DF90E94EEF80E9408F9E65CF64FFA93AD
:10EAB400EA93A8E0E7DEE0933A0BF0933B0B609314
:10EAC4003C0B70933D0B05C00E94E3F80F5F1F4F92
:10EAD400A8CFE0911A09E03011F4E6E078C00E9472
:10EAE400F7F8A4E6B1EE81E090E00E94C9F7EC816A
:10EAF400E03031F40E9408F9EC5DF64FA08101C0CA
:10EB0400A0E20E94AFF70E9428F8EC81E03009F0FF
:10EB140053C00E9408F9EC5DF64FA081A233C0F403
:10EB24000E94F7F80E9408F9EC5DF64FA081A0332B
:10EB340029F4A2E7B1EE81E090E004C0A1E8B1EECF
:10EB440081E090E00E94C9F70E9428F8E7E03FC006
:10EB54000E9408F9EC5DF64FA081A63348F40E94A8
:10EB640008F9EC5DF64FDF01EC91E150EC9306C03F
:10EB74000E9408F9EC5DF64FA5E3A083E091220B17
:10EB8400F091230B6091240B7091250B0E9431FAB4
:10EB94000E94FCF85AD1E09319090E9408F9EC5D2F
:10EBA400F64FA081A23370F4A0E9B1EE81E090E0C9
:10EBB4000E944DF8E8E00BC0A3E9B1EE81E090E0DB
:10EBC4000E94C9F7A8EEB3E00E946EF9E0E00E944B
:10EBD4004DFA27960895E7E0E7BBC09ABB98C3981F
:10EBE400E0E5EDB90895AA93E881EFB9779902C0F9
:10EBF400A895FCCFEFB10C9412F81A93ECDFC09AED
:10EC0400A1E0B0E00E946EF910E01A3020F4AFEFFA
:10EC1400EADF1F5FFACF0E940EF997C0AA931A93F6
:10EC24000A93EF81E0640E9412F9E8E10E9492F9EC
:10EC3400AE2FD9DFEB81FC816D817E810E94A3F927
:10EC44000E9412F9E8E00E9492F9AE2FCCDFAB816A
:10EC5400CADFEA81E160AE2FC6DF05D01E2F19811D
:10EC64000881289608950E9446FA20E030E0AFEF2C
:10EC7400BADF1E2FE07831F02F5F3F4F2030E2E003
:10EC84003E07A8F3E12F0E944DFA249608950E94AE
:10EC94001AF9E0E0EA930E9414F8A4E951C0BA9387
:10ECA400AA93A881B981AC91A23010F00C94A0F77A
:10ECB400AFEF99DFA881B9811196EC93AFEF93DFA1
:10ECC400A881B9811296EC93AFEF8DDFA881B98149
:10ECD4001396EC93AFEF87DFA881B9811496EC9378
:10ECE4000C94A0F70E9420F9E8E0EA93EAEAF1E044
:10ECF40060E070E00E9431FAA6E80E9427F90C94C3
:10ED0400A0F70E9420F9EAE3EA930E9414F8A0E035
:10ED14000E9427F90C94A0F70E941AF9E7E3EA93FA
:10ED2400E0E0F0E060E070E008C00E941AF9E9E277
:10ED3400EA93E0E0F0E060E070E40E9431FAA0E0E1
:10ED44006DDF1E2F0E9432F9E12F19910895259746
:10ED54001A9310E052DF9BDFE983E13031F01F5F4B
:10ED6400153610F0E1E02EC0F6CFDE011196BADFC1
:10ED7400A981A13011F0E1E025C0AD81AA3A11F0DA
:10ED8400E1E020C010E0153610F0E1E01BC0C4DF64
:10ED9400E983A981A23010F4C8DFE983E981E03076
:10EDA40021F0AAE0B0E00E946EF91F5FE981E03033
:10EDB40051F7DE011196A5DFEA81E07811F4E1E074
:10EDC40001C0E0E0188126960895BA93AA930E94A0
:10EDD40044FAA8950E9436F9E1E10E944DF91F3FDB
:10EDE40069F140E050E0FA013196AF01EB31A6E061
:10EDF400FA0729F0AFEFF7DE0E2FEF3FA1F30E3F36
:10EE0400D1F420E030E02030E2E03E0780F4E885F1
:10EE1400F9853196E887F9873197FF93EF93AFEF40
:10EE2400E2DEAF91BF91EC932F5F3F4FECCFAFEF9A
:10EE3400DADEAFEFD8DEAE81BF810C930E9432F9E7
:10EE44000E3F09F449C0E1E048C0BA93AA930E9476
:10EE540044FAA8950E9436F9AFEFC5DEE8E10E94B6
:10EE64004DF91030B9F5AEEFBEDE20E030E02030D1
:10EE7400E2E03E0740F4F9010E9420F8AC91B3DED1
:10EE84002F5F3F4FF4CF40E050E00E9459F959F012
:10EE9400AFEFA9DE0E2FEF3F29F0AE81BF81EFEF78
:10EEA400EC9301C0F2CFE02FEF71E53099F4AE811D
:10EEB400BF81E5E0EC9340E050E0AFEF94DEE0305A
:10EEC40049F40E9459F929F4AE81BF81E0E0EC9342
:10EED40001C0F3CF0E9432F9E12F0E944BFA2E9623
:10EEE4000895AA93E5B3EF70AE2FE881E07FEA2B93
:10EEF400E5BB81E18A95F1F7A99A81E18A95F1F759
:10EF0400A99881E18A95F1F78BC0AA93A881E9DFDA
:10EF1400E881E295E883A881E4DF87EA8A95F1F73E
:10EF24007FC0AA93E881F0E0E65BF44FE081A98119
:10EF3400AE0FEBDFA980E881E0934E0B2296089593
:10EF4400A2E00E9460F9ACE0E0DFA1E00E9460F979
:10EF5400E0E0E0934E0BAE2E0895AA93A881AA3068
:10EF640021F0E0914F0BAE1660F0E0E0EA93A0913F
:10EF74004E0BAF5FA0934E0BD4DFA881AA3009F4E7
:10EF84004FC0A394AA9AA881C0DFAA9849C00E943E
:10EF940036FA1A93DE0111960E9418FAEF5FFF4FBA
:10EFA4006F4F7F4F0E941DFAE150F0406040704067
:10EFB4006BBFE6911E2FE03019F0A12FCEDFEACF10
:10EFC400188125960895AA93E4B3E06FE4BBA19A4F
:10EFD400A29AA39AA998AA98AB98E881E0934F0BB8
:10EFE400E058E0934C0BE881E054E0934D0BA4E12E
:10EFF400B0E00E946EF90E9466F90E9466F90E94D0
:10F0040066F9A0E26EDF8AEF90E00197F1F7A8E2DB
:10F014007CDFA4E07ADFA5E878DFA6E076DF90DF86
:10F0240021960895E0E0F0E060E070E00E9431FA9B
:10F034000895A0E0BFEE81E090E00895A885B98529
:10F04400AE0FBF1F08950E9427FA0895A8EEB3E0FB
:10F054000C946EF9E0E0EA93A0E00E9493F70C941C
:10F06400A2F70E94C9F7E0E0EA93A1E00C9493F7B9
:10F07400ACEAB0EE81E090E00C94C9F7E091480B63
:10F08400F091490B09950895A7EBB0EE81E090E06B
:10F094000E94C9F7DBCF0E94C9F7D8CFA091320BE9
:10F0A400B091330B8091340B9091350B0895A83FA8
:10F0B400EFEFBE07EFEF8E07EFE09E070895E091B4
:10F0C400320BF091330B6091340B7091350B089532
:10F0D400A0912A0BB0912B0B80912C0B90912D0BAE
:10F0E4000E9478F908950E9431FAEEE1F9E0FA936A
:10F0F400EA93A9E0B0E00E94E7F6E09319090895C5
:10F10400FA93EA93A4E00C9444F4D9DFE250F0407B
:10F1140060407040DF01CB01E82DF0E00E94ADF9C2
:10F124000E94BAF9A0912E0BB0912F0B8091300B55
:10F134009091310B0E9478F9E093220BF093230B0A
:10F144006093240B7093250B0895E091220BF091AA
:10F15400230B6091240B7091250BC5CFA0913E0B1E
:10F16400B0913F0B8091400B9091410B0895EC912D
:10F17400EE1FE0E0EE1FE029DB01EC930895AEE121
:10F18400B9E0A20FB31F0895E0911E0BF0911F0B7D
:10F194006091200B7091210B0895E0931E0BF09366
:10F1A4001F0B6093200B7093210B0895A0911E0BED
:10F1B400B0911F0B8091200B9091210B0E947DF93F
:10F1C400ECCFA2E2BBE00E9418FAEF5FFF4F6F4F53
:10F1D4007F4F0E941DFA0895E093320BF093330B96
:10F1E4006093340B7093350B0895E0E0EA93A1E04B
:10F1F4000C9493F7EEE1F9E0FA93EA93A9E0B0E016
:10F204000895FA93EA93A2E00C9444F4A0E2A29F36
:10F21400F001A39FF00D0895C09AAFEF0C94F5F59B
:10F22400AE2F0E94F5F5AB81BC818D819E8108953E
:10F234001A93AFEF0E94F5F5C0980895BA93AA9374
:10F24400AFEF0E94F5F5C09808950E9410F6A881CA
:10F25400B981EC930E9451F6AFEF0E94F5F5DCCF33
:10F26400AFEF0E94F5F5D8CFEA85FB856C857D85E7
:10F27400A0E0B2E080E090E00E94BAF9EA87FB8760
:10F284006C877D87AE81BF81EFEFEC93AFEF0E9477
:10F29400F5F5C0980895EA93EB85FC856D857E8528
:10F2A4000E9431FAA0E00E9410F61E2F0895FA0180
:10F2B4003196AF01E334AFE0FA0708950E9487F76F
:10F2C400A3E0B0E00C946EF9A0E30E9473F78AEF18
:10F2D40090E00197F1F70895109639F0A89584EC21
:10F2E40099E00197F1F71197C9F70895EA0FFB1F09
:10F2F400681F791F0895EA2BFB2B682B792B08953F
:10F30400F195E195F0400895EE230E2EFD01BC0128
:10F3140031F0EE0FFF1F661F771F0A94D1F708958F
:10F32400EE230E2EFD01BC0131F076956795F7951D
:10F33400E7950A94D1F70895EE0FFF1F661F771F14
:10F344000895E62FF72F60E070E008956E2F7F2F69
:10F35400E0E0F0E008956F2F660F660B762F0895B6
:10F36400FA9FF02DEB9FF00DEA9FE02DF10D08952B
:10F374007A9F702D6B9F700DF89F700DE99F700D33
:10F384006A9F602D710DFB9F600D711DE89F600DDC
:10F39400711D8827FA9FF02D610D781FEB9FF00DEA
:10F3A400611D781FEA9FE02DF10D681F781F0895F5
:10F3B4006E2F6A9FF0016B9FF00D089529D0D0DF66
:10F3C4000EF49EDF08953F934F935F93002411241E
:10F3D4004427552730E2AA0FBB1F881F991F001C22
:10F3E400111C441F551F0E1A1F0A460B570B28F4F5
:10F3F4000E0E1F1E461F571F01C0A1603A9559F7F4
:10F40400FD01BC01D001CA015F914F913F91089564
:10F41400E894F7FF02C074DF6894B7FF06C0A095B4
:10F42400B095119600F8039400FA0895ED91FD91BA
:10F434006D917D9108957E936E93FE93EE9308955E
:10F44400E881F9816A817B810895A881B9818A81E3
:10F454009B810895E883F9836A837B8308957A9373
:10F464006A93FA93EA9308959A938A93BA93AA9320
:10F4740008951097804090400895AE17BF078607FF
:10F48400970708955A934A933A932A931A930A939F
:10F4940008955D814C813B812A81198108810895F9
:00000001FF
