:020000021000EC
:0EF000000C945EF80C9400F80C9400F80C943C
:10F00E0000F80C9400F80C9400F80C9400F80C9492
:10F01E0000F80C9400F80C9400F80C9400F80C9482
:10F02E0000F80C9400F80C9400F80C9400F80C9472
:10F03E0000F80C9400F80C9400F80C9400F80C9462
:10F04E0000F80C9400F80C9400F80C9400F80C9452
:10F05E0000F80C9400F80C9400F80C9400F80C9442
:10F06E0000F80C9400F80C9400F80C9400F80C9432
:10F07E0000F80C9400F80C9400F80C9400F8E0F9E9
:10F08E00B4F9555044415445005B73657474696E10
:10F09E0067735D00040004008CF001000700000996
:10F0AE0090F001000B00070997F001000000F894A2
:10F0BE00EE27ECBBF1E0F5BFF2E0F5BFE0936C009C
:10F0CE008DE0A2E0BB27ED938A95E9F780E090E111
:10F0DE00A0E0B1E0ED930197E9F7E2EAF0EFD1E0BD
:10F0EE00DBBF87919791009781F0A791B791079019
:10F0FE001790C791D791BF01DBB7F001CBBF079037
:10F10E000D920197E1F7FB01EBCFEFEFEDBFE0E1E1
:10F11E00EEBFC0E0D9E00C94B2F9BA93AA930E9464
:10F12E00DBFFAE81BF818885998556D0E03009F42A
:10F13E004EC0ECB3E8703E2FE398E199FECF2FB7A7
:10F14E00F894A895E1EFFFEFE017F10791F40E9414
:10F15E00F7FDA0E0B0E00E9478F90E94FEFD0E944B
:10F16E0088F90E94FEFD0E9496F90E94FEFD0E9403
:10F17E00A4F9E0916800E170E1F700E010E00030E2
:10F18E00E1E01E07C8F4F801662777270E94C6FF44
:10F19E00F8010E9403FE0C901124F80131960E9492
:10F1AE0003FEEC91FE2FE0E0D001AE0FBF1F0E94D8
:10F1BE0078F90E5F1F4FE3CFAE81BF8188859985A9
:10F1CE0027D0ECB3E32BECBB2FBFE1E001C0E0E0B6
:10F1DE000E94E2FF2A9608950E94CBFF0E9408FE2D
:10F1EE000E94D0FF70F00E9408FEA030E0EFBE0734
:10F1FE00E1E08E07E0E09E0720F40E94B7FFE030CA
:10F20E0009F003C0E1E00C94DEFCE0E00C94DEFCBF
:10F21E000E94CBFFA8950E9408FE0E94A4F90C94B0
:10F22E00DEFC63E060936800E895E0916800E170B1
:10F23E00E1F765E060936800E895E0916800E170A1
:10F24E00E1F7E0916800E07449F061E160936800D5
:10F25E00E895E0916800E170E1F7F3CF089565E07D
:10F26E0060936800E895E0916800E170E1F7E09145
:10F27E006800E07449F061E160936800E895E09100
:10F28E006800E170E1F7F3CF089563E060936800E2
:10F29E00E895E0916800E170E1F7E0916800E074B4
:10F2AE0049F061E160936800E895E0916800E170D3
:10F2BE00E1F7F3CF089561E060936800E895E0917F
:10F2CE006800E170E1F7E0916800E07449F061E1F7
:10F2DE0060936800E895E0916800E170E1F7F3CF84
:10F2EE000895BA93AA93E0916800E170E1F7EA817C
:10F2FE00FB816C816BBF088019800E9462F90C94AF
:10F30E0072FD0E94CBFFE0916800E170E1F7E881A9
:10F31E00F9816A816BBF0E9436F90C94DEFC0E9463
:10F32E00CBFFE0916800E170E1F7E881F9816A8135
:10F33E006BBF0E944CF90C94DEFC0E94CBFFE09157
:10F34E006800E170E1F7E881F9816A816BBF0E9484
:10F35E0018F90C94DEFC2C977894C8D1E09312091E
:10F36E00A0E0B9E02FD2E0931209E03029F0E0914D
:10F37E00410BF091420B0995E0E0E093370BE093DF
:10F38E00380BE093390BE0933A0B0E940BFE0E9470
:10F39E0014FE08F069C10E941CFE0E9433FF0E94F9
:10F3AE0033FFDF01CB01E0E0F2E060E070E00E94AD
:10F3BE007AFF0E9425FE0E9430FEE03009F0FFCF5A
:10F3CE00A0912B0BB0912C0BE4E00E946FFFF1701B
:10F3DE00E95EF64F0E943CFEE0932F0BF093300B4C
:10F3EE006093310B7093320B0E9441FE00E010E0EF
:10F3FE00E82DD801F0E0AE17BF0708F02AC10E9431
:10F40E0061FE0E946AFEA030E2E0BE07E0E08E07D9
:10F41E00E0E09E0708F03DC020E030E02030E1E063
:10F42E003E07B8F500240216030608F540E050E04A
:10F43E004A30E0E05E07D8F4FA01DE01EA0FFB1F66
:10F44E00BF01A7E1B9E0A40FB51FEC91EE0F0E2E90
:10F45E00A7E1B9E0A40FB51F0E9473FEDE01A40F51
:10F46E00B51FEC91E227EC934F5F5F4FE1CFE7E0E2
:10F47E00F9E0FA93EA93DE011296F8D0E0931309BD
:10F48E00E0911309E03011F02B8703C02F5F3F4F3F
:10F49E00C5CF20E030E02030E2E03E0758F5A895D9
:10F4AE00EB85E030B1F0F901E95EF64FBF010E9445
:10F4BE007BFEEC91EE0F0E2E0E947BFE0E9473FEE1
:10F4CE00F901E95EF64F0F01E081AB85EA27D00125
:10F4DE00EC930E947BFEEC91F0E0A0913D0BB0917D
:10F4EE003E0BEA0FFB1FE0933D0BF0933E0B2F5F9D
:10F4FE003F4FD1CFE091370BF091380B6091390B24
:10F50E0070913A0BE050FE4F6F4F7F4FE093370BE9
:10F51E00F093380B6093390B70933A0B0E946AFE8E
:10F52E00A130E8E0BE07E0E08E07E0E09E0760F164
:10F53E00BB24E2E0BE1638F50E9480FE0E94C6FF94
:10F54E00AB2DB0E0E0E0F1E00E9475FFE95EF64F12
:10F55E00DF010E9494F8E03009F4FFCF0E9480FE94
:10F56E00E050FF4F6F4F7F4F0E9489FEF60131979B
:10F57E006F010C2C0D2829F4E091410BF091420BF8
:10F58E000995B394D6CF48C00E946AFEA03DE7E02D
:10F59E00BE07E0E08E07E0E09E07F0F1E091E70A9B
:10F5AE00F0E00E9442FF0E943DFF0E9489FEE09122
:10F5BE00E80AF0E00E9442FFDF01CB01E8E00E9482
:10F5CE001BFF0E9492FEE091E90AF0E00E9442FFCA
:10F5DE000E9492FEF091EA0AE0E06F01E091EB0AE0
:10F5EE00F0E0CE2ADF2AF091EC0AE0E0E0933B0B4C
:10F5FE00F0933C0BE091ED0AF0E0A0913B0BB09143
:10F60E003C0BEA2BFB2BE0933B0BF0933C0BE0E027
:10F61E00E0933D0BE0933E0BA0912F0BB091300B7E
:10F62E008091310B9091320B0E9414FE68F0E091A4
:10F63E00330BF091340B6091350B7091360B0E94A9
:10F64E006AFE0E94D4FF28F40E949DFE0F5F1F4F9A
:10F65E00CFCEE0912F0BF091300B6091310B70916A
:10F66E00320B0E94A8FE91CEFFCFFFCFBA93AA9382
:10F67E00AA81BB81EC91E03069F00D90AA83BB8327
:10F68E00A881B981ED91A883B983E01511F0E0E06E
:10F69E008EC1EECFE1E08BC1AA932497E0E0E88320
:10F6AE00E983EA83EB83AC81A130E0F00E9408FE8F
:10F6BE00E8E00E941BFF0E94C1FFEC81F0E0319751
:10F6CE00AD81BE81AE0FBF1FEC910E9408FEFF27D9
:10F6DE00662777270E9412FF0E94C1FFEC81E1503E
:10F6EE00EC83E1CF0E94B7FF27960895B8D1E0933F
:10F6FE001209E03011F0E1E008950E94F7FD0E943A
:10F70E00B1FEEBD1E0931209E03011F0E2E0089582
:10F71E00EDEDFAE00E943CFEE0931B0BF0931C0B08
:10F72E0060931D0B70931E0B0E9461FEE03011F072
:10F73E00E3E0089580902409EBE3F9E00E943CFE9B
:10F74E00E0931F0BF093200B6093210B7093220B11
:10F75E00E5E2F9E00E94B8FEE0933F0BF093400B18
:10F76E00A0911B0BB0911C0B80911D0B90911E0B49
:10F77E00662777270E940DFFE093230BF093240B4F
:10F78E006093250B7093260BE0911F0BF091200BCD
:10F79E006091210B7091220B0E9433FF0E9425FE77
:10F7AE00E093270BF093280B6093290B70932A0B91
:10F7BE00E2E0F0E060E070E00E94A8FE0E9441FEF0
:10F7CE00E0E00895BA93AA930E94DBFF0E9441FEE7
:10F7DE0000E010E0E82DD801F0E0AE17BF0708F00A
:10F7EE0051C00E9461FEE03021F0E6E00E94E2FF8F
:10F7FE0072C120E030E02031E0E03E0788F4EC8179
:10F80E00FD81FA93EA930E94BDFEE95EF64FDF0199
:10F81E002DDFE0931309E03019F42F5F3F4FEBCF4C
:10F82E00E0911309E03049F10E94BDFEE55DF64F0F
:10F83E000E94B8FE0E94A8FEF8D10E943DFF0E94D1
:10F84E00A8FE0E94BDFEEF5CF64F0E94B8FEDCD112
:10F85E000E9412FF0E94A8FE0E94BDFEED5CF64FB4
:10F86E00FA93EA93A8E018DFE093330BF093340B8E
:10F87E006093350B7093360B05C00E949DFE0F5F93
:10F88E001F4FA8CFE0911309E03021F4E6E00E946B
:10F89E00E2FF21C10E94BDFEE35EF64FA081A033C0
:10F8AE0021F4E7E00E94E2FF16C10E94BDFEE35E76
:10F8BE00F64FA081A13310F4AA3348F40E94BDFE86
:10F8CE00E35EF64FDF01EC91E150EC9306C00E942F
:10F8DE00BDFEE35EF64FA9E3A083E0911B0BF09112
:10F8EE001C0B60911D0B70911E0B0E94C6FF0E9497
:10F8FE00B1FE30D1E0931209E0E00E94E2FFEBC0CE
:10F90E00E7E0E7BBC09ABB98C398E0E5EDB9089570
:10F91E00AA93E881EFB9779902C0A895FCCFEFB111
:10F92E00219608951A93ECDFC09AA1E0B0E00E94F0
:10F93E0003FF10E01A3020F4AFEFEADF1F5FFACFBB
:10F94E001BD28BC0AA931A930A93EF81E06417D24D
:10F95E00E8E10E9427FFAE2FDBDFEB81FC816D819A
:10F96E007E810E9438FF0BD2E8E00E9427FFAE2F67
:10F97E00CFDFAB81CDDFEA81E160AE2FC9DF05D0ED
:10F98E001E2F19810881289608950E94DBFF20E022
:10F99E0030E0AFEFBDDF1E2FE07831F02F5F3F4F2D
:10F9AE002030E2E03E07A8F3E12F0E94E2FF24960A
:10F9BE000895ECD1E0E0EA9313D1A4E94AC0BA93DA
:10F9CE00AA93A881B981AC91A23078F5AFEFA0DFF0
:10F9DE00A881B9811196EC93AFEF9ADFA881B98116
:10F9EE001296EC93AFEF94DFA881B9811396EC9346
:10F9FE00AFEF8EDFA881B9811496EC9316C0CBD1F0
:10FA0E00E8E0EA93EAEAF1E060E070E00E94C6FF07
:10FA1E00A6E805C0C0D1EAE3EA93E2D0A0E092DF07
:10FA2E00A881B981EC93CBDFBCD122960895AED1DB
:10FA3E00E7E3EA93E0E0F0E060E070E007C0A6D113
:10FA4E00E9E2EA93E0E0F0E060E070E40E94C6FFD5
:10FA5E00A0E078DF1E2FA5D1E12F199108952597EB
:10FA6E001A9310E05FDFA5DFE983E13031F01F5F0D
:10FA7E00153610F0E1E02EC0F6CFDE011196BFDF95
:10FA8E00A981A13011F0E1E025C0AD81AA3A11F0B3
:10FA9E00E1E020C010E0153610F0E1E01BC0C7DF3A
:10FAAE00E983A981A23010F4CADFE983E981E0304D
:10FABE0021F0AAE0B0E00E9403FF1F5FE981E03071
:10FACE0051F7DE011196A6DFEA81E07811F4E1E04C
:10FADE0001C0E0E0188126960895BA93AA930E9479
:10FAEE00D9FFA89561D1E1E175D11F3F69F140E0E1
:10FAFE0050E0FA013196AF01EB31A6E0FA0729F09A
:10FB0E00AFEF06DF0E2FEF3FA1F30E3FD1F420E053
:10FB1E0030E02030E2E03E0780F4E885F98531964A
:10FB2E00E887F9873197FF93EF93AFEFF1DEAF914F
:10FB3E00BF91EC932F5F3F4FECCFAFEFE9DEAFEF0E
:10FB4E00E7DEAE81BF810C932CD10E3F09F443C08A
:10FB5E00E1E042C0BA93AA930E94D9FFA89524D19E
:10FB6E00AFEFD6DEE8E136D11030A1F5AEEFD0DE44
:10FB7E0020E030E02030E2E03E0738F4F9013CD0DE
:10FB8E00AC91C6DE2F5F3F4FF5CF40E050E02DD158
:10FB9E0059F0AFEFBDDE0E2FEF3F29F0AE81BF81E2
:10FBAE00EFEFEC9301C0F3CFE02FEF71E53091F45E
:10FBBE00AE81BF81E5E0EC9340E050E0AFEFA8DE10
:10FBCE00E03041F412D129F4AE81BF81E0E0EC9334
:10FBDE0001C0F4CFE6D0E12F0E94E0FF2E960895EB
:10FBEE00E0E0F0E060E070E00E94C6FF0895A0E063
:10FBFE00BFEE81E090E00895A885B985AE0FBF1FD6
:10FC0E0008950E94BCFF0895A0912B0BB0912C0B70
:10FC1E0080912D0B90912E0B0895A83FEFEFBE070C
:10FC2E00EFEF8E07EFE09E070895E0912B0BF0911A
:10FC3E002C0B60912D0B70912E0B0895A091230B20
:10FC4E00B091240B8091250B9091260B0E940DFFF5
:10FC5E0008950E94C6FFE7E1F9E0FA93EA93A9E05E
:10FC6E00B0E03BDFE09312090895FA93EA93A4E023
:10FC7E000C9453FBDADFE250F04060407040DF013D
:10FC8E00CB01E82DF0E00E9442FF0E944FFFA091B1
:10FC9E00270BB091280B8091290B90912A0B0E9473
:10FCAE000DFFE0931B0BF0931C0B60931D0B7093D9
:10FCBE001E0B0895E0911B0BF0911C0B60911D0B18
:10FCCE0070911E0BC6CFA091370BB091380B80915F
:10FCDE00390B90913A0B0895EC91EE1FE0E0EE1F78
:10FCEE00E029DB01EC930895A7E1B9E0A20FB31F61
:10FCFE000895E091170BF091180B6091190B70910C
:10FD0E001A0B0895E093170BF093180B6093190BD1
:10FD1E0070931A0B0895A091170BB091180B809148
:10FD2E00190B90911A0B0E9412FFECCFABE1BBE0C6
:10FD3E000E94ADFFEF5FFF4F6F4F7F4F0E94B2FFEC
:10FD4E000895E0932B0BF0932C0B60932D0B709377
:10FD5E002E0B0895E7E1F9E0FA93EA93A9E0B0E0FB
:10FD6E000895FA93EA93A2E00C9453FBA0E2A29FAB
:10FD7E00F001A39FF00D0895C09AAFEFC9CDAE2F3D
:10FD8E00C7DDAB81BC818D819E8108951A93AFEF43
:10FD9E00BFDDC0980895BA93AA93AFEFB9DDC098AE
:10FDAE000895AFEFB5DDE8CFEA85FB856C857D85DF
:10FDBE00A0E0B2E080E090E00E944FFFEA87FB8770
:10FDCE006C877D87AE81BF81EFEFEC93AFEFA0DD47
:10FDDE00C0980895EA93EB85FC856D857E850E941B
:10FDEE00C6FFA0E0AFDD1E2F0895FA013196AF01D8
:10FDFE00E334AFE0FA070895109639F0A89584EC35
:10FE0E0099E00197F1F71197C9F70895EA0FFB1FD3
:10FE1E00681F791F0895EA2BFB2B682B792B089509
:10FE2E00F195E195F0400895EE230E2EFD01BC01F3
:10FE3E0031F0EE0FFF1F661F771F0A94D1F708955A
:10FE4E00EE230E2EFD01BC0131F076956795F795E8
:10FE5E00E7950A94D1F70895EE0FFF1F661F771FDF
:10FE6E000895E62FF72F60E070E008956E2F7F2F34
:10FE7E00E0E0F0E008956F2F660F660B762F089581
:10FE8E00FA9FF02DEB9FF00DEA9FE02DF10D0895F6
:10FE9E007A9F702D6B9F700DF89F700DE99F700DFE
:10FEAE006A9F602D710DFB9F600D711DE89F600DA7
:10FEBE00711D8827FA9FF02D610D781FEB9FF00DB5
:10FECE00611D781FEA9FE02DF10D681F781F0895C0
:10FEDE006E2F6A9FF0016B9FF00D089529D0D0DF31
:10FEEE000EF49EDF08953F934F935F9300241124E9
:10FEFE004427552730E2AA0FBB1F881F991F001CED
:10FF0E00111C441F551F0E1A1F0A460B570B28F4BF
:10FF1E000E0E1F1E461F571F01C0A1603A9559F7BE
:10FF2E00FD01BC01D001CA015F914F913F9108952F
:10FF3E00E894F7FF02C074DF6894B7FF06C0A0957F
:10FF4E00B095119600F8039400FA0895ED91FD9185
:10FF5E006D917D9108957E936E93FE93EE93089529
:10FF6E00E881F9816A817B810895A881B9818A81AE
:10FF7E009B810895E883F9836A837B8308957A933E
:10FF8E006A93FA93EA9308959A938A93BA93AA93EB
:10FF9E0008951097804090400895AE17BF078607CA
:10FFAE00970708955A934A933A932A931A930A936A
:10FFBE0008955D814C813B812A81198108810895C4
:00000001FF
