:020000021000EC
:0CF000000C945EF80C9400F80C9400F8DE
:10F00C000C9400F80C9400F80C9400F80C9400F894
:10F01C000C9400F80C9400F80C9400F80C9400F884
:10F02C000C9400F80C9400F80C9400F80C9400F874
:10F03C000C9400F80C9400F80C9400F80C9400F864
:10F04C000C9400F80C9400F80C9400F80C9400F854
:10F05C000C9400F80C9400F80C9400F80C9400F844
:10F06C000C9400F80C9400F80C9400F80C9400F834
:10F07C000C9400F80C9400F80C9400F80C9400F824
:10F08C00E0F9B4F9555044415445005B7365747410
:10F09C00696E67735D00040004008CF001000700CA
:10F0AC00000990F001000B00070997F00100000027
:10F0BC00F894EE27ECBBF1E0F5BFF2E0F5BFE0937E
:10F0CC006C008DE0A2E0BB27ED938A95E9F780E018
:10F0DC0090E1A0E0B1E0ED930197E9F7E2EAF0EFFF
:10F0EC00D1E0DBBF87919791009781F0A791B79101
:10F0FC0007901790C791D791BF01DBB7F001CBBF39
:10F10C0007900D920197E1F7FB01EBCFEFEFEDBF0D
:10F11C00E0E1EEBFC0E0D9E00C94ACF9BA93AA934D
:10F12C000E94CAFFAE81BF818885998555D0E03099
:10F13C0009F44DC0ECB3E8703E2FE398E199FECF93
:10F14C002FB7F894E1EFFFEFE017F10791F40E946D
:10F15C00E1FDA0E0B0E00E9472F90E94E8FD0E947F
:10F16C0082F90E94E8FD0E9490F90E94E8FD0E943D
:10F17C009EF9E0916800E170E1F700E010E00030EA
:10F18C00E1E01E07C8F4F801662777270E94B5FF57
:10F19C00F8010E94EDFD0C901124F80131960E94AB
:10F1AC00EDFDEC91FE2FE0E0D001AE0FBF1F0E94F1
:10F1BC0072F90E5F1F4FE3CFAE81BF8188859985B1
:10F1CC0025D0ECB3E32BECBB2FBFE1E001C0E0E0BA
:10F1DC000E94D1FF2A9608950E94F2FD0E94BFFF63
:10F1EC0070F00E94F7FDA030E0EFBE07E1E08E0763
:10F1FC00E0E09E0720F40E94A6FFE03009F003C077
:10F20C00E1E00C94C8FCE0E00C94C8FC0E94F2FD18
:10F21C000E949EF90C94C8FC63E060936800E8952A
:10F22C00E0916800E170E1F765E060936800E895B3
:10F23C00E0916800E170E1F7E0916800E07449F05A
:10F24C0061E160936800E895E0916800E170E1F796
:10F25C00F3CF089565E060936800E895E09168004D
:10F26C00E170E1F7E0916800E07449F061E16093CE
:10F27C006800E895E0916800E170E1F7F3CF08953C
:10F28C0063E060936800E895E0916800E170E1F755
:10F29C00E0916800E07449F061E160936800E895E2
:10F2AC00E0916800E170E1F7F3CF089561E06093BD
:10F2BC006800E895E0916800E170E1F7E091680082
:10F2CC00E07449F061E160936800E895E0916800B2
:10F2DC00E170E1F7F3CF0895BA93AA93E091680037
:10F2EC00E170E1F7EA81FB816C816BBF08801980CA
:10F2FC000E945CF90C945CFD0E94BAFFE0916800DE
:10F30C00E170E1F7E881F9816A816BBF0E9430F905
:10F31C000C94C8FC0E94BAFFE0916800E170E1F720
:10F32C00E881F9816A816BBF0E9446F90C94C8FC94
:10F33C000E94BAFFE0916800E170E1F7E881F98181
:10F34C006A816BBF0E9412F90C94C8FC2C977894BC
:10F35C00C8D1E0931209A0E0B9E02CD2E0931209D5
:10F36C00E03029F0E091410BF091420B0995E0E07F
:10F37C00E093370BE093380BE093390BE0933A0BA7
:10F38C000E94FAFD0E9403FE08F069C10E940BFE68
:10F39C000E9422FF0E9422FFDF01CB01E0E0F2E09D
:10F3AC0060E070E00E9469FF0E9414FE0E941FFE44
:10F3BC00E03009F0FFCFA0912B0BB0912C0BE4E0C7
:10F3CC000E945EFFF170E95EF64F0E942BFEE09307
:10F3DC002F0BF093300B6093310B7093320B0E9418
:10F3EC0030FE00E010E0E82DD801F0E0AE17BF07CA
:10F3FC0008F02AC10E9450FE0E9459FEA030E2E0A3
:10F40C00BE07E0E08E07E0E09E0708F03DC020E07C
:10F41C0030E02030E1E03E07B8F500240216030688
:10F42C0008F540E050E04A30E0E05E07D8F4FA011D
:10F43C00DE01EA0FFB1FBF01A7E1B9E0A40FB51F66
:10F44C00EC91EE0F0E2EA7E1B9E0A40FB51F0E94B0
:10F45C0062FEDE01A40FB51FEC91E227EC934F5F27
:10F46C005F4FE1CFE7E0F9E0FA93EA93DE01129601
:10F47C00F8D0E0931309E0911309E03011F02B87D9
:10F48C0003C02F5F3F4FC5CF20E030E02030E2E0DB
:10F49C003E0750F5EB85E030B1F0F901E95EF64F2F
:10F4AC00BF010E946AFEEC91EE0F0E2E0E946AFEC6
:10F4BC000E9462FEF901E95EF64F0F01E081AB8517
:10F4CC00EA27D001EC930E946AFEEC91F0E0A09147
:10F4DC003D0BB0913E0BEA0FFB1FE0933D0BF093FD
:10F4EC003E0B2F5F3F4FD2CFE091370BF091380B93
:10F4FC006091390B70913A0BE050FE4F6F4F7F4F7C
:10F50C00E093370BF093380B6093390B70933A0BF5
:10F51C000E9459FEA130E8E0BE07E0E08E07E0E073
:10F52C009E0768F1BB24E2E0BE1640F5A8950E9448
:10F53C006FFE0E94B5FFAB2DB0E0E0E0F1E00E9461
:10F54C0064FFE95EF64FDF010E9494F8E03009F4A5
:10F55C00FFCF0E946FFEE050FF4F6F4F7F4F0E9416
:10F56C0078FEF60131976F010C2C0D2829F4E091EF
:10F57C00410BF091420B0995B394D5CF48C00E9432
:10F58C0059FEA03DE7E0BE07E0E08E07E0E09E07F5
:10F59C00F0F1E091E70AF0E00E9431FF0E942CFFAD
:10F5AC000E9478FEE091E80AF0E00E9431FFDF0152
:10F5BC00CB01E8E00E940AFF0E9481FEE091E90A7B
:10F5CC00F0E00E9431FF0E9481FEF091EA0AE0E037
:10F5DC006F01E091EB0AF0E0CE2ADF2AF091EC0A01
:10F5EC00E0E0E0933B0BF0933C0BE091ED0AF0E094
:10F5FC00A0913B0BB0913C0BEA2BFB2BE0933B0B0C
:10F60C00F0933C0BE0E0E0933D0BE0933E0BA091BC
:10F61C002F0BB091300B8091310B9091320B0E94DB
:10F62C0003FE68F0E091330BF091340B6091350BD5
:10F63C007091360B0E9459FE0E94C3FF28F40E9461
:10F64C008CFE0F5F1F4FCFCEE0912F0BF091300B44
:10F65C006091310B7091320B0E9497FE91CEFFCFCF
:10F66C00FFCFBA93AA93AA81BB81EC91E03069F0E9
:10F67C000D90AA83BB83A881B981ED91A883B9832E
:10F68C00E01511F0E0E07EC1EECFE1E07BC1AA9382
:10F69C002497E0E0E883E983EA83EB83AC81A13033
:10F6AC00E0F00E94F7FDE8E00E940AFF0E94B0FF24
:10F6BC00EC81F0E03197AD81BE81AE0FBF1FEC91B4
:10F6CC000E94F7FDFF27662777270E9401FF0E9403
:10F6DC00B0FFEC81E150EC83E1CF0E94A6FF2796AE
:10F6EC000895A8D1E0931209E03011F0E1E00895FB
:10F6FC0062D20E94A0FEDCD1E0931209E03011F03E
:10F70C00E2E00895EDEDFAE00E942BFEE0931B0B76
:10F71C00F0931C0B60931D0B70931E0B0E9450FEFC
:10F72C00E03011F0E3E0089580902409EBE3F9E078
:10F73C000E942BFEE0931F0BF093200B6093210B88
:10F74C007093220BE5E2F9E00E94A7FEE0933F0BD9
:10F75C00F093400BA0911B0BB0911C0B80911D0BD7
:10F76C0090911E0B662777270E94FCFEE093230BDB
:10F77C00F093240B6093250B7093260BE0911F0BD9
:10F78C00F091200B6091210B7091220B0E9422FFB3
:10F79C0045D2E093270BF093280B6093290B7093C1
:10F7AC002A0BE2E0F0E060E070E00E9497FE52D29B
:10F7BC00E0E00895BA93AA930E94CAFF4BD200E0EE
:10F7CC0010E0E82DD801F0E0AE17BF0708F04CC0F0
:10F7DC0061D2E03021F0E6E00E94D1FF67C120E069
:10F7EC0030E02031E0E03E0788F4EC81FD81FA93B3
:10F7FC00EA930E94ACFEE95EF64FDF0132DFE09344
:10F80C001309E03019F42F5F3F4FEBCFE091130950
:10F81C00E03031F10E94ACFEE55DF64F0E94A7FE90
:10F82C0080D2F3D10E942CFF7CD20E94ACFEEF5C04
:10F83C00F64F0E94A7FED8D10E9401FF72D20E94FF
:10F84C00ACFEED5CF64FFA93EA93A8E020DFE09370
:10F85C00330BF093340B6093350B7093360B04C061
:10F86C0055D20F5F1F4FADCFE0911309E03021F45B
:10F87C00E6E00E94D1FF1AC169D2E35EF64FA08187
:10F88C00A03321F4E7E00E94D1FF10C15FD2E35E08
:10F89C00F64FA081A13310F4AA3340F457D2E35EA3
:10F8AC00F64FDF01EC91E150EC9305C04FD2E35ED3
:10F8BC00F64FA9E3A083E0911B0BF0911C0B609118
:10F8CC001D0B70911E0B0E94B5FF34D22ED1E0930C
:10F8DC001209E0E00E94D1FFE9C0E7E0E7BBC09A63
:10F8EC00BB98C398E0E5EDB90895AA93E881EFB908
:10F8FC00779BFECFEFB1219608951A93EEDFC09A55
:10F90C00A1E0B0E00E94F2FE10E01A3020F4AFEF5C
:10F91C00ECDF1F5FFACF20D28BC0AA931A930A9305
:10F92C00EF81E0641CD2E8E10E9416FFAE2FDDDF10
:10F93C00EB81FC816D817E810E9427FF10D2E8E073
:10F94C000E9416FFAE2FD1DFAB81CFDFEA81E160E1
:10F95C00AE2FCBDF05D01E2F198108812896089574
:10F96C000E94CAFF20E030E0AFEFBFDF1E2FE0782F
:10F97C0031F02F5F3F4F2030E2E03E07A8F3E12F3C
:10F98C000E94D1FF24960895F1D1E0E0EA9313D1BF
:10F99C00A4E94AC0BA93AA93A881B981AC91A230C8
:10F9AC0078F5AFEFA2DFA881B9811196EC93AFEF98
:10F9BC009CDFA881B9811296EC93AFEF96DFA881FA
:10F9CC00B9811396EC93AFEF90DFA881B9811496AF
:10F9DC00EC9316C0D0D1E8E0EA93EAEAF1E060E0FB
:10F9EC0070E00E94B5FFA6E805C0C5D1EAE3EA9332
:10F9FC00E2D0A0E092DFA881B981EC93CBDFC1D13A
:10FA0C0022960895B3D1E7E3EA93E0E0F0E060E0FA
:10FA1C0070E007C0ABD1E9E2EA93E0E0F0E060E02F
:10FA2C0070E40E94B5FFA0E078DF1E2FAAD1E12F71
:10FA3C001991089525971A9310E05FDFA5DFE983EC
:10FA4C00E13031F01F5F153610F0E1E02EC0F6CF3B
:10FA5C00DE011196BFDFA981A13011F0E1E025C0D4
:10FA6C00AD81AA3A11F0E1E020C010E0153610F09B
:10FA7C00E1E01BC0C7DFE983A981A23010F4CADF23
:10FA8C00E983E981E03021F0AAE0B0E00E94F2FEC7
:10FA9C001F5FE981E03051F7DE011196A6DFEA81A4
:10FAAC00E07811F4E1E001C0E0E0188126960895B9
:10FABC00BA93AA930E94C8FFA89566D1E1E17AD1C6
:10FACC001F3F69F140E050E0FA013196AF01EB3194
:10FADC00A6E0FA0729F0AFEF08DF0E2FEF3FA1F3F6
:10FAEC000E3FD1F420E030E02030E2E03E0780F41D
:10FAFC00E885F9853196E887F9873197FF93EF937D
:10FB0C00AFEFF3DEAF91BF91EC932F5F3F4FECCF94
:10FB1C00AFEFEBDEAFEFE9DEAE81BF810C9331D1FD
:10FB2C000E3F09F443C0E1E042C0BA93AA930E948D
:10FB3C00C8FFA89529D1AFEFD8DEE8E13BD1103052
:10FB4C00A1F5AEEFD2DE20E030E02030E2E03E075F
:10FB5C0038F4F9013CD0AC91C8DE2F5F3F4FF5CFA4
:10FB6C0040E050E032D159F0AFEFBFDE0E2FEF3F47
:10FB7C0029F0AE81BF81EFEFEC9301C0F3CFE02F02
:10FB8C00EF71E53091F4AE81BF81E5E0EC9340E09C
:10FB9C0050E0AFEFAADEE03041F417D129F4AE818A
:10FBAC00BF81E0E0EC9301C0F4CFEBD0E12F0E94D9
:10FBBC00CFFF2E960895E0E0F0E060E070E00E9448
:10FBCC00B5FF0895A0E0BFEE81E090E00895A88510
:10FBDC00B985AE0FBF1F08950E94BAFF0E94ABFFFC
:10FBEC0008950E94ABFF0895A0912B0BB0912C0BA4
:10FBFC0080912D0B90912E0B0895A83FEFEFBE072F
:10FC0C00EFEF8E07EFE09E070895E0912B0BF0913C
:10FC1C002C0B60912D0B70912E0B0895A091230B42
:10FC2C00B091240B8091250B9091260B0E94FCFE29
:10FC3C0008950E94B5FFE7E1F9E0FA93EA93A9E091
:10FC4C00B0E036DFE09312090895FA93EA93A4E04A
:10FC5C000C944DFBDADFE250F04060407040DF0165
:10FC6C00CB01E82DF0E00E9431FF0E943EFFA091F5
:10FC7C00270BB091280B8091290B90912A0B0E9495
:10FC8C00FCFEE0931B0BF0931C0B60931D0B70930D
:10FC9C001E0B0895E0911B0BF0911C0B60911D0B3A
:10FCAC0070911E0BC6CFA091370BB091380B809181
:10FCBC00390B90913A0B0895EC91EE1FE0E0EE1F9A
:10FCCC00E029DB01EC930895A7E1B9E0A20FB31F83
:10FCDC000895E091170BF091180B6091190B70912E
:10FCEC001A0B0895E093170BF093180B6093190BF4
:10FCFC0070931A0B0895A091170BB091180B80916B
:10FD0C00190B90911A0B0E9401FFECCFABE1BBE0F9
:10FD1C000E949CFFEF5FFF4F6F4F7F4F0E94A1FF30
:10FD2C000895E0932B0BF0932C0B60932D0B709399
:10FD3C002E0B0895E7E1F9E0FA93EA93A9E0B0E01D
:10FD4C000895FA93EA93A2E00C944DFBA0E2A29FD3
:10FD5C00F001A39FF00D0895C09AAFEFC6CDAE2F62
:10FD6C00C4DDAB81BC818D819E8108951A93AFEF68
:10FD7C00BCDDC0980895BA93AA93AFEFB6DDC098D6
:10FD8C000895AFEFB2DDE8CFEA85FB856C857D8504
:10FD9C00A0E0B2E080E090E00E943EFFEA87FB87A3
:10FDAC006C877D87AE81BF81EFEFEC93AFEF9DDD6C
:10FDBC00C0980895EA93EB85FC856D857E850E943D
:10FDCC00B5FFA0E0AADD1E2F0895FA013196AF0110
:10FDDC00E334AFE0FA070895109639F0A89584EC57
:10FDEC0099E00197F1F71197C9F70895EA0FFB1FF6
:10FDFC00681F791F0895EA2BFB2B682B792B08952C
:10FE0C00F195E195F0400895EE230E2EFD01BC0115
:10FE1C0031F0EE0FFF1F661F771F0A94D1F708957C
:10FE2C00EE230E2EFD01BC0131F076956795F7950A
:10FE3C00E7950A94D1F70895EE0FFF1F661F771F01
:10FE4C000895E62FF72F60E070E008956E2F7F2F56
:10FE5C00E0E0F0E008956F2F660F660B762F0895A3
:10FE6C00FA9FF02DEB9FF00DEA9FE02DF10D089518
:10FE7C007A9F702D6B9F700DF89F700DE99F700D20
:10FE8C006A9F602D710DFB9F600D711DE89F600DC9
:10FE9C00711D8827FA9FF02D610D781FEB9FF00DD7
:10FEAC00611D781FEA9FE02DF10D681F781F0895E2
:10FEBC006E2F6A9FF0016B9FF00D089529D0D0DF53
:10FECC000EF49EDF08953F934F935F93002411240B
:10FEDC004427552730E2AA0FBB1F881F991F001C0F
:10FEEC00111C441F551F0E1A1F0A460B570B28F4E2
:10FEFC000E0E1F1E461F571F01C0A1603A9559F7E1
:10FF0C00FD01BC01D001CA015F914F913F91089551
:10FF1C00E894F7FF02C074DF6894B7FF06C0A095A1
:10FF2C00B095119600F8039400FA0895ED91FD91A7
:10FF3C006D917D9108957E936E93FE93EE9308954B
:10FF4C00E881F9816A817B810895A881B9818A81D0
:10FF5C009B810895E883F9836A837B8308957A9360
:10FF6C006A93FA93EA9308959A938A93BA93AA930D
:10FF7C0008951097804090400895AE17BF078607EC
:10FF8C00970708955A934A933A932A931A930A938C
:10FF9C0008955D814C813B812A81198108810895E6
:00000001FF
