:020000021000EC
:06E000000C940DF10C94DC
:10E0060000F00C9400F00C9400F00C9400F00C94CA
:10E0160000F00C9400F00C9400F00C9400F00C94BA
:10E0260000F00C9400F00C9400F00C9400F00C94AA
:10E0360000F00C9400F00C9400F00C9400F00C949A
:10E0460000F00C9400F00C9400F00C9400F00C948A
:10E0560000F00C9400F00C9400F00C9400F00C947A
:10E0660000F00C9400F00C9400F00C9400F00C946A
:10E0760000F00C9400F00C9400F00C9400F00C945A
:10E0860000F00C9400F0E0F9B4F9424F4F542053DD
:10E0960044524541442056313500534420494E49A7
:10E0A60054204641494C00464C4153482049532090
:10E0B600454D505459004A554D5020544F2046570F
:10E0C60000312E46494E442054525900302E4649BE
:10E0D6004E442055504441544500382E46494E443E
:10E0E600204241434B555000392E46494E44204666
:10E0F6004143544F5259004E4F20555044415445C8
:10E10600005550444154494E4720465700504C450F
:10E116004153452057414954005B73657474696ED9
:10E1260067735D0055504441544520465720444F7F
:10E136004E450053442046494C45204552524F52C5
:10E1460000494E4954205344204641494C20200062
:10E15600494E495420534443415244204F4B2000DA
:10E1660052454144204D4252204641494C200052DE
:10E17600454144204D42522020204F4B200052451D
:10E18600414420464154204641494C2000524541D5
:10E1960044204641542020204F4B2000464F554EE8
:10E1A60044204F4B20202020200053442046415439
:10E1B600414C204552524F52210020380020390050
:10E1C6002030000080C001002D4E414E00494E46D1
:10E1D6000000040004008CE0010004000009CEE009
:10E1E600010007000409D9E0010007000B09E7E078
:10E1F600010008001209F5E001000B001A091FE1F1
:10E2060001000200560BCAE1010001005C0BCCE1E3
:10E2160001000000F894EE27ECBBF1E0F5BFF2E058
:10E22600F5BFE0936C008DE0A2E0BB27ED938A95E5
:10E23600E9F780E090E1A0E0B1E0ED930197E9F71E
:10E24600E8EDF1EED1E0DBBF87919791009781F081
:10E25600A791B79107901790C791D791BF01DBB7E8
:10E26600F001CBBF07900D920197E1F7FB01EBCFD1
:10E27600EFEFEDBFE0E1EEBFC0E0D9E00C9466F24F
:10E286000E94EFFA0E94B8F86BBFE69180C0BA937D
:10E29600AA930E94FFFAAE81BF818885998556D0E0
:10E2A600E03009F44EC0ECB3E8703E2FE398E199F4
:10E2B600FECF2FB7F894A895E1EFFFEFE017F1072F
:10E2C60091F40E94BBF8A0E0B0E00E942CF20E94FC
:10E2D600C2F80E943CF20E94C2F80E944AF20E94D2
:10E2E600C2F80E9458F2E0916800E170E1F700E0A0
:10E2F60010E00030E1E01E07C8F4F8016627772732
:10E306000E94EAFAF8010E94C7F80C901124F8015D
:10E3160031960E94C7F8EC91FE2FE0E0D001AE0FD7
:10E32600BF1F0E942CF20E5F1F4FE3CFAE81BF814D
:10E336008885998525D0ECB3E32BECBB2FBFE1E0B4
:10E3460001C0E0E00E9406FB2A9608950E94EFFABB
:10E356000E94CCF80E94F4FA70F00E94CCF8A0302B
:10E36600E0EFBE07E1E08E07E0E09E0720F40E94A2
:10E37600B8F8E03009F002C0E1E009C0E0E007C00B
:10E386000E94EFFAA8950E94CCF80E9458F22496B3
:10E39600089563E060936800E895E0916800E17095
:10E3A600E1F765E060936800E895E0916800E17048
:10E3B600E1F7E0916800E07449F061E1609368007C
:10E3C600E895E0916800E170E1F7F3CF089565E024
:10E3D60060936800E895E0916800E170E1F7E091EC
:10E3E6006800E07449F061E160936800E895E091A7
:10E3F6006800E170E1F7F3CF089563E06093680089
:10E40600E895E0916800E170E1F7E0916800E0745A
:10E4160049F061E160936800E895E0916800E17079
:10E42600E1F7F3CF089561E060936800E895E09125
:10E436006800E170E1F7E0916800E07449F061E19D
:10E4460060936800E895E0916800E170E1F7F3CF2A
:10E456000895BA93AA93E0916800E170E1F7EA8122
:10E46600FB816C816BBF088019800E9416F226968C
:10E4760008950E94EFFAE0916800E170E1F7E88103
:10E48600F9816A816BBF0E94EAF10C94EDF60E9455
:10E49600EFFAE0916800E170E1F7E881F9816A81BD
:10E4A6006BBF0E9400F20C94EDF60E94EFFAE09129
:10E4B6006800E170E1F7E881F9816A816BBF0E942B
:10E4C600CCF10C94EDF62C97A09AA898A8EEB3E0A0
:10E4D6000E9427FAA0E10E9489F80E94CFF8A89A24
:10E4E6000E94D6F8A0E9B0EE81E090E00E94DAF84A
:10E4F6000E94E1F887D2E0932509E030C9F00E9436
:10E50600CFF8A0EAB0EE81E090E00E94DAF80E942F
:10E51600E5F819F40E94EDF802C00E94F2F80E9494
:10E526006DF80E94F7F811F4A895FECF0E94FCF84A
:10E536000E94CFF8A7ECB0EE81E090E00E9402F9CD
:10E54600E0E0F9E0FA93EA93A0E0FAD2E093250935
:10E55600E03071F40E94CFF8A2EDB0EE81E090E0D9
:10E566000E9402F9E4E0F9E0FA93EA93A1E023C0FD
:10E57600A0912509A83071F40E94CFF8A0EEB0EE64
:10E5860081E090E00E9402F9EBE0F9E0FA93EA9369
:10E59600A2E011C0A0912509A93081F40E94CFF80C
:10E5A600AEEEB0EE81E090E00E9402F9E2E1F9E021
:10E5B600FA93EA93A3E0C4D2E0932509E0912509F2
:10E5C600E030C9F00E94CFF8ADEFB0EE81E090E008
:10E5D6000E94DAF80E94E5F819F40E94EDF802C0EC
:10E5E6000E94F2F80E946DF80E94F7F811F4A895BF
:10E5F600FECF0E94FCF80E94CFF8A7E0B1EE81E0C2
:10E6060090E00E94DAF8A3E1B1EE81E090E00E948A
:10E6160002F9E0E0E0934A0BE0934B0BE0934C0BDE
:10E62600E0934D0B0E9405F90E940EF908F08DC18A
:10E636000E9416F90E9457FA0E9457FADF01CB0191
:10E64600E0E0F2E060E070E00E949EFA0E941FF9AE
:10E656000E942AF919F0A7E090D1FFCFA0913E0BB6
:10E66600B0913F0BE4E00E9493FAF170E65DF64F3D
:10E676000E9438F9E093420BF093430B6093440BEE
:10E686007093450B0E943DF900E010E0E82DD8019B
:10E69600F0E0AE17BF0708F04DC10E945DF911F01A
:10E6A600A8E06BD10E9466F9A030E2E0BE07E0E088
:10E6B6008E07E0E09E0708F044C020E030E02030FE
:10E6C600E1E03E07C0F5A89500240216030608F50A
:10E6D60040E050E04A30E0E05E07D8F4FA01DE019F
:10E6E600EA0FFB1FBF01AAE2B9E0A40FB51FEC9128
:10E6F600EE0F0E2EAAE2B9E0A40FB51F0E946FF925
:10E70600DE01A40FB51FEC91E227EC934F5F5F4F3C
:10E71600E1CFEAE1F9E0FA93EA93DE01129617D126
:10E72600E0932609E0912609E03011F02B8703C01B
:10E736002F5F3F4FC4CFE0912609E03011F4A9E0E6
:10E746001CD120E030E02030E2E03E0758F5A895E5
:10E75600EB85E030B1F0F901E65DF64FBF010E94AE
:10E7660077F9EC91EE0F0E2E0E9477F90E946FF961
:10E77600F901E65DF64F0F01E081AB85EA27D0018E
:10E78600EC930E9477F9EC91F0E0A091500BB091D8
:10E79600510BEA0FFB1FE093500BF093510B2F5FC9
:10E7A6003F4FD1CFE0914A0BF0914B0B60914C0B50
:10E7B60070914D0BE050FE4F6F4F7F4FE0934A0B29
:10E7C600F0934B0B60934C0B70934D0B0E9466F9C4
:10E7D600A130E8E0BE07E0E08E07E0E09E0708F41F
:10E7E60042C0BB24E2E0BE16E8F50E947CF90E9416
:10E7F600EAFAAB2DB0E0E0E0F1E00E9499FAE65DBE
:10E80600F64FDF010E944AF1E03009F4FFCF0E9483
:10E816007CF9E050FF4F6F4F7F4F0E9485F9F6015C
:10E8260031976F010C2C0D28D9F40E9446F8AAE204
:10E83600B1EE81E090E00E9402F90E948EF90E94FA
:10E84600E5F819F40E94EDF802C00E94F2F80E9461
:10E856006DF80E94F7F811F4A895FECF0E94FCF817
:10E86600B394C0CF48C00E9466F9A03DE7E0BE075A
:10E87600E0E08E07E0E09E07F0F1E091FA0AF0E0B2
:10E886000E9466FA0E9461FA0E9485F9E091FB0AED
:10E89600F0E00E9466FADF01CB01E8E00E943FFA51
:10E8A6000E9493F9E091FC0AF0E00E9466FA0E9449
:10E8B60093F9F091FD0AE0E06F01E091FE0AF0E0C5
:10E8C600CE2ADF2AF091FF0AE0E0E0934E0BF093A8
:10E8D6004F0BE091000BF0E0A0914E0BB0914F0B67
:10E8E600EA2BFB2BE0934E0BF0934F0BE0E0E0930B
:10E8F600500BE093510BA091420BB091430B8091CA
:10E90600440B9091450B0E940EF978F0E091460B6E
:10E91600F091470B6091480B7091490B0E9466F984
:10E926000E94F8FA38F4AAE028D00E949EF90F5FF8
:10E936001F4FACCEE091420BF091430B6091440B1C
:10E946007091450B0E94A9F96DCEFFCFFFCFBA9308
:10E95600AA93AA81BB81EC91E03069F00D90AA835D
:10E96600BB83A881B981ED91A883B983E01511F025
:10E97600E0E030C2EECFE1E02DC2AA930E9446F855
:10E98600A9E3B1EE81E090E00E94DAF80E94E5F892
:10E9960019F40E94EDF802C00E94F2F80E946DF888
:10E9A6000E94F7F811F4A895FECF0E94FCF80C948B
:10E9B600B6F8AA932497E0E0E883E983EA83EB8339
:10E9C600AC81A130E0F00E94CCF8E8E00E943FFA6A
:10E9D6000E94E5FAEC81F0E03197AD81BE81AE0F81
:10E9E600BF1FEC910E94CCF8FF27662777270E946D
:10E9F60036FA0E94E5FAEC81E150EC83E1CF0E9401
:10EA0600B8F88CC149D2E0932509E03059F0A1E06D
:10EA16000E94B2F9A7E4B1EE81E090E00E9402F90B
:10EA2600E1E008950E948EF9A6E5B1EE81E090E05E
:10EA36000E9402F90E94BBF80E94B5F969D2E093E0
:10EA46002509E03059F0A2E00E94B2F9A6E6B1EE3F
:10EA560081E090E00E9402F9E2E008950E948EF9BA
:10EA6600A5E7B1EE81E090E00E9402F9E0EFFAE05E
:10EA76000E9438F9E0932E0BF0932F0B6093300B26
:10EA86007093310B0E945DF959F0A3E00E94B2F930
:10EA9600A4E8B1EE81E090E00E9402F9E3E0089577
:10EAA6000E948EF9A3E9B1EE81E090E00E9402F99E
:10EAB60080903709EEE4F9E00E9438F9E093320BD2
:10EAC600F093330B6093340B7093350BE8E3F9E066
:10EAD6000E94BCF9E093520BF093530BA0912E0BBE
:10EAE600B0912F0B8091300B9091310B66277727D1
:10EAF6000E9431FAE093360BF093370B6093380B94
:10EB06007093390BE091320BF091330B6091340B1B
:10EB16007091350B0E9457FA0E941FF9E0933A0B49
:10EB2600F0933B0B60933C0B70933D0BE2E0F0E0FF
:10EB360060E070E00E94A9F90E943DF9E0E00895C6
:10EB4600AA930E94FFFA5EDFE09325090E943DF931
:10EB560000E010E0E82DD801F0E0AE17BF0708F09E
:10EB660052C00E945DF921F0A6E007DFE6E0D4C0BE
:10EB760020E030E02031E0E03E0788F4ED81FE81C0
:10EB8600FA93EA930E94C1F9E65DF64FDF01DFDEF4
:10EB9600E0932609E03019F42F5F3F4FEBCFE09169
:10EBA6002609E03059F10E94C1F9E25CF64F0E9455
:10EBB600BCF90E94A9F90E9416F90E9461FA0E9406
:10EBC600A9F90E94C1F9EC5BF64F0E94BCF90E94BC
:10EBD60005F90E9436FA0E94A9F90E94C1F9EA5B7A
:10EBE600F64FFA93EA93A8E0E4DEE093460BF0933F
:10EBF600470B6093480B7093490B05C00E949EF922
:10EC06000F5F1F4FA7CFE0912609E03021F4A6E061
:10EC1600B4DEE6E081C00E948EF9A2EAB1EE81E0A0
:10EC260090E00E946DF8EC81E03031F40E94C1F969
:10EC3600E35DF64FA08101C0A0E20E9453F80E9456
:10EC4600E1F8EC81E03009F05CC00E94C1F9E35DB7
:10EC5600F64FA081A03359F40E9446F8A0EBB1EE1E
:10EC660081E090E00E946DF80E94D6F8FDCF0E94E8
:10EC7600C1F9E35DF64FA081A63348F40E94C1F9BD
:10EC8600E35DF64FDF01EC91E150EC9306C00E9484
:10EC9600C1F9E35DF64FA5E3A083E0912E0BF09159
:10ECA6002F0B6091300B7091310B0E94EAFA0E9493
:10ECB600B5F96ED1E09325090E94C1F9E35DF64FDF
:10ECC600A081A23320F50E94C1F9E35DF64FA08131
:10ECD600A13341F4A0ECB1EE81E090E00E9402F98C
:10ECE600E8E01AC00E94C1F9E35DF64FA081A033A7
:10ECF60041F4A3ECB1EE81E090E00E9402F9E9E074
:10ED06000BC0A6ECB1EE81E090E00E946DF8A4E69F
:10ED1600B0E00E9427FAE0E00E9406FB27960895DD
:10ED2600E7E0E7BBC09ABB98C398E0E5EDB9089564
:10ED3600AA93E881EFB9779902C0A895FCCFEFB105
:10ED46000C94B6F81A93ECDFC09AA1E0B0E00E94EA
:10ED560027FA10E01A3020F4AFEFEADF1F5FFACF90
:10ED66000E94C7F997C0AA931A930A93EF81E064A9
:10ED76000E94CBF9E8E10E944BFAAE2FD9DFEB8176
:10ED8600FC816D817E810E945CFA0E94CBF9E8E0ED
:10ED96000E944BFAAE2FCCDFAB81CADFEA81E1607D
:10EDA600AE2FC6DF05D01E2F19810881289608953B
:10EDB6000E94FFFA20E030E0AFEFBADF1E2FE078C6
:10EDC60031F02F5F3F4F2030E2E03E07A8F3E12FFE
:10EDD6000E9406FB249608950E94D3F9E0E0EA9388
:10EDE6000E94BBF8A4E951C0BA93AA93A881B9813D
:10EDF600AC91A23010F00C9444F8AFEF99DFA881E3
:10EE0600B9811196EC93AFEF93DFA881B981129681
:10EE1600EC93AFEF8DDFA881B9811396EC93AFEF3A
:10EE260087DFA881B9811496EC930C9444F80E946C
:10EE3600D9F9E8E0EA93EAEAF1E060E070E00E94DE
:10EE4600EAFAA6E80E94E0F90C9444F80E94D9F97F
:10EE5600EAE3EA930E94BBF8A0E00E94E0F90C9472
:10EE660044F80E94D3F9E7E3EA93E0E0F0E060E0DB
:10EE760070E008C00E94D3F9E9E2EA93E0E0F0E02E
:10EE860060E070E40E94EAFAA0E06DDF1E2F0E94A7
:10EE9600EBF9E12F1991089525971A9310E052DFA7
:10EEA6009BDFE983E13031F01F5F153610F0E1E0BA
:10EEB6002CC0F6CFDE011196BADFA981A13011F080
:10EEC600E1E023C0AD81AA3A11F0E1E01EC010E0F6
:10EED600153610F0E1E019C0C4DFE983A981A2303C
:10EEE60010F4C8DFE983E981E03011F00E94D6F81A
:10EEF6001F5FE981E03061F7DE011196A7DFEA8145
:10EF0600E07811F4E1E001C0E0E01881269608956A
:10EF1600BA93AA930E94FDFAA8950E94EFF9E1E13F
:10EF26000E9406FA1F3F69F140E050E0FA0131966F
:10EF3600AF01EB31A6E0FA0729F0AFEFF9DE0E2FAD
:10EF4600EF3FA1F30E3FD1F420E030E02030E2E0C5
:10EF56003E0780F4E885F9853196E887F987319789
:10EF6600FF93EF93AFEFE4DEAF91BF91EC932F5F8A
:10EF76003F4FECCFAFEFDCDEAFEFDADEAE81BF8125
:10EF86000C930E94EBF90E3F09F449C0E1E048C03A
:10EF9600BA93AA930E94FDFAA8950E94EFF9AFEFE3
:10EFA600C7DEE8E10E9406FA1030B9F5AEEFC0DE22
:10EFB60020E030E02030E2E03E0740F4F9010E9414
:10EFC600C7F8AC91B5DE2F5F3F4FF4CF40E050E07D
:10EFD6000E9412FA59F0AFEFABDE0E2FEF3F29F089
:10EFE600AE81BF81EFEFEC9301C0F2CFE02FEF715E
:10EFF600E53099F4AE81BF81E5E0EC9340E050E066
:10F00600AFEF96DEE03049F40E9412FA29F4AE81A1
:10F01600BF81E0E0EC9301C0F3CF0E94EBF9E12F52
:10F026000E9404FB2E960895AA93E5B3EF70AE2FC7
:10F03600E881E07FEA2BE5BB81E18A95F1F7A99AA1
:10F0460081E18A95F1F7A99881E18A95F1F78BC05C
:10F05600AA93A881E9DFE881E295E883A881E4DF45
:10F0660087EA8A95F1F77FC0AA93E881F0E0EA5A29
:10F07600F44FE081A981AE0FEBDFA980E881E09330
:10F086005A0B22960895A2E00E9419FAACE0E0DF3E
:10F09600A1E00E9419FAE0E0E0935A0BAE2E089523
:10F0A600AA93A881AA3021F0E0915B0BAE1660F01E
:10F0B600E0E0EA93A0915A0BAF5FA0935A0BD4DF1E
:10F0C600A881AA3009F44FC0A394AA9AA881C0DFE8
:10F0D600AA9849C00E94EFFA1A93DE0111960E947F
:10F0E600D1FAEF5FFF4F6F4F7F4F0E94D6FAE15084
:10F0F600F040604070406BBFE6911E2FE03019F083
:10F10600A12FCEDFEACF188125960895AA93E4B3FE
:10F11600E06FE4BBA19AA29AA39AA998AA98AB9881
:10F12600E881E0935B0BE058E093580BE881E054EC
:10F13600E093590BA4E1B0E00E9427FA0E941FFA5F
:10F146000E941FFA0E941FFAA0E26EDF8AEF90E08B
:10F156000197F1F7A8E27CDFA4E07ADFA5E878DF83
:10F16600A6E076DF90DF219608950E94DBFA0895E7
:10F17600E0E0F0E060E070E00E94EAFA0895A0E0C6
:10F18600BFEE81E090E00895A885B985AE0FBF1F58
:10F1960008950E94E0FA0895E0E0EA93A0E00E9454
:10F1A60037F80C9446F8AAE0B0E00C9427FA0E94CF
:10F1B6006DF8E0E0EA93A1E00C9437F8A4E6B0E03D
:10F1C6000C9427FAA0E0B0E080E090E00E9443F1C2
:10F1D600EF3F0895ADEAB0EE81E090E00895ACEB24
:10F1E600B0EE81E090E00895A8ECB0E00E9427FA26
:10F1F600E9CFE091540BF091550B099508950E94C3
:10F206006DF8DCCFA0913E0BB0913F0B8091400B87
:10F216009091410B0895A83FEFEFBE07EFEF8E07E1
:10F22600EFE09E070895E0913E0BF0913F0B609151
:10F23600400B7091410B0895A091360BB091370B9E
:10F246008091380B9091390B0E9431FA08950E94F3
:10F25600EAFAEAE2F9E0FA93EA93A9E0B0E00E945A
:10F266008BF7E0932509E0300895FA93EA93A4E03A
:10F276000C94DCF4D8DFE250F04060407040DF01CF
:10F28600CB01E82DF0E00E9466FA0E9473FAA09185
:10F296003A0BB0913B0B80913C0B90913D0B0E9439
:10F2A60031FAE0932E0BF0932F0B6093300B709393
:10F2B600310B0895E0912E0BF0912F0B6091300BDE
:10F2C6007091310BC4CFA0914A0BB0914B0B80913A
:10F2D6004C0B90914D0B0895EC91EE1FE0E0EE1F64
:10F2E600E029DB01EC930895AAE2B9E0A20FB31F6F
:10F2F6000895E0912A0BF0912B0B60912C0B7091E5
:10F306002D0B0895E0932A0BF0932B0B60932C0B97
:10F3160070932D0B0895E0E0EA93A1E00C9437F882
:10F32600A0912A0BB0912B0B80912C0B90912D0B59
:10F336000E9436FAE7CFAEE2BBE00E94D1FAEF5F59
:10F34600FF4F6F4F7F4F0E94D6FA0895E0933E0B12
:10F35600F0933F0B6093400B7093410B08950E940E
:10F36600C0F4D9CFEAE2F9E0FA93EA93A9E0B0E073
:10F376000895FA93EA93A2E00C94DCF4A0E2A29F2B
:10F38600F001A39FF00D0895C09AAFEF0C949BF681
:10F39600AE2F0E949BF6AB81BC818D819E81089524
:10F3A6001A93AFEF0E949BF6C0980895BA93AA935A
:10F3B600AFEF0E949BF6C09808950E94B6F6A8810A
:10F3C600B981EC930E94F7F6AFEF0E949BF6DCCF73
:10F3D600AFEF0E949BF6D8CFEA85FB856C857D85CD
:10F3E600A0E0B2E080E090E00E9473FAEA87FB8733
:10F3F6006C877D87AE81BF81EFEFEC93AFEF0E9404
:10F406009BF6C0980895EA93EB85FC856D857E850D
:10F416000E94EAFAA0E00E94B6F61E2F0895FA01AD
:10F426003196AF01E334AFE0FA0708950E942BF856
:10F43600A3E0B0E00C9427FAA0E30E9417F88AEF45
:10F4460090E00197F1F70895109639F084EC99E071
:10F456000197F1F7A8951197C9F70895EA0FFB1FD1
:10F46600681F791F0895EA2BFB2B682B792B0895CB
:10F47600F195E195F0400895EE230E2EFD01BC01B5
:10F4860031F0EE0FFF1F661F771F0A94D1F708951C
:10F49600EE230E2EFD01BC0131F076956795F795AA
:10F4A600E7950A94D1F70895EE0FFF1F661F771FA1
:10F4B6000895E62FF72F60E070E008956E2F7F2FF6
:10F4C600E0E0F0E008956F2F660F660B762F089543
:10F4D600FA9FF02DEB9FF00DEA9FE02DF10D0895B8
:10F4E6007A9F702D6B9F700DF89F700DE99F700DC0
:10F4F6006A9F602D710DFB9F600D711DE89F600D69
:10F50600711D8827FA9FF02D610D781FEB9FF00D76
:10F51600611D781FEA9FE02DF10D681F781F089581
:10F526006E2F6A9FF0016B9FF00D089529D0D0DFF2
:10F536000EF49EDF08953F934F935F9300241124AA
:10F546004427552730E2AA0FBB1F881F991F001CAE
:10F55600111C441F551F0E1A1F0A460B570B28F481
:10F566000E0E1F1E461F571F01C0A1603A9559F780
:10F57600FD01BC01D001CA015F914F913F910895F1
:10F58600E894F7FF02C074DF6894B7FF06C0A09541
:10F59600B095119600F8039400FA0895ED91FD9147
:10F5A6006D917D9108957E936E93FE93EE930895EB
:10F5B600E881F9816A817B810895A881B9818A8170
:10F5C6009B810895E883F9836A837B8308957A9300
:10F5D6006A93FA93EA9308959A938A93BA93AA93AD
:10F5E60008951097804090400895AE17BF0786078C
:10F5F600970708955A934A933A932A931A930A932C
:10F6060008955D814C813B812A8119810881089585
:00000001FF
