:020000021000EC
:04E000000C94F3F099
:10E004000C9400F00C9400F00C9400F00C9400F0CC
:10E014000C9400F00C9400F00C9400F00C9400F0BC
:10E024000C9400F00C9400F00C9400F00C9400F0AC
:10E034000C9400F00C9400F00C9400F00C9400F09C
:10E044000C9400F00C9400F00C9400F00C9400F08C
:10E054000C9400F00C9400F00C9400F00C9400F07C
:10E064000C9400F00C9400F00C9400F00C9400F06C
:10E074000C9400F00C9400F00C9400F00C9400F05C
:10E084000C9400F00C9400F0E0F9B4F9424F4F54B2
:10E0940020534452454144205631330053442049CF
:10E0A4004E4954204641494C004A554D5020544F46
:10E0B40020465700312E46494E4420555044415481
:10E0C4004500382E46494E44204241434B555000AA
:10E0D4004E4F2055504441544500555044415449F5
:10E0E4004E4720465700504C45415345205741491F
:10E0F40054005B73657474696E67735D00474F20E9
:10E10400544F2046570053442046494C452045521D
:10E11400524F5200494E4954205344204641494CE1
:10E12400202000494E495420534443415244204F37
:10E134004B200052454144204D4252204641494C17
:10E14400200052454144204D42522020204F4B2074
:10E15400005245414420464154204641494C200048
:10E1640052454144204641542020204F4B20004634
:10E174004F554E44204F4B20202020200020474F55
:10E18400204649524D4157415245200020455252A4
:10E194004F52202020202020202000203800203032
:10E1A400000080C001002D4E414E00494E46000043
:10E1B400040004008CE0010007000009BFE0010036
:10E1C40007000709CDE001000B000E09F6E001008D
:10E1D40002004A0BA6E101000100500BA8E1010076
:10E1E4000000F894EE27ECBBF1E0F5BFF2E0F5BFD8
:10E1F400E0936C008DE0A2E0BB27ED938A95E9F7EC
:10E2040080E090E1A0E0B1E0ED930197E9F7E4EB61
:10E21400F1EED1E0DBBF87919791009781F0A79150
:10E22400B79107901790C791D791BF01DBB7F00161
:10E23400CBBF07900D920197E1F7FB01EBCFEFEF16
:10E24400EDBFE0E1EEBFC0E0D9E00C9447F2BA9331
:10E25400AA930E947EFAAE81BF818885998556D0A3
:10E26400E03009F44EC0ECB3E8703E2FE398E19936
:10E27400FECF2FB7F894A895E1EFFFEFE017F10771
:10E2840091F40E9440F8A0E0B0E00E940DF20E94D8
:10E2940047F80E941DF20E9447F80E942BF20E9448
:10E2A40047F80E9439F2E0916800E170E1F700E07C
:10E2B40010E00030E1E01E07C8F4F8016627772774
:10E2C4000E9469FAF8010E944CF80C901124F8019C
:10E2D40031960E944CF8EC91FE2FE0E0D001AE0F95
:10E2E400BF1F0E940DF20E5F1F4FE3CFAE81BF81AF
:10E2F4008885998527D0ECB3E32BECBB2FBFE1E0F5
:10E3040001C0E0E00E9485FA2A9608950E946EFA00
:10E314000E9451F80E9473FA70F00E9451F8A030E4
:10E32400E0EFBE07E1E08E07E0E09E0720F40E94E4
:10E334005AFAE03009F003C0E1E00C9473F6E0E02F
:10E344000C9473F60E946EFAA8950E9451F80E94EC
:10E3540039F20C9473F663E060936800E895E091F9
:10E364006800E170E1F765E060936800E895E0918A
:10E374006800E170E1F7E0916800E07449F061E160
:10E3840060936800E895E0916800E170E1F7F3CFED
:10E39400089565E060936800E895E0916800E17095
:10E3A400E1F7E0916800E07449F061E1609368008E
:10E3B400E895E0916800E170E1F7F3CF089563E038
:10E3C40060936800E895E0916800E170E1F7E091FE
:10E3D4006800E07449F061E160936800E895E091B9
:10E3E4006800E170E1F7F3CF089561E0609368009D
:10E3F400E895E0916800E170E1F7E0916800E0746D
:10E4040049F061E160936800E895E0916800E1708B
:10E41400E1F7F3CF0895BA93AA93E0916800E1700D
:10E42400E1F7EA81FB816C816BBF088019800E944F
:10E43400F7F1269608950E946EFAE0916800E17063
:10E44400E1F7E881F9816A816BBF0E94CBF10C94FA
:10E4540073F60E946EFAE0916800E170E1F7E881DA
:10E46400F9816A816BBF0E94E1F10C9473F60E94FA
:10E474006EFAE0916800E170E1F7E881F9816A8160
:10E484006BBF0E94ADF10C9473F62C97A09AA898D8
:10E49400A8EEB3E00E94A6F9A0E10E9411F80E9440
:10E4A40054F8A89AAAE0B0E00E94A6F9A0E9B0EE58
:10E4B40081E090E00E945BF80E9462F832D2E0931F
:10E4C4001909E03061F00E9454F8A0EAB0EE81E04E
:10E4D40090E00E945BF80E9466F80E946CF80E942B
:10E4E40054F80E9476F80E9454F80E9476F8E0E00E
:10E4F400F9E0FA93EA93A0E0B2D2E0931909A0916B
:10E504001909A83081F40E9454F8A6ECB0EE81E019
:10E5140090E00E947DF8E7E0F9E0FA93EA93A1E045
:10E524009ED2E0931909E0911909E03089F00E9424
:10E5340054F8A4EDB0EE81E090E00E945BF80E94F4
:10E5440066F80E9462F8E091480BF091490B099536
:10E554000E9454F8AEEDB0EE81E090E00E945BF8CA
:10E56400AAEEB0EE81E090E00E947DF8E0E0E09356
:10E574003E0BE0933F0BE093400BE093410B0E9472
:10E5840080F80E9489F808F07EC10E9491F80E94E8
:10E59400D6F90E94D6F9DF01CB01E0E0F2E060E0B9
:10E5A40070E00E941DFA0E949AF80E94A5F819F0E2
:10E5B400A7E081D1FFCFA091320BB091330BE4E0FF
:10E5C4000E9412FAF170E25EF64F0E94B3F8E093F3
:10E5D400360BF093370B6093380B7093390B0E9412
:10E5E400B8F800E010E0E82DD801F0E0AE17BF075E
:10E5F40008F03EC10E94D8F811F0A8E05CD10E9456
:10E60400E1F8A030E2E0BE07E0E08E07E0E09E071C
:10E6140008F044C020E030E02030E1E03E07C0F5DF
:10E62400A89500240216030608F540E050E04A309D
:10E63400E0E05E07D8F4FA01DE01EA0FFB1FBF0138
:10E64400AEE1B9E0A40FB51FEC91EE0F0E2EAEE1D2
:10E65400B9E0A40FB51F0E94EAF8DE01A40FB51FAC
:10E66400EC91E227EC934F5F5F4FE1CFEEE0F9E0EE
:10E67400FA93EA93DE01129608D1E0931A09E09125
:10E684001A09E03011F02B8703C02F5F3F4FC4CF2E
:10E69400E0911A09E03011F4A9E00DD120E030E056
:10E6A4002030E2E03E0758F5A895EB85E030B1F064
:10E6B400F901E25EF64FBF010E94F2F8EC91EE0F11
:10E6C4000E2E0E94F2F80E94EAF8F901E25EF64F7B
:10E6D4000F01E081AB85EA27D001EC930E94F2F8A8
:10E6E400EC91F0E0A091440BB091450BEA0FFB1FB5
:10E6F400E093440BF093450B2F5F3F4FD1CFE09154
:10E704003E0BF0913F0B6091400B7091410BE05038
:10E71400FE4F6F4F7F4FE0933E0BF0933F0B6093A0
:10E72400400B7093410B0E94E1F8A130E8E0BE0772
:10E73400E0E08E07E0E09E07A0F1BB24E2E0BE1615
:10E7440078F50E94F7F80E9469FAAB2DB0E0E0E09A
:10E75400F1E00E9418FAE25EF64FDF010E9429F10F
:10E76400E03009F4FFCF0E94F7F8E050FF4F6F4FFD
:10E774007F4F0E9400F9F60131976F010C2C0D2890
:10E7840069F40E94CEF7A1E0B1EE81E090E00E942E
:10E794007DF8E091480BF091490B0995B394CECFE5
:10E7A40048C00E94E1F8A03DE7E0BE07E0E08E0724
:10E7B400E0E09E07F0F1E091EE0AF0E00E94E5F956
:10E7C4000E94E0F90E9400F9E091EF0AF0E00E9453
:10E7D400E5F9DF01CB01E8E00E94BEF90E9409F9E6
:10E7E400E091F00AF0E00E94E5F90E9409F9F09145
:10E7F400F10AE0E06F01E091F20AF0E0CE2ADF2AAC
:10E80400F091F30AE0E0E093420BF093430BE091C4
:10E81400F40AF0E0A091420BB091430BEA2BFB2BDE
:10E82400E093420BF093430BE0E0E093440BE0935E
:10E83400450BA091360BB091370B8091380B90911A
:10E84400390B0E9489F878F0E0913A0BF0913B0B78
:10E8540060913C0B70913D0B0E94E1F80E9477FAA5
:10E8640038F4AAE028D00E9414F90F5F1F4FBBCEE2
:10E87400E091360BF091370B6091380B7091390BA6
:10E884000E941FF97CCEFFCFFFCFBA93AA93AA812F
:10E89400BB81EC91E03069F00D90AA83BB83A88121
:10E8A400B981ED91A883B983E01511F0E0E019C2B4
:10E8B400EECFE1E016C2AA930E94CEF7AAE0B1EE31
:10E8C40081E090E00E94F5F70E946CF80C943EF809
:10E8D400AA932497E0E0E883E983EA83EB83AC819D
:10E8E400A130E0F00E9451F8E8E00E94BEF90E94D5
:10E8F40064FAEC81F0E03197AD81BE81AE0FBF1FA9
:10E90400EC910E9451F8FF27662777270E94B5F9FA
:10E914000E9464FAEC81E150EC83E1CF0E945AFA40
:10E9240084C141D2E0931909E03059F0A1E00E947A
:10E9340028F9A8E1B1EE81E090E00E947DF8E1E0E1
:10E9440008950E942FF9A7E2B1EE81E090E00E94C1
:10E954007DF80E9440F80E9434F963D2E0931909CB
:10E96400E03059F0A2E00E9428F9A7E3B1EE81E07B
:10E9740090E00E947DF8E2E008950E942FF9A6E459
:10E98400B1EE81E090E00E947DF8E4EEFAE00E94AE
:10E99400B3F8E093220BF093230B6093240B709352
:10E9A400250B0E94D8F859F0A3E00E9428F9A5E5A8
:10E9B400B1EE81E090E00E947DF8E3E008950E94CA
:10E9C4002FF9A4E6B1EE81E090E00E947DF88090FA
:10E9D4002B09E2E4F9E00E94B3F8E093260BF093EC
:10E9E400270B6093280B7093290BECE2F9E00E944B
:10E9F4003BF9E093460BF093470BA091220BB091A7
:10EA0400230B8091240B9091250B662777270E9476
:10EA1400B0F9E0932A0BF0932B0B60932C0B7093BB
:10EA24002D0BE091260BF091270B6091280B709130
:10EA3400290B0E94D6F90E949AF8E0932E0BF093CA
:10EA44002F0B6093300B7093310BE2E0F0E060E049
:10EA540070E00E941FF90E94B8F8E0E00895AA93BC
:10EA64000E947EFA5EDFE09319090E94B8F800E084
:10EA740010E0E82DD801F0E0AE17BF0708F052C04F
:10EA84000E94D8F821F0A6E016DFE6E0CCC020E032
:10EA940030E02031E0E03E0788F4ED81FE81FA9316
:10EAA400EA930E9440F9E25EF64FDF01EEDEE09366
:10EAB4001A09E03019F42F5F3F4FEBCFE0911A09A8
:10EAC400E03059F10E9440F9EE5CF64F0E943BF9A8
:10EAD4000E941FF90E9491F80E94E0F90E941FF918
:10EAE4000E9440F9E85CF64F0E943BF90E9480F8CE
:10EAF4000E94B5F90E941FF90E9440F9E65CF64FA6
:10EB0400FA93EA93A8E0E4DEE0933A0BF0933B0B2C
:10EB140060933C0B70933D0B05C00E9414F90F5F8A
:10EB24001F4FA7CFE0911A09E03021F4A6E0C3DE1D
:10EB3400E6E079C00E942FF9A3E7B1EE81E090E00E
:10EB44000E94F5F7EC81E03031F40E9440F9EC5D6D
:10EB5400F64FA08101C0A0E20E94DBF70E9462F898
:10EB6400EC81E03009F054C00E9440F9EC5DF64FAE
:10EB7400A081A233C8F4A7E00E9428F90E9440F9BA
:10EB8400EC5DF64FA081A03329F4A1E8B1EE81E059
:10EB940090E004C0A0E9B1EE81E090E00E94F5F7B6
:10EBA4000E9462F8E7E03FC00E9440F9EC5DF64F36
:10EBB400A081A63348F40E9440F9EC5DF64FDF01D2
:10EBC400EC91E150EC9306C00E9440F9EC5DF64FE5
:10EBD400A5E3A083E091220BF091230B6091240B19
:10EBE4007091250B0E9469FA0E9434F95AD1E0937E
:10EBF40019090E9440F9EC5DF64FA081A23370F42C
:10EC0400AFE9B1EE81E090E00E947DF8E8E00BC04E
:10EC1400A2EAB1EE81E090E00E94F5F7A4E6B0E04C
:10EC24000E94A6F9E0E00E9485FA27960895E7E09D
:10EC3400E7BBC09ABB98C398E0E5EDB90895AA93E1
:10EC4400E881EFB9779902C0A895FCCFEFB10C9495
:10EC54003EF81A93ECDFC09AA1E0B0E00E94A6F956
:10EC640010E01A3020F4AFEFEADF1F5FFACF0E9402
:10EC740046F997C0AA931A930A93EF81E0640E941D
:10EC84004AF9E8E10E94CAF9AE2FD9DFEB81FC8191
:10EC94006D817E810E94DBF90E944AF9E8E00E94BE
:10ECA400CAF9AE2FCCDFAB81CADFEA81E160AE2FB7
:10ECB400C6DF05D01E2F19810881289608950E9469
:10ECC4007EFA20E030E0AFEFBADF1E2FE07831F0BB
:10ECD4002F5F3F4F2030E2E03E07A8F3E12F0E9470
:10ECE40085FA249608950E9452F9E0E0EA930E947E
:10ECF40040F8A4E951C0BA93AA93A881B981AC9110
:10ED0400A23010F00C94CCF7AFEF99DFA881B98151
:10ED14001196EC93AFEF93DFA881B9811296EC932F
:10ED2400AFEF8DDFA881B9811396EC93AFEF87DF46
:10ED3400A881B9811496EC930C94CCF70E9458F9ED
:10ED4400E8E0EA93EAEAF1E060E070E00E9469FA40
:10ED5400A6E80E945FF90C94CCF70E9458F9EAE304
:10ED6400EA930E9440F8A0E00E945FF90C94CCF76B
:10ED74000E9452F9E7E3EA93E0E0F0E060E070E03B
:10ED840008C00E9452F9E9E2EA93E0E0F0E060E0B2
:10ED940070E40E9469FAA0E06DDF1E2F0E946AF9F8
:10EDA400E12F1991089525971A9310E052DF9BDF04
:10EDB400E983E13031F01F5F153610F0E1E02EC039
:10EDC400F6CFDE011196BADFA981A13011F0E1E09E
:10EDD40025C0AD81AA3A11F0E1E020C010E015365B
:10EDE40010F0E1E01BC0C4DFE983A981A23010F474
:10EDF400C8DFE983E981E03021F0AAE0B0E00E94B5
:10EE0400A6F91F5FE981E03051F7DE011196A5DF15
:10EE1400EA81E07811F4E1E001C0E0E0188126968F
:10EE24000895BA93AA930E947CFAA8950E946EF959
:10EE3400E1E10E9485F91F3F69F140E050E0FA01E9
:10EE44003196AF01EB31A6E0FA0729F0AFEFF7DE18
:10EE54000E2FEF3FA1F30E3FD1F420E030E020303D
:10EE6400E2E03E0780F4E885F9853196E887F98782
:10EE74003197FF93EF93AFEFE2DEAF91BF91EC9345
:10EE84002F5F3F4FECCFAFEFDADEAFEFD8DEAE81CE
:10EE9400BF810C930E946AF90E3F09F449C0E1E076
:10EEA40048C0BA93AA930E947CFAA8950E946EF96E
:10EEB400AFEFC5DEE8E10E9485F91030B9F5AEEF99
:10EEC400BEDE20E030E02030E2E03E0740F4F9010D
:10EED4000E944CF8AC91B3DE2F5F3F4FF4CF40E07B
:10EEE40050E00E9491F959F0AFEFA9DE0E2FEF3FE9
:10EEF40029F0AE81BF81EFEFEC9301C0F2CFE02F98
:10EF0400EF71E53099F4AE81BF81E5E0EC9340E028
:10EF140050E0AFEF94DEE03049F40E9491F929F417
:10EF2400AE81BF81E0E0EC9301C0F3CF0E946AF9A7
:10EF3400E12F0E9483FA2E960895AA93E5B3EF7009
:10EF4400AE2FE881E07FEA2BE5BB81E18A95F1F7FA
:10EF5400A99A81E18A95F1F7A99881E18A95F1F757
:10EF64008BC0AA93A881E9DFE881E295E883A881B0
:10EF7400E4DF87EA8A95F1F77FC0AA93E881F0E09D
:10EF8400E65BF44FE081A981AE0FEBDFA980E88155
:10EF9400E0934E0B22960895A2E00E9498F9ACE00B
:10EFA400E0DFA1E00E9498F9E0E0E0934E0BAE2E82
:10EFB4000895AA93A881AA3021F0E0914F0BAE16D0
:10EFC40060F0E0E0EA93A0914E0BAF5FA0934E0B8C
:10EFD400D4DFA881AA3009F44FC0A394AA9AA881C7
:10EFE400C0DFAA9849C00E946EFA1A93DE011196F6
:10EFF4000E9450FAEF5FFF4F6F4F7F4F0E9455FA08
:10F00400E150F040604070406BBFE6911E2FE0304D
:10F0140019F0A12FCEDFEACF188125960895AA937F
:10F02400E4B3E06FE4BBA19AA29AA39AA998AA9820
:10F03400AB98E881E0934F0BE058E0934C0BE881E8
:10F04400E054E0934D0BA4E1B0E00E94A6F90E94C5
:10F054009EF90E949EF90E949EF9A0E26EDF8AEF5B
:10F0640090E00197F1F7A8E27CDFA4E07ADFA5E85D
:10F0740078DFA6E076DF90DF21960895E0E0F0E007
:10F0840060E070E00E9469FA0895A0E0BFEE81E0BC
:10F0940090E00895A885B985AE0FBF1F08950E941A
:10F0A4005FFA0895E0E0EA93A0E00E94BFF70C94B1
:10F0B400CEF70E94F5F7E0E0EA93A1E00C94BFF7E5
:10F0C400A4E6B0E00C94A6F9ADEAB0EE81E090E0DD
:10F0D4000C94F5F7A8ECB0E00E94A6F9E091480B77
:10F0E400F091490B09950895A8EBB0EE81E090E00A
:10F0F4000E94F5F7E5CF0E94F5F7E2CFA091320B1D
:10F10400B091330B8091340B9091350B0895A83F47
:10F11400EFEFBE07EFEF8E07EFE09E070895E09153
:10F12400320BF091330B6091340B7091350B0895D1
:10F13400A0912A0BB0912B0B80912C0B90912D0B4D
:10F144000E94B0F908950E9469FAEEE1F9E0FA9399
:10F15400EA93A9E0B0E00E9413F7E0931909E030C4
:10F164000895FA93EA93A4E00C946AF4D8DFE25089
:10F17400F04060407040DF01CB01E82DF0E00E94D8
:10F18400E5F90E94F2F9A0912E0BB0912F0B80911A
:10F19400300B9091310B0E94B0F9E093220BF09365
:10F1A400230B6093240B7093250B0895E091220B9D
:10F1B400F091230B6091240B7091250BC4CFA09187
:10F1C4003E0BB0913F0B8091400B9091410B089501
:10F1D400EC91EE1FE0E0EE1FE029DB01EC930895D3
:10F1E400AEE1B9E0A20FB31F0895E0911E0BF091B8
:10F1F4001F0B6091200B7091210B0895E0931E0B5F
:10F20400F0931F0B6093200B7093210B0895A09132
:10F214001E0BB0911F0B8091200B9091210B0E942B
:10F22400B5F9ECCFA2E2BBE00E9450FAEF5FFF4FCA
:10F234006F4F7F4F0E9455FA0895E093320BF0937D
:10F24400330B6093340B7093350B08950E945DF477
:10F25400E0E0EA93A1E00C94BFF7E0E0EA93A1E0D8
:10F264000C94BFF7EEE1F9E0FA93EA93A9E0B0E079
:10F274000895FA93EA93A2E00C946AF4A0E2A29FA0
:10F28400F001A39FF00D0895C09AAFEF0C9421F6FE
:10F29400AE2F0E9421F6AB81BC818D819E810895A1
:10F2A4001A93AFEF0E9421F6C0980895BA93AA93D7
:10F2B400AFEF0E9421F6C09808950E943CF6A88101
:10F2C400B981EC930E947DF6AFEF0E9421F6DCCF6A
:10F2D400AFEF0E9421F6D8CFEA85FB856C857D854A
:10F2E400A0E0B2E080E090E00E94F2F9EA87FB87B8
:10F2F4006C877D87AE81BF81EFEFEC93AFEF0E9407
:10F3040021F6C0980895EA93EB85FC856D857E858A
:10F314000E9469FAA0E00E943CF61E2F0895FA01AB
:10F324003196AF01E334AFE0FA0708950E94B3F7D2
:10F33400A3E0B0E00C94A6F9A0E30E949FF78AEF43
:10F3440090E00197F1F70895109639F0A89584ECB0
:10F3540099E00197F1F71197C9F70895EA0FFB1F98
:10F36400681F791F0895EA2BFB2B682B792B0895CE
:10F37400F195E195F0400895EE230E2EFD01BC01B8
:10F3840031F0EE0FFF1F661F771F0A94D1F708951F
:10F39400EE230E2EFD01BC0131F076956795F795AD
:10F3A400E7950A94D1F70895EE0FFF1F661F771FA4
:10F3B4000895E62FF72F60E070E008956E2F7F2FF9
:10F3C400E0E0F0E008956F2F660F660B762F089546
:10F3D400FA9FF02DEB9FF00DEA9FE02DF10D0895BB
:10F3E4007A9F702D6B9F700DF89F700DE99F700DC3
:10F3F4006A9F602D710DFB9F600D711DE89F600D6C
:10F40400711D8827FA9FF02D610D781FEB9FF00D79
:10F41400611D781FEA9FE02DF10D681F781F089584
:10F424006E2F6A9FF0016B9FF00D089529D0D0DFF5
:10F434000EF49EDF08953F934F935F9300241124AD
:10F444004427552730E2AA0FBB1F881F991F001CB1
:10F45400111C441F551F0E1A1F0A460B570B28F484
:10F464000E0E1F1E461F571F01C0A1603A9559F783
:10F47400FD01BC01D001CA015F914F913F910895F4
:10F48400E894F7FF02C074DF6894B7FF06C0A09544
:10F49400B095119600F8039400FA0895ED91FD914A
:10F4A4006D917D9108957E936E93FE93EE930895EE
:10F4B400E881F9816A817B810895A881B9818A8173
:10F4C4009B810895E883F9836A837B8308957A9303
:10F4D4006A93FA93EA9308959A938A93BA93AA93B0
:10F4E40008951097804090400895AE17BF0786078F
:10F4F400970708955A934A933A932A931A930A932F
:10F5040008955D814C813B812A8119810881089588
:00000001FF
