:020000021000EC
:04E000000C94EBF0A1
:10E004000C9400F00C9400F00C9400F00C9400F0CC
:10E014000C9400F00C9400F00C9400F00C9400F0BC
:10E024000C9400F00C9400F00C9400F00C9400F0AC
:10E034000C9400F00C9400F00C9400F00C9400F09C
:10E044000C9400F00C9400F00C9400F00C9400F08C
:10E054000C9400F00C9400F00C9400F00C9400F07C
:10E064000C9400F00C9400F00C9400F00C9400F06C
:10E074000C9400F00C9400F00C9400F00C9400F05C
:10E084000C9400F00C9400F0E0F9B4F9302E424FF7
:10E094004F54205245414420534400534420494E98
:10E0A4004954204641494C004A554D5020544F2074
:10E0B400465700312E46494E44205550444154455C
:10E0C40000382E46494E44204241434B5550004EA1
:10E0D4004F20555044415445005550444154494EF5
:10E0E4004720465700504C45415345205741495419
:10E0F400005B73657474696E67735D00474F2054E9
:10E104004F20465700494E49542053442046414924
:10E114004C202000494E495420534443415244204A
:10E124004F4B200052454144204D42522046414924
:10E134004C200052454144204D42522020204F4B58
:10E1440020005245414420464154204641494C2038
:10E154000052454144204641542020204F4B20008A
:10E16400464F554E44204F4B20202020200020476E
:10E174004F204649524D41574152452000204552B7
:10E18400524F522020202020202020002038002020
:10E19400300080C001002D4E414E00494E46000023
:10E1A400040004008CE0010007000009BEE0010047
:10E1B40007000709CCE001000B000E09F5E001009F
:10E1C40002004A0B96E101000100500B98E10100A6
:10E1D4000000F894EE27ECBBF1E0F5BFF2E0F5BFE8
:10E1E400E0936C008DE0A2E0BB27ED938A95E9F7FC
:10E1F40080E090E1A0E0B1E0ED930197E9F7E4EA73
:10E20400F1EED1E0DBBF87919791009781F0A79160
:10E21400B79107901790C791D791BF01DBB7F00171
:10E22400CBBF07900D920197E1F7FB01EBCFEFEF26
:10E23400EDBFE0E1EEBFC0E0D9E00C943FF2BA9349
:10E24400AA930E943EFAAE81BF818885998556D0F3
:10E25400E03009F44EC0ECB3E8703E2FE398E19946
:10E26400FECF2FB7F894A895E1EFFFEFE017F10781
:10E2740091F40E940CF8A0E0B0E00E9405F20E9424
:10E2840013F80E9415F20E9413F80E9423F20E94D0
:10E2940013F80E9431F2E0916800E170E1F700E0C8
:10E2A40010E00030E1E01E07C8F4F8016627772784
:10E2B4000E9429FAF8010E9418F80C901124F80120
:10E2C40031960E9418F8EC91FE2FE0E0D001AE0FD9
:10E2D400BF1F0E9405F20E5F1F4FE3CFAE81BF81C7
:10E2E4008885998527D0ECB3E32BECBB2FBFE1E005
:10E2F40001C0E0E00E9445FA2A9608950E942EFA91
:10E304000E941DF80E9433FA70F00E941DF8A0309C
:10E31400E0EFBE07E1E08E07E0E09E0720F40E94F4
:10E324001AFAE03009F003C0E1E00C943FF6E0E0B3
:10E334000C943FF60E942EFAA8950E941DF80E94A4
:10E3440031F20C943FF663E060936800E895E09145
:10E354006800E170E1F765E060936800E895E0919A
:10E364006800E170E1F7E0916800E07449F061E170
:10E3740060936800E895E0916800E170E1F7F3CFFD
:10E38400089565E060936800E895E0916800E170A5
:10E39400E1F7E0916800E07449F061E1609368009E
:10E3A400E895E0916800E170E1F7F3CF089563E048
:10E3B40060936800E895E0916800E170E1F7E0910E
:10E3C4006800E07449F061E160936800E895E091C9
:10E3D4006800E170E1F7F3CF089561E060936800AD
:10E3E400E895E0916800E170E1F7E0916800E0747D
:10E3F40049F061E160936800E895E0916800E1709C
:10E40400E1F7F3CF0895BA93AA93E0916800E1701D
:10E41400E1F7EA81FB816C816BBF088019800E945F
:10E42400EFF1269608950E942EFAE0916800E170BB
:10E43400E1F7E881F9816A816BBF0E94C3F10C9412
:10E444003FF60E942EFAE0916800E170E1F7E8815E
:10E45400F9816A816BBF0E94D9F10C943FF60E9446
:10E464002EFAE0916800E170E1F7E881F9816A81B0
:10E474006BBF0E94A5F10C943FF62C977894A0E111
:10E484000E94DDF70E9420F8A0E9B0EE81E090E060
:10E494000E9427F80E942EF816D2E0931909E03062
:10E4A40081F00E9420F8AFE9B0EE81E090E00E9494
:10E4B40027F80E9432F8A0EDB7E00E9466F90E94A6
:10E4C40038F80E9420F80E943EF80E9420F80E942A
:10E4D4003EF8E0E0F9E0FA93EA93A0E090D2E0930A
:10E4E4001909A0911909A83081F40E9420F8A5EC1B
:10E4F400B0EE81E090E00E9445F8E7E0F9E0FA939D
:10E50400EA93A1E07CD2E0931909E0911909E03083
:10E5140071F00E9420F8A3EDB0EE81E090E00E943B
:10E5240027F80E9432F80E942EF80E9438F80E94C0
:10E5340020F8ADEDB0EE81E090E00E9427F8A9EE5E
:10E54400B0EE81E090E00E9445F8E0E0E0933E0BFD
:10E55400E0933F0BE093400BE093410B0E9448F89B
:10E564000E9451F808F06EC10E9459F80E9496F971
:10E574000E9496F9DF01CB01E0E0F2E060E070E098
:10E584000E94DDF90E9462F80E946DF8E03009F003
:10E59400FFCFA091320BB091330BE4E00E94D2F98B
:10E5A400F170E25EF64F0E947AF8E093360BF09336
:10E5B400370B6093380B7093390B0E947FF800E09F
:10E5C40010E0E82DD801F0E0AE17BF0708F02FC126
:10E5D4000E949FF80E94A8F8A030E2E0BE07E0E0A5
:10E5E4008E07E0E09E0708F03DC020E030E02030D8
:10E5F400E1E03E07B8F500240216030608F540E002
:10E6040050E04A30E0E05E07D8F4FA01DE01EA0F98
:10E61400FB1FBF01AEE1B9E0A40FB51FEC91EE0FF3
:10E624000E2EAEE1B9E0A40FB51F0E94B1F8DE01D1
:10E63400A40FB51FEC91E227EC934F5F5F4FE1CF3E
:10E64400EEE0F9E0FA93EA93DE011296FDD0E0934E
:10E654001A09E0911A09E03011F02B8703C02F5FEB
:10E664003F4FC5CF20E030E02030E2E03E0758F5D0
:10E67400A895EB85E030B1F0F901E25EF64FBF01F9
:10E684000E94B9F8EC91EE0F0E2E0E94B9F80E9488
:10E69400B1F8F901E25EF64F0F01E081AB85EA279C
:10E6A400D001EC930E94B9F8EC91F0E0A091440BF6
:10E6B400B091450BEA0FFB1FE093440BF093450B1D
:10E6C4002F5F3F4FD1CFE0913E0BF0913F0B609114
:10E6D400400B7091410BE050FE4F6F4F7F4FE09322
:10E6E4003E0BF0933F0B6093400B7093410B0E94E1
:10E6F400A8F8A130E8E0BE07E0E08E07E0E09E075E
:10E7040088F1BB24E2E0BE1660F50E94BEF80E94C8
:10E7140029FAAB2DB0E0E0E0F1E00E94D8F9E25E26
:10E72400F64FDF010E9421F1E03009F4FFCF0E948F
:10E73400BEF8E050FF4F6F4F7F4F0E94C7F8F601BD
:10E7440031976F010C2C0D2851F40E949AF7A0E028
:10E75400B1EE81E090E00E9445F80E9438F8B3944D
:10E76400D1CF48C00E94A8F8A03DE7E0BE07E0E092
:10E774008E07E0E09E07F0F1E091EE0AF0E00E94DF
:10E78400A5F90E94A0F90E94C7F8E091EF0AF0E011
:10E794000E94A5F9DF01CB01E8E00E947EF90E9406
:10E7A400D0F8E091F00AF0E00E94A5F90E94D0F8B8
:10E7B400F091F10AE0E06F01E091F20AF0E0CE2A74
:10E7C400DF2AF091F30AE0E0E093420BF093430B6D
:10E7D400E091F40AF0E0A091420BB091430BEA2BD4
:10E7E400FB2BE093420BF093430BE0E0E093440BEC
:10E7F400E093450BA091360BB091370B8091380B09
:10E804009091390B0E9451F868F0E0913A0BF09125
:10E814003B0B60913C0B70913D0B0E94A8F80E9449
:10E8240037FA28F40E94DBF80F5F1F4FCACEE0913D
:10E83400360BF091370B6091380B7091390B0E94B5
:10E84400E6F88CCEFFCFFFCFBA93AA93AA81BB81FF
:10E85400EC91E03069F00D90AA83BB83A881B98163
:10E86400ED91A883B983E01511F0E0E006C2EECF84
:10E87400E1E003C2AA932497E0E0E883E983EA8312
:10E88400EB83AC81A130E0F00E941DF8E8E00E9427
:10E894007EF90E9424FAEC81F0E03197AD81BE81CB
:10E8A400AE0FBF1FEC910E941DF8FF276627772744
:10E8B4000E9475F90E9424FAEC81E150EC83E1CFC7
:10E8C4000E941AFA7EC13BD2E0931909E03051F05C
:10E8D4000E94EFF8A9E0B1EE81E090E00E9445F8D3
:10E8E400E1E008950E94EFF8A8E1B1EE81E090E044
:10E8F4000E9445F80E940CF80E94F4F85ED2E0935E
:10E904001909E03051F00E94EFF8A8E2B1EE81E07D
:10E9140090E00E9445F8E2E008950E94EFF8A7E332
:10E92400B1EE81E090E00E9445F8E4EEFAE00E9446
:10E934007AF8E093220BF093230B6093240B7093EB
:10E94400250B0E949FF8E03051F00E94EFF8A6E4F6
:10E95400B1EE81E090E00E9445F8E3E008950E9462
:10E96400EFF8A5E5B1EE81E090E00E9445F88090D3
:10E974002B09E2E4F9E00E947AF8E093260BF09385
:10E98400270B6093280B7093290BECE2F9E00E94AB
:10E99400FBF8E093460BF093470BA091220BB09148
:10E9A400230B8091240B9091250B662777270E94D7
:10E9B40070F9E0932A0BF0932B0B60932C0B70935C
:10E9C4002D0BE091260BF091270B6091280B709191
:10E9D400290B0E9496F90E9462F8E0932E0BF093A3
:10E9E4002F0B6093300B7093310BE2E0F0E060E0AA
:10E9F40070E00E94E6F80E947FF8E0E00895AA9390
:10EA04000E943EFA60DFE09319090E947FF800E05B
:10EA140010E0E82DD801F0E0AE17BF0708F051C0B0
:10EA24000E949FF8E03011F0E6E0C9C020E030E039
:10EA34002031E0E03E0788F4ED81FE81FA93EA9309
:10EA44000E9400F9E25EF64FDF01FEDEE0931A0950
:10EA5400E03019F42F5F3F4FEBCFE0911A09E0301B
:10EA640059F10E9400F9EE5CF64F0E94FBF80E94F7
:10EA7400E6F80E9459F80E94A0F90E94E6F80E9464
:10EA840000F9E85CF64F0E94FBF80E9448F80E94E7
:10EA940075F90E94E6F80E9400F9E65CF64FFA93D5
:10EAA400EA93A8E0E7DEE0933A0BF0933B0B609324
:10EAB4003C0B70933D0B05C00E94DBF80F5F1F4FAA
:10EAC400A8CFE0911A09E03011F4E6E078C00E9482
:10EAD400EFF8A4E6B1EE81E090E00E94C1F7EC818A
:10EAE400E03031F40E9400F9EC5DF64FA08101C0E2
:10EAF400A0E20E94A7F70E942EF8EC81E03009F012
:10EB040053C00E9400F9EC5DF64FA081A233C0F41B
:10EB14000E94EFF80E9400F9EC5DF64FA081A0334B
:10EB240029F4A2E7B1EE81E090E004C0A1E8B1EEDF
:10EB340081E090E00E94C1F70E942EF8E7E03FC018
:10EB44000E9400F9EC5DF64FA081A63348F40E94C0
:10EB540000F9EC5DF64FDF01EC91E150EC9306C057
:10EB64000E9400F9EC5DF64FA5E3A083E091220B2F
:10EB7400F091230B6091240B7091250B0E9429FACC
:10EB84000E94F4F85AD1E09319090E9400F9EC5D4F
:10EB9400F64FA081A23370F4A0E9B1EE81E090E0D9
:10EBA4000E9445F8E8E00BC0A3E9B1EE81E090E0F3
:10EBB4000E94C1F7A8EEB3E00E9466F9E0E00E946B
:10EBC40045FA27960895E7E0E7BBC09ABB98C39837
:10EBD400E0E5EDB90895AA93E881EFB9779902C009
:10EBE400A895FCCFEFB10C940AF81A93ECDFC09A05
:10EBF400A1E0B0E00E9466F910E01A3020F4AFEF13
:10EC0400EADF1F5FFACF0E9406F997C0AA931A930E
:10EC14000A93EF81E0640E940AF9E8E10E948AF90C
:10EC2400AE2FD9DFEB81FC816D817E810E949BF93F
:10EC34000E940AF9E8E00E948AF9AE2FCCDFAB818A
:10EC4400CADFEA81E160AE2FC6DF05D01E2F19812D
:10EC54000881289608950E943EFA20E030E0AFEF44
:10EC6400BADF1E2FE07831F02F5F3F4F2030E2E013
:10EC74003E07A8F3E12F0E9445FA249608950E94C6
:10EC840012F9E0E0EA930E940CF8A4E951C0BA93A7
:10EC9400AA93A881B981AC91A23010F00C9498F792
:10ECA400AFEF99DFA881B9811196EC93AFEF93DFB1
:10ECB400A881B9811296EC93AFEF8DDFA881B98159
:10ECC4001396EC93AFEF87DFA881B9811496EC9388
:10ECD4000C9498F70E9418F9E8E0EA93EAEAF1E064
:10ECE40060E070E00E9429FAA6E80E941FF90C94E3
:10ECF40098F70E9418F9EAE3EA930E940CF8A0E05E
:10ED04000E941FF90C9498F70E9412F9E7E3EA9322
:10ED1400E0E0F0E060E070E008C00E9412F9E9E28F
:10ED2400EA93E0E0F0E060E070E40E9429FAA0E0F9
:10ED34006DDF1E2F0E942AF9E12F1991089525975E
:10ED44001A9310E052DF9BDFE983E13031F01F5F5B
:10ED5400153610F0E1E02EC0F6CFDE011196BADFD1
:10ED6400A981A13011F0E1E025C0AD81AA3A11F0EA
:10ED7400E1E020C010E0153610F0E1E01BC0C4DF74
:10ED8400E983A981A23010F4C8DFE983E981E03086
:10ED940021F0AAE0B0E00E9466F91F5FE981E0304B
:10EDA40051F7DE011196A5DFEA81E07811F4E1E084
:10EDB40001C0E0E0188126960895BA93AA930E94B0
:10EDC4003CFAA8950E942EF9E1E10E9445F91F3F03
:10EDD40069F140E050E0FA013196AF01EB31A6E071
:10EDE400FA0729F0AFEFF7DE0E2FEF3FA1F30E3F46
:10EDF400D1F420E030E02030E2E03E0780F4E88502
:10EE0400F9853196E887F9873197FF93EF93AFEF50
:10EE1400E2DEAF91BF91EC932F5F3F4FECCFAFEFAA
:10EE2400DADEAFEFD8DEAE81BF810C930E942AF9FF
:10EE34000E3F09F449C0E1E048C0BA93AA930E9486
:10EE44003CFAA8950E942EF9AFEFC5DEE8E10E94D6
:10EE540045F91030B9F5AEEFBEDE20E030E02030E9
:10EE6400E2E03E0740F4F9010E9418F8AC91B3DEE9
:10EE74002F5F3F4FF4CF40E050E00E9451F959F02A
:10EE8400AFEFA9DE0E2FEF3F29F0AE81BF81EFEF88
:10EE9400EC9301C0F2CFE02FEF71E53099F4AE812D
:10EEA400BF81E5E0EC9340E050E0AFEF94DEE0306A
:10EEB40049F40E9451F929F4AE81BF81E0E0EC935A
:10EEC40001C0F3CF0E942AF9E12F0E9443FA2E9643
:10EED4000895AA93E5B3EF70AE2FE881E07FEA2BA3
:10EEE400E5BB81E18A95F1F7A99A81E18A95F1F769
:10EEF400A99881E18A95F1F78BC0AA93A881E9DFEB
:10EF0400E881E295E883A881E4DF87EA8A95F1F74E
:10EF14007FC0AA93E881F0E0E65BF44FE081A98129
:10EF2400AE0FEBDFA980E881E0934E0B22960895A3
:10EF3400A2E00E9458F9ACE0E0DFA1E00E9458F999
:10EF4400E0E0E0934E0BAE2E0895AA93A881AA3078
:10EF540021F0E0914F0BAE1660F0E0E0EA93A0914F
:10EF64004E0BAF5FA0934E0BD4DFA881AA3009F4F7
:10EF74004FC0A394AA9AA881C0DFAA9849C00E944E
:10EF84002EFA1A93DE0111960E9410FAEF5FFF4FDA
:10EF94006F4F7F4F0E9415FAE150F040604070407F
:10EFA4006BBFE6911E2FE03019F0A12FCEDFEACF20
:10EFB400188125960895AA93E4B3E06FE4BBA19A5F
:10EFC400A29AA39AA998AA98AB98E881E0934F0BC8
:10EFD400E058E0934C0BE881E054E0934D0BA4E13E
:10EFE400B0E00E9466F90E945EF90E945EF90E94F8
:10EFF4005EF9A0E26EDF8AEF90E00197F1F7A8E2F4
:10F004007CDFA4E07ADFA5E878DFA6E076DF90DF96
:10F0140021960895E0E0F0E060E070E00E9429FAB3
:10F024000895A0E0BFEE81E090E00895A885B98539
:10F03400AE0FBF1F08950E941FFA0895E0E0EA93FF
:10F04400A0E00E948BF70C949AF70E94C1F7E0E0CD
:10F05400EA93A1E00C948BF7A8EEB3E00C9466F964
:10F06400ACEAB0EE81E090E00C94C1F7E091480B7B
:10F07400F091490B09950895A7EBB0EE81E090E07B
:10F084000E94C1F7E9CF0E94C1F7E6CFA091320BED
:10F09400B091330B8091340B9091350B0895A83FB8
:10F0A400EFEFBE07EFEF8E07EFE09E070895E091C4
:10F0B400320BF091330B6091340B7091350B089542
:10F0C400A0912A0BB0912B0B80912C0B90912D0BBE
:10F0D4000E9470F908950E9429FAEEE1F9E0FA938A
:10F0E400EA93A9E0B0E00E94DFF6E09319090895DD
:10F0F400FA93EA93A4E00C943CF4D9DFE250F04094
:10F1040060407040DF01CB01E82DF0E00E94A5F9DA
:10F114000E94B2F9A0912E0BB0912F0B8091300B6D
:10F124009091310B0E9470F9E093220BF093230B22
:10F134006093240B7093250B0895E091220BF091BA
:10F14400230B6091240B7091250BC5CFA0913E0B2E
:10F15400B0913F0B8091400B9091410B0895EC913D
:10F16400EE1FE0E0EE1FE029DB01EC930895AEE131
:10F17400B9E0A20FB31F0895E0911E0BF0911F0B8D
:10F184006091200B7091210B0895E0931E0BF09376
:10F194001F0B6093200B7093210B0895A0911E0BFD
:10F1A400B0911F0B8091200B9091210B0E9475F957
:10F1B400ECCFA2E2BBE00E9410FAEF5FFF4F6F4F6B
:10F1C4007F4F0E9415FA0895E093320BF093330BAE
:10F1D4006093340B7093350B0895E0E0EA93A1E05B
:10F1E4000C948BF7EEE1F9E0FA93EA93A9E0B0E02E
:10F1F4000895FA93EA93A2E00C943CF4A0E2A29F4F
:10F20400F001A39FF00D0895C09AAFEF0C94EDF5B3
:10F21400AE2F0E94EDF5AB81BC818D819E81089556
:10F224001A93AFEF0E94EDF5C0980895BA93AA938C
:10F23400AFEF0E94EDF5C09808950E9408F6A881EA
:10F24400B981EC930E9449F6AFEF0E94EDF5DCCF53
:10F25400AFEF0E94EDF5D8CFEA85FB856C857D85FF
:10F26400A0E0B2E080E090E00E94B2F9EA87FB8778
:10F274006C877D87AE81BF81EFEFEC93AFEF0E9487
:10F28400EDF5C0980895EA93EB85FC856D857E8540
:10F294000E9429FAA0E00E9408F61E2F0895FA01A0
:10F2A4003196AF01E334AFE0FA0708950E947FF787
:10F2B400A3E0B0E00C9466F9A0E30E946BF78AEF38
:10F2C40090E00197F1F70895109639F0A89584EC31
:10F2D40099E00197F1F71197C9F70895EA0FFB1F19
:10F2E400681F791F0895EA2BFB2B682B792B08954F
:10F2F400F195E195F0400895EE230E2EFD01BC0139
:10F3040031F0EE0FFF1F661F771F0A94D1F708959F
:10F31400EE230E2EFD01BC0131F076956795F7952D
:10F32400E7950A94D1F70895EE0FFF1F661F771F24
:10F334000895E62FF72F60E070E008956E2F7F2F79
:10F34400E0E0F0E008956F2F660F660B762F0895C6
:10F35400FA9FF02DEB9FF00DEA9FE02DF10D08953B
:10F364007A9F702D6B9F700DF89F700DE99F700D43
:10F374006A9F602D710DFB9F600D711DE89F600DEC
:10F38400711D8827FA9FF02D610D781FEB9FF00DFA
:10F39400611D781FEA9FE02DF10D681F781F089505
:10F3A4006E2F6A9FF0016B9FF00D089529D0D0DF76
:10F3B4000EF49EDF08953F934F935F93002411242E
:10F3C4004427552730E2AA0FBB1F881F991F001C32
:10F3D400111C441F551F0E1A1F0A460B570B28F405
:10F3E4000E0E1F1E461F571F01C0A1603A9559F704
:10F3F400FD01BC01D001CA015F914F913F91089575
:10F40400E894F7FF02C074DF6894B7FF06C0A095C4
:10F41400B095119600F8039400FA0895ED91FD91CA
:10F424006D917D9108957E936E93FE93EE9308956E
:10F43400E881F9816A817B810895A881B9818A81F3
:10F444009B810895E883F9836A837B8308957A9383
:10F454006A93FA93EA9308959A938A93BA93AA9330
:10F4640008951097804090400895AE17BF0786070F
:10F47400970708955A934A933A932A931A930A93AF
:10F4840008955D814C813B812A8119810881089509
:00000001FF
