:020000021000EC
:0CF000000C9467F80C9400F80C9400F8D5
:10F00C000C9400F80C9400F80C9400F80C9400F894
:10F01C000C9400F80C9400F80C9400F80C9400F884
:10F02C000C9400F80C9400F80C9400F80C9400F874
:10F03C000C9400F80C9400F80C9400F80C9400F864
:10F04C000C9400F80C9400F80C9400F80C9400F854
:10F05C000C9400F80C9400F80C9400F80C9400F844
:10F06C000C9400F80C9400F80C9400F80C9400F834
:10F07C000C9400F80C9400F80C9400F80C9400F824
:10F08C00E0F9B4F93020202020202020202020007E
:10F09C004E4557005B73657474696E67735D000051
:10F0AC00040004008CF001000C00000990F0010039
:10F0BC0004000C099CF001000B001009A0F00100E9
:10F0CC000000F894EE27ECBBF1E0F5BFF2E0F5BFE1
:10F0DC00E0936C008DE0A2E0BB27ED938A95E9F7F5
:10F0EC0080E090E1A0E0B1E0ED930197E9F7ECEA64
:10F0FC00F0EFD1E0DBBF87919791009781F0A7915A
:10F10C00B79107901790C791D791BF01DBB7F0016A
:10F11C00CBBF07900D920197E1F7FB01EBCFEFEF1F
:10F12C00EDBFE0E1EEBFC0E0D9E00C94C5F9D8D654
:10F13C00DDD46BBFE6910C9478FCBA93AA931A9326
:10F14C000A93EC81FD816E817F81E030F9F400E05F
:10F15C0010E00030E1E01E07B0F4F801AA81BB8199
:10F16C00EA0FFB1FFF93EF93F801AC81BD818E81F9
:10F17C009F816627772705D6DADFAF91BF91EC9395
:10F18C000F5F1F4FE6CFE1E00C9464FCE0E00C94C1
:10F19C0064FCBA93AA93E4D5ABD444D0E030F1F13B
:10F1AC00ECB3E8703E2FE398E199FECF2FB7F894BB
:10F1BC00E1EFFFEFE017F10751F49FD4A0E0B0E0CE
:10F1CC00ABD0A1D4B8D09FD4C2D09DD4CCD0E09138
:10F1DC006800E170E1F700E010E00030E1E01E07AC
:10F1EC00A8F4F8016627772776D6F80191D40C900D
:10F1FC001124F80131968CD4EC91FE2FE0E0D00173
:10F20C00AE0FBF1F89D00E5F1F4FE7CF71D420D038
:10F21C00ECB3E32BECBB2FBFE1E001C0E0E0A7D5E2
:10F22C002A9608957AD461D660F07AD4A030E0EFB3
:10F23C00BE07E1E08E07E0E09E0718F457D4E030FB
:10F24C0009F003C0E1E00C9478FCE0E00C9478FC4D
:10F25C0064D489D00C9478FC63E060936800E895E2
:10F26C00E0916800E170E1F765E060936800E89573
:10F27C00E0916800E170E1F7E0916800E07449F01A
:10F28C0061E160936800E895E0916800E170E1F756
:10F29C00F3CF089565E060936800E895E09168000D
:10F2AC00E170E1F7E0916800E07449F061E160938E
:10F2BC006800E895E0916800E170E1F7F3CF0895FC
:10F2CC0063E060936800E895E0916800E170E1F715
:10F2DC00E0916800E07449F061E160936800E895A2
:10F2EC00E0916800E170E1F7F3CF089561E060937D
:10F2FC006800E895E0916800E170E1F7E091680042
:10F30C00E07449F061E160936800E895E091680071
:10F31C00E170E1F7F3CF0895BA93AA93E0916800F6
:10F32C00E170E1F7EA81FB816C816BBF0880198089
:10F33C00DDDF0C9409FDD4D5E0916800E170E1F7B4
:10F34C00E881F9816A816BBFA5DF0C9478FCC8D584
:10F35C00E0916800E170E1F7E881F9816A816BBFA7
:10F36C00AFDF0C9478FCBCD5E0916800E170E1F75C
:10F37C00E881F9816A816BBF6FDF0C9478FC2C9764
:10F38C00789406D3E0931B09B8D3CCD3E6EEFAE01D
:10F39C00D3D3D6D3DED380902D09E4E4F9E0CCD3DB
:10F3AC00E093280CF093290C60932A0C70932B0C8F
:10F3BC00EEE2F9E0FA93EA93A2E020D2E093480C53
:10F3CC00F093490CA091240CB091250C8091260C43
:10F3DC009091270C66277727CFD4E0932C0CF093D1
:10F3EC002D0C60932E0C70932F0CE091280CF09147
:10F3FC00290C60912A0C70912B0CFFD4A0912C0C31
:10F40C00B0912D0C80912E0C90912F0CB5D4E093D3
:10F41C00300CF093310C6093320C7093330C90D30E
:10F42C00E0E0E0931C0900E010E09DD3D0F491D310
:10F43C0020E030E02031E0E03E0738F4E0E0F9E095
:10F44C0098D319F42F5F3F4FF5CFE0911C09E030B2
:10F45C0021F09ED3A3D3B1D304C0C6D30F5F1F4FEB
:10F46C00E4CFCBD380D348F574D320E030E0203107
:10F47C00E0E03E0738F4ECE0F9E07BD319F42F5FC1
:10F48C003F4FF5CFE0911C09E03099F081D386D342
:10F49C0094D37ED3E45CF64FFA93EA93A8E0AED112
:10F4AC00E0933C0CF0933D0C60933E0C70933F0C3E
:10F4BC0004C09AD30F5F1F4FD5CF6AD3E05EF64FCF
:10F4CC00A4E4A08365D3EF5DF64FAFE4A08360D3D3
:10F4DC00EE5DF64FAEE4A083E091240CF091250C88
:10F4EC006091260C7091270CF6D4E0E2F9E0FA93C7
:10F4FC00EA93A9E0B0E0BDD2E0931B09E0E0E09311
:10F50C00400CE093410CE093420CE093430CA0912F
:10F51C00340CB091350C8091360C9091370C8CD307
:10F52C0009F454C1E0912C0CF0912D0C60912E0C2F
:10F53C0070912F0CD0D4F6D2A091340CB091350C24
:10F54C00E4E00E943FFFE05EF64FF6D2E093380C09
:10F55C00F093390C60933A0C70933B0C4ED303D35D
:10F56C0008F023C1F6D270D3A030E2E0BE07E0E091
:10F57C008E07E0E09E07D8F520E030E02030E1E097
:10F58C003E0778F5002402160306C8F440E050E06C
:10F59C004A30E0E05E0798F4FA01DE01EA0FFB1F47
:10F5AC00BF015BD3EE0F0E2E58D35DD3DE01A40F3B
:10F5BC00B51FEC91E227EC934F5F5F4FE9CFE0E191
:10F5CC00F9E0FA93EA93DE01129602D1E0931C095A
:10F5DC00E0911C09E03011F02B8703C02F5F3F4FE7
:10F5EC00CDCFE0911C09E03011F42C96FFCF20E038
:10F5FC0030E02030E2E03E0720F5EB85E03091F082
:10F60C00F901E05EF64FBF0135D3EE0F0E2E32D36B
:10F61C002AD3F901E05EF64F0F01E081AB85EA27B2
:10F62C00D001EC9327D3F0E0A091460CB091470C9D
:10F63C00EA0FFB1FE093460CF093470C2F5F3F4FF4
:10F64C00D8CFE091400CF091410C6091420C70913C
:10F65C00430CE050FE4F6F4F7F4FE093400CF09304
:10F66C00410C6093420C7093430CEED2A130E8E055
:10F67C00BE07E0E08E07E0E09E07B8F1BB24E2E0B5
:10F68C00BE1690F5FDD227D4AB2DB0E0E0E0F1E052
:10F69C00F6D3E05EF64FDF017CDDE03049F4AE9846
:10F6AC00A4EFB1E02BD4AE9AA4EFB1E027D4F7CFFE
:10F6BC00E7D2E050FF4F6F4F7F4FEBD2F6013197FF
:10F6CC006F010C2C0D2871F4E0914A0CF0914B0C4D
:10F6DC000995AD98A4EFB1E011D4AD9AA4EFB1E0C7
:10F6EC000DD4F7CFB394CBCF39C0AED2A03DE7E069
:10F6FC00BE07E0E08E07E0E09E0780F1E091F00AA3
:10F70C00F0E08AD384D3C5D2E091F10AF0E084D33F
:10F71C00DF01CB01E8E043D3C5D2E091F20AF0E07F
:10F72C007BD3C0D2F091F30AE0E06F01E091F40AD0
:10F73C00F0E0CE2ADF2AF091F50AE0E0BDD2E091AC
:10F74C00F60AF0E0A091440CB091450CEA2BFB2B8F
:10F75C00B3D2E0E0E093460CE093470CA091380C58
:10F76C00B091390C80913A0C90913B0C65D2C9F454
:10F77C00E0913C0CF0913D0C60913E0C70913F0C73
:10F78C0063D2B7D390F49DD2A0E2B9E002DDE030B1
:10F79C0009F0AD9896D2A0E2BBE0CFDCE03009F0E6
:10F7AC00AE9822D20F5F1F4FDACEE091380CF09159
:10F7BC00390C60913A0C70913B0CE093340CF09343
:10F7CC00350C6093360C7093370CA1CEFFCFFFCF66
:10F7DC00BA93AA93AA81BB81EC91E03069F00D90A9
:10F7EC00AA83BB83A881B981ED91A883B983E01565
:10F7FC0011F0E0E077C0EECFE1E074C0AA9324975B
:10F80C00E0E0E883E983EA83EB83AC81A130B0F0DC
:10F81C0087D1E8E0C4D25BD2EC81F0E03197AD81C6
:10F82C00BE81AE0FBF1FEC917BD1FF2766277727D8
:10F83C00ADD24DD2EC81E150EC83E7CF57D1279676
:10F84C000895E7E0E7BBC09ABB98C398E0E5EDB933
:10F85C000895AA93E881EFB9779BFECFEFB121967B
:10F86C0008951A93EEDFC09AA1E0B0E047D310E000
:10F87C001A3020F4AFEFEDDF1F5FFACFC09AAFEF75
:10F88C00E8DF84C0AA931A930A93EF81E06421D233
:10F89C00E8E19CD2AE2FDDDFEB81FC816D817E81B6
:10F8AC00B1D217D2E8E092D2AE2FD3DFAB81D1DF49
:10F8BC00EA81E160AE2FCDDF05D01E2F19810881C2
:10F8CC00289608954DD220E030E0AFEFC2DF1E2F16
:10F8DC00E07831F02F5F3F4F2030E2E03E07A8F395
:10F8EC00E12F45D224960895FBD1E0E0EA9305D1AF
:10F8FC00A4E948C0BA93AA93A881B981AC91A2306B
:10F90C0070F5AFEFA6DFA881B9811196EC93AFEF3C
:10F91C00A0DFA881B9811296EC93AFEF9ADFA88192
:10F92C00B9811396EC93AFEF94DFA881B98114964B
:10F93C00EC9315C0DAD1E8E0EA93EAEAF1E060E092
:10F94C0070E0C9D2A6E805C0D0D1EAE3EA93D5D0DD
:10F95C00A0E098DFA881B981EC93CCDFCCD12296C2
:10F96C000895BED1E7E3EA93E0E0F0E060E070E0F8
:10F97C0007C0B6D1E9E2EA93E0E0F0E060E070E4C1
:10F98C00AAD2A0E07FDF1E2FB6D1E12F19910895E6
:10F99C0025971A9310E065DFA7DFE983E13031F09A
:10F9AC001F5F153610F0E1E02DC0F6CFDE01119689
:10F9BC00C1DFA981A13011F0E1E024C0AD81AA3AE8
:10F9CC0011F0E1E01FC010E0153610F0E1E01AC0B4
:10F9DC00C8DFE983A981A23010F4CBDFE983E98188
:10F9EC00E03019F0AAE0B0E089D21F5FE981E03085
:10F9FC0059F7DE011196A8DFEA81E07811F4E1E015
:10FA0C0001C0E0E01881269608957AD1E1E190D109
:10FA1C001F3F51F140E050E0FA013196AF01EB315C
:10FA2C00A6E0FA0711F08ED1B9F30E3FD1F420E025
:10FA3C0030E02030E2E03E0780F4E885F98531962D
:10FA4C00E887F9873197FF93EF93AFEF02DFAF9120
:10FA5C00BF91EC932F5F3F4FECCFAFEFFADEAFEFE0
:10FA6C00F8DEAE81BF810C9346D10E3FD9F1E1E0B7
:10FA7C003AC046D1AFEFEDDEE8E15AD1103089F54E
:10FA8C00AEEFE7DE20E030E02030E2E03E0738F475
:10FA9C00F9013ED0AC91DDDE2F5F3F4FF5CF40E05A
:10FAAC0050E055D141F04ED129F0AE81BF81EFEF3E
:10FABC00EC9301C0F6CFE02FEF71E53091F4AE81FD
:10FACC00BF81E5E0EC9340E050E0AFEFC2DEE03008
:10FADC0041F43DD129F4AE81BF81E0E0EC9301C04B
:10FAEC00F4CF09D1E12F41D12E960895E5D1089597
:10FAFC00AE81BF81888599850895E0E0F0E060E0F3
:10FB0C0070E0E9D10895A0E0BFEE81E090E00895A7
:10FB1C00A885B985AE0FBF1F0895E2D1D2D1089543
:10FB2C00D0D10895E0E2F9E0FA93EA93A9E0B0E0CD
:10FB3C006CDFE0931B090895FA93EA93A4E05ECE80
:10FB4C00E093240CF093250C6093260C7093270CF7
:10FB5C000895E091240CF091250C6091260C709185
:10FB6C00270CB9D1DFCFE82DD801F0E0AE17BF07D5
:10FB7C000895FA93EA93A0E2A29FF001A39FF00DDF
:10FB8C00E05EF64FDF0124DEE0931C09E0300895BF
:10FB9C00A0E2A29FF001A39FF00D0895EC5CF64F3C
:10FBAC00E081F0E039D133D1E093340CF093350C93
:10FBBC006093360C7093370CEBCFE65CF64FE0811C
:10FBCC00F0E02AD1A091340CB091350C8091360C18
:10FBDC009091370CDBD0E093340CF093350C6093A0
:10FBEC00360C7093370C0895A4E2BCE05BD1EF5F48
:10FBFC00FF4F6F4F7F4F5BD10895E091340CF09124
:10FC0C00350C6091360C7091370CE250F04060402E
:10FC1C007040DF01CB01E82DF0E0FED00AD1A091BD
:10FC2C00300CB091310C8091320C9091330CA4D0EB
:10FC3C0087DF00E010E00895AF3FEFEFBE07EFEF76
:10FC4C008E07EFE09E070895A091400CB091410CF7
:10FC5C008091420C9091430C0895A0E2B9E0A40F5E
:10FC6C00B51FEC910895EE1FE0E0EE1FE029DB01DB
:10FC7C00EC930895A0E2B9E0A20FB31FEC910895A4
:10FC8C00E091200CF091210C6091220C7091230CCE
:10FC9C000895E093200CF093210C6093220C709348
:10FCAC00230C0895A091200CB091210C8091220C72
:10FCBC009091230C6BD0EDCFE093440CF093450C5A
:10FCCC000895E0E0FFEE61E070E005D10895FED00C
:10FCDC000895AE2FBEDDAB81BC818D819E810895D0
:10FCEC001A93AFEFB6DDC0980895BA93AA93AFEF0D
:10FCFC00B0DDC0980895AFEFACDDC09AAFEFA9CDE1
:10FD0C00BA93AA932BD0EA85FB856C857D85A0E000
:10FD1C00B2E080E090E08DD0EA87FB876C877D872E
:10FD2C00AE81BF81EFEFEC93AFEF93DDC0980895F8
:10FD3C00EA93EB85FC856D857E85CDD0A0E0A2DDB8
:10FD4C001E2F0895AFEF85DD0E2FEF3F0895FA01BA
:10FD5C003196AF01E334AFE0FA0708955A934A9312
:10FD6C003A932A931A930A9308955D814C813B81AF
:10FD7C002A81198108810895EA0FFB1F681F791FDA
:10FD8C000895AE0FBF1F861F971F0895EA2BFB2BFC
:10FD9C00682B792B0895F195E195F0400895EE23A9
:10FDAC000E2EE8E01E2EFD01BC0179F0011438F096
:10FDBC00762F6F2FFE2FE0E00118C1F70895EE0F9C
:10FDCC00FF1F661F771F0A94D1F70895EE230E2E9E
:10FDDC00E8E01E2EFD01BC0179F0011438F0EF2F84
:10FDEC00F62F672F70E00118C1F708957695679587
:10FDFC00F795E7950A94D1F70895EE0FFF1F661F4C
:10FE0C00771F0895E62FF72F60E070E008956E2FAE
:10FE1C007F2FE0E0F0E008956F2F660F660B762FD2
:10FE2C000895FA9FF02DEB9FF00DEA9FE02DF10D58
:10FE3C0008957A9F702D6B9F700DF89F700DE99F40
:10FE4C00700D6A9F602D710DFB9F600D711DE89FF9
:10FE5C00600D711D8827FA9FF02D610D781FEB9FA7
:10FE6C00F00D611D781FEA9FE02DF10D681F781FC2
:10FE7C0008956E2F6A9FF0016B9FF00D089504D0CA
:10FE8C00D0DF0EF488DF0895E894F7FF02C083DF1B
:10FE9C006894B7FF06C0B195A195B04000F80394E3
:10FEAC0000FA0895ED91FD916D917D9108957E93E9
:10FEBC006E93FE93EE930895E881F9816A817B81BC
:10FECC000895A881B9818A819B810895E883F9837B
:10FEDC006A837B8308957A936A93FA93EA930895DD
:10FEEC009A938A93BA93AA9308951097804090405E
:10FEFC000895AE17BF07860797070895109639F037
:10FF0C00A89588EE93E00197F1F71197C9F708953A
:00000001FF
