:020000021000EC
:08F000000C944DF80C9400F88B
:10F008000C9400F80C9400F80C9400F80C9400F898
:10F018000C9400F80C9400F80C9400F80C9400F888
:10F028000C9400F80C9400F80C9400F80C9400F878
:10F038000C9400F80C9400F80C9400F80C9400F868
:10F048000C9400F80C9400F80C9400F80C9400F858
:10F058000C9400F80C9400F80C9400F80C9400F848
:10F068000C9400F80C9400F80C9400F80C9400F838
:10F078000C9400F80C9400F80C9400F80C9400F828
:10F088000C9400F806FAF6F9040004008CF001006C
:10F098000000F894EE27ECBBF1E0F5BFF2E0F5BF15
:10F0A800E0936C008DE0A2E0BB27ED938A95E9F729
:10F0B80080E090E1A0E0B1E0ED930197E9F7E0E9A5
:10F0C800F0EFD1E0DBBF87919791009781F0A7918E
:10F0D800B79107901790C791D791BF01DBB7F0019F
:10F0E800CBBF07900D920197E1F7FB01EBCFEFEF54
:10F0F800EDBFE0E1EEBFC0E0D5E00C945FFA0E94FE
:10F10800EDFA0E94DEFA6BBFE6910C945DFABA93B1
:10F11800AA931A930A93EC81FD816E817F81E03076
:10F12800F9F400E010E00030E1E01E07B8F4F8015F
:10F13800AA81BB81EA0FFB1FFF93EF93F801AC8113
:10F14800BD818E819F81662777270E94D5FAD7DFF8
:10F15800AF91BF91EC930F5F1F4FE5CFE1E001C086
:10F16800E0E01981088128960895AA9324971A93B4
:10F17800EE81FF8168857985E070DF01CB0181D060
:10F18800E03011F1ECB3E8701E2FE398E199FECF5F
:10F19800EE81FF8168857985E070E983FA836B8366
:10F1A8007C83EE81FF81688579850E94E8FAA985CC
:10F1B8008CD0A981BA818B819C8181D0ECB3E12B61
:10F1C800ECBBE1E018815BC0E0E0188158C0BA935D
:10F1D800AA930E94F8FAAE81BF818885998551D09B
:10F1E800E03009F449C0ECB3E8703E2FE398E199A8
:10F1F800FECFE0E0F0E060E070E00E94E8FAA0E016
:10F20800B0E00E94DBF90E94ABFA0E94EBF90E9481
:10F21800ABFA0E940BFA0E94ABFA0E942BFAE0911B
:10F228006800E170E1F700E010E00030E1E01E075F
:10F23800C8F40E94B0FAF801A885B985AE0FBF1FBF
:10F248000C9011243196A885B985AE0FBF1FEC919B
:10F25800FE2FE0E0D001AE0FBF1FF30109950E5F4E
:10F268001F4FE3CFAE81BF818885998528D0ECB345
:10F27800E32BECBBE1E001C0E0E00E94FFFA2A9634
:10F2880008950E94B6FA0E94F2FA70F00E94E3FA1A
:10F29800A030E0EEBE07E1E08E07E0E09E0720F434
:10F2A8000E94DEFAE03009F003C0E1E00C945DFA58
:10F2B800AD980E94BBFAAD9A0E94BBFAF9CF0E94A2
:10F2C800B6FAF20109950C945DFAAA9324970E9464
:10F2D800F6FAEB85E1702E2F3327EB85FC85EE7F60
:10F2E800F070AF01EB85FC856D857E85E070EE835F
:10F2F800FF836887798700E010E00030E1E01E07AF
:10F30800E0F54017510739F5022E032A69F00E94EB
:10F31800B0FAEF85F88969897A89EE7F6BBFA69183
:10F32800B0E0E0E0FE8511C00E94B0FAEF85F889F0
:10F3380069897A89EF5FFF4F6F4F7F4F6BBFE69107
:10F34800FE2FE0E0DF01EE85F0E0EA2BFB2BDF018A
:10F35800F30109950FC00E94B0FAF801AA85BB8590
:10F368008C859D85662777270E94D0FA0E94DAFA55
:10F37800F30109950E5F1F4FC0CF0E94FDFA2F962B
:10F38800089561E060936800E895E0916800E17095
:10F39800E1F7E0916800E07449F061E1609368008A
:10F3A800E895E0916800E170E1F7F3CF0895BA932A
:10F3B800AA93E0916800E170E1F7EA81FB816C8132
:10F3C8006BBF088019800E94C5F9269608950E948F
:10F3D800EDFAE0916800E170E1F7E881F9816A816E
:10F3E8006BBF65E060936800E895E0916800E170A4
:10F3F800E1F761E160936800E895E0916800E170E9
:10F40800E1F7E0916800E074A1F70C945DFA0E94BE
:10F41800EDFAE0916800E170E1F7E881F9816A812D
:10F428006BBF63E060936800E895E0916800E17065
:10F43800E1F761E160936800E895E0916800E170A8
:10F44800E1F7E0916800E074A1F70C945DFA0E947E
:10F45800EDFAE0916800E170E1F7E881F9816A81ED
:10F468006BBF63E060936800E895E0916800E17025
:10F47800E1F761E160936800E895E0916800E17068
:10F48800E1F7E0916800E074A1F765E06093680037
:10F49800E895E0916800E170E1F761E16093680048
:10F4A800E895E0916800E170E1F7E0916800E074A8
:10F4B800A1F724960895EBB3E53509F401D0FFCF01
:10F4C800D2501A930A9300E010E00030E1E01E07E2
:10F4D80054F4F801DE01AE5FBE4FEA0FFB1F008354
:10F4E8000F5F1F4FF2CFAC9846D0DE01AA5FBE4F28
:10F4F8000E94EBF8E03009F0AD983DD0DE01169699
:10F508000E948BF8E03009F0AE98E4E0FFEE61E08D
:10F5180070E00E94E8FAA8E30E94B9F8E03009F028
:10F52800AD9AA4E0BFEE81E090E00E9483F8E093FA
:10F538000005A0910005A83329F4AE9818D0AE9A1A
:10F5480016D0FBCF198108812296DE5F0895A0E0CE
:10F55800BFEE81E090E00895F801662777270E94C2
:10F56800E8FA08950E94EDFA0E94E3FA0895A4EFDC
:10F57800B1E00C94C6FAE0E0FFEE61E070E00E94B2
:10F58800E8FA0895109639F080ED97E00197F1F7C1
:10F59800A8951197C9F70895EA0FFB1F681F791FEF
:10F5A8000895AE0FBF1F861F971F08956BBFA791C1
:10F5B800B6910895E881F9816A817B810895A881CF
:10F5C800B9818A819B8108957A936A93FA93EA9321
:10F5D80008959A938A93BA93AA93089510978040AE
:10F5E800904008955A934A933A932A931A930A9308
:10F5F80008955D814C813B812A8119810881089594
:00000001FF
