:020000020000FC
:020000000C945E
:1000020085120C9400000C9400000C9400000C94D7
:1000120000000C9400000C9400000C9400000C945E
:1000220000000C94CA540C9400000C9400000C9430
:10003200CA490C9400000C9400000C9400000C942B
:10004200BC540C9400000C94634C0C949D4C0C9486
:10005200764C0C9400000C9400000C9400000C945C
:1000620000000C9400000C9400000C9400000C940E
:1000720000000C9400000C94AA4C0C9400000C9408
:1000820096540C9400000C940000042105211121C7
:1000920011211C21292134213F214F215921622183
:1000A200742187219821A721B821C821809A9041E3
:1000B2008E418F804545454949498E8F9092924F96
:1000C200994F555559999A9B9C9D9E9F41494F55D1
:1000D200A5A5A6A7A8A9AAABAC21AEAFB0B1B2B3F1
:1000E200B4B5B6B7B8B9BABBBCBDBEBFC0C1C2C356
:1000F200C4C5C6C7C8C9CACBCCCDCECFD0D1D2D346
:10010200D4D5D6D7D8D9DADBDCDDDEDFE0E1E2E335
:10011200E4E5E6E7E8E9EAEBECEDEEEFF0F1F2F325
:10012200F4F5F6F7F8F9FAFBFCFDFEFF1027E803F9
:1001320064000A000100001000011000010000002C
:100142005453542000464143544F52005631380014
:1001520044617461346B204F6B004572617365209A
:100162004F6B0020465720000D0A006572617365CF
:1001720020646F6E65206F6B0D0A0077726974657B
:1001820020646F6E65206F6B0D0A007265616420DA
:1001920020646F6E65206F6B0D0A00726561647773
:1001A2006B6661696C6564200D0A0072656164208A
:1001B200206661696C6564200D0A004E414D453030
:1001C200303031004E414D45303030340052656E92
:1001D200616D65206661696C65640072656E616D52
:1001E2006531206661696C65640A0052656E616DF5
:1001F20065204F6B0072656E616D653120706173B1
:100202007365640A0052656E616D6520636865639B
:100212006B204F6B0052656E616D652063686B20C9
:100222004661696C00757064617420646F6E65204C
:100232006F6B0D0A00757064617465206661696C8C
:1002420065640D0A007468697320697320757064AF
:100252006174652E00757064742066696C6C20662A
:1002620061696C0D0A00757064742066696C6C209B
:10027200646F6E650D0A0044617461346B204661DF
:10028200696C003000202020202020202000313204
:10029200333435362020202020202020202020002A
:1002A200202020202020202020202020202020204C
:1002B2000035006170702E2072696E67696E67206A
:1002C200202020004F66666963652052696E6720B0
:1002D200202020200054656E616E742052696E6782
:1002E2002020202020005472792043616C6C204F22
:1002F2007468657220200020EEF6ECF6EC20ECE348
:10030200E9F8E4203330200020EEF6ECF6EC20ECA5
:10031200EEF9F8E3203330200020EEF6ECF6EC2084
:10032200ECE3E9E9F820333020002020EEF0F1E49C
:1003320020EEF1F4F820E0E7F8200053656C6563E5
:1003420074206170702E20202020200053656C657F
:100352006374204F666669636520200053656C658F
:100362006374656420202020202020202000507209
:10037200657373204220746F2063616C6C002020CF
:10038200F0E1E7F8E420E3E9F8E42033302000204C
:1003920020F0E1E7F820EEF9F8E3202033302000E6
:1003A2002020F0E1E7F820E3E9E9F82020333020CB
:1003B200002D2D2D2D2D20454E44202D2D2D2D2D62
:1003C2002D2000202D2D2D2D20F1E5F3202D2D2D7A
:1003D2002D2D2D2000202020202020202020202014
:1003E2002020202020200045584954203C2D202A3E
:1003F200202023202D3E0020E9F6E9E0E43E2D20D6
:100402002320202A202D3C00457261736520616CF7
:100412006C2050727879210020506C6561736520E0
:100422005761697421210020EEE7E9F7E420EBE54A
:10043200ECECFA21212120002020F0E020ECE4EE77
:10044200FAE9EF202121212000312F36204E657854
:10045200743F50726573732A005072657373322051
:10046200746F2045726173650020362F3120ECE1F4
:10047200E02D20E4F7F9202A20002020ECEEE7E925
:10048200F7E420E4F7F920322020005072657373FC
:100492002A20746F204572617365002020ECEEE71C
:1004A200E9F7E420E4F7F9202A2020002020417215
:1004B2006520796F7520737572653F0050726573A0
:1004C200732A20746F207374617274002020E4E038
:1004D200ED20E0FAE420E1E8E5E73F2000202020DB
:1004E200ECE4F2E1F8E420E4F7F9202A20006F704E
:1004F20074696F6E206E756D62657220310042798B
:10050200207465737420202B2F2D203120006F70F2
:1005120074696F6E206E756D6265722032004D6176
:10052200782073656E736174697665300042657315
:10053200742D2062792074657374210070756C7358
:10054200657320696E203530206D53004C6F772023
:1005520066726571206C6576656C20004279207444
:1005620065737420202D3130202020007570657253
:100572002066726571206C6576656C004279207424
:1005820065737420202B3130202020004272656177
:100592006B206F6E2043616C6C202000426173659A
:1005A2002074696D65203530206D5300546F206EC4
:1005B2006578742070686F6E652E2E0030203D774E
:1005C200697468206E6F207465737400746F20689C
:1005D200616E672070686F6E652E2E007265636FA4
:1005E2006D6D2030382074696D65200020E0F4F9CB
:1005F200F8E5FA20EEF12720312020200020ECF44B
:10060200E920E4F0EEE3E3202B2F2D20310020E05F
:10061200F4F9F8E5FA20EEF127202032202000201C
:10062200302020F8E2E9F9E5FA20EEF8E1E9FA00F3
:1006320020EEE5EEECF520ECF4E920E4F0EEE3E365
:100642000020EEF120F4E5ECF120E1303520EEEC73
:10065200E9002020F7E520E2E9ECE5E920FAE7FAF3
:10066200E5EF002020ECF4E920E4F0EEE3E32030B3
:10067200312D20002020F7E520E2E9ECE5E920F227
:10068200ECE9E5EF002020ECF4E920E4F0EEE3E30E
:100692002030312B200020E4F4F1F7E420E1E9EFEF
:1006A20020F6ECF6E5EC0020E1F1E9F120E6EEEFD0
:1006B20020303520EEECE90020ECE8ECF4E5EF2008
:1006C200E4E1E0202E2E2E20002030202020ECEC31
:1006D200E020E1E3E9F7E420200020ECF0E9FAE58C
:1006E200F720E4F9E9E7E42E2E2E0020EEE5EEEC09
:1006F200F520383020F4F2EEE9ED2000446F206E50
:100702006F742073656C6563742030006F7220759E
:10071200736520646F6F72206B65790020F0E020B2
:10072200ECE020ECE1E7E5F820EEF7F900203020DC
:10073200E0E520EEF7F920E3ECFA312F32004448ED
:10074200484D4D203C3C3C444953504C5900536861
:100752006F772076616C75653E3E5345540020FAF2
:10076200F6E5E2E43A202020204D4D48484400209E
:10077200E4F2F8EA20E4EEE5F6E220E9F9EEF80028
:1007820056616C75653020416E792043616C6C0056
:1007920031206F722032206F7220333D312B3200B4
:1007A2002020F2F8EA203020EBEC20F7F8E9E0E430
:1007B20000203120E0E5203220E0E520333D312BDE
:1007C2003200444444444444443C3C444953504C25
:1007D2005900313D53756E646179373D53617465DB
:1007E200720020FAF6E5E2E43A202044444444440C
:1007F20044440020313D20E9E5ED20E02720373D4B
:10080200F927200048484D4D7878783C3C444953BC
:10081200504C59005374617274202F53746F7020BE
:1008220074696D0020FAF6E5E2E43A2020787878DF
:100832004D4D48480020E6EEEF20E4FAE7ECE420D4
:100842002FF1E9E5ED00303D4164642056616C20F2
:10085200312D31303020005374657020323D4E65A9
:1008620077333D344447200020E4E5F1F320F2F8E9
:10087200EA3D3020313DEBEC002030303120323D7A
:10088200E7E3F920333D34F1F4004D6178207370D1
:10089200656564203D2030200020EEF7F1E9EEE5A9
:1008A200ED20F2F8EA203D302000303030203D6E5D
:1008B2006F742061637469766520002030303020C7
:1008C2003D20ECE020F4F2E9EC2020005665723382
:1008D20032332030352F30392F32340026205269FE
:1008E2006E67204E616D6520447370004D617852D1
:1008F20065636F56616C756530357300204D696EA6
:100902002056616C7565203120002054696D652088
:10091200696E207365632020200020312F342073FC
:100922006563206261736520003C34207265706CDF
:10093200616365206279340054696D653D31302010
:10094200582076616C7565004E4F5420494E2055F3
:100952005345204E4F57210030207265706C616301
:1009620065206279310020E5FAF6E5E2FA20F9ED38
:1009720020EEF6ECF6EC0020EEE5EEECF52035305C
:1009820020F9F0E9E5FA200020EEE9F0E9EEE5EDE4
:1009920020F2F8EA203D31200020202020F2F8EA5F
:1009A20020E1F9F0E9E5FA20200020F7E8EF20EE57
:1009B2003420E9E5E7ECF320E1340020E1F1E9F14C
:1009C20020342F3120F9F0E9E420200020EEE9F074
:1009D200E9EEE5ED20F2F8EA203D20310020E6EED6
:1009E200EF203D203031205820F2F8EA200020ECA0
:1009F200E020E1F9E9EEE5F920EBF2FA212000200E
:100A0200F2F8EA203020EEE5E7ECF320EC203100AA
:100A1200536574204C617374206170702020202013
:100A2200002020746F207468697320666C6F6F7287
:100A3200200020E3E9F8E420E0E7F8E5F0E42020F4
:100A420020200020202020202020ECF7E5EEE420CA
:100A5200E6E520004D617820323520626F617264D4
:100A6200732E2E0020EEF7F12720353220EEF2E22F
:100A7200ECE9ED20004368616E67653F4E616D658C
:100A8200456E747200312D392D3E59657320302D1B
:100A92003E4E6F200020F9E5F0E43FE4EBF0F12058
:100AA200ECF9EEE5FA0020312D393D592DEBEF201E
:100AB200303D4E2DECE000456E7465722041707041
:100AC200206E756D627200456E746572204F6666A7
:100AD200696365204E6F00456E7465722054656EC1
:100AE200616E74204E6F007468656E20707265735B
:100AF200732042454C4C0020436F6E6E65637465F3
:100B0200642F696E6720200020E4F7F920EEF1F4EB
:100B1200F820E3E9F8E420200020E4F7F920EEF1E0
:100B2200F4F820EEF9F8E320200020E4F7F920EEB3
:100B3200F1F4F820E3E9E9F820200020E5ECE7F5FC
:100B420020F2EC20E4F4F2EEE5EF200020EEFAE7EA
:100B5200E1F82FEEE7E5E1F8212121200055736548
:100B6200642145726173652F4D6F76650020FAF43A
:100B7200E5F121212DF0F7E42FF2E1E5F800416CD7
:100B82006C726561647920696E204D454D004C6F31
:100B9200636174696F6E3A202F202020200020218B
:100BA20021F7E9E9ED20E1E6E9EBF8E5EF210020A4
:100BB2002020E1EEE9F7E5ED3A2020202F20200069
:100BC20054616773205174793A202020202020201C
:100BD200005573652042656C6C20546F43616C6CE8
:100BE200200020ECE7E9E5E220E4F7F920F4F2EE58
:100BF200E5EF00330020202020202020202020505C
:100C02005247002020202020466163746F727920B1
:100C12005265736574202020506C6561736520579E
:100C22006169740020202020204E616D652F54657B
:100C32006C2053746179202020506C6561736520AB
:100C42005761697400313233202020202020200097
:100C52003435362020202020202000323532353213
:100C6200352020202020202020202020003030008D
:100C72003035003032003939003330003430003141
:100C82003000303800303600323000202020202062
:100C920020E3E9F8E4203120202020002020202039
:100CA2002020E3E9F8E42032202020200020202028
:100CB200202020E3E9F8E420332020202000202017
:100CC200204150502E20232031202020202000209F
:100CD20020204150502E202320322020202020008E
:100CE2002020204150502E2023203320202020205D
:100CF200004E002D003700323530003230310030E6
:100D0200303030003030380030313200303136008F
:100D12003132303000313330300031363030003152
:100D22003730300031383030003139303000323134
:100D32000032320032330034350035370025007777
:100D42006169742E2E2E2020202020202020004F8A
:100D52007267616E697A696E67206E616D65004DBA
:100D620061792074616B6520666577202020002000
:100D72002020202020206D696E757465730020206C
:100D8200EEE0F8E2EF20F9EEE5FA20202020002044
:100D920020E0F0E020E4EEFAEF20202020202000E6
:100DA2002020E1F1E1ECF0E5FA20202020202020B3
:100DB2000000546865206C61746368202020202044
:100DC2002000546865206C61746368203220202002
:100DD2002000546865206C617463682031263220DB
:100DE20020002020F4FAE720E0FA20E4E3ECFA20E5
:100DF2002020002020F4FAE720E0FA20E4E3ECFAD5
:100E0200203220002020F4FAE720E0FA20E4E3EC8C
:100E1200FAE5FA2000202020576169742074696C79
:100E22006C202020200020E4EEFAEF20ECF1E9E52E
:100E3200ED2E2E2E202000427573792F204E4F204A
:100E4200416E73776572004D6F64656D436F6E6EB0
:100E5200656374696F6E0020E1FAF4E5F120E0E960
:100E6200EF20EEF2F0E4200020E1E4FAF7F9F8E5F1
:100E7200FA20EEE5E3ED2000557365206172726F92
:100E8200777320202020002048454C4F2E2E2E2004
:100E92002020746F20200020E3F4E3F320E1E7E94F
:100EA200F6E9ED2020202000202020202020F9EC4F
:100EB200E5ED202020202020002020202049732042
:100EC200756E6C6F636B65642000202020202020EB
:100ED20020202020202020202020002020456E6479
:100EE200206F662064656C6179202000202020201C
:100EF20020202020E4E4F9E4E9E420200048616EA7
:100F020067206279207573696E67202A2000446F1A
:100F1200204E6F7420546F7563682121210020F0E8
:100F2200FAF720E1EBE5EBE1E9FA20292A28002093
:100F3200F0E020ECE020ECE2F2FA20212121200076
:100F4200746F20736561726368206E616D652E0037
:100F520020ECE0E9FAE5F820E4E3E9E9F82FFA0009
:100F6200746F20636F6E6E65637420417070002031
:100F7200ECE4FAF7F9F8E5FA20ECE3E9F8E420000A
:100F820020ECE0E9FAE5F820E4EEF9F8E300636F1B
:100F92006E6E656374206F6666696365200020EC7F
:100FA200E4FAF7F9F8E5FA20ECEEF9F8E320007438
:100FB2006F207365617263682054656E616E7400A0
:100FC200636F6E746163742054656E616E74002089
:100FD200ECE0E9FAE5F820E3E9E9F8200020ECEE9C
:100FE200FAF7F9F8E5FA20ECE3E9E9F80050524F94
:100FF200472E204D454E55202D2020200020FAF46A
:10100200F8E9E820F8E0F9E9202D202000416363A7
:1010120065737320636F64657320200020F8F9E91B
:10102200EEFA20E4F7E5E3E9ED00436F6E666972DC
:101032006D20627920546F6E650020E0E9F9E5F8D1
:1010420020F9E9E7E420E1E8E5EF00536574526531
:1010520061642054696D6D6572730020E4F6E22FBD
:10106200F9F0E420E8E9E9EEF8E9ED00536574529D
:101072006561642044617954696D650020E4F6E29B
:101082002FF9F0E420E9E5ED2FF9F2E40052656D65
:101092006F74652054454C20546F6E650020E8E55E
:1010A200EF20F4FAE9E7E420EEF8E7E5F700236F32
:1010B200662072696E672F616E737765720020EE2B
:1010C200F120F6ECF6E5ECE9ED2DEEF2F0E4004568
:1010D2006E74657220427573792043616C6C2000D6
:1010E20020F0FAE5EF20F6ECF6E5EC20FAF4E5F173
:1010F2000054656C6570686F6E65204E6F2E3120EE
:101102000020EEF1F4F8E920E8ECF4E5EF203120DC
:101112000054656C6570686F6E65204E6F2E3220CC
:101122000020EEF1F4F8E920E8ECF4E5EF203220BB
:101132000054656C6570686F6E65204E6F2E3320AB
:101142000020EEF1F4F8E920E8ECF4E5EF2033209A
:101152000054656C6570686F6E65204E6F2E34208A
:101162000020EEF1F4F8E920E8ECF4E5EF20342079
:101172000054656C6570686F6E65204E6F2E352069
:101182000020EEF1F4F8E920E8ECF4E5EF20352058
:101192000054656C6570686F6E65204E6F2E362048
:1011A2000020EEF1F4F8E920E8ECF4E5EF20362037
:1011B20000537065656368204C6576656C2000207D
:1011C200F2E5F6EEFA20E3E9E1E5F82000274641F0
:1011D2005354272073772E2053746570200020F714
:1011E200F6E120F7E9E3E5ED20EEE4E9F8004D61F0
:1011F2007374657220636F6465002020F7E5E32055
:10120200E8EBF0E0E920005573657220636F6465D6
:10121200002020F7E5E320ECF7E5E720002020207E
:101222002054656E616E747320202020200020F906
:10123200EEE5FA20E4E3E9E9F8E9ED200043726F14
:10124200737320746F2041706172740020E4F6ECB5
:10125200E1E420ECF4E920E3E9F8E5FA0053572051
:10126200626F61726420457874656E640020EEF2EC
:10127200E2EC20E4F8E7E1FA20EEF4F1F700507234
:101282007879204C65726E204D6F6465310020EBD9
:10129200F8E8E9F1E920F7E9F8E1E42031005072D9
:1012A2007879202D20696E206F726465720020E4C7
:1012B200FAE2E9ED20E0E5F8E2F0E52121005072E2
:1012C2007879204C65726E204D6F6465320020EB98
:1012D200F8E8E9F1E920F7E9F8E1E42032005365A2
:1012E2007420466C6F6F722056616C756520002009
:1012F200F7E1F220F2F8EA20ECF7E5EEE420004311
:1013020068616E676520416C6C56616C7565002082
:10131200F9E9F0E5E920F2F8EBE9ED2021212100DD
:101322004D657373616765204F6E2F4F66662000AF
:1013320020E4F4F2EC2FEBE1E420E4E5E3F2E40054
:101342005965732F4E6F20416E737761726520006D
:1013520020FAF9E5E1E5FA20EBEF20E5ECE02000E8
:1013620052656C61797320636F6E74726F6C2000CA
:1013720020F9ECE9E8E420E1EEEEF1F8E9ED2000F5
:1013820053656C20547970652F4E756D72696300D8
:1013920020E1E7F820F1E5E22FEEF1F4F8E9004E62
:1013A200657720417070204E756D72696320002050
:1013B200EEF1F4E5F820E7E3F920ECE3E9F8E400E4
:1013C20053657276696365204D656E752000202035
:1013D200FAF4F8E9E820F9F8E5FA20202000546947
:1013E2006D696E6773202873656329200020E6EE1D
:1013F200F0E9ED2029F9F0E9E5FA2820004C434410
:101402002046616D696C79204E6F2E200020F9E92B
:10141200E5EA20EEF9F4E7FAE92044434C00436F91
:101422006D6D205370656564200020EEE4E9F8E5F7
:10143200FA20FAF7F9E5F8FA2020005479706520CD
:101442002F4164642076616C7565200020F1E5E22D
:10145200202F20F2F8EA20EEE5F1F3200053657424
:10146200204C636446616D696C7920230020F7E1AA
:10147200F220F9E9E5EA20EEF9F4E7FAE90053652A
:101482007420436F6D6D2053706565640020F7E131
:10149200F220EEE4E9F8E5FA20F7F9F82000436FCC
:1014A2006E6669726D20746F6E652069730020E844
:1014B200E5EF20E0E9F9E5F820E4E5E03A20007202
:1014C200656D6F746520636F64652069733A0020EF
:1014D200F7E5E320F4FAE9E7E420EEF8E7E5F700C0
:1014E20023206F662052696E6773546F416E7300DA
:1014F20020EEF120F6ECF6E5EC20ECEEF2F0E43A28
:10150200004275737920746F6E652054797065316D
:101512000020202020FAF4E5F120F1E5E22031203C
:1015220020004275737920746F6E6520547970655E
:10153200320020202020FAF4E5F120F1E5E2203209
:101542002020004275737920746F6E652056616C9D
:101552002E200020202020FAF4E5F120F2E5F6EE1C
:10156200E42020004275737920746F6E6520467204
:10157200657120002020202020FAF4E5F120FAE312
:10158200F82020200043616C6C206C6F772046723B
:10159200657120200020F6ECF6E5EC20FAE3F82055
:1015A200FAE7FAE5EF0043616C6C2068696768202E
:1015B20046726571200020F6ECF6E5EC20FAE3F8BD
:1015C20020F2ECE9E5EF00427265616B206F6E205C
:1015D20063616C6C20200020E4F4F1F7E420E1E97F
:1015E200EF20F6ECF6E5EC0043616C6C7320746F4F
:1015F200207061737320200020EEF12720F6ECF6B4
:10160200E5EC20ECEEF2E1F8004E6F206F6620620E
:10161200757373792074696C0020EEF12720F4F25F
:10162200EEE9ED20ECFAF4E5F1006170702E206E27
:10163200756D626572230020E3E9F8E420EEF1F4AF
:10164200F8202300456E74657220636F6465202361
:101652000020E4EBF0F120F7E5E32300312D456EA5
:101662007465722054656C230020312DE4EBF0F197
:1016720020E8EC27202300322D456E746572205439
:10168200656C230020322DE4EBF0F120E8EC2720FA
:101692002300332D456E7465722054656C2300203F
:1016A200332DE4EBF0F120E8EC27202300342D4524
:1016B2006E7465722054656C230020342DE4EBF0C7
:1016C200F120E8EC27202300352D456E7465722049
:1016D20054656C230020352DE4EBF0F120E8EC2773
:1016E200202300362D456E7465722054656C2300EC
:1016F20020362DE4EBF0F120E8EC27202300456EA4
:1017020074657220496E666F20230020E4EBF0F1CD
:1017120020F0FAE5F0E9ED23004C6561726E20508D
:1017220072787931230020ECEEE320F7E9F8E1E466
:10173200203123004C6561726E2050727879322319
:101742000020ECEEE320F7E9F8E1E4203223005434
:1017520068697320666C6F6F7220230020F7E5EED4
:10176200E420E6E5202D3C20230052656C617931AE
:10177200207570746F204170700020EEEEF1F82039
:101782003120F2E320E3E9F8E4200052656C61794C
:10179200322066726F6D204170700020EEEEF1F81B
:1017A200203220EEE3E9F8E42000536574207370E0
:1017B20065656368204C65766C0020F7E1F220F2E3
:1017C200E5F6EEFA20E3E9E1E5F800536574202737
:1017D2004641535427205374657020002020F7E1BE
:1017E200F220F7F6E120F7E9E3E5ED005365742016
:1017F2006D617374657220636F64650020E4EBF0C1
:10180200F120F7E5E320E2E9F9E42000456E746592
:101812007220626F617264205174790020E4EBF0EF
:10182200F120EBEEE5FA20EEF2E2EC2700446179DA
:1018320020262054696D65206172653A0020E4E932
:10184200E5ED20E5E4F9F2E420E4ED3A0054696DB7
:10185200657231284449414C29204461790020E8CD
:10186200E9EEF83120E7E9E5E22DE9EEE9ED005491
:10187200696D65724E302E3120537461727400208E
:10188200E8E9E9EEF8203120202D20E4FAE7EC0027
:1018920054696D65724E302E312053746F70002082
:1018A200E8E9E9EEF82031202D20F1E9E9ED200008
:1018B20054696D657232284449414C29204461794A
:1018C2000020E8E9EEF83220E7E9E5E22DE9EEE969
:1018D200ED0054696D65724E302E32205374617280
:1018E200740020E8E9E9EEF8203220202D20E4FA05
:1018F200E7EC0054696D65724E302E322053746FDE
:10190200700020E8E9E9EEF82032202D20F1E9E923
:10191200ED200054696D65723328524C59312920EB
:101922004461790020E8E9EEF83320524C59312D18
:10193200E9EEE9ED0054696D65724E302E332053A5
:10194200746172740020E8E9E9EEF8203320202D5A
:1019520020E4FAE7EC0054696D65724E302E3320B4
:1019620053746F700020E8E9E9EEF82033202D204F
:10197200F1E9E9ED200054696D65723428524C5941
:101982003229204461790020E8E9EEF83420524CF3
:1019920059322DE9EEE9ED0054696D65724E302E33
:1019A200342053746172740020E8E9E9EEF82034BF
:1019B20020202D20E4FAE7EC0054696D65724E3068
:1019C2002E342053746F700020E8E9E9EEF82034D9
:1019D200202D20F1E9E9ED20004572656173652053
:1019E200414C4C636F6465200020EEE7F720EBEC7E
:1019F20020E4F7E5E3E9ED202000457261736520FC
:101A0200616C6C2050727879310020EEE7F720EBA0
:101A1200EC20F7E9F8E1E4203120005072787954A3
:101A2200616773204572617365640020E4FAE2E93C
:101A3200ED20F0EEE7F7E5202121004572617365A4
:101A420020616C6C2050727879320020EEE7F7202A
:101A5200EBEC20F7E9F8E1E420322000444546208F
:101A62004E616D652F54454C204E4300204645443F
:101A7200F9E5EEF820E8EC20F9EEE5FA00526563AC
:101A8200206461746146726F6D2053440020EEF74A
:101A9200E1EC204154414420EEE42D4453005365CF
:101AA2006E64204461746120746F2044530020F9F5
:101AB200E5ECE7204154414420EC202D44530045FD
:101AC2006E747279206D6573736167653E232000C1
:101AD20020F4FAE9E720E1F2E6F8FA2023200053A5
:101AE20074616765206D657373616765200020E42A
:101AF200E5E3F2FA20F7E5EEE4202000436C6F7391
:101B02006520646F6F72204D65732E200020E4E51E
:101B1200E3F2FA20F1E2E5F820E3ECFA20004E616C
:101B22006D652020416E6E6F756E6365202000200A
:101B3200ECE4F7F8E9E020F9EEE5FA202000446F42
:101B42006F7220666F726765744D455320200020C6
:101B520020F9E9EBE7FA20E3ECFA202020005765B0
:101B62006C636F6D652062792044657420200020CB
:101B7200F4FAE9E720EEE2ECE0E9202020005269E5
:101B82006E67696E67204D65732E2020200020E469
:101B9200E5E3F2FA20F6ECF6E5EC202020004F70A7
:101BA200656E20646F6F72204D657320200020E403
:101BB200E5E3F2FA20F4FAE720E3ECFA20004170C0
:101BC200703D30204F66666963653D31200020E339
:101BD200E9F8E43D3020EEF9F8E33D3120004465B8
:101BE200742041637469766520422E4C200020E205
:101BF200ECE0E920ECFAE0E5F8E420E0E72E005022
:101C0200726F78792031202D3E526C79203120007C
:101C120020F7E9F8E1E4312D3C20EEEEF1F8312035
:101C22000050726F78792031202D3E526C7920322B
:101C3200200020F7E9F8E1E4312D3C20EEEEF1F846
:101C420032200050726F78792032202D3E526C790A
:101C52002031200020F7E9F8E1E4322D3C20EEEEBD
:101C6200F1F831200050726F78792032202D3E52E7
:101C72006C792032200020F7E9F8E1E4322D3C2093
:101C8200EEEEF1F832200050726F78792B50696EC7
:101C920020436F6465200020E4F4F2ECE420F7E9CD
:101CA200F8E1E42BF7E5E3004170704E616D6520C9
:101CB200627920412D4220200020F9EEE5FA20EC45
:101CC200F4E920E02DE12020200045787472726E44
:101CD200616C2050726F787920200020F7E9F8E1DA
:101CE200E420E7E9F6E5F0E9202000456C65766539
:101CF200746F7220426F61726420200020F4E9F751
:101D0200E5E320EEF2ECE9E5FA2020005265616C91
:101D1200542E432E20757365656420200020F9E956
:101D2200EEE5F920E1F9F2E5EF2020200053686F9B
:101D3200772074656C20646174612020200020E4A7
:101D4200F6E220F0FAE5F0E920E8EC272020004254
:101D520065657020696E20756E6C6F636B20200064
:101D620020E1E6F820E1F4FAE9E7FA20E3ECFA20D0
:101D7200006E6F206170702F6F6666696365202048
:101D8200200020ECECE020E3E9F8E42FEEF9F8E3A0
:101D92002000446972656374204469616C4D6F640C
:101DA2006520002020EEF6E120E7E9E5E220E9F9EE
:101DB200E9F82000202046756C6C206D656E752058
:101DC20020202000202020FAF4F8E9E820EEECE0C0
:101DD20020202020002053657420757365722063D3
:101DE2006F64650020E4EBF0F120F7E5E320ECF707
:101DF200E5E720005365744E616D65230020E4EB36
:101E0200F0F120F9ED230043726F7373546F204198
:101E12007070230020E4F6ECE1E420ECE3E9F8E45E
:101E2200230044656C61792054696D65202020008F
:101E32002020E6EEEF20E4EEFAF0E42000446F6F9B
:101E420072204F70656E696E67200020E6EEEF200B
:101E5200F4FAE9E7FA20E3ECFA200052656C6179C2
:101E62003220446C792074696D650020E62E20E4EE
:101E7200F9E4E9E420EEEEF1F820320052656C61FB
:101E82007932204F706E2074696D650020E62E2035
:101E9200F4FAE9E7E420EEEEF1F8203200496C6C46
:101EA200756D696E6174696F6E2020002020E6EE08
:101EB200EF20FAE0E5F8E4200052696E67696E6788
:101EC2002054696D652020200020E6EEEF20E4F624
:101ED200E2FA20E3E9E9F820004E657874204469CB
:101EE200616C2054696D6520002020E6EEEF20EC45
:101EF200E7E9E5E220E4E1E0200050696E2B2050A2
:101F0200726F78792074696D65200020E62EEEF6F6
:101F1200E120F7E5E32BF7E9F8E1E400446F6F72A3
:101F220020666F726765743E4D6573200020F9E983
:101F3200EBE7FA20E3ECFA2DE4E5E3F2E400446592
:101F4200743E77656C6C636F6D204D657320002065
:101F5200E62E20EEE2E9ECE5E920ECF4FAE9E7000E
:101F6200542E746F206E616D6520616E6E6F7520E8
:101F72000020E6EEEF20ECE4E5E3F2FA20F9EEE5EC
:101F8200FA00542E746F20666C6F6F72204D657369
:101F92002E200020E6EEEF20ECE4E5E3F2FA20F753
:101FA200E5EEE400542E746F20646973702E206C89
:101FB200697374200020E6EEEF20ECE4F6E2FA20EA
:101FC200F8F9E9EEE4005570546F446973702073B8
:101FD200656C656374002020F2E320ECE4F6E2FA1B
:101FE20020F0E1E7F800546F446973702053656C88
:101FF20065637465640020E6EEEF20E4F6E2FA2001
:10200200F0E1E7F8200074616C6B2074696D652063
:1020120078313053270020E6EEEF20E3E9E1E5F8DE
:1020220020783031F9270042737579202D6E6F7454
:1020320020757365640020E6EEEF20FAF4E5F12DD9
:1020420020F2FAE9E3E900436F6E6669726D2D4E84
:102052006F74207573650020E6EEEF20E0E9F9E584
:10206200F82DF2FAE9E3E90041545345323D3032AA
:102072005345333D30305345343D31325346343D80
:1020820034620D0041545346343D30620D004154D8
:102092005346343D34620D00415441300D004154E9
:1020A20044540041540D00415445300D0041540048
:1020B2005346353D30300D005346363D30300D002D
:1020C2005346373D30300D005336323D30300D002F
:1020D20041545345343D30325345323D30325346FC
:1020E200343D30330D0041544D320D0041545330D4
:1020F200373D3036410D00003535414136364242DA
:1021020043430046525F4449534B5F455252004697
:10211200525F494E545F4552520046525F4E4F54F1
:102122005F52454144590046525F4E4F5F46494C0B
:10213200450046525F4E4F5F504154480046525F41
:10214200494E56414C49445F4E414D450046525F0F
:1021520044454E4945440046525F45584953540050
:1021620046525F494E56414C49445F4F424A4543AD
:10217200540046525F57524954455F50524F54459E
:10218200435445440046525F494E56414C49445FD0
:1021920044524956450046525F4E4F545F454E41A8
:1021A200424C45440046525F4E4F5F46494C4553B0
:1021B200595354454D0046525F4D4B46535F414281
:1021C2004F525445440046525F54494D454F555471
:1021D200004552524F523A005344204F4B3A20008E
:1021E2005344204552524F523A20002C004C6F6704
:1021F2006963616C20647269766520303A206D6F84
:10220200756E746564204F4B0D0A0044415441348D
:102212004B0046494E4420545259003400545259FE
:1022220034003300545259330032005452593200B0
:10223200310054525931003000545259300046494D
:102242004C45204558495354530046494C45204E6D
:102252004F542045584953540046494E4420424168
:10226200434B55500046494E442055504441544535
:102272000055504241434B555000444F4E45004695
:10228200696C652044415441344B206F70656E6522
:1022920064204F4B0D0A0052656164204441544151
:1022A200344B204F4B0D0A0057726974652044412C
:1022B2005441344B204F4B0D0A0046696C65205542
:1022C2005044415445206F70656E6564204F4B0D3C
:1022D2000A00577269746520555044415445204F95
:1022E2004B0D0A0054525935004E414D4531004EB6
:1022F200414D4532005453542055504441544520D9
:1023020056313500526573756C743A0020202020D6
:10231200004641494C002052454E414D450054650E
:10232200737420646F6E652E000080C001002D4E14
:10233200414E00494E4600000200020040010900E1
:102342000005BD0109000905C6010100120546018B
:1023520009001305BD0101001C05460109001D0508
:10236200C60111002605A20211003705A2021100C2
:102372004805A20211005905A20211006A05A20233
:1023820007007B05D3210100820504211E0083057D
:10239200EF210100A10504210100A205042107008B
:1023A200A3050D221E00AA05EF210100C805042184
:1023B2000100C90504210500CA051F220100CF053D
:1023C20004210500D00526220100D50504210500BF
:1023D200D6052D220100DB0504210500DC0534228F
:1023E2000100E10504210500E2053B220100E705A9
:1023F20004210700E80560220100EF05042107001F
:10240200F0056C220700F70560220900FE05732221
:10241200070007066C2207000E0660220900150657
:10242200732207001E066C220400250619220500ED
:1024320029067C221E002E06EF2101004C060421F3
:102442001E004D06EF2101006B06042107006C06F9
:102452000D2218007306812201008B06042111004F
:102462008C06992201009D0604211E009E06EF2182
:102472000100BC0604210700BD060D221800C40697
:1024820081220100DC0604211200DD06AA220100DD
:10249200EF0604211E00F006EF2101000E070421C1
:1024A20007000F076C2218001607BC2201002E0736
:1024B200042112002F07D4220100410704211E002B
:1024C2004207EF2101006007042101006107042196
:1024D2001E006207EF21010080070421010081072D
:1024E2000421050082077C2205008707E6220600F8
:1024F2008C07EB2206009207F1220200D80F2C2350
:102502000100DF0F2E230000F894EE27ECBBF1E070
:10251200F5BFE5BFE0936C00F8E1F1BDE1BD8DE0F0
:10252200A2E0BB27ED938A95E9F780E090E1A0E075
:10253200B1E0ED930197E9F7EAE3F3E28591959132
:10254200009761F0A591B59105901590BF01F0013A
:1025520005900D920197E1F7FB01F0CF8BBFEFEFF2
:10256200EDBFE0E1EEBFC0E0D5E00C94B812A09759
:10257200E0E0E093B207EFE1E1BDEFE0E1BDE8E4C6
:10258200EBBBE9E5EABBE8E0E8BBE7E0E7BBE0E09C
:10259200E5BBEFEFE4BBE0E8E2BBE1E6E1BBE6E08E
:1025A200E3B9EEEFE2B9E0E1E0936200E0E9E09343
:1025B2006100ECE1E0936500E7E0E0936400E6E0AF
:1025C200E3BFE0E0E0BFEBE4E2BFE0E0E1BFEFBD8C
:1025D200EEBDEDBDECBDE1E0EBBDEFE3EABDE0E059
:1025E200E9BDE8BDE0937900E0937800E4BDECE951
:1025F200E3BDECE0E5BDE3E4E0938B00E0E0E093D3
:102602008A00E0938900E0938800E0938700E093DA
:102612008600E0938500E0938400E0938300E093DA
:102622008200E0936A00EABFE9BFE7B7E469E7BF67
:10263200E0E0E0937D00E2E0EBB9E8E5EAB9EEE044
:10264200E0939500E0E0E0939000E1E8E9B90E94B0
:10265200098DE6E0E0939D00E2E0E0939800E5EB6F
:10266200E0939900E0E0E0939B00E0939A00E0930E
:102672009D00E0939900E0939800E0E8E8B9E0E07B
:10268200E0BD7894A0E10E94AC8C0E945C8CA2E434
:10269200B1E00E94998CA7E4B1E00E94998CA5E474
:1026A200B1E00E94998CAEE4B1E00E94108D0E94CC
:1026B200E17D1E2FE03009F0FBC00E945C8CA2E598
:1026C200B1E00E94108DE0E0F0E160E070E00E9475
:1026D200B2A2A0E20E94AA7F1E2FE03009F0E7C05A
:1026E2000E945C8CACE5B1E00E94108D0E94168DB8
:1026F200A7E4B1E00E941A8DA5E6B1E00E941D8D0B
:10270200AEE4B1E00E941D8DAAE6B1E00E941D8DEB
:102712000E94208D0E942D8DADE6B1E00E941A8D9F
:10272200EFE0F0E060E070E00E94308DADE7B1E0F4
:102732000E941A8DEEE1F0E060E070E00E94308DC0
:10274200EEE1F0E060E070E00E94398D0E94F07EE0
:102752001E2FE030C9F4A881A73719F4AC85AB3637
:1027620009F005C00E94168DADE8B1E004C00E94D8
:10277200168DADE9B1E00E94F98B0E94168D0E9480
:10278200428D0E94297F0AC00E94168DADEAB1E0F7
:102792000E941A8D0E94428D0E94297FE0E0F5E09E
:1027A200FA93EA93A9E0B5E00E948B7FE03059F0FA
:1027B2000E945C8CAFECB1E00E94108D0E94168DDD
:1027C200ADEDB1E00AC00E945C8CADEEB1E00E94BA
:1027D200108D0E94168DA7EFB1E00E94F98B0E9426
:1027E200168DECE3F0E060E070E00E94398D0E940B
:1027F200297FE2E1F5E0FA93EA93E3E1F5E00E9452
:10280200478D49F4ECE1F5E0FA93EA93EDE1F5E066
:102812000E94478D09F405C00E945C8CA7E0B2E0DB
:1028220004C00E945C8CA7E1B2E00E94998C0E94D5
:102832004E8D0E94FE7D1E2F103029F40E94168DAF
:10284200A7E2B2E004C00E94168DA7E3B2E00E94A4
:10285200F98B0E94168DEBE4F0E060E070E00E94DC
:10286200398D0E94297F103011F50E94168DA7E440
:10287200B2E00E941A8D0E94208D0E94597F1E2F65
:10288200E03029F00E94168DA7E5B2E004C00E9454
:10289200168DA8E6B2E00E94F98B0E94168DEAE539
:1028A200F0E060E070E00E94398D0E94297F06C04E
:1028B2000E945C8CA9E7B2E00E94108D0E94C9665A
:1028C2000E942E750E94528DE0E1E0939F070E94C4
:1028D2009B62689422F8E89421F820F8E3EBE093F5
:1028E200C90B0E940D5AE1E0F0E0E093BE0CF093B8
:1028F200BF0CE3EBE093C90BE7B7EE7FE7BF0E94A3
:102902003422E1E0E093F70BEFEFE093D50BE8E33D
:10291200F0E0E093BC0CF093BD0C689422F8919A1D
:10292200E0E0E093340CC19AE4E0E093750CE1E05E
:10293200F0E0E093E00CF093E10C0E940E64E0E022
:10294200E093B207879907C000000000879903C08F
:10295200E1E0E093B207A89AE4B7E77041F00E9481
:10296200598DE5E0E0939A0D0E941B5A02C0E3E301
:10297200BE2EE0E0E4BFE093160DE093170DE09366
:10298200520DE093530DE093490C0E945F8DE0E0FD
:10299200E093990D0E945F422197A895E091980DCE
:1029A200E03001F1E150E093980DA091980DA5302F
:1029B200C9F40E94658D0E946D8DE091A007EF70B1
:1029C200E0935A0C0E94728DE6E00E947C8DE091A9
:1029D2005A0CA3E0EA9FF001E15F0E94848DE0912E
:1029E200940AECB9E091790DE03019F0E150E093EE
:1029F200790DE0919807E03019F0E150E0939807E3
:102A0200E091E50BE03011F41A9A01C01A98A091F6
:102A1200E50BA13061F40E94908DAC3DE5E0BE076C
:102A220018F40E94958D02C00E949D8D08C00E94DC
:102A3200908DA03DE7E0BE0710F40E94958DE091D5
:102A42007D0DE03019F0E150E0937D0DE091BA0B7D
:102A5200F091BB0B3097B9F0AAEBBBE00E94A38DBB
:102A6200E091BA0BF091BB0B309721F4E0917D0C11
:102A7200E03009F408C00E94A98DA091B507E2E0F8
:102A8200EA27E093B507A2E2BDE00E94B08DE09193
:102A92005A0DF0915B0D309711F00000F8CFA09124
:102AA200220DB091230D1C9708F4A5C0E0E0E0933D
:102AB200220DE093230D0E94B68D3A970E94BB8DA2
:102AC200EA17FB0740F40E94B68D3A960E94BB8D2E
:102AD200AE17BF0708F00CC0A0912A0DB0912B0DC4
:102AE200AF3FE0E0BE0720F4AAE2BDE00E94B08D55
:102AF200E091320DF091330D0E94BB8DEA17FB0776
:102B0200A0F4E091340DF091350D0E94BB8DAE170B
:102B1200BF0758F4E091320DF091330DA091340DBE
:102B2200B091350DEA17FB0708F039C0A091240DCA
:102B3200B091250DAF3FE0E0BE0720F4A4E2BDE076
:102B42000E94B08DE091360DF091370D0E94C08D3C
:102B5200EA17FB0730F40E94C08DAA3FE0E0BE07EF
:102B620008F006C0E091260DF091270D309709F488
:102B72000CC0A091280DB091290DAF3FE0E0BE0737
:102B820020F4A8E2BDE00E94B08D0E94C58DE093C2
:102B92002C0DE0932D0DE0E00E94CB8D2AC0A09178
:102BA2002A0DB0912B0D149710F00E94D08DE0E009
:102BB200E0932A0DE0932B0DA091240DB091250DE9
:102BC200149730F0E1E0F0E0E093260DF093270D4A
:102BD2000E94D78D0E94BB8D159730F40E94C08D44
:102BE200AF3FE0E0BE0708F004C0A8E0BDE00E94ED
:102BF200B08D0E94DD8D0E94E38D309721F4E0912B
:102C0200760DE03011F0DB9801C0DB9AA091B90992
:102C1200AA3010F40E94027A0E943A780E94B68D7D
:102C2200309711F40E94D08DE091500DF091510D2A
:102C3200A091960CB091970CEA17FB0738F0A0917F
:102C42008A0CB0918B0CEA17FB0720F4E091C109C2
:102C5200E030A1F0E091DE0CF091DF0C309771F4DE
:102C6200E091380DF091390DA091280DB091290D08
:102C7200AE17BF0710F0309709F4E6C00E94E88D46
:102C8200E091DA0CF091DB0C309769F00E94EE8D46
:102C920050F40E94F48D31F4E091DE0CF091DF0CDF
:102CA200309709F001C0B6C0ACEDBCE00E94B08D17
:102CB200E0E0E093DE0CE093DF0C0E94FA8D0E94CC
:102CC200008E0E94EE8D09F040C0E091140DE1707B
:102CD20019F0ECE5F7ED02C0EAE6FBEAE0939C07A7
:102CE200F0939D07EFE0E0939F070E94068EA332C8
:102CF20020F0A091A007A73608F014C00E940D8E04
:102D0200309711F00E94128E0E94188E11F00E94CC
:102D12001E8E0E940D8E309711F00E942C8E0E9402
:102D2200328E13C00E940D8E309711F00E94128EC7
:102D32000E94188E11F00E943C8E0E940D8E3097D8
:102D420011F00E942C8E0E94428EA091DC0CB09158
:102D5200DD0C119709F05EC0E091140DE17019F0DD
:102D6200E6EBF8EC02C0E4ECFCE9E0939C07F0939C
:102D72009D07EFE0E0939F070E94068EA03209F0C4
:102D820045C0ACEDBCE00E94B08DE091140DE17045
:102D920019F0ECE5F7ED02C0EAE6FBEAE0939C07E6
:102DA200F0939D07EFE0E0939F070E94068EA33207
:102DB20020F0A091A007A73608F014C00E940D8E43
:102DC200309711F00E94128E0E94188E11F00E940C
:102DD2001E8E0E940D8E309711F00E942C8E0E9442
:102DE200328E13C00E940D8E309711F00E94128E07
:102DF2000E94188E11F00E943C8E0E940D8E309718
:102E020011F00E942C8E0E94428E04C0E2E0F0E09B
:102E12000E94498EE1E0E093080C0E944E8E0E94CF
:102E2200578E0E946D8E0E94738E0E94798EE0E012
:102E3200E093420DE093430DE093440DE093450D82
:102E4200E093460DE093470DE091CC0CF091CD0C50
:102E5200309711F0C99B01C008C00E947F8EE0E04C
:102E6200E093CC0CE093CD0C04C0C99902C00E943F
:102E72007F8EC99B0AC0E091CE0CF091CF0C3097A7
:102E820021F0E091BE09E03009F4F4C1ACECBCE001
:102E92000E94B08DE0916200EF77E0936200A09112
:102EA200CC0CB091CD0C1B9708F4E4C1DE98E0E0A5
:102EB200E093CE0CE093CF0CA091CA0CB091CB0C56
:102EC200129730F0E093CA0CE093CB0C0E94858EEF
:102ED2000E94918EE0B1EF70F0E0ED93FC93E091EF
:102EE2000F0CF091100C309779F0A091B20CB091C8
:102EF200B30C0E940D8EEA1BFB0BA0910F0CB0913C
:102F0200100CAE17BF0708F01DC0A091D80CB091ED
:102F1200D90C9D9759F00E94918E0E9496A2A09181
:102F2200D80CB091D90CEA17FB0761F4E0E0E0930A
:102F32000F0CE093100C0E94008E0E949C8EA3E066
:102F42000E946463A091840DB091850D9D9741F418
:102F52000E94918E0E9496A2E0938C0DF0938D0DAB
:102F6200E091860DF091870DED32A0E0FA0741F471
:102F72000E94918E0E9496A2E0938A0DF0938B0D8F
:102F82000E94918E0E9496A2ED30A0E0FA0729F4E9
:102F9200A0EDBCE00E94B08D02C00E94798E0E941A
:102FA200918E0E9496A2EE30A0E0FA0729F4A2E4E4
:102FB200BDE00E94B08D05C0E0E0E093420DE093D9
:102FC200430D0E94918E0E9496A2EF30A0E0FA0774
:102FD20029F4A4E4BDE00E94B08D05C0E0E0E093D6
:102FE200440DE093450D0E94918E0E9496A2309767
:102FF20029F4A6E4BDE00E94B08D05C0E0E0E093B4
:10300200460DE093470DA091D00CB091D10C1297D0
:1030120090F4A091420DB091430D129760F4A091EB
:10302200440DB091450D129730F4A091460DB09128
:10303200470D1297C0F1A091D00CB091D10C12970C
:1030420018F0E1E0F0E01AC0A091420DB091430DFA
:10305200129718F0E2E0F0E011C0A091440DB09197
:10306200450D129718F0E3E0F0E008C0A091460D7C
:10307200B091470D129730F0E4E0F0E0E093B60C27
:10308200F093B70C0E94A28E19F0A2E00E94646332
:103092000E94A88E0E94798EE2E0E0932C0C0E949E
:1030A200AF8E0E94B68EE0E0E093D20CE093D30C98
:1030B200E0918A0DF0918B0DA091840DB091850D58
:1030C200EA17FB0731F4E1E0F0E0E093D20CF09371
:1030D200D30CA091860DB091870DE0918A0DF091ED
:1030E2008B0DEA17FB0731F4E2E0F0E0E093D20C3B
:1030F200F093D30C0E94B98E1A9731F00E94BE8EC3
:10310200EA30A0E0FA0771F40E94008E0E94FA8D64
:10311200E1E0E093080C0E94AF8E0E94C38EA2E011
:103122000E946463E091D20CF091D30C309709F4C1
:1031320080C0A091D20CB091D30C119771F5DD2013
:10314200D1F40E94C98E0E946D8DA091A007A03378
:1031520049F40E94C98E0E94D18E0E94D88E0E948C
:10316200D06608C00E94C98E0E94D18E0E94E28E53
:103172000E94DA660DC00E94EC8EE091760CE07837
:1031820019F0E2E9E093920D0E94C38E0E94F18E43
:103192000E94FA8D0E94008E39C0E0915F0CE030EF
:1031A200D1F40E94F88E0E946D8DA091A007A033E9
:1031B20049F40E94F88E0E94D18E0E94D88E0E94FD
:1031C200CA6608C00E94F88E0E94D18E0E94E28ECA
:1031D2000E94D46617C00E94CA66E0915F0CE09319
:1031E200650CE091760CE07819F0E2E9E093920D3B
:1031F2000E94C38EE0E0E0931B0CE093630CE1E0DD
:10320200E093660C0E94008E0E94FA8DE1E0E0934A
:10321200B407E1E0F0E0E093D40CF093D50CED2D8F
:10322200E95FF0E00E94008FE1E0E093080C0E9469
:10323200B68E0E94B98E1B9771F00E94B98E1C97B0
:1032420051F00E94BE8E3B9731F00E94BE8EEC3050
:10325200A0E0FA0721F40E94AF8E0E94B68EAAEC7B
:10326200BCE00E94B08DDE9AE2E3F0E0E093D60C7F
:10327200F093D70CC99906C0E1E0F0E0E093CE0CE0
:10328200F093CF0C0E94058F31F4E091D60CF091AF
:10329200D70C309729F0E0E0E093CE0CE093CF0C0E
:1032A200049B0AC0A0916E0CA23328F4E0916E0C2C
:1032B200EF5FE0936E0C07C0E0916E0CE03019F006
:1032C200E150E0936E0CA0916E0CA23318F0E1E095
:1032D200E0936F0CE0916E0CE03011F40E940B8FC2
:1032E200E0916F0CE03089F0E091E50BE03021F4E1
:1032F200E091760CE07109F408C0E091700CE030C6
:1033020021F4E091690CE093700C059B0AC0A09136
:103312006B0CA23328F4E0916B0CEF5FE0936B0C23
:1033220007C0E0916B0CE03019F0E150E0936B0CB8
:10333200A0916B0CA23328F0E0916C0CE160E09359
:103342006C0CE0916B0CE03029F4E0E0E0936C0C43
:10335200E0936D0CA0916C0CA13091F4E0916C0C97
:10336200E260E0936C0CE091E50BE03021F4E09137
:10337200760CE07209F404C0E091360CE0936D0C17
:10338200E091680CE27021F0E0916C0CE03009F4FD
:1033920005C0CC2019F0C092AF0BA89AE091BE09EB
:1033A200E03019F00E94777B0FC0E091520DF0914E
:1033B200530D309721F4E0916500E26003C0E09183
:1033C2006500ED7FE09365000E945D65E0914A0C27
:1033D200E03009F4BEC1E0E0E0934A0CCF9904C0AA
:1033E200A091760DA33208F007C00000CF9904C067
:1033F200E0E0E093760DDC98E091760DE03031F07C
:10340200E150E093760DE03009F4DC98E0919A0DFA
:10341200E03051F0E150E0939A0DE03029F4E09170
:103422006200E061E0936200E091E50BE03011F0B0
:103432000E945F8DA091720DAA3F28F4E091720D57
:10344200EF5FE093720DE0916300E87021F4E09188
:103452006300E07109F423C0A091720DAE31F0F067
:103462000E94118FA53010F0A0E001C0A7E00E94D9
:103472006463A091730DA63028F0EFE1E1BDE0E0B6
:10348200E1BDFFCFA091990DA33040F0E0E0E093C1
:10349200990D0E94598DE4E0E0939A0D19C0A09114
:1034A200720DA03FA8F00E94118FA03F28F0EFE11B
:1034B200E1BDE0E0E1BDFFCFA091990DA23040F067
:1034C200E0E0E093990D0E94598DE4E0E0939A0DBB
:1034D200E091BB07E03009F459C0A091BB07A330CB
:1034E20018F0E150E093BB07A091BB07A83209F0A6
:1034F2004DC0E0E0E093820DE093830DA091BC0704
:10350200A13019F4EBE4FCE202C0EBE2FBE5E0934C
:103512009C07F0939D070E94288FE0E0E093680DDE
:10352200A091680DA63020F50E942F8FA091BC07B4
:10353200AB3FD8F4DB98E1E0E093770DE0E0E8837D
:103542000E94CE63A091A707A03320F0A091A70705
:10355200A73408F004C0A2E8BDE00E94B08DE0915B
:10356200BC07EF5FE093BC07E1CF0E94368FD8CF54
:10357200E0E0E093680DEFE0E0937C0DE0E0E093A3
:10358200780DE0937B0DE5E0E093BB07E091950DAC
:10359200E03061F0E150E093950DE03039F4E091D4
:1035A200970DE03019F4EFE8E093920DA091960D9B
:1035B200A53118F0E4E1E093960DE091960DE0302C
:1035C20019F0E150E093960DE091710CE03009F4AE
:1035D2007DC0E150E093710CE03009F077C00E94A9
:1035E2003C8FE3E0E0939F07E1E0E883A881AD33FD
:1035F20008F060C00E94438FA03320F0A091A00782
:10360200AA3308F013C0A091A107A03320F0A09123
:10361200A107AA3308F00AC0A091A207A03320F0A4
:10362200A091A207AA3308F001C001C006C00E94FF
:10363200488FEA0FE093920D26C0A091A007A03315
:1036420010F0AA3308F00AC0A091A107A03320F01D
:10365200A091A107AA3308F001C001C005C00E94D1
:103662005A8FE093920D0FC0A091A007A03310F0E3
:10367200AA3308F006C0E091A007EF70E093920D24
:1036820002C0E1E4E883E091350CA091920DAE17FF
:1036920068F0E881E359E093920DA091920DAE3665
:1036A20019F4E6EAE093920DE1E4E883E881EF5F42
:1036B200E8839CCFA091920DAF3618F4E0E0E0933E
:1036C200920DE0E0E0931C0DE0931D0DE091920D50
:1036D200E03021F0E0915A0CE03009F416C0DC9A97
:1036E2000E94728DE3E00E947C8DE091920D0E9417
:1036F200848DE0E0E0934B0CE091940AECB9E0E0B9
:10370200E093920DE4E1E093760DE091C109E0309F
:1037120019F0E150E093C109E091520CE03031F030
:10372200E150E093520CE0E0E093720DA091B607F5
:10373200A23010F0A43108F005C0E091B607E150C4
:10374200E093B607A091B607AA3019F4E0E0E0933F
:10375200B607E091520CE03051F00E94668FA53F0F
:10376200E0E0BE0719F00E946B8F09F401C0BBC0F4
:10377200E0917D0DE03041F4A091460CA03320F0A1
:10378200A091460CA73408F0AEC0E091790DE0306C
:1037920009F0A9C00E94708F0E94CE63A091A70772
:1037A200A03320F0A091A707A73408F00CC0E5E0F1
:1037B200E0937B0DE0E0E093780D0E94778FE3E0E9
:1037C200E093790D55C0E1E0E093790DE0E0E093FC
:1037D200680DA091680DA63008F04AC00E942F8F94
:1037E200A091BC07AB3F08F040C0E1E0E093770D49
:1037F200E0E0E883DB980E94CE63A881A83020F441
:10380200E091770DE03009F404C0E091520CE03011
:1038120009F40FC0E8810E947D8FE8810E94828FA7
:10382200EA1719F0E0E0E093770DE881EF5FE883B3
:10383200E4CFE091770DE03091F0E091680DEF5F19
:10384200E093700DE091BC07E093710DEBEFE09314
:10385200BC07EAE0E093680DE2E0E093790DE091C5
:10386200BC07EF5FE093BC07BBCF0E94368FB1CF9E
:10387200A091790DA13009F50E94878F0E94572DE2
:10388200A5E00E946463EEE1E0937D0DE4E0E09345
:10389200B6070E94708F0E94918FA091B307AE1756
:1038A20020F4E091B307EF5F01C0E1E0E093B307DA
:1038B2000E94708F0E94CE6310C0A091790DA23039
:1038C20079F4E5E0E093780DE0E0E0937B0D0E946F
:1038D200778F0E94968F0E949B8FE0E0E093680DA5
:1038E200EAEFE093790DA091080CA13009F0D6C05F
:1038F200E2E0F0E0E0935E0DF0935F0DA091830CA7
:10390200A43009F062C0A091790CA43029F00E9481
:103912009F8FE093750D59C00E94A98F0E94B78FA7
:103922000E94C08FE1E0E883A881A031B0F50E9437
:10393200C68F19F40E94D68F10C0A091A207A032A0
:1039420021F40E945A8FF0E008C00E94D68F0E9494
:10395200DB8F0E94E08F0E94E58FE093270CF093AB
:10396200280C0E94E08FA436E0E0BE0720F0E3E6D8
:10397200F0E00E94DB8F0E94FA8F29F4E881E09345
:10398200750DE0E1E883A881AF3019F4E0E0E0933F
:10399200750DE881EF5FE883C7CF0E9401900E9416
:1039A20006900E940B90E093BF09E091750DE03004
:1039B20021F0A091750DA03118F00E949F8F01C0D7
:1039C200E3E6E093750D0E94C08F0E9417900E945B
:1039D2001F90309729F4A091830CA43009F05CC0A9
:1039E2000E942590A091830CA43021F4A091750D22
:1039F200A33609F01DC0E091FA0BEF70F0E0A8EEDB
:103A0200B3E00E9405A2BF01E091FB0BEF70A4E6B8
:103A1200EA9FF001F0E0E60FF71F0E942E900E944D
:103A22000B900E943390F0E0EA0FFB1F0E942E9051
:103A3200A091830CA33041F5E1E0E883A881AB3F7C
:103A420018F50E94C68F19F40E94D68F0CC0A0915F
:103A5200A207A03221F40E945A8FF0E004C00E9413
:103A6200D68F0E943890E093270CF093280C0E9486
:103A72003B9031F4E881F0E00E94DB8FEBEFE883CA
:103A8200E881EF5FE883DACFE091810CE0937C0C70
:103A9200E0E0E0937D0C02C00E944090E091630060
:103AA200E07129F4E3E3BE1608F4B39401C0BB2429
:103AB200E2E3EB1579F40E944690EAE00E94D18E8F
:103AC200A0E9B2E00E94F98B1A980E944990A5E001
:103AD2000E946463CA9906C0E091600DF091610D85
:103AE200309709F00AC0A091AE0BA23328F4E091FE
:103AF200AE0BEF5FE093AE0B13C0E091AE0BE03084
:103B020019F0E150E093AE0BE0E0E093600DE0933A
:103B1200610DE091AE0BE03019F4E0E0E093310C7E
:103B2200A091AE0BA23330F0E091310CE03011F4F1
:103B3200DD2009F01FC00E94C98E0E946D8DA091E8
:103B4200A007A03361F40E94C98E0E94D18E0E9408
:103B52004E90A2E00E9464630E94D06608C00E9458
:103B6200C98E0E94D18E0E94E28E0E94DA66E1E046
:103B7200E093310CA091AE0BA23330F0E091B30B85
:103B8200E03011F4DD2009F41CC0E091760CE078FD
:103B920019F0E2E9E093920D0E9455900E94EC8E9A
:103BA200E0E0E093720DE0931B0CED2DEF5FF0E08F
:103BB200E093600DF093610DE1E0E093B30BE093CD
:103BC200D90BE091B00BE03021F4E091B10BE03081
:103BD20009F42FC0E0E0E093B10BE093720DDD2019
:103BE200D1F40E94C98E0E946D8DA091A007A033CE
:103BF20049F40E94C98E0E94D18E0E94D88E0E94E2
:103C0200D06608C00E94C98E0E94D18E0E94E28EA8
:103C12000E94DA660BC0E091760CE07819F0E2E9D6
:103C2200E093920D0E94EC8E0E94F18EE1E0E0930F
:103C3200D90BE091640CE03021F4E091630CE030A8
:103C420009F437C0E0E0E093630CE093720DE09179
:103C52005F0CE030D1F40E94F88E0E946D8DA0912D
:103C6200A007A03349F40E94F88E0E94D18E0E94D0
:103C7200D88E0E94CA6608C00E94F88E0E94D18E19
:103C82000E94E28E0E94D46611C0E091760CE07828
:103C920019F0E2E9E093920DE0915F0CE093650C7C
:103CA2000E945F90E093660C0E94CA66E1E0E09396
:103CB200D90BE091B20BE03021F4E091B30BE0308C
:103CC20009F409C00E94DA66E0E0E093B30BE6E093
:103CD200E0937E0CC8D3E091650CE03021F4E091D2
:103CE200660CE03009F409C00E94D466E0E0E0937B
:103CF200660CE6E0E0937E0CB6D3882009F08824B7
:103D0200772009F0B3C0E4E17E2E0E941276E093A0
:103D1200D20B0E94649019F0E0E0E093D20BE091A4
:103D2200D20BE03079F0E0E0E093720DCC2019F094
:103D3200C092AF0BA89A0E946A9019F0E4EBE0934C
:103D42002C0C94C0E0913A0DF0913B0D309721F08C
:103D5200E091850CE03009F484C0E0913C0DF091D3
:103D62003D0D309731F4E0913A0DF0913B0D3097D3
:103D720009F464C00E9473901A9760F4E0913A0DBE
:103D8200E093FE0BE0913A0DE093FA0BE1E0E09351
:103D92007B0C3DC00E947390A436E0E0BE0780F425
:103DA2000E9473900E947890E093FE0B0E947390A1
:103DB2000E947D900E948290E2E0E0937B0C27C0FB
:103DC2000E947390A83CE0E0BE0718F50E94739031
:103DD2000E948D90E093FE0B0E9473900E9492903D
:103DE200E093FF0BA091FF0BEAE00E947EA2E0931A
:103DF200000CA091FF0BEAE00E9438A20E94829080
:103E0200E091000CE093FC0BE3E0E0937B0CE09389
:103E1200790C0E947390A83CE0E0BE0770F4E6E1E2
:103E2200E093D20BCC2019F0C092AF0BA89A0E945B
:103E32006A9019F0E4EBE0932C0C04C0AEE3BDE011
:103E42000E94B08DA0913E0DB0913F0DA837E0E0E9
:103E5200BE0730F00E949790E0933E0DE0933F0D35
:103E620005C0E0E0E0933E0DE0933F0D35FE12C049
:103E7200E091CD0BEF5FE093CD0BA091CD0BA4367B
:103E820018F0E0E0E093CD0BE0915C0CE03011F42F
:103E92000E942431E091C40CF091C50C309789F056
:103EA200A4ECBCE00E94A38DE091C40CF091C50C7F
:103EB200309739F40E949C90E0939C00A1E00E940C
:103EC2006463E091480DF091490D3097B1F1E1E062
:103ED200F0E0E0934A0DF0934B0DA091480DB091A4
:103EE200490DA237E0E0BE07B1F4E0E0E883A88123
:103EF200A03350F4B0E0A554B74FE881E05DEC93F5
:103F0200E881EF5FE883F3CFEDE0E093EB08E0E0D8
:103F1200E093EC080AC0E091480DE093BB08EDE0A5
:103F2200E093BC08E0E0E093BD08E0E00E94A390CB
:103F3200E0E0E093480DE093490DE091C60CF0916A
:103F4200C70C309709F445C0E0E0E093C60CE0935B
:103F5200C70C0E94649071F1A4EBBCE00E94A38D97
:103F62000E94649031F0E0915C0DF0915D0D30970C
:103F720009F1E0E0E0935C0DE0935D0DE093B60C97
:103F8200E093B70CE093C00CE093C10C0E94AA909E
:103F92000E944E8E0E94B1900E945F420E94DF6199
:103FA200E1E0F0E0E0935A0DF0935B0D0E94F679A8
:103FB2000E94B690A091B40CB091B50C109719F470
:103FC2000E94BC9009F405C0E0E0E093C00CE093CD
:103FD200C10CA091BC0CB091BD0CDD9740F0E0E0AB
:103FE200E093BC0CE093BD0CEFEFE093D50BE091B6
:103FF200E40BE03031F0E0E0E093E40BE1E0E09349
:10400200D90BE0912C0CE03021F4A091E50BA1300A
:1040120008F401C028D2E091960DE03021F0E0E0F2
:10402200E093B9090DC037FE04C0A091B909AA30C6
:1040320009F006C0E89437F8A091900D0E94637BC6
:10404200E091A60CF091A70C309711F00E94307805
:10405200A0912B0CA13220F0A091E50BA23008F424
:1040620007C0E0E0E0932B0C43D0E1E0E093D90BF2
:1040720027FEFECFE89427F821960C94CD14FFCFAB
:10408200E091E60BE03051F4E0916E0DE03011F476
:10409200EAD103C0E5E6E0936E0D29C0E1E0E093CA
:1040A200E50BE091E60BE150E093E60BF0E0E65120
:1040B200F44FE081E093E70B0E94668FE3E2F0E0C9
:1040C2000E9446A20E94C290E091E70BA091D00B01
:1040D200B091D10BF0E0AE1BBF0BA093CE0BB0930F
:1040E200CF0BE0E0E093B307E1E0E093D90B089552
:1040F200E091F20BE03091F00E94C790E081E093F2
:10410200F30BA091F30BAE3221F40E94C790A0E210
:1041120003C00E94C790AEE2A08305C00E94C79070
:10412200A091F30BA083A091F20BE1E0EA27E093C8
:10413200F20BE091520CE03039F00E94CE9019F06F
:104142000E946B8F09F401C009C0E091E50BE030D9
:1041520029F00E94C790A0917A0DA0830895E0E013
:10416200E0932B0C0E94D39039F40E94D890EAEF8E
:104172000E94DB900E94E1900E94EC9021F40E9448
:10418200F1900E94F4900E94FB9021F40E94009111
:104192000E94F4900E94039121F40E9408910E94CF
:1041A200F4900E940B9121F40E9410910E94F490CD
:1041B2000E94139121F40E9418910E94F4900E948F
:1041C2001B9121F40E9420910E94F4900E94668F1C
:1041D200A637E2E0BE0731F40E9423910E942691A5
:1041E2000E94E1900E942D9141F40E943291E1E0FF
:1041F200E093F50BE4E00E9435910E94389151F46E
:10420200E3EEFAE80E940690ECE0E093F50BE6E0BC
:104212000E9435910E943D9141F40E944291E2E058
:10422200E093F50BE3E00E9435910E94459141F441
:104232000E943C8FECE3E093F50BE3E00E943591A2
:104242000E94CE9049F40E944A910E94288F0E94B7
:10425200E190E0E0E093740D0E946B8F49F40E94BC
:104262004D910E94288F0E94E190E0E0E093740D4E
:104272000E94509139F4EDEDFAE80E940690E6E0D2
:104282000E9455910E94659129F40E946A91E8E08A
:104292000E9455910E946D9129F40E947291E0E171
:1042A2000E9455910E94759121F40E947A910E9478
:1042B20055910E947F9131F40E9484910E948791CE
:1042C2000E948E910E94999121F40E949E910E94D7
:1042D20055910E94A39161F4E9E1F6EE0E940690E5
:1042E200E1E0E093F50BE5E0E0939F070E948E91F9
:1042F2000E94A89151F40E94AD91ECE0E093F50B7D
:10430200E7E0E0939F070E948E910E94B09121F412
:104312000E94B5910E9455910E94668FA73CE1E0F0
:10432200BE0721F40E94658D0E9455910E94668FFE
:10433200A43AE1E0BE0721F40E94BA910E9455918D
:104342000E94668FA936E0E0BE0739F40E944690CB
:10435200E1E00E94DB900E948E910E94668FAC3851
:10436200E0E0BE0769F40E94BF91E1E00E94DB90A9
:10437200E8E00E94C291E1E0E093F10BE093F20BDE
:104382000E94668F9397B1F40E94528DEAEFE093F8
:10439200F50BE0E1E0939F07E3E00E94C2910E94E7
:1043A200C89119F0E4E0E093F10B0E94CF91EEE2A4
:1043B200E093780C0E94668FA13BE3E0BE0749F4CC
:1043C2000E94D8910E948791E6E00E94C2910E94C9
:1043D200DB910E94DF9149F40E94E4910E9487914F
:1043E200E5E00E94C2910E94DB910E94E79139F4BC
:1043F2000E94EC91E9E00E94EF910E94DB910E9401
:10440200668FA23DE0E0BE0749F40E94F6910E9449
:104412002691E5E00E94C2910E94DB910E94F991EF
:1044220039F40E94FE91E2E10E94EF910E94DB9139
:10443200E091B307E030B1F00E94668F939749F4A0
:104442000E9401920E9407920E940D9211F40E9412
:1044520015920E9419920E94389121F40E941D9295
:104462000E9480660895E0E00E942B92E1E0F0E075
:104472000E94C2900E943092E093B307E0E0E09382
:10448200E60BE093E50B089522970E9403A3A09107
:10449200D20BA13189F4E091760CE17021F0E09128
:1044A200360CE0936D0C0E949C8E0E94008E0E943E
:1044B200FA8D0E94359216C4A091D20BA93119F53A
:1044C200EBE00E943C920E943F920E9445920E9421
:1044D200499211F00E945492A091830CA43080F46E
:1044E200E091320CE03031F0E091670CEE0F6E0E8D
:1044F200961410F4E1E06E2E0E9459920E945D9291
:104502000E946792EFC3A091D20BA53111F5EAE0A8
:104512000E943C920E943F920E9445920E949B629E
:104522000E94499211F00E945492A091830CA430EF
:1045320068F4E091320CE03019F06394961410F4B0
:10454200E1E06E2E0E9459920E945D920E94679253
:10455200C9C3A091D20BA73109F044C0EAE00E947E
:104562003C920E943F920E9445920E949B620E944E
:10457200499211F00E945492A091830CA43078F5D4
:10458200E091320CE03049F40E946F920E945992FD
:104592000E945D920E94799219C0E1E0E61521F431
:1045A200692C0E946F9201C06A94662011F00E94E9
:1045B2005992E62DEF5F11F00E945D92E62DEE5FBB
:1045C20011F00E947992E62DED5F49F0A62DAD5FC4
:1045D2000E94C961F0E0E093C30BF093C40B0E9408
:1045E200679280C3A091D20BA63109F05DC2E0911F
:1045F200790CE03021F4E091620DE093790CE0E077
:10460200E093620DE093630DA091830CA43009F056
:1046120061C0E093750DA091790CA43029F00E943D
:104622009790E093790C56C00E94A98F0E94C08F88
:104632000E94B78F01E0003178F50E9423910E9419
:10464200839219F40E94D68F0CC0A091A207A032C7
:1046520021F40E945A8FF0E004C00E94D68F0E947B
:104662003890E093270CF093280C0E94E08FA43638
:10467200E0E0BE0720F0E3E6F0E00E94DB8F0E945C
:10468200FA8F19F40093750D00E10F3019F4E0E090
:10469200E093750D0F5FCFCF0E9401900E940690AC
:1046A2000E940B90E093BF09E091750DE03021F07C
:1046B200A091750DA03148F00E949790E093790C7B
:1046C200E0E0E093FD0BE093750DE0E0E093270C52
:1046D200E093280C0E941790E03031F0A091830CF7
:1046E200A43010F4E1E001C0E0E00E941F90309796
:1046F20021F4A091830CA53008F009C0A091830C8D
:10470200A43021F4E091750DE03009F4C5C10E9496
:104712002590E091760CE07439F0E8E0E093960D94
:10472200E1E9E093920D03C0E0E0E093960DE1E051
:104732008E2EEBE4F0E0E093150CF093160CE09172
:10474200B609E093B407E0E0E0937C0C0E948D92FE
:10475200E093B909689437F80E94428EE0910B0CFD
:10476200F0910C0CE093090CF0930A0C0E94E88D76
:104772000E94C58D0E94CB8D0E94D78D0E94DD8D37
:10478200E091BD0BE093D40BE091140DE17019F0B0
:10479200E6EBF8EC02C0E4ECFCE9E0939C07F09352
:1047A2009D07EFE0E0939F07A091D40B0E94CE6398
:1047B200E0E0E0931C0CA091A007A33210F0A73612
:1047C20008F012C00E940D8E309711F00E94128ED6
:1047D2000E94188E11F00E941E8E0E940D8E30973C
:1047E20011F00E942C8E11C00E940D8E309711F094
:1047F2000E94128E0E94188E11F00E943C8E0E941E
:104802000D8E309711F00E942C8EE0E0E093DC0CCC
:10481200E093DD0CE093790CA091830CA43008F4B2
:10482200D5C0A43009F079C0E091750DE093BF09BD
:104832000E940B90E093750DE1E0F0E00E942E9053
:10484200A091BF09A73050F4E091750DE093900D4F
:10485200E03019F4E4E6E093900D5EC0A091BF0948
:10486200A73010F0AD3008F00EC0E091BF09E6505D
:10487200E093BF09E091750D0E94959219F4E8EC5E
:10488200E093900D49C0A091BF09AD3010F0A03166
:1048920008F042C0A091750DA33320F4E091750D8C
:1048A200E03009F41AC0A091BF09AD3011F4E1E083
:1048B2000BC0A091BF09AE3011F4E3E005C0A09196
:1048C200BF09AF3019F4E5E0E093BF09E9ECE093EA
:1048D200900DE091750DE8531DC0A091BF09AD3058
:1048E20011F4E2E00BC0A091BF09AE3011F4E4E094
:1048F20005C0A091BF09AF3019F4E6E0E093BF090B
:10490200E091750DEA56E093900DA091900DA639B5
:1049120019F4EAEFE093900D59C0A091830CA530F1
:10492200C9F40E940190309729F4E5E0E093BF09B1
:10493200E1E00DC00E943390EAEFF0E00E9446A24F
:10494200EF5F0E949C92EAEFF0E00E9481A2E09366
:10495200900D3CC0A091830CA630C1F50E949F929D
:10496200309761F4E4E00E949C920E9492900E942F
:10497200959219F4E8ECE093900D28C00E949F9262
:10498200379770F40E949F920E949C920E9492908C
:10499200E093900DE03019F4E4E6E093900D16C038
:1049A2000E949F92DF01379718F0FD013A9708F0B5
:1049B2000DC00E949F92E6500E949C920E9492908B
:1049C2000E94959219F4E8ECE093900DA091830C6B
:1049D200A33051F501E00B3F10F50E9423910E9494
:1049E200839219F40E94D68F0CC0A091A207A03224
:1049F20021F40E945A8FF0E004C00E94D68F0E94D8
:104A02003890E093270CF093280C0E943B9029F4F5
:104A1200E02FF0E00E94DB8F0BEF0F5FDCCFE09125
:104A2200270CE093900D25C0E091830CE03029F42F
:104A3200E091BD0BE093900D1CC0A091830CA130BE
:104A420029F40E94A192E093900D13C0A091830CCF
:104A5200A23079F40E949F9231970E94A792DA01C4
:104A62000E9405A2AF010E94AD923E2F340F3093F7
:104A7200900DA091900D0E943563AE2F0E94C866E2
:104A82000E94AF920E94B19219F0969A689431F8FE
:104A9200E0E0E093300C07C00E948D92E093790C25
:104AA200A2E00E9464631EC1A091D20BA83109F05A
:104AB200B3C0E0E0E093910DE093B707E093B8074D
:104AC200E093080CE093FD0B0E949C8E0E94008EE6
:104AD2000E94FA8DA091B907B091BA07129788F097
:104AE200E1E0F0E00E94008FE091BE09E03031F099
:104AF200E1E0F0E0E093AA0CF093AB0CE0E0E0938D
:104B0200B909E0E0E0937C0CE093320C0E94B7928A
:104B12000E9473491E2FE0E0E093790C113009F0F6
:104B220044C0E0937B0C0E94BC92E091680CE0745C
:104B3200AE2F21F0E0919907E03019F4EA2FE0302E
:104B420099F5E091610CA091600CEA1740F0A092F7
:104B5200B00B0E945F900E94C2920E94CD92E0919F
:104B6200620CA091600CAE1730F00E94D2920E94AB
:104B7200D7920E94CD92E091630CE03021F0E09157
:104B8200B10BE03009F404C00E94E2920E945590F9
:104B9200E091630CE03021F4E091B10BE03009F0D8
:104BA20003C0A3E00E94646336C0123059F40E942D
:104BB200BC920E94EA92E0E0E093340CA1E00E94F1
:104BC200646329C0133041F40E94BC920E94EA92AD
:104BD200E1E0E093340C1FC0E1E0E093760DE0E009
:104BE200E093080CE0937A0C0E949790E0937B0C80
:104BF200E0E0E093790C0E943592E4E1F0E0E0938A
:104C0200180DF093190DE1E0E0936F0DE0E0E093F1
:104C1200B4070E945F4266C0A091D20BA13010F08F
:104C2200AB3008F05FC0A091790CA43019F4E0E039
:104C3200E093790CA091790CA33021F4A091830C1C
:104C4200A43009F00EC0E091D20BE093FD0BA091CD
:104C5200FD0BAA3019F4E0E0E093FD0BE4E0E093F1
:104C6200790CA091790CA330B0F40E940393A09127
:104C7200D20BA0830E940393A081AA3021F40E9448
:104C82000393A0E0A083E091790CEF5FE093790CAD
:104C9200E0E0E093FD0BE091800CEF5FE093080C05
:104CA200A091D20BAA3019F4E0E0E093D20BE0918C
:104CB2007B0CF0E0E250F44FA091D20BA083A091C4
:104CC2007B0CAA3028F4E0917B0CEF5FE0937B0C25
:104CD200ECE3E0937A0CE0916F0DE03019F0EAE03A
:104CE200E0936F0D0E940AA3289608951A930A93DF
:104CF20000E0E091E50BE03031F4A1E00E94646352
:104D0200C3DB0C94452DA091E50BA13009F040C105
:104D1200E091D20BE03079F0A091D20BA83149F4A6
:104D22000E94CE9019F00E946B8F19F4E1E0E0939B
:104D32006D0D0E949D8DA1E00E946463E0E0E0930E
:104D4200080CA091D20BA53109F067C00E9409930B
:104D5200C1F0E091E70BE13011F4E2E00FC0E23084
:104D620011F4E5E10BC0E53111F4E6E107C0E631EB
:104D720011F4E7E103C0E73119F4E1E0E093E70B56
:104D820049C0E091840CE074C1F5E091E70BE13099
:104D920011F4E2E02FC0E23011F4E3E02BC0E33083
:104DA20011F4E4E027C0E43011F4E5E023C0E5307B
:104DB20011F4E5E11FC0E53111F4E6E11BC0E63173
:104DC20011F4E6E017C0E63011F4E7E013C0E73073
:104DD20011F4EEE00FC0EE3011F4E0E10BC0E0316F
:104DE20011F4EBE107C0EB3111F4EDE103C0ED3159
:104DF20019F4E1E0E093E70B0DC0E091E80BA0911C
:104E0200E70BEA1711F4E1E003C0E091E70BEF5F73
:104E1200E093E70B0E941293BAC0A091D20BA73184
:104E220009F066C00E940993C1F0E091E70BE130FE
:104E320011F4E7E10FC0E73111F4E6E10BC0E6310E
:104E420011F4E5E107C0E53111F4E2E003C0E2301C
:104E520019F4E1E0E093E70B48C0E091840CE074C0
:104E6200C1F5E091E70BE13011F4EDE12FC0ED3136
:104E720011F4EBE12BC0EB3111F4E0E127C0E0319A
:104E820011F4EEE023C0EE3011F4E7E01FC0E7308A
:104E920011F4E6E01BC0E63011F4E6E117C0E6319A
:104EA20011F4E5E113C0E53111F4E5E00FC0E5309E
:104EB20011F4E4E00BC0E43011F4E3E007C0E330A6
:104EC20011F4E2E003C0E23019F4E1E0E093E70B11
:104ED2000CC0A091E70BA13019F4E091E80B03C0DC
:104EE200E091E70BE150E093E70B0E9412934FC071
:104EF200A091D20BA631E1F50E941993E091E90B42
:104F0200E150A091E60BAE17E8F4E091E60BF0E079
:104F1200E651F44FA091E70BA083E091E60BEF5F1F
:104F2200E093E60BE1E0E093E70BA091D00BB091A8
:104F3200D10BE3E20E942DA2E093CE0BF093CF0BB4
:104F42000E9412930CD90E94A39131F40E940E6424
:104F52000E941F93E89425F80E94A89119F00E94DC
:104F6200A39129F40E944893E0610E944D930FC0DF
:104F7200A091D20BA13159F40E941993E0E0E09381
:104F8200080CE89426F87CD8E1E0E0937D0C7CC51F
:104F9200A1E00E946463E091F20BE03009F4A8D82A
:104FA200A091D20BA83169F40E94668F939719F0F1
:104FB200A3E00E946463E4EFF1E0E093800DF093DC
:104FC200810DA091D20BA23011F40E949D8D0E94FE
:104FD200CE9019F00E946B8F69F4A091D20BA2308F
:104FE20011F4E8E105C0A091D20BA83119F4E2E076
:104FF200E093D20BA091D20BA83109F0BEC1E0E040
:10500200E093BD070E94EC90A9F00E94FB9091F002
:105012000E94039179F00E940B9161F00E9413911A
:1050220049F00E941B9131F00E94DF9119F00E9419
:10503200B09161F4E091B507E17011F4689424F83D
:1050420046D5E091B507EE7FE093B5070E94668FE3
:10505200939709F05BC0E091B207E03051F1A09163
:10506200F10BA53018F00E94529322C0E0E0E093C9
:10507200B107A091740DA13019F4E1E0E093680D3D
:105082000E945B930E945F9331F40E94968F0E946C
:1050920066930E946B93E0E0E093740D0E945F427E
:1050A2000E94668F939711F40E94DF610E94412053
:1050B2002CC00E947193E0919F07A091F10BEA1717
:1050C20008F5E091740DE03041F4E5E00E94779339
:1050D2000E9401920E94079215C0A091740DA23005
:1050E20069F40E945B93E1E0E093740DE5E0E093E4
:1050F200F10B0E9401920E94079204C0E0919F0767
:10510200E093F10BE0E0E093F40B36C10E94CE9005
:1051120019F00E946B8FA9F4E1E0E093F10B0E9479
:10512200878FB5D40E94968F0E949B8F0E94708FAA
:105132000E949963E1E0E093B607E0E0E093680D36
:105142001BC10E94D39061F00E94389141F4A0915A
:10515200610CA03021F4A091620CA03009F00AC0C9
:10516200E1E0E093F10B0E94878F91D4E1E0E093BC
:10517200B60702C10E94509109F0FEC0A091B30788
:10518200A53018F4E4E0E0935D0CA1E00E946463B2
:10519200DB98A091B307A13079F40E94D890EAE09D
:1051A200E0939F0711E01B3F30F40E94968F0E940C
:1051B2007D931F5FF8CF87C0A091B307A230B9F5E6
:1051C2000E948493A0916A0DA53428F40E948C93C6
:1051D2000E949493F7CF0E949A930E944A91E8E02A
:1051E200E0939F0711E01B3FF0F40F5F033010F4D0
:1051F2000E947C63063021F4A3E00E94646300E015
:105202000E94968F0E949B8FE0E0E093680DA09130
:10521200680DA63030F4A12F0E9499630E94368F48
:10522200F6CF1F5FE0CFE0E0E093680D4CC0A091A5
:10523200B307A330B9F50E948493A0916A0DA534F7
:1052420028F40E948C930E949493F7CF0E949A9321
:105252000E944D91E8E0E0939F0711E01B3FF0F4BC
:105262000F5F033010F40E947C63063021F4A3E048
:105272000E94646300E00E94968F0E949B8FE0E090
:10528200E093680DA091680DA63030F4A12F0E9422
:1052920099630E94368FF6CF1F5FE0CFE0E0E09384
:1052A200680D11C0A091B307A43069F40E94B193B4
:1052B2000E94D18EA3EBB2E00E94B6930000A1E05F
:1052C2000E946463FBCFA091B307A53009F03EC0F2
:1052D200A895C198C2980E948A63E0E0E093660DA7
:1052E200E093670DA091660DB091670D1A9770F467
:1052F2000000B39905C0A6E6BDE00E94B08D05C0CE
:10530200E0E0E093660DE093670DECCFA895000016
:10531200A1E00E946463DB98E6E0F0E00E94BB93A8
:105322000E94C09329F027FEFECF0E94C693F8CFB9
:10533200EFEFF0E00E94BB93DB9A0E94C09329F04A
:1053420027FEFECF0E94C693F8CFE0CFA091B3070D
:10535200A63049F4C198C29A0E948A630000A1E073
:105362000E946463FBCFDB9AE0E0E093160DE093CA
:10537200170DA1E00E94646387C3A091D20BA931EB
:1053820009F06EC00E949D8D0E94CE9019F00E947D
:105392006B8FA9F40E94708F0E94918FE950A091A7
:1053A200B307AE1720F4E091B307E65F01C0E1E076
:1053B200E093B3070E94708F0E94079250C00E9430
:1053C200CB9379F00E94FB9061F00E94039149F027
:1053D2000E940B9131F00E94139119F00E941B91CF
:1053E20009F407C0A091740DA13019F4E1E0E09333
:1053F200680D0E945B930E945F9331F40E94968F26
:105402000E9466930E946B93E0E0E093740DE0913A
:10541200F50BE950A091B307AE1720F4E091B30762
:10542200E65F01C0E1E0E093B3070E94668F9397C5
:1054320049F40E9401920E9407920E940D9211F477
:105442000E9415920E9419920E94CE9331F40E94FA
:10545200C89119F0E4E0E093F10B0E94D49314C3D5
:10546200A091D20BA53109F077C00E949D8D0E94B8
:10547200CE9019F00E946B8FA1F40E94708F0E944F
:10548200918FA091B307AE1720F4E091B307EF5FBD
:1054920001C0E1E0E093B3070E94708F0E9407927F
:1054A2005AC00E94CB9379F00E94FB9061F00E9457
:1054B200039149F00E940B9131F00E94139119F06F
:1054C2000E941B9109F407C0A091740DA13019F438
:1054D200E1E0E093680D0E945B930E945F9331F4D8
:1054E2000E94968F0E9466930E946B930E94DA93A9
:1054F20021F40E941D920E946466E091F50BA09136
:10550200B307AE1720F4E091B307EF5F01C0E1E00B
:10551200E093B3070E94668F939749F40E94019229
:105522000E9407920E940D9211F40E9415920E940D
:1055320019920E94389121F40E941D920E94806665
:105542000E94CE9331F40E94C89119F0E4E0E093F6
:10555200F10B0E94D49398C2A091D20BA73109F00B
:105562007AC00E949D8D0E94CE9019F00E946B8F8E
:10557200C1F40E94708F0E949963A091B307A23078
:1055820020F0E091B307E15002C0E091F50BE09307
:10559200B307E1E0E093F10B0E94708F0E94079243
:1055A20059C00E94CB9379F00E94FB9061F00E9457
:1055B200039149F00E940B9131F00E94139119F06E
:1055C2000E941B9109F407C0A091740DA13019F437
:1055D200E1E0E093680D0E945B930E945F9331F4D7
:1055E2000E94968F0E9466930E946B930E94DA93A8
:1055F20021F40E941D920E946466A091B307A2301A
:1056020020F0E091B307E15002C0E091F50BE09386
:10561200B3070E94CE9331F40E94C89119F0E4E0DE
:10562200E093F10B0E94D4930E94668F939749F402
:105632000E9401920E9407920E940D9211F40E9410
:1056420015920E9419920E94389121F40E941D9293
:105652000E94806619C2A091D20BA03271F50E94FD
:10566200668F9397F1F4E091F10BE1501E2FE091D8
:105672009F07E11730F00E94DE93A0E2A0831F5F34
:10568200F6CFE091740DE03059F4E2E0E093740D4E
:10569200E2ECF9E00E94E393A6E8BAE00E942F420E
:1056A20009C026FE07C00E947193E091B507E16030
:1056B200E093B507E89426F8E7C1A091D20BA13197
:1056C20021F4E0915D0CE03009F032C1E2E0E093B8
:1056D2006E0DE0E0E093080C0E94A391C9F50E94D0
:1056E200D68F0E94E9930E94EE930E94EAA220F4D0
:1056F200A8EEBCE00E94A38D0E94EE93179720F0C3
:10570200E6E0F0E00E94E9930E94F393A1EAB7E099
:10571200EC91EF70EC93A2EAB7E0EC91EF70EC93AE
:105722000E94FF9310F00E9412940E941994A3EA1F
:10573200B7E0EC91EF70EC93A4EAB7E0EC91EF7074
:10574200EC930E94259410F00E943A940E94419496
:10575200E091B207E03009F475C0DB980E94668FD1
:10576200939779F50E947193E0919F07E150A09180
:10577200F10BEA1710F5E091740DE03041F4E4E02A
:105782000E9477930E9401920E94079216C0A091F4
:10579200740DA23069F40E945B93E1E0E093740D12
:1057A200E4E0E093F10B0E9401920E94079205C08F
:1057B200E0919F07E150E093F10BE0E0E093F40BFE
:1057C20040C0E0E0E093B1070E94CE9019F00E9441
:1057D2006B8F21F4E091740DE093680D0E945B934E
:1057E200E0E0E093680D0E94CE9019F00E946B8F6A
:1057F20019F4E0E0E093740DE091B607E03019F09F
:105802000E94CE9009F002C00E945864E091B6074F
:10581200E03019F00E946B8F09F002C00E94C76449
:105822000E94389121F40E941D920E9464660E9497
:105832005F420E94668F939711F40E94DF610E947B
:10584200412074C0DB98A091F10BA63020F00E9499
:10585200668F939709F003C00E94529367C0E0E0FD
:10586200E093B1070E94EC9079F00E94FB9061F006
:105872000E94039149F00E940B9131F00E94139112
:1058820019F00E941B9109F411C0A091740DA1306E
:1058920019F4E1E0E093680D0E94CE9019F00E94A5
:1058A2006B8F21F4E091740DE093680D0E945B937D
:1058B200E091B607E03019F00E94CE9009F002C0E4
:1058C2000E945864E091B607E03019F00E946B8F95
:1058D20009F002C00E94C764E8E0E0939F07E0E09D
:1058E200E093680D0E94CE9019F00E946B8F19F41C
:1058F200E0E0E093740DA091740DA23031F40E94A7
:10590200968F0E9466930E946B930E94DA9321F411
:105912000E941D920E9464660E945F420E94668FEE
:10592200939711F40E94DF610E944120DB9AACC080
:10593200A091D20BA63109F04BC0E0E0E093BD0785
:105942000E94EC90C1F00E94FB90A9F00E9403918A
:1059520091F00E940B9179F00E94139161F00E94E4
:10596200A89149F00E94B09131F00E941B9119F068
:105972000E94B09119F40E94878F89D00E94668F8D
:10598200939729F5DB98E0E0E093B107A091740DBD
:10599200A23049F4E093680D0E945B930E94968FB7
:1059A2000E94589404C0E091740DE03019F0E1E0D7
:1059B200E093680D0E945B93E0E0E093680DE09352
:1059C200740D0E945F420E94DF610E9441205CC010
:1059D2000E94668F939799F40E949D8D1BD1E0E0FF
:1059E200E093F20BE0932B0C0E94C790E081E093CE
:1059F200F30B0E947920E1E0E093D90B45C00E94AD
:105A02009D8D0E94389141F4A091610CA03021F447
:105A1200A091620CA03009F002C010E001C011E0B8
:105A22000E94389109F010E00E94CE9029F00E9465
:105A32006B8F11F0113009F408C0A091F10BA13065
:105A420019F40E94878F23D042D00E94CE9019F081
:105A52000E946B8F21F4A091D20BA23009F014C0E6
:105A62000E94708F0E949963E091740DEF5FE09342
:105A7200740DA091740DA63018F0E0E0E093740D5F
:105A82000E94708F0E940792099119910895AA931A
:105A92001A93EC81E1501E2FE9811E1730F40E9407
:105AA2005C94E0E2EC931F5FF7CF0EC0AA931A93C7
:105AB20010E0E9811E1740F40E945C94E12F0E94DD
:105AC200828FEC931F5FF5CF1881259608951A9364
