:020000020000FC
:0E0000000C945B120C9400000C9400000C9405
:10000E0000000C9400000C9400000C9400000C9462
:10001E0000000C9400000C945C540C9400000C94A2
:10002E0000000C945C490C9400000C9400000C949D
:10003E0000000C944E540C9400000C94F54B0C9450
:10004E002F4C0C94084C0C9400000C9400000C9453
:10005E0000000C9400000C9400000C9400000C9412
:10006E0000000C9400000C9400000C943C4C0C947A
:10007E0000000C9428540C9400000C940000D02026
:10008E00D120DD20DD20E820F52000210B211B21D1
:10009E0025212E2140215321642173218421942175
:1000AE00809A90418E418F804545454949498E8FB2
:1000BE009092924F994F555559999A9B9C9D9E9F00
:1000CE0041494F55A5A5A6A7A8A9AAABAC21AEAF8D
:1000DE00B0B1B2B3B4B5B6B7B8B9BABBBCBDBEBF9A
:1000EE00C0C1C2C3C4C5C6C7C8C9CACBCCCDCECF8A
:1000FE00D0D1D2D3D4D5D6D7D8D9DADBDCDDDEDF7A
:10010E00E0E1E2E3E4E5E6E7E8E9EAEBECEDEEEF69
:10011E00F0F1F2F3F4F5F6F7F8F9FAFBFCFDFEFF59
:10012E001027E80364000A0001000010000110000F
:10013E00010000005453542055504441544520565C
:10014E0031370044617461346B204F6B004572612E
:10015E007365204F6B00555044415445204657203F
:10016E005631370D0A00657261736520646F6E65D6
:10017E00206F6B0D0A00777269746520646F6E656F
:10018E00206F6B0D0A00726561642020646F6E65CE
:10019E00206F6B0D0A0072656164776B6661696C26
:1001AE006564200D0A007265616420206661696CC9
:1001BE006564200D0A004E414D4530303031004E01
:1001CE00414D45303030340072656E616D653120C1
:1001DE006661696C65640A0072656E616D653120D9
:1001EE007061737365640A00757064617420646F66
:1001FE006E65206F6B0D0A00757064617465206604
:10020E0061696C65640D0A007468697320697320F6
:10021E007570646174652E00757064742066696C07
:10022E006C206661696C0D0A0075706474206669D5
:10023E006C6C20646F6E650D0A0044617461346BE2
:10024E00204661696C0030002020202020202020D4
:10025E00003132333435362020202020202020203B
:10026E0020200020202020202020202020202020A0
:10027E002020200035006170702E2072696E676933
:10028E006E6720202020004F6666696365205269E4
:10029E006E6720202020200054656E616E742052FF
:1002AE00696E672020202020005472792043616CF3
:1002BE006C204F7468657220200020EEF6ECF6EC90
:1002CE0020ECE3E9F8E4203330200020EEF6ECF6E3
:1002DE00EC20ECEEF9F8E3203330200020EEF6ECC3
:1002EE00F6EC20ECE3E9E9F820333020002020EE94
:1002FE00F0F1E420EEF1F4F820E0E7F82000536589
:10030E006C656374206170702E20202020200053B5
:10031E00656C656374204F666669636520200053C3
:10032E00656C6563746564202020202020202020C9
:10033E00005072657373204220746F2063616C6C81
:10034E00002020F0E1E7F8E420E3E9F8E420333080
:10035E0020002020F0E1E7F820EEF9F8E32020332A
:10036E003020002020F0E1E7F820E3E9E9F8202032
:10037E00333020002D2D2D2D2D20454E44202D2D9A
:10038E002D2D2D2D2000202D2D2D2D20F1E5F320AE
:10039E002D2D2D2D2D2D2000202020202020202021
:1003AE002020202020202020200045584954203C89
:1003BE002D202A202023202D3E0020E9F6E9E0E41E
:1003CE003E2D202320202A202D3C0045726173658E
:1003DE0020616C6C2050727879210020506C656120
:1003EE007365205761697421210020EEE7E9F7E477
:1003FE0020EBE5ECECFA21212120002020F0E0207A
:10040E00ECE4EEFAE9EF202121212000312F3620F5
:10041E004E6578743F50726573732A00507265731F
:10042E00733220746F2045726173650020362F3150
:10043E0020ECE1E02D20E4F7F9202A20002020EC2A
:10044E00EEE7E9F7E420E4F7F920322020005072BD
:10045E006573732A20746F204572617365002020C6
:10046E00ECEEE7E9F7E420E4F7F9202A202000205B
:10047E002041726520796F7520737572653F00504B
:10048E00726573732A20746F207374617274002006
:10049E0020E4E0ED20E0FAE420E1E8E5E73F20008B
:1004AE00202020ECE4F2E1F8E420E4F7F9202A2001
:1004BE00006F7074696F6E206E756D62657220319B
:1004CE00004279207465737420202B2F2D2031204B
:1004DE00006F7074696F6E206E756D62657220327A
:1004EE00004D61782073656E7361746976653000B6
:1004FE00426573742D2062792074657374210070C7
:10050E00756C73657320696E203530206D53004C09
:10051E006F772066726571206C6576656C2000427F
:10052E0079207465737420202D31302020200075C1
:10053E007065722066726571206C6576656C00421E
:10054E0079207465737420202B31302020200042D6
:10055E007265616B206F6E2043616C6C20200042CF
:10056E006173652074696D65203530206D530054BC
:10057E006F206E6578742070686F6E652E2E003059
:10058E00203D77697468206E6F20746573740074F3
:10059E006F2068616E672070686F6E652E2E007218
:1005AE0065636F6D6D2030382074696D6520002095
:1005BE00E0F4F9F8E5FA20EEF127203120202000B2
:1005CE0020ECF4E920E4F0EEE3E3202B2F2D203194
:1005DE000020E0F4F9F8E5FA20EEF1272020322091
:1005EE00200020302020F8E2E9F9E5FA20EEF8E1CB
:1005FE00E9FA0020EEE5EEECF520ECF4E920E4F06B
:10060E00EEE3E30020EEF120F4E5ECF120E13035ED
:10061E0020EEECE9002020F7E520E2E9ECE5E92008
:10062E00FAE7FAE5EF002020ECF4E920E4F0EEE33F
:10063E00E32030312D20002020F7E520E2E9ECE523
:10064E00E920F2ECE9E5EF002020ECF4E920E4F0FB
:10065E00EEE3E32030312B200020E4F4F1F7E42028
:10066E00E1E9EF20F6ECF6E5EC0020E1F1E9F1200E
:10067E00E6EEEF20303520EEECE90020ECE8ECF46D
:10068E00E5EF20E4E1E0202E2E2E20002030202069
:10069E0020ECECE020E1E3E9F7E420200020ECF090
:1006AE00E9FAE5F720E4F9E9E7E42E2E2E0020EE34
:1006BE00E5EEECF520383020F4F2EEE9ED200044C2
:1006CE006F206E6F742073656C6563742030006FDD
:1006DE00722075736520646F6F72206B65790020D0
:1006EE00F0E020ECE020ECE1E7E5F820EEF7F90091
:1006FE00203020E0E520EEF7F920E3ECFA312F323E
:10070E00004448484D4D203C3C3C444953504C59C4
:10071E000053686F772076616C75653E3E53455485
:10072E000020FAF6E5E2E43A202020204D4D48481C
:10073E00440020E4F2F8EA20E4EEE5F6E220E9F9DE
:10074E00EEF80056616C75653020416E792043617C
:10075E006C6C0031206F722032206F7220333D316D
:10076E002B32002020F2F8EA203020EBEC20F7F8B4
:10077E00E9E0E400203120E0E5203220E0E52033FE
:10078E003D312B3200444444444444443C3C4449AF
:10079E0053504C5900313D53756E646179373D535A
:1007AE00617465720020FAF6E5E2E43A20204444D2
:1007BE0044444444440020313D20E9E5ED20E02747
:1007CE0020373DF927200048484D4D7878783C3C3D
:1007DE00444953504C59005374617274202F537412
:1007EE006F702074696D0020FAF6E5E2E43A20207D
:1007FE007878784D4D48480020E6EEEF20E4FAE791
:10080E00ECE4202FF1E9E5ED00303D416464205623
:10081E00616C20312D3130302000537465702032E0
:10082E003D4E6577333D344447200020E4E5F1F337
:10083E0020F2F8EA3D3020313DEBEC002030303133
:10084E0020323DE7E3F920333D34F1F4004D617879
:10085E00207370656564203D2030200020EEF7F196
:10086E00E9EEE5ED20F2F8EA203D302000303030A0
:10087E00203D6E6F742061637469766520002030B0
:10088E003030203D20ECE020F4F2E9EC2020005640
:10089E0065723332332030352F30392F3234002603
:1008AE002052696E67204E616D6520447370004D55
:1008BE0061785265636F56616C75653035730020D3
:1008CE004D696E2056616C7565203120002054698B
:1008DE006D6520696E207365632020200020312F06
:1008EE003420736563206261736520003C3420728E
:1008FE0065706C616365206279340054696D653D85
:10090E00313020582076616C7565004E4F54204969
:10091E004E20555345204E4F5721003020726570A2
:10092E006C616365206279310020E5FAF6E5E2FA42
:10093E0020F9ED20EEF6ECF6EC0020EEE5EEECF50F
:10094E0020353020F9F0E9E5FA200020EEE9F0E953
:10095E00EEE5ED20F2F8EA203D31200020202020A7
:10096E00F2F8EA20E1F9F0E9E5FA20200020F7E8B4
:10097E00EF20EE3420E9E5E7ECF320E1340020E14E
:10098E00F1E9F120342F3120F9F0E9E420200020A4
:10099E00EEE9F0E9EEE5ED20F2F8EA203D20310037
:1009AE0020E6EEEF203D203031205820F2F8EA20EC
:1009BE000020ECE020E1F9E9EEE5F920EBF2FA2176
:1009CE00200020F2F8EA203020EEE5E7ECF320ECF0
:1009DE00203100536574204C617374206170702057
:1009EE00202020002020746F207468697320666CAC
:1009FE006F6F72200020E3E9F8E420E0E7F8E5F0FD
:100A0E00E4202020200020202020202020ECF7E5CC
:100A1E00EEE420E6E520004D617820323520626F4D
:100A2E00617264732E2E0020EEF7F12720353220EE
:100A3E00EEF2E2ECE9ED20004368616E67653F4E31
:100A4E00616D65456E747200312D392D3E59657399
:100A5E0020302D3E4E6F200020F9E5F0E43FE4EB10
:100A6E00F0F120ECF9EEE5FA0020312D393D592D4B
:100A7E00EBEF20303D4E2DECE000456E746572209C
:100A8E00417070206E756D627200456E74657220D5
:100A9E004F6666696365204E6F00456E7465722001
:100AAE0054656E616E74204E6F007468656E2070B2
:100ABE00726573732042454C4C0020436F6E6E6519
:100ACE00637465642F696E6720200020E4F7F920B7
:100ADE00EEF1F4F820E3E9F8E420200020E4F7F941
:100AEE0020EEF1F4F820EEF9F8E320200020E4F7F0
:100AFE00F920EEF1F4F820E3E9E9F820200020E5F2
:100B0E00ECE7F520F2EC20E4F4F2EEE5EF20002025
:100B1E00EEFAE7E1F82FEEE7E5E1F82121212000DA
:100B2E00557365642145726173652F4D6F7665004F
:100B3E0020FAF4E5F121212DF0F7E42FF2E1E5F8AA
:100B4E0000416C6C726561647920696E204D454D73
:100B5E00004C6F636174696F6E3A202F2020202045
:100B6E0000202121F7E9E9ED20E1E6E9EBF8E5EFD8
:100B7E002100202020E1EEE9F7E5ED3A2020202F9C
:100B8E0020200054616773205174793A2020202070
:100B9E00202020005573652042656C6C20546F43F5
:100BAE00616C6C200020ECE7E9E5E220E4F7F92027
:100BBE00F4F2EEE5EF00330020202020202020204C
:100BCE002020505247002020202020466163746F61
:100BDE007279205265736574202020506C656173A4
:100BEE006520576169740020202020204E616D65BC
:100BFE002F54656C2053746179202020506C6561F0
:100C0E007365205761697400313233202020202013
:100C1E0020200034353620202020202020003235A0
:100C2E003235323520202020202020202020200088
:100C3E003030003035003032003939003330003476
:100C4E003000313000303800303600323000202095
:100C5E0020202020E3E9F8E420312020202000206D
:100C6E002020202020E3E9F8E4203220202020005C
:100C7E00202020202020E3E9F8E42033202020202B
:100C8E00002020204150502E2023203120202020D3
:100C9E0020002020204150502E20232032202020C2
:100CAE002020002020204150502E202320332020B1
:100CBE00202020004E002D00323530003230310021
:100CCE003030303000303038003031320030313694
:100CDE0000313230300031333030003136303000B8
:100CEE003137303000313830300031393030003269
:100CFE0031003232003233003435003537002500F2
:100D0E00776169742E2E2E20202020202020200096
:100D1E004F7267616E697A696E67206E616D6500EC
:100D2E004D61792074616B65206665772020200007
:100D3E00202020202020206D696E757465730020A0
:100D4E0020EEE0F8E2EF20F9EEE5FA202020200078
:100D5E002020E0F0E020E4EEFAEF202020202020FA
:100D6E00002020E1F1E1ECF0E5FA20202020202007
:100D7E002000546865206C61746368202020202058
:100D8E002000546865206C61746368203220202036
:100D9E002000546865206C6174636820312632200F
:100DAE0020002020F4FAE720E0FA20E4E3ECFA2019
:100DBE002020002020F4FAE720E0FA20E4E3ECFA09
:100DCE00203220002020F4FAE720E0FA20E4E3ECC1
:100DDE00FAE5FA2000202020576169742074696CAE
:100DEE006C202020200020E4EEFAEF20ECF1E9E563
:100DFE00ED2E2E2E202000427573792F204E4F207F
:100E0E00416E73776572004D6F64656D436F6E6EE4
:100E1E00656374696F6E0020E1FAF4E5F120E0E994
:100E2E00EF20EEF2F0E4200020E1E4FAF7F9F8E525
:100E3E00FA20EEE5E3ED2000557365206172726FC6
:100E4E00777320202020002048454C4F2E2E2E2038
:100E5E002020746F20200020E3F4E3F320E1E7E983
:100E6E00F6E9ED2020202000202020202020F9EC83
:100E7E00E5ED202020202020002020202049732076
:100E8E00756E6C6F636B656420002020202020201F
:100E9E0020202020202020202020002020456E64AD
:100EAE00206F662064656C61792020002020202050
:100EBE0020202020E4E4F9E4E9E420200048616EDB
:100ECE0067206279207573696E67202A2000446F4F
:100EDE00204E6F7420546F7563682121210020F01D
:100EEE00FAF720E1EBE5EBE1E9FA20292A280020C8
:100EFE00F0E020ECE020ECE2F2FA202121212000AB
:100F0E00746F20736561726368206E616D652E006B
:100F1E0020ECE0E9FAE5F820E4E3E9E9F82FFA003D
:100F2E00746F20636F6E6E65637420417070002065
:100F3E00ECE4FAF7F9F8E5FA20ECE3E9F8E420003E
:100F4E0020ECE0E9FAE5F820E4EEF9F8E300636F4F
:100F5E006E6E656374206F6666696365200020ECB3
:100F6E00E4FAF7F9F8E5FA20ECEEF9F8E32000746C
:100F7E006F207365617263682054656E616E7400D4
:100F8E00636F6E746163742054656E616E740020BD
:100F9E00ECE0E9FAE5F820E3E9E9F8200020ECEED0
:100FAE00FAF7F9F8E5FA20ECE3E9E9F80050524FC8
:100FBE00472E204D454E55202D2020200020FAF49E
:100FCE00F8E9E820F8E0F9E9202D202000416363DC
:100FDE0065737320636F64657320200020F8F9E950
:100FEE00EEFA20E4F7E5E3E9ED00436F6E66697211
:100FFE006D20627920546F6E650020E0E9F9E5F806
:10100E0020F9E9E7E420E1E8E5EF00536574526565
:10101E0061642054696D6D6572730020E4F6E22FF1
:10102E00F9F0E420E8E9E9EEF8E9ED0053657452D1
:10103E006561642044617954696D650020E4F6E2CF
:10104E002FF9F0E420E9E5ED2FF9F2E40052656D99
:10105E006F74652054454C20546F6E650020E8E592
:10106E00EF20F4FAE9E7E420EEF8E7E5F700236F66
:10107E00662072696E672F616E737765720020EE5F
:10108E00F120F6ECF6E5ECE9ED2DEEF2F0E400459C
:10109E006E74657220427573792043616C6C20000A
:1010AE0020F0FAE5EF20F6ECF6E5EC20FAF4E5F1A7
:1010BE000054656C6570686F6E65204E6F2E312022
:1010CE000020EEF1F4F8E920E8ECF4E5EF20312011
:1010DE000054656C6570686F6E65204E6F2E322001
:1010EE000020EEF1F4F8E920E8ECF4E5EF203220F0
:1010FE000054656C6570686F6E65204E6F2E3320E0
:10110E000020EEF1F4F8E920E8ECF4E5EF203320CE
:10111E000054656C6570686F6E65204E6F2E3420BE
:10112E000020EEF1F4F8E920E8ECF4E5EF203420AD
:10113E000054656C6570686F6E65204E6F2E35209D
:10114E000020EEF1F4F8E920E8ECF4E5EF2035208C
:10115E000054656C6570686F6E65204E6F2E36207C
:10116E000020EEF1F4F8E920E8ECF4E5EF2036206B
:10117E0000537065656368204C6576656C200020B1
:10118E00F2E5F6EEFA20E3E9E1E5F8200027464124
:10119E005354272073772E2053746570200020F748
:1011AE00F6E120F7E9E3E5ED20EEE4E9F8004D6124
:1011BE007374657220636F6465002020F7E5E32089
:1011CE00E8EBF0E0E920005573657220636F64650B
:1011DE00002020F7E5E320ECF7E5E72000202020B3
:1011EE002054656E616E747320202020200020F93B
:1011FE00EEE5FA20E4E3E9E9F8E9ED200043726F49
:10120E00737320746F2041706172740020E4F6ECE9
:10121E00E1E420ECF4E920E3E9F8E5FA0053572085
:10122E00626F61726420457874656E640020EEF220
:10123E00E2EC20E4F8E7E1FA20EEF4F1F700507268
:10124E007879204C65726E204D6F6465310020EB0D
:10125E00F8E8E9F1E920F7E9F8E1E420310050720D
:10126E007879202D20696E206F726465720020E4FB
:10127E00FAE2E9ED20E0E5F8E2F0E5212100507216
:10128E007879204C65726E204D6F6465320020EBCC
:10129E00F8E8E9F1E920F7E9F8E1E42032005365D6
:1012AE007420466C6F6F722056616C75652000203D
:1012BE00F7E1F220F2F8EA20ECF7E5EEE420004345
:1012CE0068616E676520416C6C56616C75650020B7
:1012DE00F9E9F0E5E920F2F8EBE9ED202121210012
:1012EE004D657373616765204F6E2F4F66662000E4
:1012FE0020E4F4F2EC2FEBE1E420E4E5E3F2E40089
:10130E005965732F4E6F20416E73776172652000A1
:10131E0020FAF9E5E1E5FA20EBEF20E5ECE020001C
:10132E0052656C61797320636F6E74726F6C2000FE
:10133E0020F9ECE9E8E420E1EEEEF1F8E9ED200029
:10134E0053656C20547970652F4E756D726963000C
:10135E0020E1E7F820F1E5E22FEEF1F4F8E9004E96
:10136E00657720417070204E756D72696320002084
:10137E00EEF1F4E5F820E7E3F920ECE3E9F8E40018
:10138E0053657276696365204D656E752000202069
:10139E00FAF4F8E9E820F9F8E5FA2020200054697B
:1013AE006D696E6773202873656329200020E6EE51
:1013BE00F0E9ED2029F9F0E9E5FA2820004C434444
:1013CE002046616D696C79204E6F2E200020F9E960
:1013DE00E5EA20EEF9F4E7FAE92044434C00436FC6
:1013EE006D6D205370656564200020EEE4E9F8E52C
:1013FE00FA20FAF7F9E5F8FA202000547970652002
:10140E002F4164642076616C7565200020F1E5E261
:10141E00202F20F2F8EA20EEE5F1F3200053657458
:10142E00204C636446616D696C7920230020F7E1DE
:10143E00F220F9E9E5EA20EEF9F4E7FAE90053655E
:10144E007420436F6D6D2053706565640020F7E165
:10145E00F220EEE4E9F8E5FA20F7F9F82000436F00
:10146E006E6669726D20746F6E652069730020E878
:10147E00E5EF20E0E9F9E5F820E4E5E03A20007236
:10148E00656D6F746520636F64652069733A002023
:10149E00F7E5E320F4FAE9E7E420EEF8E7E5F700F4
:1014AE0023206F662052696E6773546F416E73000E
:1014BE0020EEF120F6ECF6E5EC20ECEEF2F0E43A5C
:1014CE00004275737920746F6E65205479706531A2
:1014DE000020202020FAF4E5F120F1E5E220312071
:1014EE0020004275737920746F6E65205479706593
:1014FE00320020202020FAF4E5F120F1E5E220323E
:10150E002020004275737920746F6E652056616CD1
:10151E002E200020202020FAF4E5F120F2E5F6EE50
:10152E00E42020004275737920746F6E6520467238
:10153E00657120002020202020FAF4E5F120FAE346
:10154E00F82020200043616C6C206C6F772046726F
:10155E00657120200020F6ECF6E5EC20FAE3F82089
:10156E00FAE7FAE5EF0043616C6C20686967682062
:10157E0046726571200020F6ECF6E5EC20FAE3F8F1
:10158E0020F2ECE9E5EF00427265616B206F6E2090
:10159E0063616C6C20200020E4F4F1F7E420E1E9B3
:1015AE00EF20F6ECF6E5EC0043616C6C7320746F83
:1015BE00207061737320200020EEF12720F6ECF6E8
:1015CE00E5EC20ECEEF2E1F8004E6F206F66206243
:1015DE00757373792074696C0020EEF12720F4F294
:1015EE00EEE9ED20ECFAF4E5F1006170702E206E5C
:1015FE00756D626572230020E3E9F8E420EEF1F4E4
:10160E00F8202300456E74657220636F6465202395
:10161E000020E4EBF0F120F7E5E32300312D456ED9
:10162E007465722054656C230020312DE4EBF0F1CB
:10163E0020E8EC27202300322D456E74657220546D
:10164E00656C230020322DE4EBF0F120E8EC27202E
:10165E002300332D456E7465722054656C23002073
:10166E00332DE4EBF0F120E8EC27202300342D4558
:10167E006E7465722054656C230020342DE4EBF0FB
:10168E00F120E8EC27202300352D456E746572207D
:10169E0054656C230020352DE4EBF0F120E8EC27A7
:1016AE00202300362D456E7465722054656C230020
:1016BE0020362DE4EBF0F120E8EC27202300456ED8
:1016CE0074657220496E666F20230020E4EBF0F102
:1016DE0020F0FAE5F0E9ED23004C6561726E2050C2
:1016EE0072787931230020ECEEE320F7E9F8E1E49B
:1016FE00203123004C6561726E205072787932234E
:10170E000020ECEEE320F7E9F8E1E4203223005468
:10171E0068697320666C6F6F7220230020F7E5EE08
:10172E00E420E6E5202D3C20230052656C617931E2
:10173E00207570746F204170700020EEEEF1F8206D
:10174E003120F2E320E3E9F8E4200052656C617980
:10175E00322066726F6D204170700020EEEEF1F84F
:10176E00203220EEE3E9F8E4200053657420737014
:10177E0065656368204C65766C0020F7E1F220F217
:10178E00E5F6EEFA20E3E9E1E5F80053657420276B
:10179E004641535427205374657020002020F7E1F2
:1017AE00F220F7F6E120F7E9E3E5ED00536574204A
:1017BE006D617374657220636F64650020E4EBF0F5
:1017CE00F120F7E5E320E2E9F9E42000456E7465C7
:1017DE007220626F617264205174790020E4EBF024
:1017EE00F120EBEEE5FA20EEF2E2EC27004461790F
:1017FE0020262054696D65206172653A0020E4E967
:10180E00E5ED20E5E4F9F2E420E4ED3A0054696DEB
:10181E00657231284449414C29204461790020E801
:10182E00E9EEF83120E7E9E5E22DE9EEE9ED0054C5
:10183E00696D65724E302E312053746172740020C2
:10184E00E8E9E9EEF8203120202D20E4FAE7EC005B
:10185E0054696D65724E302E312053746F700020B6
:10186E00E8E9E9EEF82031202D20F1E9E9ED20003C
:10187E0054696D657232284449414C29204461797E
:10188E000020E8E9EEF83220E7E9E5E22DE9EEE99D
:10189E00ED0054696D65724E302E322053746172B4
:1018AE00740020E8E9E9EEF8203220202D20E4FA39
:1018BE00E7EC0054696D65724E302E322053746F12
:1018CE00700020E8E9E9EEF82032202D20F1E9E958
:1018DE00ED200054696D65723328524C5931292020
:1018EE004461790020E8E9EEF83320524C59312D4D
:1018FE00E9EEE9ED0054696D65724E302E332053DA
:10190E00746172740020E8E9E9EEF8203320202D8E
:10191E0020E4FAE7EC0054696D65724E302E3320E8
:10192E0053746F700020E8E9E9EEF82033202D2083
:10193E00F1E9E9ED200054696D65723428524C5975
:10194E003229204461790020E8E9EEF83420524C27
:10195E0059322DE9EEE9ED0054696D65724E302E67
:10196E00342053746172740020E8E9E9EEF82034F3
:10197E0020202D20E4FAE7EC0054696D65724E309C
:10198E002E342053746F700020E8E9E9EEF820340D
:10199E00202D20F1E9E9ED20004572656173652087
:1019AE00414C4C636F6465200020EEE7F720EBECB2
:1019BE0020E4F7E5E3E9ED20200045726173652030
:1019CE00616C6C2050727879310020EEE7F720EBD5
:1019DE00EC20F7E9F8E1E4203120005072787954D8
:1019EE00616773204572617365640020E4FAE2E971
:1019FE00ED20F0EEE7F7E5202121004572617365D9
:101A0E0020616C6C2050727879320020EEE7F7205E
:101A1E00EBEC20F7E9F8E1E42032200044454620C3
:101A2E004E616D652F54454C204E43002046454473
:101A3E00F9E5EEF820E8EC20F9EEE5FA00526563E0
:101A4E00206461746146726F6D2053440020EEF77E
:101A5E00E1EC204154414420EEE42D445300536503
:101A6E006E64204461746120746F2044530020F929
:101A7E00E5ECE7204154414420EC202D4453004531
:101A8E006E747279206D6573736167653E232000F5
:101A9E0020F4FAE9E720E1F2E6F8FA2023200053D9
:101AAE0074616765206D657373616765200020E45E
:101ABE00E5E3F2FA20F7E5EEE4202000436C6F73C5
:101ACE006520646F6F72204D65732E200020E4E553
:101ADE00E3F2FA20F1E2E5F820E3ECFA20004E61A1
:101AEE006D652020416E6E6F756E6365202000203F
:101AFE00ECE4F7F8E9E020F9EEE5FA202000446F77
:101B0E006F7220666F726765744D455320200020FA
:101B1E0020F9E9EBE7FA20E3ECFA202020005765E4
:101B2E006C636F6D652062792044657420200020FF
:101B3E00F4FAE9E720EEE2ECE0E920202000526919
:101B4E006E67696E67204D65732E2020200020E49D
:101B5E00E5E3F2FA20F6ECF6E5EC202020004F70DB
:101B6E00656E20646F6F72204D657320200020E437
:101B7E00E5E3F2FA20F4FAE720E3ECFA20004170F4
:101B8E00703D30204F66666963653D31200020E36D
:101B9E00E9F8E43D3020EEF9F8E33D3120004465EC
:101BAE00742041637469766520422E4C200020E239
:101BBE00ECE0E920ECFAE0E5F8E420E0E72E005056
:101BCE00726F78792031202D3E526C7920312000B1
:101BDE0020F7E9F8E1E4312D3C20EEEEF1F831206A
:101BEE000050726F78792031202D3E526C79203260
:101BFE00200020F7E9F8E1E4312D3C20EEEEF1F87B
:101C0E0032200050726F78792032202D3E526C793E
:101C1E002031200020F7E9F8E1E4322D3C20EEEEF1
:101C2E00F1F831200050726F78792032202D3E521B
:101C3E006C792032200020F7E9F8E1E4322D3C20C7
:101C4E00EEEEF1F832200050726F78792B50696EFB
:101C5E0020436F6465200020E4F4F2ECE420F7E901
:101C6E00F8E1E42BF7E5E3004170704E616D6520FD
:101C7E00627920412D4220200020F9EEE5FA20EC79
:101C8E00F4E920E02DE12020200045787472726E78
:101C9E00616C2050726F787920200020F7E9F8E10E
:101CAE00E420E7E9F6E5F0E9202000456C6576656D
:101CBE00746F7220426F61726420200020F4E9F785
:101CCE00E5E320EEF2ECE9E5FA2020005265616CC6
:101CDE00542E432E20757365656420200020F9E98B
:101CEE00EEE5F920E1F9F2E5EF2020200053686FD0
:101CFE00772074656C20646174612020200020E4DC
:101D0E00F6E220F0FAE5F0E920E8EC272020004288
:101D1E0065657020696E20756E6C6F636B20200098
:101D2E0020E1E6F820E1F4FAE9E7FA20E3ECFA2004
:101D3E00006E6F206170702F6F666669636520207C
:101D4E00200020ECECE020E3E9F8E42FEEF9F8E3D4
:101D5E002000446972656374204469616C4D6F6440
:101D6E006520002020EEF6E120E7E9E5E220E9F922
:101D7E00E9F82000202046756C6C206D656E75208C
:101D8E0020202000202020FAF4F8E9E820EEECE0F4
:101D9E002020202000205365742075736572206307
:101DAE006F64650020E4EBF0F120F7E5E320ECF73B
:101DBE00E5E720005365744E616D65230020E4EB6A
:101DCE00F0F120F9ED230043726F7373546F2041CD
:101DDE007070230020E4F6ECE1E420ECE3E9F8E493
:101DEE00230044656C61792054696D6520202000C4
:101DFE002020E6EEEF20E4EEFAF0E42000446F6FD0
:101E0E0072204F70656E696E67200020E6EEEF203F
:101E1E00F4FAE9E7FA20E3ECFA200052656C6179F6
:101E2E003220446C792074696D650020E62E20E422
:101E3E00F9E4E9E420EEEEF1F820320052656C612F
:101E4E007932204F706E2074696D650020E62E2069
:101E5E00F4FAE9E7E420EEEEF1F8203200496C6C7A
:101E6E00756D696E6174696F6E2020002020E6EE3C
:101E7E00EF20FAE0E5F8E4200052696E67696E67BC
:101E8E002054696D652020200020E6EEEF20E4F658
:101E9E00E2FA20E3E9E9F820004E657874204469FF
:101EAE00616C2054696D6520002020E6EEEF20EC79
:101EBE00E7E9E5E220E4E1E0200050696E2B2050D6
:101ECE00726F78792074696D65200020E62EEEF62B
:101EDE00E120F7E5E32BF7E9F8E1E400446F6F72D8
:101EEE0020666F726765743E4D6573200020F9E9B8
:101EFE00EBE7FA20E3ECFA2DE4E5E3F2E4004465C7
:101F0E00743E77656C6C636F6D204D657320002099
:101F1E00E62E20EEE2E9ECE5E920ECF4FAE9E70042
:101F2E00542E746F206E616D6520616E6E6F75201C
:101F3E000020E6EEEF20ECE4E5E3F2FA20F9EEE520
:101F4E00FA00542E746F20666C6F6F72204D65739D
:101F5E002E200020E6EEEF20ECE4E5E3F2FA20F787
:101F6E00E5EEE400542E746F20646973702E206CBD
:101F7E00697374200020E6EEEF20ECE4F6E2FA201E
:101F8E00F8F9E9EEE4005570546F446973702073EC
:101F9E00656C656374002020F2E320ECE4F6E2FA4F
:101FAE0020F0E1E7F800546F446973702053656CBC
:101FBE0065637465640020E6EEEF20E4F6E2FA2035
:101FCE00F0E1E7F8200074616C6B2074696D652098
:101FDE0078313053270020E6EEEF20E3E9E1E5F813
:101FEE0020783031F9270042737579202D6E6F7489
:101FFE0020757365640020E6EEEF20FAF4E5F12D0E
:10200E0020F2FAE9E3E900436F6E6669726D2D4EB8
:10201E006F74207573650020E6EEEF20E0E9F9E5B8
:10202E00F82DF2FAE9E3E90041545345323D3032DE
:10203E005345333D30305345343D31325346343DB4
:10204E0034620D0041545346343D30620D0041540C
:10205E005346343D34620D00415441300D0041541D
:10206E0044540041540D00415445300D004154007C
:10207E005346353D30300D005346363D30300D0061
:10208E005346373D30300D005336323D30300D0063
:10209E0041545345343D30325345323D3032534630
:1020AE00343D30330D0041544D320D004154533008
:1020BE00373D3036410D000035354141363642420E
:1020CE0043430046525F4449534B5F4552520046CC
:1020DE00525F494E545F4552520046525F4E4F5426
:1020EE005F52454144590046525F4E4F5F46494C40
:1020FE00450046525F4E4F5F504154480046525F76
:10210E00494E56414C49445F4E414D450046525F43
:10211E0044454E4945440046525F45584953540084
:10212E0046525F494E56414C49445F4F424A4543E1
:10213E00540046525F57524954455F50524F5445D2
:10214E00435445440046525F494E56414C49445F04
:10215E0044524956450046525F4E4F545F454E41DC
:10216E00424C45440046525F4E4F5F46494C4553E4
:10217E00595354454D0046525F4D4B46535F4142B5
:10218E004F525445440046525F54494D454F5554A5
:10219E00004552524F523A005344204F4B3A2000C2
:1021AE005344204552524F523A20002C004C6F6738
:1021BE006963616C20647269766520303A206D6FB8
:1021CE00756E746564204F4B0D0A004441544134C2
:1021DE004B0046494E442054525900340054525933
:1021EE0034003300545259330032005452593200E5
:1021FE003100545259310046494C452045584953F7
:10220E0054530046494C45204E4F5420455849538F
:10221E00540046494E44204241434B5550004649D6
:10222E004E44205550444154450055504241434B75
:10223E00555000444F4E450046696C65204441544C
:10224E0041344B206F70656E6564204F4B0D0A0054
:10225E00526561642044415441344B204F4B0D0A6A
:10226E000057726974652044415441344B204F4BE2
:10227E000D0A0046696C6520555044415445206F47
:10228E0070656E6564204F4B0D0A00577269746558
:10229E0020555044415445204F4B0D0A005452597D
:1022AE0035004E414D4531004E414D45320054539F
:1022BE0054205550444154452056313500526573D3
:1022CE00756C743A0020202020004641494C0020B5
:1022DE0052454E414D45005465737420646F6E65D2
:1022EE002E0080C001002D4E414E00494E4600008A
:1022FE0002000200400109000005C40109000905A1
:10230E00CD01110012057102110023057102110099
:10231E003405710211004505710211005605710256
:10232E00070067059F2101006E05D0201E006F0576
:10233E00BB2101008D05D02001008E05D0200700A5
:10234E008F05D9211E009605BB210100B405D020B2
:10235E000100B505D0200500B605EB210100BB0537
:10236E00D0200500BC05F2210100C105D0200500DA
:10237E00C205F9210100C705D0200500C8050022BD
:10238E000100CD05D0200500CE0500220100D305A9
:10239E00D0200700D40525220100DB05D020070040
:1023AE00DC0531220700E30525220900EA05382263
:1023BE000700F30531220700FA0525220900010660
:1023CE00382207000A06312204001106E521050015
:1023DE00150641221E001A06BB2101003806D02028
:1023EE001E003906BB2101005706D02007005806F3
:1023FE00D92118005F06462201007706D020110071
:10240E0078065E2201008906D0201E008A06BB21B6
:10241E000100A806D0200700A906D9211800B00691
:10242E0046220100C806D0201200C9066F22010004
:10243E00DB06D0201E00DC06BB210100FA06D020F0
:10244E000700FB06312218000207812201001A073D
:10245E00D02012001B07992201002D07D0201E004C
:10246E002E07BB2101004C07D02001004D07D020C4
:10247E001E004E07BB2101006C07D02001006D0726
:10248E00D02005006E07412205007307AB2206001F
:10249E007807B02206007E07B6220200C40FF02293
:1024AE000100CB0FF2220000F894EE27ECBBF1E016
:1024BE00F5BFE5BFE0936C00F8E1F1BDE1BD8DE045
:1024CE00A2E0BB27ED938A95E9F780E090E1A0E0CA
:1024DE00B1E0ED930197E9F7EEEFF2E28591959178
:1024EE00009761F0A591B59105901590BF01F0018F
:1024FE0005900D920197E1F7FB01F0CF8BBFEFEF47
:10250E00EDBFE0E1EEBFC0E0D5E00C948E12A097D7
:10251E00E0E0E0939E07EFE1E1BDEFE0E1BDE8E42E
:10252E00EBBBE9E5EABBE8E0E8BBE7E0E7BBE0E0F0
:10253E00E5BBEFEFE4BBE0E8E2BBE1E6E1BBE6E0E2
:10254E00E3B9EEEFE2B9E0E1E0936200E0E9E09397
:10255E006100ECE1E0936500E7E0E0936400E6E003
:10256E00E3BFE0E0E0BFEBE4E2BFE0E0E1BFEFBDE0
:10257E00EEBDEDBDECBDE1E0EBBDEFE3EABDE0E0AD
:10258E00E9BDE8BDE0937900E0937800E4BDECE9A5
:10259E00E3BDECE0E5BDE3E4E0938B00E0E0E09327
:1025AE008A00E0938900E0938800E0938700E0932F
:1025BE008600E0938500E0938400E0938300E0932F
:1025CE008200E0936A00EABFE9BFE7B7E469E7BFBC
:1025DE00E0E0E0937D00E2E0EBB9E8E5EAB9EEE099
:1025EE00E0939500E0E0E0939000E1E8E9B90E9405
:1025FE00878CE6E0E0939D00E2E0E0939800E5EB47
:10260E00E0939900E0E0E0939B00E0939A00E09362
:10261E009D00E0939900E0939800E0E8E8B9E0E0CF
:10262E00E0BD7894A0E10E942A8C0E94DA8BA2E48D
:10263E00B1E00E948E8C0E94737D1E2FE03009F057
:10264E00C3C00E94DA8BA1E5B1E00E948E8CE0E05F
:10265E00F0E160E070E00E9428A2A0E20E94397FC3
:10266E001E2FE03009F0AFC00E94DA8BABE5B1E06F
:10267E000E948E8C0E94948CA4E6B1E00E94988CED
:10268E000E949B8C0E94A88CA4E7B1E00E94988CBB
:10269E00EFE0F0E060E070E00E94AB8CA4E8B1E007
:1026AE000E94988CEEE1F0E060E070E00E94AB8C4E
:1026BE00EEE1F0E060E070E00E94B48C0E947F7E5C
:1026CE001E2FE030C9F4A881A73719F4AC85AB36BC
:1026DE0009F005C00E94948CA4E9B1E004C00E94E8
:1026EE00948CA4EAB1E00E94778B0E94948C0E9495
:1026FE00BD8C0E94B87E0AC00E94948CA4EBB1E0FF
:10270E000E94988C0E94BD8C0E94B87EE0E0F5E09D
:10271E00FA93EA93A9E0B5E00E941A7FE03029F01F
:10272E000E94948CA6EDB1E004C00E94948CA6EE9B
:10273E00B1E00E94778B0E94948CECE3F0E060E0B5
:10274E0070E00E94B48C0E94B87E0E94907D1E2F75
:10275E00103029F40E94948CA6EFB1E004C00E94C0
:10276E00948CA6E0B2E00E94778B0E94948CEBE4EE
:10277E00F0E060E070E00E94B48C0E94B87E1030F1
:10278E0011F50E94948CA6E1B2E00E94988C0E94F2
:10279E009B8C0E94E87E1E2FE03029F00E94948CC4
:1027AE00A6E2B2E004C00E94948CA7E3B2E00E94BD
:1027BE00778B0E94948CEAE5F0E060E070E00E9476
:1027CE00B48C0E94B87E06C00E94DA8BA8E4B2E0F8
:1027DE000E948E8C0E945B660E94C0740E94C28C06
:1027EE00E0E1E0938B070E942D62689422F8E89452
:1027FE0021F820F8E3EBE093B50B0E949F59E1E03E
:10280E00F0E0E093AA0CF093AB0CE3EBE093B50B86
:10281E00E7B7EE7FE7BF0E94C621E1E0E093E30B4E
:10282E00EFEFE093C10BE8E3F0E0E093A80CF09338
:10283E00A90C689422F8919AE0E0E093200CC19ADA
:10284E00E4E0E093610CE1E0F0E0E093CC0CF09377
:10285E00CD0C0E94A063E0E0E0939E07879907C02D
:10286E0000000000879903C0E1E0E0939E07A89A5C
:10287E00E4B7E77041F00E94C98CE5E0E093860D65
:10288E000E94AD5902C0E3E3BE2EE0E0E4BFE09348
:10289E00020DE093030DE0933E0DE0933F0DE093A8
:1028AE00350C0E94CF8CE0E0E093850D0E94F14143
:1028BE002197A895E091840DE03001F1E150E0936D
:1028CE00840DA091840DA530C9F40E94D58C0E9470
:1028DE00DD8CE0918C07EF70E093460C0E94E28C49
:1028EE00E6E00E94EC8CE091460CA3E0EA9FF0013A
:1028FE00E15F0E94F48CE091800AECB9E091650DE5
:10290E00E03019F0E150E093650DE0918407E0307E
:10291E0019F0E150E0938407E091D10BE03011F40F
:10292E001A9A01C01A98A091D10BA13061F40E949D
:10293E00008DAC3DE5E0BE0718F40E94058D02C087
:10294E000E940D8D08C00E94008DA03DE7E0BE07DD
:10295E0010F40E94058DE091690DE03019F0E15000
:10296E00E093690DE091A60BF091A70B3097B9F0AB
:10297E00A6EABBE00E94138DE091A60BF091A70B87
:10298E00309721F4E091690CE03009F408C00E9400
:10299E00198DA091A107E2E0EA27E093A107AEE02E
:1029AE00BDE00E94208DE091460DF091470D3097CD
:1029BE0011F00000F8CFA0910E0DB0910F0D1C97E5
:1029CE0008F4A5C0E0E0E0930E0DE0930F0D0E9419
:1029DE00268D3A970E942B8DEA17FB0740F40E9432
:1029EE00268D3A960E942B8DAE17BF0708F00CC0AD
:1029FE00A091160DB091170DAF3FE0E0BE0720F489
:102A0E00A6E1BDE00E94208DE0911E0DF0911F0DFC
:102A1E000E942B8DEA17FB07A0F4E091200DF09198
:102A2E00210D0E942B8DAE17BF0758F4E0911E0D9D
:102A3E00F0911F0DA091200DB091210DEA17FB070B
:102A4E0008F039C0A091100DB091110DAF3FE0E02C
:102A5E00BE0720F4A0E1BDE00E94208DE091220D82
:102A6E00F091230D0E94308DEA17FB0730F40E947F
:102A7E00308DAA3FE0E0BE0708F006C0E091120DCF
:102A8E00F091130D309709F40CC0A091140DB09174
:102A9E00150DAF3FE0E0BE0720F4A4E1BDE00E94BB
:102AAE00208D0E94358DE093180DE093190DE0E016
:102ABE000E943B8D2AC0A091160DB091170D149750
:102ACE0010F00E94408DE0E0E093160DE093170D9C
:102ADE00A091100DB091110D149730F0E1E0F0E0DF
:102AEE00E093120DF093130D0E94478D0E942B8DD3
:102AFE00159730F40E94308DAF3FE0E0BE0708F02E
:102B0E0004C0A4EFBCE00E94208D0E944D8D0E9457
:102B1E00538D309721F4E091620DE03011F0DB9887
:102B2E0001C0DB9AA091A509AA3010F40E949479F5
:102B3E000E94CC770E94268D309711F40E94408D12
:102B4E00E0913C0DF0913D0DA091820CB091830C63
:102B5E00EA17FB0738F0A091760CB091770CEA17C4
:102B6E00FB0720F4E091AD09E030A1F0E091CA0C32
:102B7E00F091CB0C309771F4E091240DF091250D6E
:102B8E00A091140DB091150DAE17BF0710F0309730
:102B9E0009F4E6C00E94588DE091C60CF091C70C66
:102BAE00309769F00E945E8D50F40E94648D31F46E
:102BBE00E091CA0CF091CB0C309709F001C0B6C071
:102BCE00A8ECBCE00E94208DE0E0E093CA0CE093FC
:102BDE00CB0C0E946A8D0E94708D0E945E8D09F052
:102BEE0040C0E091000DE17019F0ECE5F7ED02C088
:102BFE00EAE6FBEAE0938807F0938907EFE0E093BB
:102C0E008B070E94768DA33220F0A0918C07A736F9
:102C1E0008F014C00E947D8D309711F00E94828DB5
:102C2E000E94888D11F00E948E8D0E947D8D3097AE
:102C3E0011F00E949C8D0E94A28D13C00E947D8D6A
:102C4E00309711F00E94828D0E94888D11F00E94A3
:102C5E00AC8D0E947D8D309711F00E949C8D0E944C
:102C6E00B28DA091C80CB091C90C119709F05EC03D
:102C7E00E091000DE17019F0E6EBF8EC02C0E4EC27
:102C8E00FCE9E0938807F0938907EFE0E0938B0768
:102C9E000E94768DA03209F045C0A8ECBCE00E94DF
:102CAE00208DE091000DE17019F0ECE5F7ED02C01A
:102CBE00EAE6FBEAE0938807F0938907EFE0E093FA
:102CCE008B070E94768DA33220F0A0918C07A73639
:102CDE0008F014C00E947D8D309711F00E94828DF5
:102CEE000E94888D11F00E948E8D0E947D8D3097EE
:102CFE0011F00E949C8D0E94A28D13C00E947D8DAA
:102D0E00309711F00E94828D0E94888D11F00E94E2
:102D1E00AC8D0E947D8D309711F00E949C8D0E948B
:102D2E00B28D04C0E2E0F0E00E94B98DE1E0E093E4
:102D3E00F40B0E94BE8D0E94C78D0E94DD8D0E94F5
:102D4E00E38D0E94E98DE0E0E0932E0DE0932F0DD0
:102D5E00E093300DE093310DE093320DE093330D9F
:102D6E00E091B80CF091B90C309711F0C99B01C0ED
:102D7E0008C00E94EF8DE0E0E093B80CE093B90C30
:102D8E0004C0C99902C00E94EF8DC99B0AC0E09190
:102D9E00BA0CF091BB0C309721F0E091AA09E0300B
:102DAE0009F4F4C1A8EBBCE00E94208DE091620012
:102DBE00EF77E0936200A091B80CB091B90C1B971D
:102DCE0008F4E4C1DE98E0E0E093BA0CE093BB0CAB
:102DDE00A091B60CB091B70C129730F0E093B60CF0
:102DEE00E093B70C0E94F58D0E94018EE0B1EF705A
:102DFE00F0E0ED93FC93E091FB0BF091FC0B309720
:102E0E0079F0A0919E0CB0919F0C0E947D8DEA1BD3
:102E1E00FB0BA091FB0BB091FC0BAE17BF0708F09C
:102E2E001DC0A091C40CB091C50C9D9759F00E9485
:102E3E00018E0E940CA2A091C40CB091C50CEA1791
:102E4E00FB0761F4E0E0E093FB0BE093FC0B0E94C8
:102E5E00708D0E940C8EA3E00E94F662A091700D00
:102E6E00B091710D9D9741F40E94018E0E940CA2AB
:102E7E00E093780DF093790DE091720DF091730D52
:102E8E00ED32A0E0FA0741F40E94018E0E940CA2DE
:102E9E00E093760DF093770D0E94018E0E940CA2A6
:102EAE00ED30A0E0FA0729F4ACEBBCE00E94208DD7
:102EBE0002C00E94E98D0E94018E0E940CA2EE308B
:102ECE00A0E0FA0729F4AEE2BDE00E94208D05C015
:102EDE00E0E0E0932E0DE0932F0D0E94018E0E94F4
:102EEE000CA2EF30A0E0FA0729F4A0E3BDE00E94A7
:102EFE00208D05C0E0E0E093300DE093310D0E948F
:102F0E00018E0E940CA2309729F4A2E3BDE00E942C
:102F1E00208D05C0E0E0E093320DE093330DA091DB
:102F2E00BC0CB091BD0C129790F4A0912E0DB091E7
:102F3E002F0D129760F4A091300DB091310D1297B4
:102F4E0030F4A091320DB091330D1297C0F1A091D3
:102F5E00BC0CB091BD0C129718F0E1E0F0E01AC075
:102F6E00A0912E0DB0912F0D129718F0E2E0F0E027
:102F7E0011C0A091300DB091310D129718F0E3E011
:102F8E00F0E008C0A091320DB091330D129730F0E1
:102F9E00E4E0F0E0E093A20CF093A30C0E94128EFA
:102FAE0019F0A2E00E94F6620E94188E0E94E98D2E
:102FBE00E2E0E093180C0E941F8E0E94268EE0E045
:102FCE00E093BE0CE093BF0CE091760DF091770D7F
:102FDE00A091700DB091710DEA17FB0731F4E1E08D
:102FEE00F0E0E093BE0CF093BF0CA091720DB09187
:102FFE00730DE091760DF091770DEA17FB0731F422
:10300E00E2E0F0E0E093BE0CF093BF0C0E94298E3C
:10301E001A9731F00E942E8EEA30A0E0FA0771F472
:10302E000E94708D0E946A8DE1E0E093F40B0E9485
:10303E001F8E0E94338EA2E00E94F662E091BE0CBB
:10304E00F091BF0C309709F480C0A091BE0CB091E6
:10305E00BF0C119771F5DD20D1F40E94398E0E94BC
:10306E00DD8CA0918C07A03349F40E94398E0E940A
:10307E00418E0E94488E0E94626608C00E94398E60
:10308E000E94418E0E94528E0E946C660DC00E945C
:10309E005C8EE091620CE07819F0E2E9E0937E0D2F
:1030AE000E94338E0E94618E0E946A8D0E94708DE6
:1030BE0039C0E0914B0CE030D1F40E94688E0E9432
:1030CE00DD8CA0918C07A03349F40E94688E0E947B
:1030DE00418E0E94488E0E945C6608C00E94688ED7
:1030EE000E94418E0E94528E0E94666617C00E94F8
:1030FE005C66E0914B0CE093510CE091620CE07831
:10310E0019F0E2E9E0937E0D0E94338EE0E0E09349
:10311E00070CE0934F0CE1E0E093520C0E94708D8F
:10312E000E946A8DE1E0E093A007E1E0F0E0E09319
:10313E00C00CF093C10CED2DE95FF0E00E94708E93
:10314E00E1E0E093F40B0E94268E0E94298E1B97DD
:10315E0071F00E94298E1C9751F00E942E8E3B9783
:10316E0031F00E942E8EEC30A0E0FA0721F40E947E
:10317E001F8E0E94268EA6EBBCE00E94208DDE9A4A
:10318E00E2E3F0E0E093C20CF093C30CC99906C0E1
:10319E00E1E0F0E0E093BA0CF093BB0C0E94758E68
:1031AE0031F4E091C20CF091C30C309729F0E0E0BD
:1031BE00E093BA0CE093BB0C049B0AC0A0915A0C8E
:1031CE00A23328F4E0915A0CEF5FE0935A0C07C03B
:1031DE00E0915A0CE03019F0E150E0935A0CA091B6
:1031EE005A0CA23318F0E1E0E0935B0CE0915A0C1C
:1031FE00E03011F40E947B8EE0915B0CE03089F0A0
:10320E00E091D10BE03021F4E091620CE07109F411
:10321E0008C0E0915C0CE03021F4E091550CE09395
:10322E005C0C059B0AC0A091570CA23328F4E091C8
:10323E00570CEF5FE093570C07C0E091570CE0304E
:10324E0019F0E150E093570CA091570CA23328F0DF
:10325E00E091580CE160E093580CE091570CE0308F
:10326E0029F4E0E0E093580CE093590CA091580C2F
:10327E00A13091F4E091580CE260E093580CE0918B
:10328E00D10BE03021F4E091620CE07209F404C03D
:10329E00E091220CE093590CE091540CE27021F075
:1032AE00E091580CE03009F405C0CC2019F0C09222
:1032BE009B0BA89AE091AA09E03019F00E94097BB5
:1032CE000FC0E0913E0DF0913F0D309721F4E0914B
:1032DE006500E26003C0E0916500ED7FE09365005C
:1032EE000E94EF64E091360CE03009F4BEC1E0E0DC
:1032FE00E093360CCF9904C0A091620DA33208F072
:10330E0007C00000CF9904C0E0E0E093620DDC98A6
:10331E00E091620DE03031F0E150E093620DE0306B
:10332E0009F4DC98E091860DE03051F0E150E09325
:10333E00860DE03029F4E0916200E061E0936200D6
:10334E00E091D10BE03011F00E94CF8CA0915E0D78
:10335E00AA3F28F4E0915E0DEF5FE0935E0DE091E1
:10336E006300E87021F4E0916300E07109F423C07A
:10337E00A0915E0DAE31F0F00E94818EA53010F05E
:10338E00A0E001C0A7E00E94F662A0915F0DA630FA
:10339E0028F0EFE1E1BDE0E0E1BDFFCFA091850DAA
:1033AE00A33040F0E0E0E093850D0E94C98CE4E08C
:1033BE00E093860D19C0A0915E0DA03FA8F00E946B
:1033CE00818EA03F28F0EFE1E1BDE0E0E1BDFFCF4F
:1033DE00A091850DA23040F0E0E0E093850D0E94B3
:1033EE00C98CE4E0E093860DE091A707E03009F484
:1033FE0059C0A091A707A33018F0E150E093A7079A
:10340E00A091A707A83209F04DC0E0E0E0936E0D41
:10341E00E0936F0DA091A807A13019F4EBE4FCE244
:10342E0002C0EBE2FBE5E0938807F09389070E9468
:10343E00988EE0E0E093540DA091540DA63020F547
:10344E000E949F8EA091A807AB3FD8F4DB98E1E0D5
:10345E00E093630DE0E0E8830E946063A091930720
:10346E00A03320F0A0919307A73408F004C0AEE675
:10347E00BDE00E94208DE091A807EF5FE093A807C2
:10348E00E1CF0E94A68ED8CFE0E0E093540DEFE09E
:10349E00E093680DE0E0E093640DE093670DE5E0E6
:1034AE00E093A707E091810DE03061F0E150E093E9
:1034BE00810DE03039F4E091830DE03019F4EFE83E
:1034CE00E0937E0DA091820DA53118F0E4E1E0931A
:1034DE00820DE091820DE03019F0E150E093820D03
:1034EE00E0915D0CE03009F47DC0E150E0935D0C9D
:1034FE00E03009F077C00E94AC8EE3E0E0938B07DA
:10350E00E1E0E883A881AD3308F060C00E94B38E7D
:10351E00A03320F0A0918C07AA3308F013C0A0911D
:10352E008D07A03320F0A0918D07AA3308F00AC0B2
:10353E00A0918E07A03320F0A0918E07AA3308F039
:10354E0001C001C006C00E94B88EEA0FE0937E0D46
:10355E0026C0A0918C07A03310F0AA3308F00AC041
:10356E00A0918D07A03320F0A0918D07AA3308F00B
:10357E0001C001C005C00E94CA8EE0937E0D0FC02F
:10358E00A0918C07A03310F0AA3308F006C0E0918A
:10359E008C07EF70E0937E0D02C0E1E4E883E091CA
:1035AE00210CA0917E0DAE1768F0E881E359E093EF
:1035BE007E0DA0917E0DAE3619F4E6EAE0937E0DF7
:1035CE00E1E4E883E881EF5FE8839CCFA0917E0D74
:1035DE00AF3618F4E0E0E0937E0DE0E0E093080DE6
:1035EE00E093090DE0917E0DE03021F0E091460C64
:1035FE00E03009F416C0DC9A0E94E28CE3E00E94EF
:10360E00EC8CE0917E0D0E94F48CE0E0E093370CA0
:10361E00E091800AECB9E0E0E0937E0DE4E1E09306
:10362E00620DE091AD09E03019F0E150E093AD0983
:10363E00E0913E0CE03031F0E150E0933E0CE0E0E2
:10364E00E0935E0DA091A207A23010F0A43108F015
:10365E0005C0E091A207E150E093A207A091A20756
:10366E00AA3019F4E0E0E093A207E0913E0CE030BE
:10367E0051F00E94D68EA53FE0E0BE0719F00E94E1
:10368E00DB8E09F401C0BBC0E091690DE03041F45E
:10369E00A091320CA03320F0A091320CA73408F088
:1036AE00AEC0E091650DE03009F0A9C00E94E08E39
:1036BE000E946063A0919307A03320F0A09193071E
:1036CE00A73408F00CC0E5E0E093670DE0E0E0936E
:1036DE00640D0E94E78EE3E0E093650D55C0E1E0D6
:1036EE00E093650DE0E0E093540DA091540DA630EB
:1036FE0008F04AC00E949F8EA091A807AB3F08F029
:10370E0040C0E1E0E093630DE0E0E883DB980E94C7
:10371E006063A881A83020F4E091630DE03009F4D5
:10372E0004C0E0913E0CE03009F40FC0E8810E9425
:10373E00ED8EE8810E94F28EEA1719F0E0E0E09338
:10374E00630DE881EF5FE883E4CFE091630DE03035
:10375E0091F0E091540DEF5FE0935C0DE091A807BE
:10376E00E0935D0DEBEFE093A807EAE0E093540DD4
:10377E00E2E0E093650DE091A807EF5FE093A80704
:10378E00BBCF0E94A68EB1CFA091650DA13009F5D9
:10379E000E94F78E0E94E92CA5E00E94F662EEE1EF
:1037AE00E093690DE4E0E093A2070E94E08E0E9490
:1037BE00018FA0919F07AE1720F4E0919F07EF5F56
:1037CE0001C0E1E0E0939F070E94E08E0E946063DB
:1037DE0010C0A091650DA23079F4E5E0E093640D80
:1037EE00E0E0E093670D0E94E78E0E94068F0E9434
:1037FE000B8FE0E0E093540DEAEFE093650DA0919E
:10380E00F40BA13009F0D6C0E2E0F0E0E0934A0DEF
:10381E00F0934B0DA0916F0CA43009F062C0A091F3
:10382E00650CA43029F00E940F8FE093610D59C0F2
:10383E000E94198F0E94278F0E94308FE1E0E8834B
:10384E00A881A031B0F50E94368F19F40E94468FE0
:10385E0010C0A0918E07A03221F40E94CA8EF0E013
:10386E0008C00E94468F0E944B8F0E94508F0E946C
:10387E00558FE093130CF093140C0E94508FA436C6
:10388E00E0E0BE0720F0E3E6F0E00E944B8F0E94DE
:10389E006A8F29F4E881E093610DE0E1E883A88165
:1038AE00AF3019F4E0E0E093610DE881EF5FE8835B
:1038BE00C7CF0E94718F0E94768F0E947B8FE093FC
:1038CE00AB09E091610DE03021F0A091610DA031C6
:1038DE0018F00E940F8F01C0E3E6E093610D0E9485
:1038EE00308F0E94878F0E948F8F309729F4A0917E
:1038FE006F0CA43009F05CC00E94958FA0916F0CE4
:10390E00A43021F4A091610DA33609F01DC0E09101
:10391E00E60BEF70F0E0A8EEB3E00E947BA1BF01D2
:10392E00E091E70BEF70A4E6EA9FF001F0E0E60FFE
:10393E00F71F0E949E8F0E947B8F0E94A38FF0E044
:10394E00EA0FFB1F0E949E8FA0916F0CA33041F5D2
:10395E00E1E0E883A881AB3F18F50E94368F19F499
:10396E000E94468F0CC0A0918E07A03221F40E94B7
:10397E00CA8EF0E004C00E94468F0E94A88FE0938A
:10398E00130CF093140C0E94AB8F31F4E881F0E02D
:10399E000E944B8FEBEFE883E881EF5FE883DACF8D
:1039AE00E0916D0CE093680CE0E0E093690C02C0CE
:1039BE000E94B08FE0916300E07129F4E3E3BE163C
:1039CE0008F4B39401C0BB24E2E3EB1579F40E9432
:1039DE00B68FEAE00E94418EAFE5B2E00E94778B8F
:1039EE001A980E94B98FA5E00E94F662CA9906C085
:1039FE00E0914C0DF0914D0D309709F00AC0A09159
:103A0E009A0BA23328F4E0919A0BEF5FE0939A0B96
:103A1E0013C0E0919A0BE03019F0E150E0939A0B4D
:103A2E00E0E0E0934C0DE0934D0DE0919A0BE03009
:103A3E0019F4E0E0E0931D0CA0919A0BA23330F044
:103A4E00E0911D0CE03011F4DD2009F01FC00E9442
:103A5E00398E0E94DD8CA0918C07A03361F40E94F8
:103A6E00398E0E94418E0E94BE8FA2E00E94F662A5
:103A7E000E94626608C00E94398E0E94418E0E948A
:103A8E00528E0E946C66E1E0E0931D0CA0919A0BA1
:103A9E00A23330F0E0919F0BE03011F4DD2009F4F9
:103AAE001CC0E091620CE07819F0E2E9E0937E0D23
:103ABE000E94C58F0E945C8EE0E0E0935E0DE09365
:103ACE00070CED2DEF5FF0E0E0934C0DF0934D0DF4
:103ADE00E1E0E0939F0BE093C50BE0919C0BE0308F
:103AEE0021F4E0919D0BE03009F42FC0E0E0E0936B
:103AFE009D0BE0935E0DDD20D1F40E94398E0E9465
:103B0E00DD8CA0918C07A03349F40E94398E0E945F
:103B1E00418E0E94488E0E94626608C00E94398EB5
:103B2E000E94418E0E94528E0E946C660BC0E091E4
:103B3E00620CE07819F0E2E9E0937E0D0E945C8E53
:103B4E000E94618EE1E0E093C50BE091500CE030F5
:103B5E0021F4E0914F0CE03009F437C0E0E0E0933F
:103B6E004F0CE0935E0DE0914B0CE030D1F40E94CF
:103B7E00688E0E94DD8CA0918C07A03349F40E94C0
:103B8E00688E0E94418E0E94488E0E945C6608C01C
:103B9E000E94688E0E94418E0E94528E0E9466661E
:103BAE0011C0E091620CE07819F0E2E9E0937E0D2D
:103BBE00E0914B0CE093510C0E94CF8FE093520C8E
:103BCE000E945C66E1E0E093C50BE0919E0BE03055
:103BDE0021F4E0919F0BE03009F409C00E946C665D
:103BEE00E0E0E0939F0BE6E0E0936A0CC8D3E0912F
:103BFE00510CE03021F4E091520CE03009F409C090
:103C0E000E946666E0E0E093520CE6E0E0936A0CF8
:103C1E00B6D3882009F08824772009F0B3C0E4E1F8
:103C2E007E2E0E94A475E093BE0B0E94D48F19F0D5
:103C3E00E0E0E093BE0BE091BE0BE03079F0E0E007
:103C4E00E0935E0DCC2019F0C0929B0BA89A0E94B7
:103C5E00DA8F19F0E4EBE093180C94C0E091260D86
:103C6E00F091270D309721F0E091710CE03009F4BE
:103C7E0084C0E091280DF091290D309731F4E09138
:103C8E00260DF091270D309709F464C00E94E38F42
:103C9E001A9760F4E091260DE093EA0BE091260D61
:103CAE00E093E60BE1E0E093670C3DC00E94E38FEA
:103CBE00A436E0E0BE0780F40E94E38F0E94E88FF6
:103CCE00E093EA0B0E94E38F0E94ED8F0E94F28F29
:103CDE00E2E0E093670C27C00E94E38FA83CE0E08F
:103CEE00BE0718F50E94E38F0E94FD8FE093EA0B4A
:103CFE000E94E38F0E940290E093EB0BA091EB0BDE
:103D0E00EAE00E94F4A1E093EC0BA091EB0BEAE049
:103D1E000E94AEA10E94F28FE091EC0BE093E80BB3
:103D2E00E3E0E093670CE093650C0E94E38FA83C00
:103D3E00E0E0BE0770F4E6E1E093BE0BCC2019F094
:103D4E00C0929B0BA89A0E94DA8F19F0E4EBE093D5
:103D5E00180C04C0AAE2BDE00E94208DA0912A0D8D
:103D6E00B0912B0DA837E0E0BE0730F00E9407900F
:103D7E00E0932A0DE0932B0D05C0E0E0E0932A0DB1
:103D8E00E0932B0D35FE12C0E091B90BEF5FE0937F
:103D9E00B90BA091B90BA43618F0E0E0E093B90B83
:103DAE00E091480CE03011F40E94B630E091B00C76
:103DBE00F091B10C309789F0A0EBBCE00E94138D0E
:103DCE00E091B00CF091B10C309739F40E940C9048
:103DDE00E0939C00A1E00E94F662E091340DF09118
:103DEE00350D3097B1F1E1E0F0E0E093360DF09350
:103DFE00370DA091340DB091350DA237E0E0BE071E
:103E0E00B1F4E0E0E883A881A03350F4B0E0A95506
:103E1E00B74FE881E05DEC93E881EF5FE883F3CF85
:103E2E00EDE0E093D708E0E0E093D8080AC0E09117
:103E3E00340DE093A708EDE0E093A808E0E0E093EE
:103E4E00A908E0E00E941390E0E0E093340DE093C7
:103E5E00350DE091B20CF091B30C309709F445C0DA
:103E6E00E0E0E093B20CE093B30C0E94D48F71F1BA
:103E7E00A0EABCE00E94138D0E94D48F31F0E09135
:103E8E00480DF091490D309709F1E0E0E093480DAF
:103E9E00E093490DE093A20CE093A30CE093AC0CDD
:103EAE00E093AD0C0E941A900E94BE8D0E9421904C
:103EBE000E94F1410E947161E1E0F0E0E093460D55
:103ECE00F093470D0E9488790E942690A091A00C35
:103EDE00B091A10C109719F40E942C9009F405C012
:103EEE00E0E0E093AC0CE093AD0CA091A80CB09187
:103EFE00A90CDD9740F0E0E0E093A80CE093A90C4C
:103F0E00EFEFE093C10BE091D00BE03031F0E0E049
:103F1E00E093D00BE1E0E093C50BE091180CE0309C
:103F2E0021F4A091D10BA13008F401C028D2E09168
:103F3E00820DE03021F0E0E0E093A5090DC037FEE0
:103F4E0004C0A091A509AA3009F006C0E89437F87C
:103F5E00A0917C0D0E94F57AE091920CF091930C59
:103F6E00309711F00E94C277A091170CA13220F069
:103F7E00A091D10BA23008F407C0E0E0E093170C3B
:103F8E0043D0E1E0E093C50B27FEFECFE89427F87F
:103F9E0021960C945F14FFCFE091D20BE03051F4D8
:103FAE00E0915A0DE03011F4EAD103C0E5E6E0935A
:103FBE005A0D29C0E1E0E093D10BE091D20BE15014
:103FCE00E093D20BF0E0EA52F44FE081E093D30B92
:103FDE000E94D68EE3E2F0E00E94BCA10E943290D5
:103FEE00E091D30BA091BC0BB091BD0BF0E0AE1BDA
:103FFE00BF0BA093BA0BB093BB0BE0E0E0939F070F
:10400E00E1E0E093C50B0895E091DE0BE03091F016
:10401E000E943790E081E093DF0BA091DF0BAE3270
:10402E0021F40E943790A0E203C00E943790AEE2C6
:10403E00A08305C00E943790A091DF0BA083A091B2
:10404E00DE0BE1E0EA27E093DE0BE0913E0CE03080
:10405E0039F00E943E9019F00E94DB8E09F401C0E7
:10406E0009C0E091D10BE03029F00E943790A09169
:10407E00660DA0830895E0E0E093170C0E94439034
:10408E0039F40E944890EAEF0E944B900E945190A2
:10409E000E945C9021F40E9461900E9464900E94A4
:1040AE006B9021F40E9470900E9464900E94739015
:1040BE0021F40E9478900E9464900E947B9021F4DB
:1040CE000E9480900E9464900E94839021F40E942E
:1040DE0088900E9464900E948B9021F40E94909090
:1040EE000E9464900E94D68EA637E2E0BE0731F49D
:1040FE000E9493900E9496900E9451900E949D90D3
:10410E0041F40E94A290E1E0E093E10BE4E00E9412
:10411E00A5900E94A89051F4E3EEFAE80E94768FE3
:10412E00ECE0E093E10BE6E00E94A5900E94AD90DA
:10413E0041F40E94B290E2E0E093E10BE3E00E94D2
:10414E00A5900E94B59041F40E94AC8EECE3E093F2
:10415E00E10BE3E00E94A5900E943E9049F40E947C
:10416E00BA900E94988E0E945190E0E0E093600D0C
:10417E000E94DB8E49F40E94BD900E94988E0E9490
:10418E005190E0E0E093600D0E94C09039F4EDEDA7
:10419E00FAE80E94768FE6E00E94C5900E94D590C4
:1041AE0029F40E94DA90E8E00E94C5900E94DD900A
:1041BE0029F40E94E290E0E10E94C5900E94E590F1
:1041CE0021F40E94EA900E94C5900E94EF9031F473
:1041DE000E94F4900E94F7900E94FE900E94099116
:1041EE0021F40E940E910E94C5900E94139161F4D9
:1041FE00E9E1F6EE0E94768FE1E0E093E10BE5E077
:10420E00E0938B070E94FE900E94189151F40E9439
:10421E001D91ECE0E093E10BE7E0E0938B070E9449
:10422E00FE900E94209121F40E9425910E94C5903B
:10423E000E94D68EA73CE1E0BE0721F40E94D58CE9
:10424E000E94C5900E94D68EA43AE1E0BE0721F4EA
:10425E000E942A910E94C5900E94D68EA936E0E057
:10426E00BE0739F40E94B68FE1E00E944B900E9487
:10427E00FE900E94D68EAC38E0E0BE0769F40E9434
:10428E002F91E1E00E944B90E8E00E943291E1E034
:10429E00E093DD0BE093DE0B0E94D68E9397B1F484
:1042AE000E94C28CEAEFE093E10BE0E1E0938B0712
:1042BE00E3E00E9432910E94389119F0E4E0E0931D
:1042CE00DD0B0E943F91EEE2E093640C0E94D68ECD
:1042DE00A13BE3E0BE0749F40E9448910E94F7908B
:1042EE00E6E00E9432910E944B910E944F9149F458
:1042FE000E9454910E94F790E5E00E9432910E9434
:10430E004B910E94579139F40E945C91E9E00E9412
:10431E005F910E944B910E94D68EA23DE0E0BE07B7
:10432E0049F40E9466910E949690E5E00E943291B7
:10433E000E944B910E94699139F40E946E91E2E1C4
:10434E000E945F910E944B91E0919F07E030B1F087
:10435E000E94D68E939749F40E9471910E94779194
:10436E000E947D9111F40E9485910E9489910E9474
:10437E00A89021F40E948D910E9412660895E0E0AB
:10438E000E949B91E1E0F0E00E9432900E94A09189
:10439E00E0939F07E0E0E093D20BE093D10B0895FA
:1043AE0022970E9479A2A091BE0BA13189F4E091CF
:1043BE00620CE17021F0E091220CE093590C0E9406
:1043CE000C8E0E94708D0E946A8D0E94A59116C45B
:1043DE00A091BE0BA93119F5EBE00E94AC910E94A1
:1043EE00AF910E94B5910E94B99111F00E94C491B3
:1043FE00A0916F0CA43080F4E0911E0CE03031F0EF
:10440E00E091530CEE0F6E0E961410F4E1E06E2E4A
:10441E000E94C9910E94CD910E94D791EFC3A091A5
:10442E00BE0BA53111F5EAE00E94AC910E94AF914E
:10443E000E94B5910E942D620E94B99111F00E94C6
:10444E00C491A0916F0CA43068F4E0911E0CE03082
:10445E0019F06394961410F4E1E06E2E0E94C99147
:10446E000E94CD910E94D791C9C3A091BE0BA731D6
:10447E0009F044C0EAE00E94AC910E94AF910E9404
:10448E00B5910E942D620E94B99111F00E94C491C3
:10449E00A0916F0CA43078F5E0911E0CE03049F439
:1044AE000E94DF910E94C9910E94CD910E94E991D4
:1044BE0019C0E1E0E61521F4692C0E94DF9101C0DC
:1044CE006A94662011F00E94C991E62DEF5F11F0FB
:1044DE000E94CD91E62DEE5F11F00E94E991E62D3E
:1044EE00ED5F49F0A62DAD5F0E945B61F0E0E093B9
:1044FE00AF0BF093B00B0E94D79180C3A091BE0B6F
:10450E00A63109F05DC2E091650CE03021F4E09136
:10451E004E0DE093650CE0E0E0934E0DE0934F0DF1
:10452E00A0916F0CA43009F061C0E093610DA091D1
:10453E00650CA43029F00E940790E093650C56C0DC
:10454E000E94198F0E94308F0E94278F01E0003148
:10455E0078F50E9493900E94F39119F40E94468F71
:10456E000CC0A0918E07A03221F40E94CA8EF0E0FA
:10457E0004C00E94468F0E94A88FE093130CF09304
:10458E00140C0E94508FA436E0E0BE0720F0E3E644
:10459E00F0E00E944B8F0E946A8F19F40093610D18
:1045AE0000E10F3019F4E0E0E093610D0F5FCFCF23
:1045BE000E94718F0E94768F0E947B8FE093AB09D1
:1045CE00E091610DE03021F0A091610DA03148F035
:1045DE000E940790E093650CE0E0E093E90BE09316
:1045EE00610DE0E0E093130CE093140C0E94878FB2
:1045FE00E03031F0A0916F0CA43010F4E1E001C076
:10460E00E0E00E948F8F309721F4A0916F0CA530BF
:10461E0008F009C0A0916F0CA43021F4E091610D57
:10462E00E03009F4C5C10E94958FE091620CE074F0
:10463E0039F0E8E0E093820DE1E9E0937E0D03C0EE
:10464E00E0E0E093820DE1E08E2EEBE4F0E0E0930B
:10465E00010CF093020CE091A209E093A007E0E0B8
:10466E00E093680C0E94FD91E093A509689437F8D9
:10467E000E94B28DE091F70BF091F80BE093F50BE1
:10468E00F093F60B0E94588D0E94358D0E943B8D43
:10469E000E94478D0E944D8DE091A90BE093C00BB7
:1046AE00E091000DE17019F0E6EBF8EC02C0E4ECDD
:1046BE00FCE9E0938807F0938907EFE0E0938B071E
:1046CE00A091C00B0E946063E0E0E093080CA09103
:1046DE008C07A33210F0A73608F012C00E947D8D11
:1046EE00309711F00E94828D0E94888D11F00E94E9
:1046FE008E8D0E947D8D309711F00E949C8D11C081
:10470E000E947D8D309711F00E94828D0E94888DBF
:10471E0011F00E94AC8D0E947D8D309711F00E9499
:10472E009C8DE0E0E093C80CE093C90CE093650C1F
:10473E00A0916F0CA43008F4D5C0A43009F079C054
:10474E00E091610DE093AB090E947B8FE093610DC8
:10475E00E1E0F0E00E949E8FA091AB09A73050F4EB
:10476E00E091610DE0937C0DE03019F4E4E6E09306
:10477E007C0D5EC0A091AB09A73010F0AD3008F0F3
:10478E000EC0E091AB09E650E093AB09E091610DEC
:10479E000E94059219F4E8ECE0937C0D49C0A091BB
:1047AE00AB09AD3010F0A03108F042C0A091610D00
:1047BE00A33320F4E091610DE03009F41AC0A0910A
:1047CE00AB09AD3011F4E1E00BC0A091AB09AE30F6
:1047DE0011F4E3E005C0A091AB09AF3019F4E5E0A8
:1047EE00E093AB09E9ECE0937C0DE091610DE853A9
:1047FE001DC0A091AB09AD3011F4E2E00BC0A09149
:10480E00AB09AE3011F4E4E005C0A091AB09AF30B6
:10481E0019F4E6E0E093AB09E091610DEA56E093FE
:10482E007C0DA0917C0DA63919F4EAEFE0937C0D76
:10483E0059C0A0916F0CA530C9F40E94718F3097AA
:10484E0029F4E5E0E093AB09E1E00DC00E94A38FEF
:10485E00EAEFF0E00E94BCA1EF5F0E940C92EAEF3B
:10486E00F0E00E94F7A1E0937C0D3CC0A0916F0C8C
:10487E00A630C1F50E940F92309761F4E4E00E94D9
:10488E000C920E9402900E94059219F4E8ECE093BB
:10489E007C0D28C00E940F92379770F40E940F92E1
:1048AE000E940C920E940290E0937C0DE03019F46D
:1048BE00E4E6E0937C0D16C00E940F92DF0137975D
:1048CE0018F0FD013A9708F00DC00E940F92E650C5
:1048DE000E940C920E9402900E94059219F4E8EC3C
:1048EE00E0937C0DA0916F0CA33051F501E00B3FCE
:1048FE0010F50E9493900E94F39119F40E94468F36
:10490E000CC0A0918E07A03221F40E94CA8EF0E056
:10491E0004C00E94468F0E94A88FE093130CF09360
:10492E00140C0E94AB8F29F4E02FF0E00E944B8F05
:10493E000BEF0F5FDCCFE091130CE0937C0D25C0E5
:10494E00E0916F0CE03029F4E091A90BE0937C0D1F
:10495E001CC0A0916F0CA13029F40E941192E0931B
:10496E007C0D13C0A0916F0CA23079F40E940F92AF
:10497E0031970E941792DA010E947BA1AF010E942B
:10498E001D923E2F340F30937C0DA0917C0D0E9412
:10499E00C762AE2F0E945A660E941F920E942192F9
:1049AE0019F0969A689431F8E0E0E0931C0C07C079
:1049BE000E94FD91E093650CA2E00E94F6621EC17A
:1049CE00A091BE0BA83109F0B3C0E0E0E0937D0DDD
:1049DE00E093A307E093A407E093F40BE093E90BB5
:1049EE000E940C8E0E94708D0E946A8DA091A50768
:1049FE00B091A607129788F0E1E0F0E00E94708E69
:104A0E00E091AA09E03031F0E1E0F0E0E093960C9D
:104A1E00F093970CE0E0E093A509E0E0E093680CDA
:104A2E00E0931E0C0E9427920E9405491E2FE0E083
:104A3E00E093650C113009F044C0E093670C0E94BE
:104A4E002C92E091540CE074AE2F21F0E09185078A
:104A5E00E03019F4EA2FE03099F5E0914D0CA09179
:104A6E004C0CEA1740F0A0929C0B0E94CF8F0E9434
:104A7E0032920E943D92E0914E0CA0914C0CAE17DA
:104A8E0030F00E9442920E9447920E943D92E09125
:104A9E004F0CE03021F0E0919D0BE03009F404C0A2
:104AAE000E9452920E94C58FE0914F0CE03021F48B
:104ABE00E0919D0BE03009F003C0A3E00E94F66286
:104ACE0036C0123059F40E942C920E945A92E0E0A5
:104ADE00E093200CA1E00E94F66229C0133041F44D
:104AEE000E942C920E945A92E1E0E093200C1FC08B
:104AFE00E1E0E093620DE0E0E093F40BE093660CEE
:104B0E000E940790E093670CE0E0E093650C0E9432
:104B1E00A591E4E1F0E0E093040DF093050DE1E0E2
:104B2E00E0935B0DE0E0E093A0070E94F14166C0C8
:104B3E00A091BE0BA13010F0AB3008F05FC0A09179
:104B4E00650CA43019F4E0E0E093650CA091650CBF
:104B5E00A33021F4A0916F0CA43009F00EC0E091A7
:104B6E00BE0BE093E90BA091E90BAA3019F4E0E03B
:104B7E00E093E90BE4E0E093650CA091650CA330A3
:104B8E00B0F40E947392A091BE0BA0830E94739208
:104B9E00A081AA3021F40E947392A0E0A083E0913C
:104BAE00650CEF5FE093650CE0E0E093E90BE091BC
:104BBE006C0CEF5FE093F40BA091BE0BAA3019F4CE
:104BCE00E0E0E093BE0BE091670CF0E0E651F44FAD
:104BDE00A091BE0BA083A091670CAA3028F4E0919F
:104BEE00670CEF5FE093670CECE3E093660CE091EB
:104BFE005B0DE03019F0EAE0E0935B0D0E9480A2BD
:104C0E00289608951A930A9300E0E091D10BE030B4
:104C1E0031F4A1E00E94F662C3DB0C94D72CA09174
:104C2E00D10BA13009F040C1E091BE0BE03079F01C
:104C3E00A091BE0BA83149F40E943E9019F00E943B
:104C4E00DB8E19F4E1E0E093590D0E940D8DA1E089
:104C5E000E94F662E0E0E093F40BA091BE0BA5314A
:104C6E0009F067C00E947992C1F0E091D30BE13058
:104C7E0011F4E2E00FC0E23011F4E5E10BC0E531D2
:104C8E0011F4E6E107C0E63111F4E7E103C0E731C4
:104C9E0019F4E1E0E093D30B49C0E091700CE0749D
:104CAE00C1F5E091D30BE13011F4E2E02FC0E23018
:104CBE0011F4E3E02BC0E33011F4E4E027C0E4305C
:104CCE0011F4E5E023C0E53011F4E5E11FC0E53154
:104CDE0011F4E6E11BC0E63111F4E6E017C0E63050
:104CEE0011F4E7E013C0E73011F4EEE00FC0EE3040
:104CFE0011F4E0E10BC0E03111F4EBE107C0EB3150
:104D0E0011F4EDE103C0ED3119F4E1E0E093D30BC2
:104D1E000DC0E091D40BA091D30BEA1711F4E1E092
:104D2E0003C0E091D30BEF5FE093D30B0E9482920E
:104D3E00BAC0A091BE0BA73109F066C00E9479924D
:104D4E00C1F0E091D30BE13011F4E7E10FC0E73190
:104D5E0011F4E6E10BC0E63111F4E5E107C0E531EF
:104D6E0011F4E2E003C0E23019F4E1E0E093D30B7A
:104D7E0048C0E091700CE074C1F5E091D30BE130C6
:104D8E0011F4EDE12FC0ED3111F4EBE12BC0EB315D
:104D9E0011F4E0E127C0E03111F4EEE023C0EE3073
:104DAE0011F4E7E01FC0E73011F4E6E01BC0E63077
:104DBE0011F4E6E117C0E63111F4E5E113C0E53177
:104DCE0011F4E5E00FC0E53011F4E4E00BC0E4307F
:104DDE0011F4E3E007C0E33011F4E2E003C0E23087
:104DEE0019F4E1E0E093D30B0CC0A091D30BA130EA
:104DFE0019F4E091D40B03C0E091D30BE150E09392
:104E0E00D30B0E9482924FC0A091BE0BA631E1F54A
:104E1E000E948992E091D50BE150A091D20BAE1772
:104E2E00E8F4E091D20BF0E0EA52F44FA091D30BEC
:104E3E00A083E091D20BEF5FE093D20BE1E0E09321
:104E4E00D30BA091BC0BB091BD0BE3E20E94A3A1CA
:104E5E00E093BA0BF093BB0B0E9482920CD90E9486
:104E6E00139131F40E94A0630E948F92E89425F86A
:104E7E000E94189119F00E94139129F40E94B89281
:104E8E00E0610E94BD920FC0A091BE0BA13159F4FA
:104E9E000E948992E0E0E093F40BE89426F87CD827
:104EAE00E1E0E093690C7CC5A1E00E94F662E0911E
:104EBE00DE0BE03009F4A8D8A091BE0BA83169F43E
:104ECE000E94D68E939719F0A3E00E94F662E4EF4B
:104EDE00F1E0E0936C0DF0936D0DA091BE0BA2303E
:104EEE0011F40E940D8D0E943E9019F00E94DB8EEF
:104EFE0069F4A091BE0BA23011F4E8E105C0A091B7
:104F0E00BE0BA83119F4E2E0E093BE0BA091BE0BEC
:104F1E00A83109F0BEC1E0E0E093A9070E945C90C1
:104F2E00A9F00E946B9091F00E94739079F00E940C
:104F3E007B9061F00E94839049F00E948B9031F03B
:104F4E000E944F9119F00E94209161F4E091A10707
:104F5E00E17011F4689424F846D5E091A107EE7F34
:104F6E00E093A1070E94D68E939709F05BC0E09163
:104F7E009E07E03051F1A091DD0BA53018F00E9494
:104F8E00C29222C0E0E0E0939D07A091600DA13097
:104F9E0019F4E1E0E093540D0E94CB920E94CF925F
:104FAE0031F40E94068F0E94D6920E94DB92E0E0BE
:104FBE00E093600D0E94F1410E94D68E939711F4FA
:104FCE000E9471610E94D31F2CC00E94E192E09159
:104FDE008B07A091DD0BEA1708F5E091600DE0302C
:104FEE0041F4E5E00E94E7920E9471910E94779150
:104FFE0015C0A091600DA23069F40E94CB92E1E041
:10500E00E093600DE5E0E093DD0B0E9471910E944C
:10501E00779104C0E0918B07E093DD0BE0E0E09325
:10502E00E00B36C10E943E9019F00E94DB8EA9F46F
:10503E00E1E0E093DD0B0E94F78EB5D40E94068F5F
:10504E000E940B8F0E94E08E0E942B63E1E0E093A2
:10505E00A207E0E0E093540D1BC10E94439061F063
:10506E000E94A89041F4A0914D0CA03021F4A09183
:10507E004E0CA03009F00AC0E1E0E093DD0B0E9477
:10508E00F78E91D4E1E0E093A20702C10E94C09096
:10509E0009F0FEC0A0919F07A53018F4E4E0E0935C
:1050AE00490CA1E00E94F662DB98A0919F07A13007
:1050BE0079F40E944890EAE0E0938B0711E01B3FE1
:1050CE0030F40E94068F0E94ED921F5FF8CF87C0CA
:1050DE00A0919F07A230B9F50E94F492A091560DAF
:1050EE00A53428F40E94FC920E940493F7CF0E94EC
:1050FE000A930E94BA90E8E0E0938B0711E01B3F01
:10510E00F0F40F5F033010F40E940E63063021F4AA
:10511E00A3E00E94F66200E00E94068F0E940B8FB1
:10512E00E0E0E093540DA091540DA63030F4A12F81
:10513E000E942B630E94A68EF6CF1F5FE0CFE0E0A9
:10514E00E093540D4CC0A0919F07A330B9F50E9477
:10515E00F492A091560DA53428F40E94FC920E9460
:10516E000493F7CF0E940A930E94BD90E8E0E0936B
:10517E008B0711E01B3FF0F40F5F033010F40E9419
:10518E000E63063021F4A3E00E94F66200E00E9456
:10519E00068F0E940B8FE0E0E093540DA091540D0A
:1051AE00A63030F4A12F0E942B630E94A68EF6CF5C
:1051BE001F5FE0CFE0E0E093540D11C0A0919F0778
:1051CE00A43069F40E9421930E94418EA2E8B2E0BD
:1051DE000E9426930000A1E00E94F662FBCFA091F0
:1051EE009F07A53009F03EC0A895C198C2980E94AD
:1051FE001C63E0E0E093520DE093530DA091520D2D
:10520E00B091530D1A9770F40000B39905C0A2E542
:10521E00BDE00E94208D05C0E0E0E093520DE093CA
:10522E00530DECCFA8950000A1E00E94F662DB982A
:10523E00E6E0F0E00E942B930E94309329F027FEC7
:10524E00FECF0E943693F8CFEFEFF0E00E942B9343
:10525E00DB9A0E94309329F027FEFECF0E943693F0
:10526E00F8CFE0CFA0919F07A63049F4C198C29A1B
:10527E000E941C630000A1E00E94F662FBCFDB9A45
:10528E00E0E0E093020DE093030DA1E00E94F662D0
:10529E0087C3A091BE0BA93109F06EC00E940D8D7F
:1052AE000E943E9019F00E94DB8EA9F40E94E08EBF
:1052BE000E94018FE950A0919F07AE1720F4E09154
:1052CE009F07E65F01C0E1E0E0939F070E94E08E3A
:1052DE000E94779150C00E943B9379F00E946B9090
:1052EE0061F00E94739049F00E947B9031F00E9411
:1052FE00839019F00E948B9009F407C0A091600D65
:10530E00A13019F4E1E0E093540D0E94CB920E947B
:10531E00CF9231F40E94068F0E94D6920E94DB92A9
:10532E00E0E0E093600DE091E10BE950A0919F0762
:10533E00AE1720F4E0919F07E65F01C0E1E0E09335
:10534E009F070E94D68E939749F40E9471910E94F6
:10535E0077910E947D9111F40E9485910E9489910E
:10536E000E943E9331F40E94389119F0E4E0E093EC
:10537E00DD0B0E94449314C3A091BE0BA53109F01E
:10538E0077C00E940D8D0E943E9019F00E94DB8E18
:10539E00A1F40E94E08E0E94018FA0919F07AE178C
:1053AE0020F4E0919F07EF5F01C0E1E0E0939F07DB
:1053BE000E94E08E0E9477915AC00E943B9379F032
:1053CE000E946B9061F00E94739049F00E947B9056
:1053DE0031F00E94839019F00E948B9009F407C05F
:1053EE00A091600DA13019F4E1E0E093540D0E94FC
:1053FE00CB920E94CF9231F40E94068F0E94D692D9
:10540E000E94DB920E944A9321F40E948D910E9489
:10541E00F665E091E10BA0919F07AE1720F4E091A5
:10542E009F07EF5F01C0E1E0E0939F070E94D68ED9
:10543E00939749F40E9471910E9477910E947D91F9
:10544E0011F40E9485910E9489910E94A89021F4E6
:10545E000E948D910E9412660E943E9331F40E942A
:10546E00389119F0E4E0E093DD0B0E94449398C26A
:10547E00A091BE0BA73109F07AC00E940D8D0E943B
:10548E003E9019F00E94DB8EC1F40E94E08E0E94C5
:10549E002B63A0919F07A23020F0E0919F07E1506F
:1054AE0002C0E091E10BE0939F07E1E0E093DD0B9A
:1054BE000E94E08E0E94779159C00E943B9379F032
:1054CE000E946B9061F00E94739049F00E947B9055
:1054DE0031F00E94839019F00E948B9009F407C05E
:1054EE00A091600DA13019F4E1E0E093540D0E94FB
:1054FE00CB920E94CF9231F40E94068F0E94D692D8
:10550E000E94DB920E944A9321F40E948D910E9488
:10551E00F665A0919F07A23020F0E0919F07E15021
:10552E0002C0E091E10BE0939F070E943E9331F49D
:10553E000E94389119F0E4E0E093DD0B0E94449351
:10554E000E94D68E939749F40E9471910E94779192
:10555E000E947D9111F40E9485910E9489910E9472
:10556E00A89021F40E948D910E94126619C2A091FA
:10557E00BE0BA03271F50E94D68E9397F1F4E09196
:10558E00DD0BE1501E2FE0918B07E11730F00E94EA
:10559E004E93A0E2A0831F5FF6CFE091600DE03046
:1055AE0059F4E2E0E093600DEEEAF9E00E945393C5
:1055BE00A2E7BAE00E94C14109C026FE07C00E94C0
:1055CE00E192E091A107E160E093A107E89426F84B
:1055DE00E7C1A091BE0BA13121F4E091490CE0305E
:1055EE0009F032C1E2E0E0935A0DE0E0E093F40BF3
:1055FE000E941391C9F50E94468F0E9459930E94F2
:10560E005E930E9460A220F4A4EDBCE00E94138D74
:10561E000E945E93179720F0E6E0F0E00E94599307
:10562E000E946393ADE8B7E0EC91EF70EC93AEE8B7
:10563E00B7E0EC91EF70EC930E946F9310F00E9424
:10564E0082930E948993AFE8B7E0EC91EF70EC93F0
:10565E00A0E9B7E0EC91EF70EC930E94959310F0F7
:10566E000E94AA930E94B193E0919E07E03009F444
:10567E0075C0DB980E94D68E939779F50E94E192C1
:10568E00E0918B07E150A091DD0BEA1710F5E09148
:10569E00600DE03041F4E4E00E94E7920E947191C7
:1056AE000E94779116C0A091600DA23069F40E94FD
:1056BE00CB92E1E0E093600DE4E0E093DD0B0E941D
:1056CE0071910E94779105C0E0918B07E150E093B4
:1056DE00DD0BE0E0E093E00B40C0E0E0E0939D07DF
:1056EE000E943E9019F00E94DB8E21F4E091600D35
:1056FE00E093540D0E94CB92E0E0E093540D0E9493
:10570E003E9019F00E94DB8E19F4E0E0E093600DFC
:10571E00E091A207E03019F00E943E9009F002C01D
:10572E000E94EA63E091A207E03019F00E94DB8E3E
:10573E0009F002C00E9459640E94A89021F40E94B0
:10574E008D910E94F6650E94F1410E94D68E93972C
:10575E0011F40E9471610E94D31F74C0DB98A09156
:10576E00DD0BA63020F00E94D68E939709F003C071
:10577E000E94C29267C0E0E0E0939D070E945C9099
:10578E0079F00E946B9061F00E94739049F00E9434
:10579E007B9031F00E94839019F00E948B9009F457
:1057AE0011C0A091600DA13019F4E1E0E093540D09
:1057BE000E943E9019F00E94DB8E21F4E091600D64
:1057CE00E093540D0E94CB92E091A207E03019F0C5
:1057DE000E943E9009F002C00E94EA63E091A20787
:1057EE00E03019F00E94DB8E09F002C00E9459646D
:1057FE00E8E0E0938B07E0E0E093540D0E943E90CA
:10580E0019F00E94DB8E19F4E0E0E093600DA09198
:10581E00600DA23031F40E94068F0E94D6920E9433
:10582E00DB920E944A9321F40E948D910E94F665AC
:10583E000E94F1410E94D68E939711F40E947161DD
:10584E000E94D31FDB9AACC0A091BE0BA63109F00B
:10585E004BC0E0E0E093A9070E945C90C1F00E946B
:10586E006B90A9F00E94739091F00E947B9079F05A
:10587E000E94839061F00E94189149F00E9420913D
:10588E0031F00E948B9019F00E94209119F40E9421
:10589E00F78E89D00E94D68E939729F5DB98E0E09B
:1058AE00E0939D07A091600DA23049F4E093540D52
:1058BE000E94CB920E94068F0E94C89304C0E09172
:1058CE00600DE03019F0E1E0E093540D0E94CB92B0
:1058DE00E0E0E093540DE093600D0E94F1410E94D0
:1058EE0071610E94D31F5CC00E94D68E939799F46B
:1058FE000E940D8D1BD1E0E0E093DE0BE093170CC0
:10590E000E943790E081E093DF0B0E940B20E1E0D4
:10591E00E093C50B45C00E940D8D0E94A89041F4E6
:10592E00A0914D0CA03021F4A0914E0CA03009F0A6
:10593E0002C010E001C011E00E94A89009F010E032
:10594E000E943E9029F00E94DB8E11F0113009F476
:10595E0008C0A091DD0BA13019F40E94F78E23D060
:10596E0042D00E943E9019F00E94DB8E21F4A0914D
:10597E00BE0BA23009F014C00E94E08E0E942B6371
:10598E00E091600DEF5FE093600DA091600DA63089
:10599E0018F0E0E0E093600D0E94E08E0E94779197
:1059AE00099119910895AA931A93EC81E1501E2F33
:1059BE00E9811E1730F40E94CC93E0E2EC931F5F56
:1059CE00F7CF0EC0AA931A9310E0E9811E1740F488
:1059DE000E94CC93E12F0E94F28EEC931F5FF5CFC5
:1059EE001881259608951A93A091BE0BA13010F040
:1059FE00AB3010F024FE96C0A091BE0BAA3019F465
:105A0E00E0E0E093BE0B24FE43C00E944F9119F0DC
:105A1E000E94209109F439C0A091600DA13011F4BB
:105A2E00EAEF13C0A091600DA23011F4E3EF0DC0A8
:105A3E00A091600DA33011F4E6E307C0A091600DB4
:105A4E00A43011F4EAE001C0EDEFE093BE0BA0919B
:105A5E00DD0BA13061F4A091600DA43020F4E09133
:105A6E00600DEF5F01C0E0E0E093600D0BC0A09110
:105A7E00600DA33020F4E091600DEF5F01C0E0E017
:105A8E00E093600D689426F803C0EDEFE093BE0B33
:105A9E0024FC0CC00E943790DF01E091BE0BE05D4C
:105AAE00EC930E94E192E89426F80FC00E94379082
:105ABE00DF01E091BE0BE05DEC930E944F9119F077
:105ACE000E94209111F40E94E192E89424F8E09152
