:020000020000FC
:0E0000000C9458120C9400000C9400000C9408
:10000E0000000C9400000C9400000C9400000C9462
:10001E0000000C9400000C949D540C9400000C9461
:10002E0000000C949D490C9400000C9400000C945C
:10003E0000000C948F540C9400000C94364C0C94CD
:10004E00704C0C94494C0C9400000C9400000C94D1
:10005E0000000C9400000C9400000C9400000C9412
:10006E0000000C9400000C9400000C947D4C0C9439
:10007E0000000C9469540C9400000C9400000421B0
:10008E000521112111211C21292134213F214F212C
:10009E0059216221742187219821A721B821C821D5
:1000AE00809A90418E418F804545454949498E8FB2
:1000BE009092924F994F555559999A9B9C9D9E9F00
:1000CE0041494F55A5A5A6A7A8A9AAABAC21AEAF8D
:1000DE00B0B1B2B3B4B5B6B7B8B9BABBBCBDBEBF9A
:1000EE00C0C1C2C3C4C5C6C7C8C9CACBCCCDCECF8A
:1000FE00D0D1D2D3D4D5D6D7D8D9DADBDCDDDEDF7A
:10010E00E0E1E2E3E4E5E6E7E8E9EAEBECEDEEEF69
:10011E00F0F1F2F3F4F5F6F7F8F9FAFBFCFDFEFF59
:10012E001027E80364000A0001000010000110000F
:10013E000100000054535420004241434B555000DF
:10014E005631390044617461346B204F6B00457237
:10015E00617365204F6B0020465720000D0A006525
:10016E007261736520646F6E65206F6B0D0A007788
:10017E007269746520646F6E65206F6B0D0A007274
:10018E006561642020646F6E65206F6B0D0A0072CE
:10019E00656164776B6661696C6564200D0A007237
:1001AE0065616420206661696C6564200D0A004EED
:1001BE00414D4530303031004E414D4530303034B8
:1001CE000052656E616D65206661696C65640072D2
:1001DE00656E616D6531206661696C65640A0052F9
:1001EE00656E616D65204F6B0072656E616D653178
:1001FE00207061737365640A0052656E616D6520CF
:10020E00636865636B204F6B0052656E616D652090
:10021E0063686B204661696C00757064617420645C
:10022E006F6E65206F6B0D0A0075706461746520CA
:10023E006661696C65640D0A007468697320697380
:10024E00207570646174652E007570647420666923
:10025E006C6C206661696C0D0A00757064742066A2
:10026E00696C6C20646F6E650D0A004461746134B4
:10027E006B204661696C0030002020202020202059
:10028E00200031323334353620202020202020200B
:10029E002020200020202020202020202020202070
:1002AE00202020200035006170702E2072696E674C
:1002BE00696E6720202020004F66666963652052B4
:1002CE00696E6720202020200054656E616E7420B8
:1002DE0052696E67202020202000547279204361DD
:1002EE006C6C204F7468657220200020EEF6ECF6E0
:1002FE00EC20ECE3E9F8E4203330200020EEF6ECBD
:10030E00F6EC20ECEEF9F8E3203330200020EEF688
:10031E00ECF6EC20ECE3E9E9F82033302000202065
:10032E00EEF0F1E420EEF1F4F820E0E7F8200053CF
:10033E00656C656374206170702E20202020200073
:10034E0053656C656374204F666669636520200093
:10035E0053656C6563746564202020202020202066
:10036E0020005072657373204220746F2063616C9D
:10037E006C002020F0E1E7F8E420E3E9F8E4203314
:10038E003020002020F0E1E7F820EEF9F8E32020FD
:10039E00333020002020F0E1E7F820E3E9E9F820EF
:1003AE0020333020002D2D2D2D2D20454E44202D77
:1003BE002D2D2D2D2D2000202D2D2D2D20F1E5F371
:1003CE00202D2D2D2D2D2D200020202020202020F1
:1003DE002020202020202020202000455849542075
:1003EE003C2D202A202023202D3E0020E9F6E9E096
:1003FE00E43E2D202320202A202D3C0045726173DF
:10040E006520616C6C2050727879210020506C65EB
:10041E00617365205761697421210020EEE7E9F7C9
:10042E00E420EBE5ECECFA21212120002020F0E085
:10043E0020ECE4EEFAE9EF202121212000312F36C5
:10044E00204E6578743F50726573732A0050726542
:10045E0073733220746F2045726173650020362FDE
:10046E003120ECE1E02D20E4F7F9202A20002020B5
:10047E00ECEEE7E9F7E420E4F7F920322020005013
:10048E00726573732A20746F204572617365002044
:10049E0020ECEEE7E9F7E420E4F7F9202A2020002B
:1004AE00202041726520796F7520737572653F004B
:1004BE0050726573732A20746F20737461727400A6
:1004CE002020E4E0ED20E0FAE420E1E8E5E73F203B
:1004DE0000202020ECE4F2E1F8E420E4F7F9202AF1
:1004EE0020006F7074696F6E206E756D626572207C
:1004FE0031004279207465737420202B2F2D20310A
:10050E0020006F7074696F6E206E756D626572205B
:10051E0032004D61782073656E7361746976653053
:10052E0000426573742D2062792074657374210006
:10053E0070756C73657320696E203530206D5300B5
:10054E004C6F772066726571206C6576656C200045
:10055E004279207465737420202D313020202000C4
:10056E00757065722066726571206C6576656C00BB
:10057E004279207465737420202B313020202000A6
:10058E00427265616B206F6E2043616C6C2020009F
:10059E00426173652074696D65203530206D53009E
:1005AE00546F206E6578742070686F6E652E2E0005
:1005BE0030203D77697468206E6F20746573740007
:1005CE00746F2068616E672070686F6E652E2E00E6
:1005DE007265636F6D6D2030382074696D65200013
:1005EE0020E0F4F9F8E5FA20EEF127203120202062
:1005FE000020ECF4E920E4F0EEE3E3202B2F2D2095
:10060E00310020E0F4F9F8E5FA20EEF1272020324F
:10061E0020200020302020F8E2E9F9E5FA20EEF85B
:10062E00E1E9FA0020EEE5EEECF520ECF4E920E449
:10063E00F0EEE3E30020EEF120F4E5ECF120E13002
:10064E003520EEECE9002020F7E520E2E9ECE5E9C3
:10065E0020FAE7FAE5EF002020ECF4E920E4F0EED2
:10066E00E3E32030312D20002020F7E520E2E9ECF5
:10067E00E5E920F2ECE9E5EF002020ECF4E920E4D6
:10068E00F0EEE3E32030312B200020E4F4F1F7E428
:10069E0020E1E9EF20F6ECF6E5EC0020E1F1E9F1DE
:1006AE0020E6EEEF20303520EEECE90020ECE8EC11
:1006BE00F4E5EF20E4E1E0202E2E2E200020302065
:1006CE002020ECECE020E1E3E9F7E420200020EC30
:1006DE00F0E9FAE5F720E4F9E9E7E42E2E2E002002
:1006EE00EEE5EEECF520383020F4F2EEE9ED2000E8
:1006FE00446F206E6F742073656C656374203000D8
:10070E006F722075736520646F6F72206B65790050
:10071E0020F0E020ECE020ECE1E7E5F820EEF7F940
:10072E0000203020E0E520EEF7F920E3ECFA312F3F
:10073E0032004448484D4D203C3C3C444953504CBB
:10074E00590053686F772076616C75653E3E534550
:10075E00540020FAF6E5E2E43A202020204D4D48E0
:10076E0048440020E4F2F8EA20E4EEE5F6E220E95F
:10077E00F9EEF80056616C75653020416E792043B4
:10078E00616C6C0031206F722032206F7220333D0D
:10079E00312B32002020F2F8EA203020EBEC20F74B
:1007AE00F8E9E0E400203120E0E5203220E0E52009
:1007BE00333D312B3200444444444444443C3C4495
:1007CE004953504C5900313D53756E646179373D34
:1007DE0053617465720020FAF6E5E2E43A20204493
:1007EE004444444444440020313D20E9E5ED20E0FA
:1007FE002720373DF927200048484D4D7878783C22
:10080E003C444953504C59005374617274202F5319
:10081E00746F702074696D0020FAF6E5E2E43A20F8
:10082E00207878784D4D48480020E6EEEF20E4FA27
:10083E00E7ECE4202FF1E9E5ED00303D4164642062
:10084E0056616C20312D313030200053746570208C
:10085E00323D4E6577333D344447200020E4E5F1C8
:10086E00F320F2F8EA3D3020313DEBEC0020303041
:10087E003120323DE7E3F920333D34F1F4004D6190
:10088E0078207370656564203D2030200020EEF7DF
:10089E00F1E9EEE5ED20F2F8EA203D3020003030AF
:1008AE0030203D6E6F742061637469766520002080
:1008BE00303030203D20ECE020F4F2E9EC20200036
:1008CE005665723332332030352F30392F323400A3
:1008DE00262052696E67204E616D6520447370004C
:1008EE004D61785265636F56616C75653035730076
:1008FE00204D696E2056616C7565203120002054A4
:10090E00696D6520696E207365632020200020319B
:10091E002F3420736563206261736520003C3420A0
:10092E007265706C616365206279340054696D651F
:10093E003D313020582076616C7565004E4F542045
:10094E00494E20555345204E4F5721003020726599
:10095E00706C616365206279310020E5FAF6E5E29C
:10096E00FA20F9ED20EEF6ECF6EC0020EEE5EEECDA
:10097E00F520353020F9F0E9E5FA200020EEE9F017
:10098E00E9EEE5ED20F2F8EA203D312000202020AE
:10099E0020F2F8EA20E1F9F0E9E5FA20200020F74C
:1009AE00E8EF20EE3420E9E5E7ECF320E134002017
:1009BE00E1F1E9F120342F3120F9F0E9E4202000B3
:1009CE0020EEE9F0E9EEE5ED20F2F8EA203D2031E7
:1009DE000020E6EEEF203D203031205820F2F8EADC
:1009EE00200020ECE020E1F9E9EEE5F920EBF2FA47
:1009FE0021200020F2F8EA203020EEE5E7ECF3208B
:100A0E00EC203100536574204C617374206170705A
:100A1E0020202020002020746F20746869732066C7
:100A2E006C6F6F72200020E3E9F8E420E0E7F8E550
:100A3E00F0E4202020200020202020202020ECF791
:100A4E00E5EEE420E6E520004D61782032352062A7
:100A5E006F617264732E2E0020EEF7F1272035326F
:100A6E0020EEF2E2ECE9ED20004368616E67653F2F
:100A7E004E616D65456E747200312D392D3E59658E
:100A8E007320302D3E4E6F200020F9E5F0E43FE458
:100A9E00EBF0F120ECF9EEE5FA0020312D393D595D
:100AAE002DEBEF20303D4E2DECE000456E7465725F
:100ABE0020417070206E756D627200456E746572A5
:100ACE00204F6666696365204E6F00456E746572D1
:100ADE002054656E616E74204E6F007468656E20D2
:100AEE0070726573732042454C4C0020436F6E6EDE
:100AFE0065637465642F696E6720200020E4F7F942
:100B0E0020EEF1F4F820E3E9F8E420200020E4F7E9
:100B1E00F920EEF1F4F820EEF9F8E320200020E4BD
:100B2E00F7F920EEF1F4F820E3E9E9F820200020AF
:100B3E00E5ECE7F520F2EC20E4F4F2EEE5EF200030
:100B4E0020EEFAE7E1F82FEEE7E5E1F8212121208A
:100B5E0000557365642145726173652F4D6F76651F
:100B6E000020FAF4E5F121212DF0F7E42FF2E1E572
:100B7E00F800416C6C726561647920696E204D4598
:100B8E004D004C6F636174696F6E3A202F202020E8
:100B9E002000202121F7E9E9ED20E1E6E9EBF8E577
:100BAE00EF2100202020E1EEE9F7E5ED3A202020AC
:100BBE002F20200054616773205174793A20202031
:100BCE0020202020005573652042656C6C20546FE8
:100BDE0043616C6C200020ECE7E9E5E220E4F7F9D4
:100BEE0020F4F2EEE5EF003300202020202020201C
:100BFE002020205052470020202020204661637480
:100C0E006F7279205265736574202020506C656177
:100C1E00736520576169740020202020204E616D7D
:100C2E00652F54656C2053746179202020506C65BB
:100C3E0061736520576169740031323320202020A2
:100C4E002020200034353620202020202020003285
:100C5E003532353235202020202020202020202023
:100C6E00003030003035003032003939003330007A
:100C7E003430003130003038003036003230002051
:100C8E002020202020E3E9F8E4203120202020003D
:100C9E00202020202020E3E9F8E42032202020200C
:100CAE0000202020202020E3E9F8E420332020201B
:100CBE0020002020204150502E20232031202020A3
:100CCE002020002020204150502E20232032202092
:100CDE00202020002020204150502E202320332081
:100CEE0020202020004E002D0037003235300032FB
:100CFE00303100303030300030303800303132009A
:100D0E003031360031323030003133303000313650
:100D1E00303000313730300031383030003139303A
:100D2E003000323100323200323300343500353784
:100D3E00002500776169742E2E2E20202020202081
:100D4E002020004F7267616E697A696E67206E614E
:100D5E006D65004D61792074616B65206665772045
:100D6E00202000202020202020206D696E757465C3
:100D7E0073002020EEE0F8E2EF20F9EEE5FA2020F5
:100D8E002020002020E0F0E020E4EEFAEF202020EA
:100D9E00202020002020E1F1E1ECF0E5FA202020D7
:100DAE00202020200000546865206C617463682048
:100DBE00202020202000546865206C617463682018
:100DCE00322020202000546865206C6174636820F6
:100DDE003126322020002020F4FAE720E0FA20E429
:100DEE00E3ECFA202020002020F4FAE720E0FA209D
:100DFE00E4E3ECFA203220002020F4FAE720E0FAB7
:100E0E0020E4E3ECFAE5FA20002020205761697413
:100E1E002074696C6C202020200020E4EEFAEF2074
:100E2E00ECF1E9E5ED2E2E2E202000427573792F80
:100E3E00204E4F20416E73776572004D6F64656D65
:100E4E00436F6E6E656374696F6E0020E1FAF4E5B0
:100E5E00F120E0E9EF20EEF2F0E4200020E1E4FAE8
:100E6E00F7F9F8E5FA20EEE5E3ED2000557365207D
:100E7E006172726F777320202020002048454C4FFE
:100E8E002E2E2E202020746F20200020E3F4E3F37A
:100E9E0020E1E7E9F6E9ED202020200020202020A7
:100EAE002020F9ECE5ED202020202020002020201D
:100EBE0020497320756E6C6F636B65642000202073
:100ECE002020202020202020202020202020002034
:100EDE0020456E64206F662064656C617920200069
:100EEE002020202020202020E4E4F9E4E9E4202042
:100EFE000048616E67206279207573696E67202ADB
:100F0E002000446F204E6F7420546F75636821214A
:100F1E00210020F0FAF720E1EBE5EBE1E9FA2029D8
:100F2E002A280020F0E020ECE020ECE2F2FA20216A
:100F3E0021212000746F20736561726368206E61D9
:100F4E006D652E0020ECE0E9FAE5F820E4E3E9E92E
:100F5E00F82FFA00746F20636F6E6E656374204114
:100F6E0070700020ECE4FAF7F9F8E5FA20ECE3E90A
:100F7E00F8E4200020ECE0E9FAE5F820E4EEF9F8D8
:100F8E00E300636F6E6E656374206F6666696365FA
:100F9E00200020ECE4FAF7F9F8E5FA20ECEEF9F887
:100FAE00E32000746F207365617263682054656E70
:100FBE00616E7400636F6E746163742054656E614C
:100FCE006E740020ECE0E9FAE5F820E3E9E9F82098
:100FDE000020ECEEFAF7F9F8E5FA20ECE3E9E9F88F
:100FEE000050524F472E204D454E55202D2020208B
:100FFE000020FAF4F8E9E820F8E0F9E9202D2020A5
:10100E000041636365737320636F64657320200012
:10101E0020F8F9E9EEFA20E4F7E5E3E9ED00436F95
:10102E006E6669726D20627920546F6E650020E0E5
:10103E00E9F9E5F820F9E9E7E420E1E8E5EF005306
:10104E006574526561642054696D6D65727300201C
:10105E00E4F6E22FF9F0E420E8E9E9EEF8E9ED0034
:10106E00536574526561642044617954696D6500FD
:10107E0020E4F6E22FF9F0E420E9E5ED2FF9F2E4B1
:10108E000052656D6F74652054454C20546F6E652B
:10109E000020E8E5EF20F4FAE9E7E420EEF8E7E5D2
:1010AE00F700236F662072696E672F616E73776526
:1010BE00720020EEF120F6ECF6E5ECE9ED2DEEF205
:1010CE00F0E400456E7465722042757379204361B9
:1010DE006C6C200020F0FAE5EF20F6ECF6E5EC2043
:1010EE00FAF4E5F10054656C6570686F6E65204E1C
:1010FE006F2E31200020EEF1F4F8E920E8ECF4E553
:10110E00EF2031200054656C6570686F6E65204E5F
:10111E006F2E32200020EEF1F4F8E920E8ECF4E531
:10112E00EF2032200054656C6570686F6E65204E3E
:10113E006F2E33200020EEF1F4F8E920E8ECF4E510
:10114E00EF2033200054656C6570686F6E65204E1D
:10115E006F2E34200020EEF1F4F8E920E8ECF4E5EF
:10116E00EF2034200054656C6570686F6E65204EFC
:10117E006F2E35200020EEF1F4F8E920E8ECF4E5CE
:10118E00EF2035200054656C6570686F6E65204EDB
:10119E006F2E36200020EEF1F4F8E920E8ECF4E5AD
:1011AE00EF20362000537065656368204C657665C8
:1011BE006C200020F2E5F6EEFA20E3E9E1E5F820F6
:1011CE00002746415354272073772E2053746570A1
:1011DE00200020F7F6E120F7E9E3E5ED20EEE4E963
:1011EE00F8004D617374657220636F646500202092
:1011FE00F7E5E320E8EBF0E0E92000557365722097
:10120E00636F6465002020F7E5E320ECF7E5E72047
:10121E00002020202054656E616E747320202020E3
:10122E00200020F9EEE5FA20E4E3E9E9F8E9ED2003
:10123E000043726F737320746F204170617274007B
:10124E0020E4F6ECE1E420ECF4E920E3E9F8E5FA39
:10125E0000535720626F61726420457874656E6426
:10126E000020EEF2E2EC20E4F8E7E1FA20EEF4F1F1
:10127E00F70050727879204C65726E204D6F646560
:10128E00310020EBF8E8E9F1E920F7E9F8E1E42094
:10129E00310050727879202D20696E206F7264654E
:1012AE00720020E4FAE2E9ED20E0E5F8E2F0E52153
:1012BE00210050727879204C65726E204D6F6465F6
:1012CE00320020EBF8E8E9F1E920F7E9F8E1E42053
:1012DE00320053657420466C6F6F722056616C75C8
:1012EE0065200020F7E1F220F2F8EA20ECF7E5EEB7
:1012FE00E420004368616E676520416C6C56616C3A
:10130E0075650020F9E9F0E5E920F2F8EBE9ED204A
:10131E00212121004D657373616765204F6E2F4F3C
:10132E006666200020E4F4F2EC2FEBE1E420E4E525
:10133E00E3F2E4005965732F4E6F20416E737761AF
:10134E007265200020FAF9E5E1E5FA20EBEF20E5E1
:10135E00ECE0200052656C61797320636F6E7472DD
:10136E006F6C200020F9ECE9E8E420E1EEEEF1F8F4
:10137E00E9ED200053656C20547970652F4E756D24
:10138E007269630020E1E7F820F1E5E22FEEF1F457
:10139E00F8E9004E657720417070204E756D7269C8
:1013AE0063200020EEF1F4E5F820E7E3F920ECE30A
:1013BE00E9F8E40053657276696365204D656E75D4
:1013CE0020002020FAF4F8E9E820F9F8E5FA2020C8
:1013DE00200054696D696E67732028736563292038
:1013EE000020E6EEF0E9ED2029F9F0E9E5FA2820F3
:1013FE00004C43442046616D696C79204E6F2E205F
:10140E000020F9E9E5EA20EEF9F4E7FAE920444391
:10141E004C00436F6D6D205370656564200020EEA7
:10142E00E4E9F8E5FA20FAF7F9E5F8FA2020005495
:10143E00797065202F4164642076616C756520009B
:10144E0020F1E5E2202F20F2F8EA20EEE5F1F3207C
:10145E0000536574204C636446616D696C7920237A
:10146E000020F7E1F220F9E9E5EA20EEF9F4E7FAD7
:10147E00E90053657420436F6D6D2053706565648C
:10148E000020F7E1F220EEE4E9F8E5FA20F7F9F8AA
:10149E002000436F6E6669726D20746F6E652069F1
:1014AE00730020E8E5EF20E0E9F9E5F820E4E5E057
:1014BE003A200072656D6F746520636F64652069F4
:1014CE00733A0020F7E5E320F4FAE9E7E420EEF8BA
:1014DE00E7E5F70023206F662052696E6773546F3D
:1014EE00416E730020EEF120F6ECF6E5EC20ECEE0A
:1014FE00F2F0E43A004275737920746F6E652054F1
:10150E00797065310020202020FAF4E5F120F1E514
:10151E00E220312020004275737920746F6E6520B1
:10152E0054797065320020202020FAF4E5F120F184
:10153E00E5E220322020004275737920746F6E65CB
:10154E002056616C2E200020202020FAF4E5F12098
:10155E00F2E5F6EEE42020004275737920746F6E8A
:10156E0065204672657120002020202020FAF4E5C7
:10157E00F120FAE3F82020200043616C6C206C6FA0
:10158E0077204672657120200020F6ECF6E5EC20FF
:10159E00FAE3F820FAE7FAE5EF0043616C6C206895
:1015AE006967682046726571200020F6ECF6E5EC5E
:1015BE0020FAE3F820F2ECE9E5EF00427265616B88
:1015CE00206F6E2063616C6C20200020E4F4F1F734
:1015DE00E420E1E9EF20F6ECF6E5EC0043616C6CFB
:1015EE007320746F207061737320200020EEF1273A
:1015FE0020F6ECF6E5EC20ECEEF2E1F8004E6F2072
:10160E006F662062757373792074696C0020EEF139
:10161E002720F4F2EEE9ED20ECFAF4E5F10061702A
:10162E00702E206E756D626572230020E3E9F8E47A
:10163E0020EEF1F4F8202300456E74657220636F7E
:10164E00646520230020E4EBF0F120F7E5E32300AE
:10165E00312D456E7465722054656C230020312D3A
:10166E00E4EBF0F120E8EC27202300322D456E74D8
:10167E0065722054656C230020322DE4EBF0F120CE
:10168E00E8EC27202300332D456E746572205465D7
:10169E006C230020332DE4EBF0F120E8EC2720231F
:1016AE0000342D456E7465722054656C2300203411
:1016BE002DE4EBF0F120E8EC27202300352D456ECC
:1016CE007465722054656C230020352DE4EBF0F127
:1016DE0020E8EC27202300362D456E7465722054C9
:1016EE00656C230020362DE4EBF0F120E8EC27208A
:1016FE002300456E74657220496E666F20230020AC
:10170E00E4EBF0F120F0FAE5F0E9ED23004C656131
:10171E00726E205072787931230020ECEEE320F7C0
:10172E00E9F8E1E4203123004C6561726E205072BD
:10173E00787932230020ECEEE320F7E9F8E1E4209B
:10174E003223005468697320666C6F6F7220230019
:10175E0020F7E5EEE420E6E5202D3C20230052653F
:10176E006C617931207570746F204170700020EEBD
:10177E00EEF1F8203120F2E320E3E9F8E420005204
:10178E00656C6179322066726F6D20417070002039
:10179E00EEEEF1F8203220EEE3E9F8E42000536596
:1017AE007420737065656368204C65766C0020F755
:1017BE00E1F220F2E5F6EEFA20E3E9E1E5F8005376
:1017CE0065742027464153542720537465702000BA
:1017DE002020F7E1F220F7F6E120F7E9E3E5ED004E
:1017EE00536574206D617374657220636F64650058
:1017FE0020E4EBF0F120F7E5E320E2E9F9E4200044
:10180E00456E74657220626F617264205174790046
:10181E0020E4EBF0F120EBEEE5FA20EEF2E2EC271D
:10182E000044617920262054696D65206172653A05
:10183E000020E4E9E5ED20E5E4F9F2E420E4ED3AF8
:10184E000054696D657231284449414C2920446128
:10185E00790020E8E9EEF83120E7E9E5E22DE9EE3E
:10186E00E9ED0054696D65724E302E31205374616E
:10187E0072740020E8E9E9EEF8203120202D20E4F2
:10188E00FAE7EC0054696D65724E302E31205374B8
:10189E006F700020E8E9E9EEF82031202D20F1E903
:1018AE00E9ED200054696D657232284449414C2996
:1018BE00204461790020E8E9EEF83220E7E9E5E21C
:1018CE002DE9EEE9ED0054696D65724E302E322031
:1018DE0053746172740020E8E9E9EEF8203220209A
:1018EE002D20E4FAE7EC0054696D65724E302E320D
:1018FE002053746F700020E8E9E9EEF82032202DB5
:10190E0020F1E9E9ED200054696D65723328524CDF
:10191E00593129204461790020E8E9EEF83320524C
:10192E004C59312DE9EEE9ED0054696D65724E307A
:10193E002E332053746172740020E8E9E9EEF8202A
:10194E003320202D20E4FAE7EC0054696D65724EC9
:10195E00302E332053746F700020E8E9E9EEF82042
:10196E0033202D20F1E9E9ED200054696D657234C4
:10197E0028524C593229204461790020E8E9EEF8CA
:10198E003420524C59322DE9EEE9ED0054696D6563
:10199E00724E302E342053746172740020E8E9E9DF
:1019AE00EEF8203420202D20E4FAE7EC0054696D87
:1019BE0065724E302E342053746F700020E8E9E9C2
:1019CE00EEF82034202D20F1E9E9ED200045726576
:1019DE0061736520414C4C636F6465200020EEE717
:1019EE00F720EBEC20E4F7E5E3E9ED20200045726B
:1019FE0061736520616C6C2050727879310020EE35
:101A0E00E7F720EBEC20F7E9F8E1E4203120005075
:101A1E007278795461677320457261736564002032
:101A2E00E4FAE2E9ED20F0EEE7F7E52021210045AA
:101A3E007261736520616C6C20507278793200206F
:101A4E00EEE7F720EBEC20F7E9F8E1E42032200096
:101A5E00444546204E616D652F54454C204E430043
:101A6E0020464544F9E5EEF820E8EC20F9EEE5FADB
:101A7E0000526563206461746146726F6D20534439
:101A8E000020EEF7E1EC204154414420EEE42D44D9
:101A9E00530053656E64204461746120746F20445A
:101AAE00530020F9E5ECE7204154414420EC202D71
:101ABE00445300456E747279206D6573736167656A
:101ACE003E23200020F4FAE9E720E1F2E6F8FA20BE
:101ADE002320005374616765206D657373616765BC
:101AEE00200020E4E5E3F2FA20F7E5EEE420200002
:101AFE00436C6F736520646F6F72204D65732E207B
:101B0E000020E4E5E3F2FA20F1E2E5F820E3ECFA56
:101B1E0020004E616D652020416E6E6F756E63659F
:101B2E0020200020ECE4F7F8E9E020F9EEE5FA20B9
:101B3E002000446F6F7220666F726765744D455357
:101B4E002020002020F9E9EBE7FA20E3ECFA202030
:101B5E00200057656C636F6D652062792044657453
:101B6E0020200020F4FAE9E720EEE2ECE0E9202064
:101B7E00200052696E67696E67204D65732E2020B6
:101B8E00200020E4E5E3F2FA20F6ECF6E5EC202066
:101B9E0020004F70656E20646F6F72204D6573204C
:101BAE00200020E4E5E3F2FA20F4FAE720E3ECFA71
:101BBE0020004170703D30204F66666963653D318F
:101BCE00200020E3E9F8E43D3020EEF9F8E33D3162
:101BDE0020004465742041637469766520422E4C62
:101BEE00200020E2ECE0E920ECFAE0E5F8E420E069
:101BFE00E72E0050726F78792031202D3E526C798D
:101C0E002031200020F7E9F8E1E4312D3C20EEEE02
:101C1E00F1F831200050726F78792031202D3E522C
:101C2E006C792032200020F7E9F8E1E4312D3C20D8
:101C3E00EEEEF1F832200050726F78792032202DBE
:101C4E003E526C792031200020F7E9F8E1E4322D84
:101C5E003C20EEEEF1F831200050726F7879203290
:101C6E00202D3E526C792032200020F7E9F8E1E475
:101C7E00322D3C20EEEEF1F832200050726F787962
:101C8E002B50696E20436F6465200020E4F4F2EC63
:101C9E00E420F7E9F8E1E42BF7E5E3004170704E3C
:101CAE00616D6520627920412D4220200020F9EEE1
:101CBE00E5FA20ECF4E920E02DE120202000457823
:101CCE007472726E616C2050726F787920200020D1
:101CDE00F7E9F8E1E420E7E9F6E5F0E92020004530
:101CEE006C657665746F7220426F6172642020009D
:101CFE0020F4E9F7E5E320EEF2ECE9E5FA20200026
:101D0E005265616C542E432E2075736565642020D8
:101D1E000020F9E9EEE5F920E1F9F2E5EF202020C7
:101D2E000053686F772074656C20646174612020A5
:101D3E00200020E4F6E220F0FAE5F0E920E8EC27B6
:101D4E002020004265657020696E20756E6C6F6391
:101D5E006B20200020E1E6F820E1F4FAE9E7FA2012
:101D6E00E3ECFA20006E6F206170702F6F6666696B
:101D7E0063652020200020ECECE020E3E9F8E42F5E
:101D8E00EEF9F8E3200044697265637420446961DA
:101D9E006C4D6F646520002020EEF6E120E7E9E54A
:101DAE00E220E9F9E9F82000202046756C6C206DE0
:101DBE00656E752020202000202020FAF4F8E9E836
:101DCE0020EEECE020202020002053657420757357
:101DDE00657220636F64650020E4EBF0F120F7E597
:101DEE00E320ECF7E5E720005365744E616D652343
:101DFE000020E4EBF0F120F9ED230043726F7373D2
:101E0E00546F20417070230020E4F6ECE1E420ECE6
:101E1E00E3E9F8E4230044656C61792054696D654B
:101E2E00202020002020E6EEEF20E4EEFAF0E42061
:101E3E0000446F6F72204F70656E696E67200020D0
:101E4E00E6EEEF20F4FAE9E7FA20E3ECFA2000528E
:101E5E00656C61793220446C792074696D6500205F
:101E6E00E62E20E4F9E4E9E420EEEEF1F82032006B
:101E7E0052656C617932204F706E2074696D650009
:101E8E0020E62E20F4FAE9E7E420EEEEF1F8203217
:101E9E0000496C6C756D696E6174696F6E202000FF
:101EAE002020E6EEEF20FAE0E5F8E4200052696E1D
:101EBE0067696E672054696D652020200020E6EE6C
:101ECE00EF20E4F6E2FA20E3E9E9F820004E657827
:101EDE0074204469616C2054696D6520002020E6F1
:101EEE00EEEF20ECE7E9E5E220E4E1E020005069C6
:101EFE006E2B2050726F78792074696D65200020EA
:101F0E00E62EEEF6E120F7E5E32BF7E9F8E1E40043
:101F1E00446F6F7220666F726765743E4D657320F5
:101F2E000020F9E9EBE7FA20E3ECFA2DE4E5E3F221
:101F3E00E4004465743E77656C6C636F6D204D658F
:101F4E0073200020E62E20EEE2E9ECE5E920ECF429
:101F5E00FAE9E700542E746F206E616D6520616E94
:101F6E006E6F75200020E6EEEF20ECE4E5E3F2FA6A
:101F7E0020F9EEE5FA00542E746F20666C6F6F72C6
:101F8E00204D65732E200020E6EEEF20ECE4E5E315
:101F9E00F2FA20F7E5EEE400542E746F20646973B4
:101FAE00702E206C697374200020E6EEEF20ECE4B6
:101FBE00F6E2FA20F8F9E9EEE4005570546F446940
:101FCE0073702073656C656374002020F2E320EC5F
:101FDE00E4F6E2FA20F0E1E7F800546F446973701A
:101FEE002053656C65637465640020E6EEEF20E4B3
:101FFE00F6E2FA20F0E1E7F8200074616C6B2074D1
:10200E00696D652078313053270020E6EEEF20E32E
:10201E00E9E1E5F820783031F9270042737579202F
:10202E002D6E6F7420757365640020E6EEEF20FA56
:10203E00F4E5F12D20F2FAE9E3E900436F6E6669EB
:10204E00726D2D4E6F74207573650020E6EEEF20D5
:10205E00E0E9F9E5F82DF2FAE9E3E90041545345D8
:10206E00323D30325345333D30305345343D3132BD
:10207E005346343D34620D0041545346343D306274
:10208E000D0041545346343D34620D0041544130ED
:10209E000D00415444540041540D00415445300D3F
:1020AE00004154005346353D30300D005346363D09
:1020BE0030300D005346373D30300D005336323D33
:1020CE0030300D0041545345343D30325345323D8E
:1020DE0030325346343D30330D0041544D320D00F5
:1020EE0041545330373D3036410D000035354141B6
:1020FE003636424243430046525F4449534B5F4596
:10210E0052520046525F494E545F4552520046525B
:10211E005F4E4F545F52454144590046525F4E4FF9
:10212E005F46494C450046525F4E4F5F5041544802
:10213E000046525F494E56414C49445F4E414D4513
:10214E000046525F44454E4945440046525F45584D
:10215E004953540046525F494E56414C49445F4FD5
:10216E00424A4543540046525F57524954455F50C8
:10217E00524F5445435445440046525F494E5641D2
:10218E004C49445F44524956450046525F4E4F54A7
:10219E005F454E41424C45440046525F4E4F5F46AE
:1021AE00494C4553595354454D0046525F4D4B468D
:1021BE00535F41424F525445440046525F54494D7D
:1021CE00454F5554004552524F523A005344204FFA
:1021DE004B3A20005344204552524F523A20002C85
:1021EE00004C6F676963616C20647269766520309C
:1021FE003A206D6F756E746564204F4B0D0A004466
:10220E00415441344B0046494E44205452590046E5
:10221E00494C45204558495354530046494C452096
:10222E004E4F542045584953540046494E4420427F
:10223E0041434B55500046494E442055504441545D
:10224E00450055504241434B555000444F4E4500BA
:10225E0046696C652044415441344B206F70656E65
:10226E006564204F4B0D0A00526561642044415451
:10227E0041344B204F4B0D0A005772697465204450
:10228E00415441344B204F4B0D0A0046696C65207A
:10229E00555044415445206F70656E6564204F4B18
:1022AE000D0A0057726974652055504441544520FB
:1022BE004F4B0D0A0054525935004E414D453100D9
:1022CE004E414D45320054535420555044415445CF
:1022DE002056313500526573756C743A00202020FB
:1022EE0020004641494C002052454E414D45005478
:1022FE0065737420646F6E652E0080C001002D4ED4
:10230E00414E00494E460000020002004001090005
:10231E000005BD0109000905C601010012054601AF
:10232E0009001305BD0101001C05460109001D052C
:10233E00C60111002605A20211003705A2021100E6
:10234E004805A20211005905A20211006A05A20257
:10235E0007007B05D3210100820504211E008305A1
:10236E00EF210100A10504210100A20504210700AF
:10237E00A3050D221E00AA05EF210100C8050421A8
:10238E000100C90504210100CA0504210700CB057F
:10239E003D220100D20504210700D3054922070082
:1023AE00DA053D220900E10550220700EA0549221F
:1023BE000700F1053D220900F8055022070001062D
:1023CE00492204000806192205000C0659221E0097
:1023DE001106EF2101002F0604211E003006EF2109
:1023EE0001004E06042107004F060D221800560666
:1023FE005E2201006E06042111006F067622010096
:10240E00800604211E008106EF2101009F06042193
:10241E000700A0060D221800A7065E220100BF06C7
:10242E0004211200C00687220100D20604211E00DC
:10243E00D306EF210100F10604210700F20649221E
:10244E001800F90699220100110704211200120743
:10245E00B1220100240704211E002507EF210100EF
:10246E00430704210100440704211E004507EF2104
:10247E0001006307042101006407042105006507BC
:10248E00592205006A07C32206006F07C8220600FC
:10249E007507CE220200BB0F08230100C20F0A23CC
:1024AE000000F894EE27ECBBF1E0F5BFE5BFE0933A
:1024BE006C00F8E1F1BDE1BD8DE0A2E0BB27ED932C
:1024CE008A95E9F780E090E1A0E0B1E0ED93019705
:1024DE00E9F7E6E1F3E285919591009761F0A59118
:1024EE00B59105901590BF01F00105900D920197E1
:1024FE00E1F7FB01F0CF8BBFEFEFEDBFE0E1EEBFF9
:10250E00C0E0D5E00C948B12A097E0E0E093950725
:10251E00EFE1E1BDEFE0E1BDE8E4EBBBE9E5EABBED
:10252E00E8E0E8BBE7E0E7BBE0E0E5BBEFEFE4BBEC
:10253E00E0E8E2BBE1E6E1BBE6E0E3B9EEEFE2B9EB
:10254E00E0E1E0936200E0E9E0936100ECE1E0930A
:10255E006500E7E0E0936400E6E0E3BFE0E0E0BFA3
:10256E00EBE4E2BFE0E0E1BFEFBDEEBDEDBDECBDE3
:10257E00E1E0EBBDEFE3EABDE0E0E9BDE8BDE093ED
:10258E007900E0937800E4BDECE9E3BDECE0E5BD55
:10259E00E3E4E0938B00E0E0E0938A00E0938900AF
:1025AE00E0938800E0938700E0938600E093850037
:1025BE00E0938400E0938300E0938200E0936A004E
:1025CE00EABFE9BFE7B7E469E7BFE0E0E0937D006B
:1025DE00E2E0EBB9E8E5EAB9EEE0E0939500E0E081
:1025EE00E0939000E1E8E9B90E94B98CE6E0E0934F
:1025FE009D00E2E0E0939800E5EBE0939900E0E0C7
:10260E00E0939B00E0939A00E0939D00E093990085
:10261E00E0939800E0E8E8B9E0E0E0BD7894A0E14E
:10262E000E945C8C0E940C8CA2E4B1E00E94498C4A
:10263E00A7E4B1E00E94498CA5E4B1E00E94498C68
:10264E00AEE4B1E00E94C08C0E94B47D1E2FE0303B
:10265E0009F0FBC00E940C8CA2E5B1E00E94C08C78
:10266E00E0E0F0E160E070E00E9460A2A0E20E9473
:10267E005A7F1E2FE03009F0E7C00E940C8CACE5AB
:10268E00B1E00E94C08C0E94C68CA7E4B1E00E940B
:10269E00CA8CA5E6B1E00E94CD8CAEE4B1E00E94FA
:1026AE00CD8CAAE6B1E00E94CD8C0E94D08C0E9407
:1026BE00DD8CADE6B1E00E94CA8CEFE0F0E060E0A8
:1026CE0070E00E94E08CADE7B1E00E94CA8CEEE1B2
:1026DE00F0E060E070E00E94E08CEEE1F0E060E09F
:1026EE0070E00E94E98C0E94A07E1E2FE030C9F49B
:1026FE00A881A73719F4AC85AB3609F005C00E9446
:10270E00C68CADE8B1E004C00E94C68CADE9B1E064
:10271E000E94A98B0E94C68C0E94F28C0E94D97EC8
:10272E000AC00E94C68CADEAB1E00E94CA8C0E941B
:10273E00F28C0E94D97EE0E0F5E0FA93EA93A9E0EC
:10274E00B5E00E943B7FE03059F00E940C8CAFEC5C
:10275E00B1E00E94C08C0E94C68CADEDB1E00AC003
:10276E000E940C8CADEEB1E00E94C08C0E94C68C13
:10277E00A7EFB1E00E94A98B0E94C68CECE3F0E0BB
:10278E0060E070E00E94E98C0E94D97EE2E1F5E003
:10279E00FA93EA93E3E1F5E00E94F78C49F4ECE159
:1027AE00F5E0FA93EA93EDE1F5E00E94F78C09F477
:1027BE0005C00E940C8CA7E0B2E004C00E940C8CF5
:1027CE00A7E1B2E00E94498C0E94FE8C0E94D27D4D
:1027DE001E2F103029F40E94C68CA7E2B2E004C06E
:1027EE000E94C68CA7E3B2E00E94A98B0E94C68C01
:1027FE00EBE4F0E060E070E00E94E98C0E94D97E8C
:10280E00103011F50E94C68CA7E4B2E00E94CA8C6B
:10281E000E94D08C0E94097F1E2FE03029F00E946A
:10282E00C68CA7E5B2E004C00E94C68CA8E6B2E052
:10283E000E94A98B0E94C68CEAE5F0E060E070E091
:10284E000E94E98C0E94D97E06C00E940C8CA9E7DA
:10285E00B2E00E94C08C0E949C660E9401750E948C
:10286E00028DE0E1E09382070E946E62689422F886
:10287E00E89421F820F8E3EBE093AC0B0E94E059CA
:10288E00E1E0F0E0E093A10CF093A20CE3EBE09317
:10289E00AC0BE7B7EE7FE7BF0E940722E1E0E093C3
:1028AE00DA0BEFEFE093B80BE8E3F0E0E0939F0C68
:1028BE00F093A00C689422F8919AE0E0E093170C44
:1028CE00C19AE4E0E093580CE1E0F0E0E093C30C31
:1028DE00F093C40C0E94E163E0E0E09395078799C2
:1028EE0007C000000000879903C0E1E0E093950760
:1028FE00A89AE4B7E77041F00E94098DE5E0E093F5
:10290E007D0D0E94EE5902C0E3E3BE2EE0E0E4BF6F
:10291E00E093F90CE093FA0CE093350DE093360D4D
:10292E00E0932C0C0E940F8DE0E0E0937C0D0E9452
:10293E0032422197A895E0917B0DE03001F1E150F4
:10294E00E0937B0DA0917B0DA530C9F40E94158DEF
:10295E000E941D8DE0918307EF70E0933D0C0E9465
:10296E00228DE6E00E942C8DE0913D0CA3E0EA9FC3
:10297E00F001E15F0E94348DE091770AECB9E091AD
:10298E005C0DE03019F0E150E0935C0DE0917B07B7
:10299E00E03019F0E150E0937B07E091C80BE03096
:1029AE0011F41A9A01C01A98A091C80BA13061F4C3
:1029BE000E94408DAC3DE5E0BE0718F40E94458DA7
:1029CE0002C00E944D8D08C00E94408DA03DE7E0E0
:1029DE00BE0710F40E94458DE091600DE03019F0B5
:1029EE00E150E093600DE0919D0BF0919E0B3097BE
:1029FE00B9F0ADE9BBE00E94538DE0919D0BF091D3
:102A0E009E0B309721F4E091600CE03009F408C081
:102A1E000E94598DA0919807E2E0EA27E09398076B
:102A2E00A5E0BDE00E94608DE0913D0DF0913E0D60
:102A3E00309711F00000F8CFA091050DB091060D62
:102A4E001C9708F4A5C0E0E0E093050DE093060D99
:102A5E000E94668D3A970E946B8DEA17FB0740F431
:102A6E000E94668D3A960E946B8DAE17BF0708F0D6
:102A7E000CC0A0910D0DB0910E0DAF3FE0E0BE0762
:102A8E0020F4ADE0BDE00E94608DE091150DF09157
:102A9E00160D0E946B8DEA17FB07A0F4E091170D3F
:102AAE00F091180D0E946B8DAE17BF0758F4E09190
:102ABE00150DF091160DA091170DB091180DEA1786
:102ACE00FB0708F039C0A091070DB091080DAF3F7C
:102ADE00E0E0BE0720F4A7E0BDE00E94608DE0912B
:102AEE00190DF0911A0D0E94708DEA17FB0730F444
:102AFE000E94708DAA3FE0E0BE0708F006C0E0918C
:102B0E00090DF0910A0D309709F40CC0A0910B0D30
:102B1E00B0910C0DAF3FE0E0BE0720F4ABE0BDE09E
:102B2E000E94608D0E94758DE0930F0DE093100D45
:102B3E00E0E00E947B8D2AC0A0910D0DB0910E0D8C
:102B4E00149710F00E94808DE0E0E0930D0DE0935D
:102B5E000E0DA091070DB091080D149730F0E1E025
:102B6E00F0E0E093090DF0930A0D0E94878D0E940C
:102B7E006B8D159730F40E94708DAF3FE0E0BE076D
:102B8E0008F004C0ABEEBCE00E94608D0E948D8DFB
:102B9E000E94938D309721F4E091590DE03011F0A1
:102BAE00DB9801C0DB9AA0919C09AA3010F40E9418
:102BBE00D5790E940D780E94668D309711F40E948F
:102BCE00808DE091330DF091340DA091790CB09180
:102BDE007A0CEA17FB0738F0A0916D0CB0916E0CD1
:102BEE00EA17FB0720F4E091A409E030A1F0E09190
:102BFE00C10CF091C20C309771F4E0911B0DF09165
:102C0E001C0DA0910B0DB0910C0DAE17BF0710F05F
:102C1E00309709F4E6C00E94988DE091BD0CF091BA
:102C2E00BE0C309769F00E949E8D50F40E94A48DC8
:102C3E0031F4E091C10CF091C20C309709F001C053
:102C4E00B6C0AFEBBCE00E94608DE0E0E093C10C3B
:102C5E00E093C20C0E94AA8D0E94B08D0E949E8DA0
:102C6E0009F040C0E091F70CE17019F0ECE5F7EDDA
:102C7E0002C0EAE6FBEAE0937F07F0938007EFE0FD
:102C8E00E09382070E94B68DA33220F0A0918307B5
:102C9E00A73608F014C00E94BD8D309711F00E9427
:102CAE00C28D0E94C88D11F00E94CE8D0E94BD8DE6
:102CBE00309711F00E94DC8D0E94E28D13C00E94AD
:102CCE00BD8D309711F00E94C28D0E94C88D11F0FB
:102CDE000E94EC8D0E94BD8D309711F00E94DC8D0C
:102CEE000E94F28DA091BF0CB091C00C119709F00B
:102CFE005EC0E091F70CE17019F0E6EBF8EC02C063
:102D0E00E4ECFCE9E0937F07F0938007EFE0E093BB
:102D1E0082070E94B68DA03209F045C0AFEBBCE031
:102D2E000E94608DE091F70CE17019F0ECE5F7ED83
:102D3E0002C0EAE6FBEAE0937F07F0938007EFE03C
:102D4E00E09382070E94B68DA33220F0A0918307F4
:102D5E00A73608F014C00E94BD8D309711F00E9466
:102D6E00C28D0E94C88D11F00E94CE8D0E94BD8D25
:102D7E00309711F00E94DC8D0E94E28D13C00E94EC
:102D8E00BD8D309711F00E94C28D0E94C88D11F03A
:102D9E000E94EC8D0E94BD8D309711F00E94DC8D4B
:102DAE000E94F28D04C0E2E0F0E00E94F98DE1E0B5
:102DBE00E093EB0B0E94FE8D0E94078E0E941D8EEB
:102DCE000E94238E0E94298EE0E0E093250DE09371
:102DDE00260DE093270DE093280DE093290DE09347
:102DEE002A0DE091AF0CF091B00C309711F0C99B09
:102DFE0001C008C00E942F8EE0E0E093AF0CE0937C
:102E0E00B00C04C0C99902C00E942F8EC99B0AC083
:102E1E00E091B10CF091B20C309721F0E091A10944
:102E2E00E03009F4F4C1AFEABCE00E94608DE0919D
:102E3E006200EF77E0936200A091AF0CB091B00CFE
:102E4E001B9708F4E4C1DE98E0E0E093B10CE09348
:102E5E00B20CA091AD0CB091AE0C129730F0E09385
:102E6E00AD0CE093AE0C0E94358E0E94418EE0B107
:102E7E00EF70F0E0ED93FC93E091F20BF091F30B19
:102E8E00309779F0A091950CB091960C0E94BD8D63
:102E9E00EA1BFB0BA091F20BB091F30BAE17BF0721
:102EAE0008F01DC0A091BB0CB091BC0C9D9759F0C1
:102EBE000E94418E0E9444A2A091BB0CB091BC0C0A
:102ECE00EA17FB0761F4E0E0E093F20BE093F30BFB
:102EDE000E94B08D0E944C8EA3E00E943763A09199
:102EEE00670DB091680D9D9741F40E94418E0E942E
:102EFE0044A2E0936F0DF093700DE091690DF09187
:102F0E006A0DED32A0E0FA0741F40E94418E0E9454
:102F1E0044A2E0936D0DF0936E0D0E94418E0E94BF
:102F2E0044A2ED30A0E0FA0729F4A3EBBCE00E9426
:102F3E00608D02C00E94298E0E94418E0E9444A282
:102F4E00EE30A0E0FA0729F4A5E2BDE00E94608D04
:102F5E0005C0E0E0E093250DE093260D0E94418E22
:102F6E000E9444A2EF30A0E0FA0729F4A7E2BDE0E8
:102F7E000E94608D05C0E0E0E093270DE093280DE0
:102F8E000E94418E0E9444A2309729F4A9E2BDE02E
:102F9E000E94608D05C0E0E0E093290DE0932A0DBC
:102FAE00A091B30CB091B40C129790F4A091250D92
:102FBE00B091260D129760F4A091270DB091280DB7
:102FCE00129730F4A091290DB0912A0D1297C0F1ED
:102FDE00A091B30CB091B40C129718F0E1E0F0E0B0
:102FEE001AC0A091250DB091260D129718F0E2E0AF
:102FFE00F0E011C0A091270DB091280D129718F096
:10300E00E3E0F0E008C0A091290DB0912A0D1297CF
:10301E0030F0E4E0F0E0E093990CF0939A0C0E940B
:10302E00528E19F0A2E00E9437630E94588E0E94C1
:10303E00298EE2E0E0930F0C0E945F8E0E94668E56
:10304E00E0E0E093B50CE093B60CE0916D0DF091DD
:10305E006E0DA091670DB091680DEA17FB0731F464
:10306E00E1E0F0E0E093B50CF093B60CA091690DA1
:10307E00B0916A0DE0916D0DF0916E0DEA17FB07A0
:10308E0031F4E2E0F0E0E093B50CF093B60C0E9460
:10309E00698E1A9731F00E946E8EEA30A0E0FA0720
:1030AE0071F40E94B08D0E94AA8DE1E0E093EB0BCB
:1030BE000E945F8E0E94738EA2E00E943763E091A1
:1030CE00B50CF091B60C309709F480C0A091B50CF8
:1030DE00B091B60C119771F5DD20D1F40E94798E66
:1030EE000E941D8DA0918307A03349F40E94798E12
:1030FE000E94818E0E94888E0E94A36608C00E9444
:10310E00798E0E94818E0E94928E0E94AD660DC0B5
:10311E000E949C8EE091590CE07819F0E2E9E09360
:10312E00750D0E94738E0E94A18E0E94AA8D0E9420
:10313E00B08D39C0E091420CE030D1F40E94A88EDF
:10314E000E941D8DA0918307A03349F40E94A88E82
:10315E000E94818E0E94888E0E949D6608C00E94E9
:10316E00A88E0E94818E0E94928E0E94A76617C022
:10317E000E949D66E091420CE093480CE091590C40
:10318E00E07819F0E2E9E093750D0E94738EE0E0AD
:10319E00E093FE0BE093460CE1E0E093490C0E94B5
:1031AE00B08D0E94AA8DE1E0E0939707E1E0F0E098
:1031BE00E093B70CF093B80CED2DE95FF0E00E94B0
:1031CE00B08EE1E0E093EB0B0E94668E0E94698E5A
:1031DE001B9771F00E94698E1C9751F00E946E8EA3
:1031EE003B9731F00E946E8EEC30A0E0FA0721F48E
:1031FE000E945F8E0E94668EADEABCE00E94608DDA
:10320E00DE9AE2E3F0E0E093B90CF093BA0CC999C0
:10321E0006C0E1E0F0E0E093B10CF093B20C0E9436
:10322E00B58E31F4E091B90CF091BA0C309729F0CB
:10323E00E0E0E093B10CE093B20C049B0AC0A091C5
:10324E00510CA23328F4E091510CEF5FE093510C36
:10325E0007C0E091510CE03019F0E150E093510CB1
:10326E00A091510CA23318F0E1E0E093520CE091E2
:10327E00510CE03011F40E94BB8EE091520CE03004
:10328E0089F0E091C80BE03021F4E091590CE07127
:10329E0009F408C0E091530CE03021F4E0914C0C9D
:1032AE00E093530C059B0AC0A0914E0CA23328F458
:1032BE00E0914E0CEF5FE0934E0C07C0E0914E0C88
:1032CE00E03019F0E150E0934E0CA0914E0CA23379
:1032DE0028F0E0914F0CE160E0934F0CE0914E0C22
:1032EE00E03029F4E0E0E0934F0CE093500CA09115
:1032FE004F0CA13091F4E0914F0CE260E0934F0C33
:10330E00E091C80BE03021F4E091590CE07209F421
:10331E0004C0E091190CE093500CE0914B0CE2705C
:10332E0021F0E0914F0CE03009F405C0CC2019F0EB
:10333E00C092920BA89AE091A109E03019F00E9478
:10334E004A7B0FC0E091350DF091360D309721F488
:10335E00E0916500E26003C0E0916500ED7FE093CF
:10336E0065000E943065E0912D0CE03009F4BEC17D
:10337E00E0E0E0932D0CCF9904C0A091590DA3323B
:10338E0008F007C00000CF9904C0E0E0E093590DAB
:10339E00DC98E091590DE03031F0E150E093590D99
:1033AE00E03009F4DC98E0917D0DE03051F0E15011
:1033BE00E0937D0DE03029F4E0916200E061E0934E
:1033CE006200E091C80BE03011F00E940F8DA091C9
:1033DE00550DAA3F28F4E091550DEF5FE093550D82
:1033EE00E0916300E87021F4E0916300E07109F46C
:1033FE0023C0A091550DAE31F0F00E94C18EA530C4
:10340E0010F0A0E001C0A7E00E943763A091560D16
:10341E00A63028F0EFE1E1BDE0E0E1BDFFCFA091E5
:10342E007C0DA33040F0E0E0E0937C0D0E94098D0E
:10343E00E4E0E0937D0D19C0A091550DA03FA8F0DA
:10344E000E94C18EA03F28F0EFE1E1BDE0E0E1BDBA
:10345E00FFCFA0917C0DA23040F0E0E0E0937C0D18
:10346E000E94098DE4E0E0937D0DE0919E07E0302F
:10347E0009F459C0A0919E07A33018F0E150E093D3
:10348E009E07A0919E07A83209F04DC0E0E0E093A0
:10349E00650DE093660DA0919F07A13019F4EBE442
:1034AE00FCE202C0EBE2FBE5E0937F07F0938007BE
:1034BE000E94D88EE0E0E0934B0DA0914B0DA6300C
:1034CE0020F50E94DF8EA0919F07AB3FD8F4DB98CA
:1034DE00E1E0E0935A0DE0E0E8830E94A163A09141
:1034EE008A07A03320F0A0918A07A73408F004C001
:1034FE00A5E6BDE00E94608DE0919F07EF5FE0932F
:10350E009F07E1CF0E94E68ED8CFE0E0E0934B0D0F
:10351E00EFE0E0935F0DE0E0E0935B0DE0935E0D76
:10352E00E5E0E0939E07E091780DE03061F0E15028
:10353E00E093780DE03039F4E0917A0DE03019F433
:10354E00EFE8E093750DA091790DA53118F0E4E147
:10355E00E093790DE091790DE03019F0E150E093B0
:10356E00790DE091540CE03009F47DC0E150E09308
:10357E00540CE03009F077C00E94EC8EE3E0E0934B
:10358E008207E1E0E883A881AD3308F060C00E94B5
:10359E00F38EA03320F0A0918307AA3308F013C056
:1035AE00A0918407A03320F0A0918407AA3308F0DD
:1035BE000AC0A0918507A03320F0A0918507AA33F9
:1035CE0008F001C001C006C00E94F88EEA0FE09319
:1035DE00750D26C0A0918307A03310F0AA3308F012
:1035EE000AC0A0918407A03320F0A0918407AA33CB
:1035FE0008F001C001C005C00E940A8FE093750D4E
:10360E000FC0A0918307A03310F0AA3308F006C0B4
:10361E00E0918307EF70E093750D02C0E1E4E8835B
:10362E00E091180CA091750DAE1768F0E881E35982
:10363E00E093750DA091750DAE3619F4E6EAE093A0
:10364E00750DE1E4E883E881EF5FE8839CCFA091FC
:10365E00750DAF3618F4E0E0E093750DE0E0E09301
:10366E00FF0CE093000DE091750DE03021F0E0913C
:10367E003D0CE03009F416C0DC9A0E94228DE3E086
:10368E000E942C8DE091750D0E94348DE0E0E09348
:10369E002E0CE091770AECB9E0E0E093750DE4E1D1
:1036AE00E093590DE091A409E03019F0E150E09358
:1036BE00A409E091350CE03031F0E150E093350C87
:1036CE00E0E0E093550DA0919907A23010F0A431DF
:1036DE0008F005C0E0919907E150E0939907A09199
:1036EE009907AA3019F4E0E0E0939907E091350CC0
:1036FE00E03051F00E94168FA53FE0E0BE0719F0B2
:10370E000E941B8F09F401C0BBC0E091600DE03038
:10371E0041F4A091290CA03320F0A091290CA734DC
:10372E0008F0AEC0E0915C0DE03009F0A9C00E9437
:10373E00208F0E94A163A0918A07A03320F0A09150
:10374E008A07A73408F00CC0E5E0E0935E0DE0E0D8
:10375E00E0935B0D0E94278FE3E0E0935C0D55C074
:10376E00E1E0E0935C0DE0E0E0934B0DA0914B0D9A
:10377E00A63008F04AC00E94DF8EA0919F07AB3F93
:10378E0008F040C0E1E0E0935A0DE0E0E883DB98FA
:10379E000E94A163A881A83020F4E0915A0DE03078
:1037AE0009F404C0E091350CE03009F40FC0E88153
:1037BE000E942D8FE8810E94328FEA1719F0E0E007
:1037CE00E0935A0DE881EF5FE883E4CFE0915A0D64
:1037DE00E03091F0E0914B0DEF5FE093530DE091EF
:1037EE009F07E093540DEBEFE0939F07EAE0E09321
:1037FE004B0DE2E0E0935C0DE0919F07EF5FE093ED
:10380E009F07BBCF0E94E68EB1CFA0915C0DA13079
:10381E0009F50E94378F0E942A2DA5E00E9437637A
:10382E00EEE1E093600DE4E0E09399070E94208FB3
:10383E000E94418FA0919607AE1720F4E091960753
:10384E00EF5F01C0E1E0E09396070E94208F0E9497
:10385E00A16310C0A0915C0DA23079F4E5E0E09375
:10386E005B0DE0E0E0935E0D0E94278F0E94468F75
:10387E000E944B8FE0E0E0934B0DEAEFE0935C0D7E
:10388E00A091EB0BA13009F0D6C0E2E0F0E0E0939E
:10389E00410DF093420DA091660CA43009F062C068
:1038AE00A0915C0CA43029F00E944F8FE093580D2C
:1038BE0059C00E94598F0E94678F0E94708FE1E05D
:1038CE00E883A881A031B0F50E94768F19F40E948A
:1038DE00868F10C0A0918507A03221F40E940A8F16
:1038EE00F0E008C00E94868F0E948B8F0E94908FFE
:1038FE000E94958FE0930A0CF0930B0C0E94908F10
:10390E00A436E0E0BE0720F0E3E6F0E00E948B8FE5
:10391E000E94AA8F29F4E881E093580DE0E1E88334
:10392E00A881AF3019F4E0E0E093580DE881EF5F25
:10393E00E883C7CF0E94B18F0E94B68F0E94BB8FC3
:10394E00E093A209E091580DE03021F0A091580DBE
:10395E00A03118F00E944F8F01C0E3E6E093580D9E
:10396E000E94708F0E94C78F0E94CF8F309729F4CC
:10397E00A091660CA43009F05CC00E94D58FA09176
:10398E00660CA43021F4A091580DA33609F01DC089
:10399E00E091DD0BEF70F0E0A8EEB3E00E94B3A172
:1039AE00BF01E091DE0BEF70A4E6EA9FF001F0E0BC
:1039BE00E60FF71F0E94DE8F0E94BB8F0E94E38FDF
:1039CE00F0E0EA0FFB1F0E94DE8FA091660CA33081
:1039DE0041F5E1E0E883A881AB3F18F50E94768FB0
:1039EE0019F40E94868F0CC0A0918507A03221F495
:1039FE000E940A8FF0E004C00E94868F0E94E88F1A
:103A0E00E0930A0CF0930B0C0E94EB8F31F4E881DB
:103A1E00F0E00E948B8FEBEFE883E881EF5FE883A5
:103A2E00DACFE091640CE0935F0CE0E0E093600C81
:103A3E0002C00E94F08FE0916300E07129F4E3E38D
:103A4E00BE1608F4B39401C0BB24E2E3EB1579F47F
:103A5E000E94F68FEAE00E94818EA0E9B2E00E94F9
:103A6E00A98B1A980E94F98FA5E00E943763CA9914
:103A7E0006C0E091430DF091440D309709F00AC055
:103A8E00A091910BA23328F4E091910BEF5FE0939C
:103A9E00910B13C0E091910BE03019F0E150E093DF
:103AAE00910BE0E0E093430DE093440DE091910B18
:103ABE00E03019F4E0E0E093140CA091910BA233E6
:103ACE0030F0E091140CE03011F4DD2009F01FC04D
:103ADE000E94798E0E941D8DA0918307A03361F400
:103AEE000E94798E0E94818E0E94FE8FA2E00E941B
:103AFE0037630E94A36608C00E94798E0E94818E51
:103B0E000E94928E0E94AD66E1E0E093140CA091AB
:103B1E00910BA23330F0E091960BE03011F4DD20E2
:103B2E0009F41CC0E091590CE07819F0E2E9E09339
:103B3E00750D0E9405900E949C8EE0E0E093550D5D
:103B4E00E093FE0BED2DEF5FF0E0E093430DF0936D
:103B5E00440DE1E0E093960BE093BC0BE091930BE8
:103B6E00E03021F4E091940BE03009F42FC0E0E056
:103B7E00E093940BE093550DDD20D1F40E94798EE5
:103B8E000E941D8DA0918307A03349F40E94798E67
:103B9E000E94818E0E94888E0E94A36608C00E9499
:103BAE00798E0E94818E0E94928E0E94AD660BC00D
:103BBE00E091590CE07819F0E2E9E093750D0E945E
:103BCE009C8E0E94A18EE1E0E093BC0BE091470C2D
:103BDE00E03021F4E091460CE03009F437C0E0E02B
:103BEE00E093460CE093550DE091420CE030D1F499
:103BFE000E94A88E0E941D8DA0918307A03349F4C8
:103C0E000E94A88E0E94818E0E94888E0E949D66C0
:103C1E0008C00E94A88E0E94818E0E94928E0E94E1
:103C2E00A76611C0E091590CE07819F0E2E9E09333
:103C3E00750DE091420CE093480C0E940F90E093BA
:103C4E00490C0E949D66E1E0E093BC0BE091950B60
:103C5E00E03021F4E091960BE03009F409C00E94A7
:103C6E00AD66E0E0E093960BE6E0E093610CC8D31E
:103C7E00E091480CE03021F4E091490CE03009F479
:103C8E0009C00E94A766E0E0E093490CE6E0E093ED
:103C9E00610CB6D3882009F08824772009F0B3C0D0
:103CAE00E4E17E2E0E94E575E093B50B0E94149020
:103CBE0019F0E0E0E093B50BE091B50BE03079F050
:103CCE00E0E0E093550DCC2019F0C092920BA89A2B
:103CDE000E941A9019F0E4EBE0930F0C94C0E0915F
:103CEE001D0DF0911E0D309721F0E091680CE03023
:103CFE0009F484C0E0911F0DF091200D309731F43E
:103D0E00E0911D0DF0911E0D309709F464C00E94D4
:103D1E0023901A9760F4E0911D0DE093E10BE09172
:103D2E001D0DE093DD0BE1E0E0935E0C3DC00E94C3
:103D3E002390A436E0E0BE0780F40E9423900E94F8
:103D4E002890E093E10B0E9423900E942D900E94F8
:103D5E003290E2E0E0935E0C27C00E942390A83CD4
:103D6E00E0E0BE0718F50E9423900E943D90E0937C
:103D7E00E10B0E9423900E944290E093E20BA091EF
:103D8E00E20BEAE00E942CA2E093E30BA091E20B7F
:103D9E00EAE00E94E6A10E943290E091E30BE093EC
:103DAE00DF0BE3E0E0935E0CE0935C0C0E9423904B
:103DBE00A83CE0E0BE0770F4E6E1E093B50BCC2042
:103DCE0019F0C092920BA89A0E941A9019F0E4EB87
:103DDE00E0930F0C04C0A1E2BDE00E94608DA091A3
:103DEE00210DB091220DA837E0E0BE0730F00E9401
:103DFE004790E093210DE093220D05C0E0E0E093A3
:103E0E00210DE093220D35FE12C0E091B00BEF5F55
:103E1E00E093B00BA091B00BA43618F0E0E0E09365
:103E2E00B00BE0913F0CE03011F40E94F730E091BE
:103E3E00A70CF091A80C309789F0A7EABCE00E947D
:103E4E00538DE091A70CF091A80C309739F40E9495
:103E5E004C90E0939C00A1E00E943763E0912B0D03
:103E6E00F0912C0D3097B1F1E1E0F0E0E0932D0DE3
:103E7E00F0932E0DA0912B0DB0912C0DA237E0E0FA
:103E8E00BE07B1F4E0E0E883A881A03350F4B0E0BF
:103E9E00A256B74FE881E05DEC93E881EF5FE883CF
:103EAE00F3CFEDE0E093CE08E0E0E093CF080AC058
:103EBE00E0912B0DE0939E08EDE0E0939F08E0E08B
:103ECE00E093A008E0E00E945390E0E0E0932B0D19
:103EDE00E0932C0DE091A90CF091AA0C309709F407
:103EEE0045C0E0E0E093A90CE093AA0C0E94149068
:103EFE0071F1A7E9BCE00E94538D0E94149031F03D
:103F0E00E0913F0DF091400D309709F1E0E0E09324
:103F1E003F0DE093400DE093990CE0939A0CE093E3
:103F2E00A30CE093A40C0E945A900E94FE8D0E9456
:103F3E0061900E9432420E94B261E1E0F0E0E093B3
:103F4E003D0DF0933E0D0E94C9790E946690A0919E
:103F5E00970CB091980C109719F40E946C9009F47C
:103F6E0005C0E0E0E093A30CE093A40CA0919F0C9D
:103F7E00B091A00CDD9740F0E0E0E0939F0CE09351
:103F8E00A00CEFEFE093B80BE091C70BE03031F0EF
:103F9E00E0E0E093C70BE1E0E093BC0BE0910F0C87
:103FAE00E03021F4A091C80BA13008F401C028D252
:103FBE00E091790DE03021F0E0E0E0939C090DC036
:103FCE0037FE04C0A0919C09AA3009F006C0E894FF
:103FDE0037F8A091730D0E94367BE091890CF09119
:103FEE008A0C309711F00E940378A0910E0CA1322A
:103FFE0020F0A091C80BA23008F407C0E0E0E093D7
:10400E000E0C43D0E1E0E093BC0B27FEFECFE8940C
:10401E0027F821960C94A014FFCFE091C90BE03045
:10402E0051F4E091510DE03011F4EAD103C0E5E610
:10403E00E093510D29C0E1E0E093C80BE091C90B6C
:10404E00E150E093C90BF0E0E353F44FE081E093CD
:10405E00CA0B0E94168FE3E2F0E00E94F4A10E94C8
:10406E007290E091CA0BA091B30BB091B40BF0E03B
:10407E00AE1BBF0BA093B10BB093B20BE0E0E0937D
:10408E009607E1E0E093BC0B0895E091D50BE0308C
:10409E0091F00E947790E081E093D60BA091D60B21
:1040AE00AE3221F40E947790A0E203C00E94779076
:1040BE00AEE2A08305C00E947790A091D60BA0839C
:1040CE00A091D50BE1E0EA27E093D50BE091350CFA
:1040DE00E03039F00E947E9019F00E941B8F09F497
:1040EE0001C009C0E091C80BE03029F00E94779022
:1040FE00A0915D0DA0830895E0E0E0930E0C0E9468
:10410E00839039F40E948890EAEF0E948B900E946F
:10411E0091900E949C9021F40E94A1900E94A490E4
:10412E000E94AB9021F40E94B0900E94A4900E9435
:10413E00B39021F40E94B8900E94A4900E94BB906C
:10414E0021F40E94C0900E94A4900E94C39021F47A
:10415E000E94C8900E94A4900E94CB9021F40E94CD
:10416E00D0900E94A4900E94168FA637E2E0BE0760
:10417E0031F40E94D3900E94D6900E9491900E949A
:10418E00DD9041F40E94E290E1E0E093D80BE4E090
:10419E000E94E5900E94E89051F4E3EEFAE80E9446
:1041AE00B68FECE0E093D80BE6E00E94E5900E941B
:1041BE00ED9041F40E94F290E2E0E093D80BE3E040
:1041CE000E94E5900E94F59041F40E94EC8EECE383
:1041DE00E093D80BE3E00E94E5900E947E9049F4B4
:1041EE000E94FA900E94D88E0E949190E0E0E09397
:1041FE00570D0E941B8F49F40E94FD900E94D88E8D
:10420E000E949190E0E0E093570D0E94009139F4E6
:10421E00EDEDFAE80E94B68FE6E00E9405910E944D
:10422E00159129F40E941A91E8E00E9405910E94CE
:10423E001D9129F40E942291E0E10E9405910E94B5
:10424E00259121F40E942A910E9405910E942F919E
:10425E0031F40E9434910E9437910E943E910E9447
:10426E00499121F40E944E910E9405910E94539112
:10427E0061F4E9E1F6EE0E94B68FE1E0E093D80B2F
:10428E00E5E0E09382070E943E910E94589151F41E
:10429E000E945D91ECE0E093D80BE7E0E09382079B
:1042AE000E943E910E94609121F40E9465910E94AD
:1042BE0005910E94168FA73CE1E0BE0721F40E94F3
:1042CE00158D0E9405910E94168FA43AE1E0BE075B
:1042DE0021F40E946A910E9405910E94168FA936C0
:1042EE00E0E0BE0739F40E94F68FE1E00E948B9069
:1042FE000E943E910E94168FAC38E0E0BE0769F432
:10430E000E946F91E1E00E948B90E8E00E94729112
:10431E00E1E0E093D40BE093D50B0E94168F9397B8
:10432E00B1F40E94028DEAEFE093D80BE0E1E09346
:10433E008207E3E00E9472910E94789119F0E4E006
:10434E00E093D40B0E947F91EEE2E0935B0C0E940F
:10435E00168FA13BE3E0BE0749F40E9488910E94AC
:10436E003791E6E00E9472910E948B910E948F918C
:10437E0049F40E9494910E943791E5E00E94729157
:10438E000E948B910E94979139F40E949C91E9E0D2
:10439E000E949F910E948B910E94168FA23DE0E099
:1043AE00BE0749F40E94A6910E94D690E5E00E94B5
:1043BE0072910E948B910E94A99139F40E94AE9144
:1043CE00E2E10E949F910E948B91E0919607E0306E
:1043DE00B1F00E94168F939749F40E94B1910E94FA
:1043EE00B7910E94BD9111F40E94C5910E94C9918E
:1043FE000E94E89021F40E94CD910E945366089588
:10440E00E0E00E94DB91E1E0F0E00E9472900E94F9
:10441E00E091E0939607E0E0E093C90BE093C80BC0
:10442E00089522970E94B1A2A091B50BA13189F4F3
:10443E00E091590CE17021F0E091190CE093500CD1
:10444E000E944C8E0E94B08D0E94AA8D0E94E59112
:10445E0016C4A091B50BA93119F5EBE00E94EC91B1
:10446E000E94EF910E94F5910E94F99111F00E9425
:10447E000492A091660CA43080F4E091150CE0300B
:10448E0031F0E0914A0CEE0F6E0E961410F4E1E04E
:10449E006E2E0E9409920E940D920E941792EFC3F7
:1044AE00A091B50BA53111F5EAE00E94EC910E94A6
:1044BE00EF910E94F5910E946E620E94F99111F0A7
:1044CE000E940492A091660CA43068F4E091150C41
:1044DE00E03019F06394961410F4E1E06E2E0E9411
:1044EE0009920E940D920E941792C9C3A091B50B1A
:1044FE00A73109F044C0EAE00E94EC910E94EF91CE
:10450E000E94F5910E946E620E94F99111F00E9434
:10451E000492A091660CA43078F5E091150CE03071
:10452E0049F40E941F920E9409920E940D920E94CD
:10453E00299219C0E1E0E61521F4692C0E941F9220
:10454E0001C06A94662011F00E940992E62DEF5F79
:10455E0011F00E940D92E62DEE5F11F00E9429924D
:10456E00E62DED5F49F0A62DAD5F0E949C61F0E057
:10457E00E093A60BF093A70B0E94179280C3A09115
:10458E00B50BA63109F05DC2E0915C0CE03021F470
:10459E00E091450DE0935C0CE0E0E093450DE09377
:1045AE00460DA091660CA43009F061C0E093580D41
:1045BE00A0915C0CA43029F00E944790E0935C0C13
:1045CE0056C00E94598F0E94708F0E94678F01E023
:1045DE00003178F50E94D3900E94339219F40E9414
:1045EE00868F0CC0A0918507A03221F40E940A8FFD
:1045FE00F0E004C00E94868F0E94E88FE0930A0CC0
:10460E00F0930B0C0E94908FA436E0E0BE0720F0D2
:10461E00E3E6F0E00E948B8F0E94AA8F19F40093BC
:10462E00580D00E10F3019F4E0E0E093580D0F5FE4
:10463E00CFCF0E94B18F0E94B68F0E94BB8FE093A6
:10464E00A209E091580DE03021F0A091580DA03153
:10465E0048F00E944790E0935C0CE0E0E093E00BA2
:10466E00E093580DE0E0E0930A0CE0930B0C0E94EF
:10467E00C78FE03031F0A091660CA43010F4E1E069
:10468E0001C0E0E00E94CF8F309721F4A091660C1C
:10469E00A53008F009C0A091660CA43021F4E09179
:1046AE00580DE03009F4C5C10E94D58FE091590C28
:1046BE00E07439F0E8E0E093790DE1E9E093750DEF
:1046CE0003C0E0E0E093790DE1E08E2EEBE4F0E044
:1046DE00E093F80BF093F90BE0919909E0939707AB
:1046EE00E0E0E0935F0C0E943D92E0939C09689499
:1046FE0037F80E94F28DE091EE0BF091EF0BE09304
:10470E00EC0BF093ED0B0E94988D0E94758D0E941C
:10471E007B8D0E94878D0E948D8DE091A00BE09382
:10472E00B70BE091F70CE17019F0E6EBF8EC02C074
:10473E00E4ECFCE9E0937F07F0938007EFE0E09371
:10474E008207A091B70B0E94A163E0E0E093FF0BFC
:10475E00A0918307A33210F0A73608F012C00E9472
:10476E00BD8D309711F00E94C28D0E94C88D11F040
:10477E000E94CE8D0E94BD8D309711F00E94DC8D6F
:10478E0011C00E94BD8D309711F00E94C28D0E9403
:10479E00C88D11F00E94EC8D0E94BD8D309711F0E6
:1047AE000E94DC8DE0E0E093BF0CE093C00CE09340
:1047BE005C0CA091660CA43008F4D5C0A43009F0AE
:1047CE0079C0E091580DE093A2090E94BB8FE0934F
:1047DE00580DE1E0F0E00E94DE8FA091A209A73013
:1047EE0050F4E091580DE093730DE03019F4E4E6C7
:1047FE00E093730D5EC0A091A209A73010F0AD300A
:10480E0008F00EC0E091A209E650E093A209E091F3
:10481E00580D0E94459219F4E8ECE093730D49C0CF
:10482E00A091A209AD3010F0A03108F042C0A091C5
:10483E00580DA33320F4E091580DE03009F41AC05E
:10484E00A091A209AD3011F4E1E00BC0A091A20934
:10485E00AE3011F4E3E005C0A091A209AF3019F417
:10486E00E5E0E093A209E9ECE093730DE091580DB9
:10487E00E8531DC0A091A209AD3011F4E2E00BC0C7
:10488E00A091A209AE3011F4E4E005C0A091A209F6
:10489E00AF3019F4E6E0E093A209E091580DEA5624
:1048AE00E093730DA091730DA63919F4EAEFE0931E
:1048BE00730D59C0A091660CA530C9F40E94B18F3A
:1048CE00309729F4E5E0E093A209E1E00DC00E94E3
:1048DE00E38FEAEFF0E00E94F4A1EF5F0E944C92AA
:1048EE00EAEFF0E00E942FA2E093730D3CC0A0917E
:1048FE00660CA630C1F50E944F92309761F4E4E049
:10490E000E944C920E9442900E94459219F4E8EC4B
:10491E00E093730D28C00E944F92379770F40E9457
:10492E004F920E944C920E944290E093730DE030A1
:10493E0019F4E4E6E093730D16C00E944F92DF0166
:10494E00379718F0FD013A9708F00DC00E944F926C
:10495E00E6500E944C920E9442900E94459219F499
:10496E00E8ECE093730DA091660CA33051F501E0D5
:10497E000B3F10F50E94D3900E94339219F40E94BF
:10498E00868F0CC0A0918507A03221F40E940A8F59
:10499E00F0E004C00E94868F0E94E88FE0930A0C1C
:1049AE00F0930B0C0E94EB8F29F4E02FF0E00E94A5
:1049BE008B8F0BEF0F5FDCCFE0910A0CE093730D42
:1049CE0025C0E091660CE03029F4E091A00BE09355
:1049DE00730D1CC0A091660CA13029F40E94519257
:1049EE00E093730D13C0A091660CA23079F40E946F
:1049FE004F9231970E945792DA010E94B3A1AF01F4
:104A0E000E945D923E2F340F3093730DA091730D63
:104A1E000E940863AE2F0E949B660E945F920E94C6
:104A2E00619219F0969A689431F8E0E0E093130CD5
:104A3E0007C00E943D92E0935C0CA2E00E94376397
:104A4E001EC1A091B50BA83109F0B3C0E0E0E09310
:104A5E00740DE0939A07E0939B07E093EB0BE093C2
:104A6E00E00B0E944C8E0E94B08D0E94AA8DA091E8
:104A7E009C07B0919D07129788F0E1E0F0E00E944C
:104A8E00B08EE091A109E03031F0E1E0F0E0E0938A
:104A9E008D0CF0938E0CE0E0E0939C09E0E0E09347
:104AAE005F0CE093150C0E9467920E9446491E2FE0
:104ABE00E0E0E0935C0C113009F044C0E0935E0C32
:104ACE000E946C92E0914B0CE074AE2F21F0E091BD
:104ADE007C07E03019F4EA2FE03099F5E091440CB0
:104AEE00A091430CEA1740F0A092930B0E940F90F6
:104AFE000E9472920E947D92E091450CA091430C0F
:104B0E00AE1730F00E9482920E9487920E947D9290
:104B1E00E091460CE03021F0E091940BE03009F486
:104B2E0004C00E9492920E940590E091460CE030E3
:104B3E0021F4E091940BE03009F003C0A3E00E9451
:104B4E00376336C0123059F40E946C920E949A92CA
:104B5E00E0E0E093170CA1E00E94376329C0133008
:104B6E0041F40E946C920E949A92E1E0E093170C3D
:104B7E001FC0E1E0E093590DE0E0E093EB0BE09312
:104B8E005D0C0E944790E0935E0CE0E0E0935C0CBD
:104B9E000E94E591E4E1F0E0E093FB0CF093FC0C55
:104BAE00E1E0E093520DE0E0E09397070E9432427D
:104BBE0066C0A091B50BA13010F0AB3008F05FC00D
:104BCE00A0915C0CA43019F4E0E0E0935C0CA09191
:104BDE005C0CA33021F4A091660CA43009F00EC039
:104BEE00E091B50BE093E00BA091E00BAA3019F425
:104BFE00E0E0E093E00BE4E0E0935C0CA0915C0C51
:104C0E00A330B0F40E94B392A091B50BA0830E9482
:104C1E00B392A081AA3021F40E94B392A0E0A083A7
:104C2E00E0915C0CEF5FE0935C0CE0E0E093E00B56
:104C3E00E091630CEF5FE093EB0BA091B50BAA3004
:104C4E0019F4E0E0E093B50BE0915E0CF0E0EF516B
:104C5E00F44FA091B50BA083A0915E0CAA3028F45E
:104C6E00E0915E0CEF5FE0935E0CECE3E0935D0C85
:104C7E00E091520DE03019F0EAE0E093520D0E94FF
:104C8E00B8A2289608951A930A9300E0E091C80BF3
:104C9E00E03031F4A1E00E943763C3DB0C94182D91
:104CAE00A091C80BA13009F040C1E091B50BE030E6
:104CBE0079F0A091B50BA83149F40E947E9019F0BD
:104CCE000E941B8F19F4E1E0E093500D0E944D8D70
:104CDE00A1E00E943763E0E0E093EB0BA091B50BEF
:104CEE00A53109F067C00E94B992C1F0E091CA0BDC
:104CFE00E13011F4E2E00FC0E23011F4E5E10BC057
:104D0E00E53111F4E6E107C0E63111F4E7E103C045
:104D1E00E73119F4E1E0E093CA0B49C0E091670C6A
:104D2E00E074C1F5E091CA0BE13011F4E2E02FC05E
:104D3E00E23011F4E3E02BC0E33011F4E4E027C0DD
:104D4E00E43011F4E5E023C0E53011F4E5E11FC0D5
:104D5E00E53111F4E6E11BC0E63111F4E6E017C0CF
:104D6E00E63011F4E7E013C0E73011F4EEE00FC0C7
:104D7E00EE3011F4E0E10BC0E03111F4EBE107C0CD
:104D8E00EB3111F4EDE103C0ED3119F4E1E0E09304
:104D9E00CA0B0DC0E091CB0BA091CA0BEA1711F410
:104DAE00E1E003C0E091CA0BEF5FE093CA0B0E94F3
:104DBE00C292BAC0A091B50BA73109F066C00E948D
:104DCE00B992C1F0E091CA0BE13011F4E7E10FC0E6
:104DDE00E73111F4E6E10BC0E63111F4E5E107C06D
:104DEE00E53111F4E2E003C0E23019F4E1E0E093C2
:104DFE00CA0B48C0E091670CE074C1F5E091CA0B94
:104E0E00E13011F4EDE12FC0ED3111F4EBE12BC0E7
:104E1E00EB3111F4E0E127C0E03111F4EEE023C0F4
:104E2E00EE3011F4E7E01FC0E73011F4E6E01BC0EE
:104E3E00E63011F4E6E117C0E63111F4E5E113C0F6
:104E4E00E53111F4E5E00FC0E53011F4E4E00BC0FC
:104E5E00E43011F4E3E007C0E33011F4E2E003C004
:104E6E00E23019F4E1E0E093CA0B0CC0A091CA0B3A
:104E7E00A13019F4E091CB0B03C0E091CA0BE150C5
:104E8E00E093CA0B0E94C2924FC0A091B50BA631FF
:104E9E00E1F50E94C992E091CC0BE150A091C90BB3
:104EAE00AE17E8F4E091C90BF0E0E353F44FA09194
:104EBE00CA0BA083E091C90BEF5FE093C90BE1E051
:104ECE00E093CA0BA091B30BB091B40BE3E20E9436
:104EDE00DBA1E093B10BF093B20B0E94C2920CD9FE
:104EEE000E94539131F40E94E1630E94CF92E894A4
:104EFE0025F80E94589119F00E94539129F40E94AE
:104F0E00F892E0610E94FD920FC0A091B50BA13105
:104F1E0059F40E94C992E0E0E093EB0BE89426F876
:104F2E007CD8E1E0E093600C7CC5A1E00E94376381
:104F3E00E091D50BE03009F4A8D8A091B50BA831BB
:104F4E0069F40E94168F939719F0A3E00E943763BD
:104F5E00E4EFF1E0E093630DF093640DA091B50BD7
:104F6E00A23011F40E944D8D0E947E9019F00E9485
:104F7E001B8F69F4A091B50BA23011F4E8E105C0C6
:104F8E00A091B50BA83119F4E2E0E093B50BA09116
:104F9E00B50BA83109F0BEC1E0E0E093A0070E9476
:104FAE009C90A9F00E94AB9091F00E94B39079F082
:104FBE000E94BB9061F00E94C39049F00E94CB907A
:104FCE0031F00E948F9119F00E94609161F4E0918E
:104FDE009807E17011F4689424F846D5E09198078B
:104FEE00EE7FE09398070E94168F939709F05BC0AF
:104FFE00E0919507E03051F1A091D40BA53018F057
:10500E000E94029322C0E0E0E0939407A091570D16
:10501E00A13019F4E1E0E0934B0D0E940B930E9436
:10502E000F9331F40E94468F0E9416930E941B9399
:10503E00E0E0E093570D0E9432420E94168F939744
:10504E0011F40E94B2610E9414202CC00E94219380
:10505E00E0918207A091D40BEA1708F5E091570D65
:10506E00E03041F4E5E00E9427930E94B1910E9446
:10507E00B79115C0A091570DA23069F40E940B9301
:10508E00E1E0E093570DE5E0E093D40B0E94B1917F
:10509E000E94B79104C0E0918207E093D40BE0E048
:1050AE00E093D70B36C10E947E9019F00E941B8FA1
:1050BE00A9F4E1E0E093D40B0E94378FB5D40E949F
:1050CE00468F0E944B8F0E94208F0E946C63E1E0FE
:1050DE00E0939907E0E0E0934B0D1BC10E94839093
:1050EE0061F00E94E89041F4A091440CA03021F4AC
:1050FE00A091450CA03009F00AC0E1E0E093D40B7A
:10510E000E94378F91D4E1E0E093990702C10E948B
:10511E00009109F0FEC0A0919607A53018F4E4E0C6
:10512E00E093400CA1E00E943763DB98A0919607B4
:10513E00A13079F40E948890EAE0E093820711E0B2
:10514E001B3F30F40E94468F0E942D931F5FF8CFB5
:10515E0087C0A0919607A230B9F50E943493A09112
:10516E004D0DA53428F40E943C930E944493F7CF32
:10517E000E944A930E94FA90E8E0E093820711E0C1
:10518E001B3FF0F40F5F033010F40E944F630630A4
:10519E0021F4A3E00E94376300E00E94468F0E9434
:1051AE004B8FE0E0E0934B0DA0914B0DA63030F409
:1051BE00A12F0E946C630E94E68EF6CF1F5FE0CF98
:1051CE00E0E0E0934B0D4CC0A0919607A330B9F5EB
:1051DE000E943493A0914D0DA53428F40E943C9367
:1051EE000E944493F7CF0E944A930E94FD90E8E0FC
:1051FE00E093820711E01B3FF0F40F5F033010F4D1
:10520E000E944F63063021F4A3E00E94376300E052
:10521E000E94468F0E944B8FE0E0E0934B0DA091D1
:10522E004B0DA63030F4A12F0E946C630E94E68EC7
:10523E00F6CF1F5FE0CFE0E0E0934B0D11C0A091E1
:10524E009607A43069F40E9461930E94818EA3EBAD
:10525E00B2E00E9466930000A1E00E943763FBCF8C
:10526E00A0919607A53009F03EC0A895C198C298A6
:10527E000E945D63E0E0E093490DE0934A0DA0913A
:10528E00490DB0914A0D1A9770F40000B39905C0FC
:10529E00A9E4BDE00E94608D05C0E0E0E093490DF9
:1052AE00E0934A0DECCFA8950000A1E00E94376371
:1052BE00DB98E6E0F0E00E946B930E94709329F079
:1052CE0027FEFECF0E947693F8CFEFEFF0E00E941C
:1052DE006B93DB9A0E94709329F027FEFECF0E94FB
:1052EE007693F8CFE0CFA0919607A63049F4C198F7
:1052FE00C29A0E945D630000A1E00E943763FBCF5B
:10530E00DB9AE0E0E093F90CE093FA0CA1E00E9446
:10531E00376387C3A091B50BA93109F06EC00E9407
:10532E004D8D0E947E9019F00E941B8FA9F40E9451
:10533E00208F0E94418FE950A0919607AE1720F45E
:10534E00E0919607E65F01C0E1E0E09396070E94C8
:10535E00208F0E94B79150C00E947B9379F00E94DB
:10536E00AB9061F00E94B39049F00E94BB9031F077
:10537E000E94C39019F00E94CB9009F407C0A0912F
:10538E00570DA13019F4E1E0E0934B0D0E940B9301
:10539E000E940F9331F40E94468F0E9416930E9432
:1053AE001B93E0E0E093570DE091D80BE950A091EC
:1053BE009607AE1720F4E0919607E65F01C0E1E094
:1053CE00E09396070E94168F939749F40E94B1912D
:1053DE000E94B7910E94BD9111F40E94C5910E9446
:1053EE00C9910E947E9331F40E94789119F0E4E005
:1053FE00E093D40B0E94849314C3A091B50BA531F6
:10540E0009F077C00E944D8D0E947E9019F00E9487
:10541E001B8FA1F40E94208F0E94418FA0919607AE
:10542E00AE1720F4E0919607EF5F01C0E1E0E09344
:10543E0096070E94208F0E94B7915AC00E947B93BC
:10544E0079F00E94AB9061F00E94B39049F00E94F7
:10545E00BB9031F00E94C39019F00E94CB9009F4DA
:10546E0007C0A091570DA13019F4E1E0E0934B0D68
:10547E000E940B930E940F9331F40E94468F0E945C
:10548E0016930E941B930E948A9321F40E94CD9141
:10549E000E943766E091D80BA0919607AE1720F4C4
:1054AE00E0919607EF5F01C0E1E0E09396070E945E
:1054BE00168F939749F40E94B1910E94B7910E9462
:1054CE00BD9111F40E94C5910E94C9910E94E8906D
:1054DE0021F40E94CD910E9453660E947E9331F476
:1054EE000E94789119F0E4E0E093D40B0E9484932B
:1054FE0098C2A091B50BA73109F07AC00E944D8DCC
:10550E000E947E9019F00E941B8FC1F40E94208F82
:10551E000E946C63A0919607A23020F0E09196074E
:10552E00E15002C0E091D80BE0939607E1E0E093E2
:10553E00D40B0E94208F0E94B79159C00E947B937A
:10554E0079F00E94AB9061F00E94B39049F00E94F6
:10555E00BB9031F00E94C39019F00E94CB9009F4D9
:10556E0007C0A091570DA13019F4E1E0E0934B0D67
:10557E000E940B930E940F9331F40E94468F0E945B
:10558E0016930E941B930E948A9321F40E94CD9140
:10559E000E943766A0919607A23020F0E091960700
:1055AE00E15002C0E091D80BE09396070E947E93E3
:1055BE0031F40E94789119F0E4E0E093D40B0E944C
:1055CE0084930E94168F939749F40E94B1910E9482
:1055DE00B7910E94BD9111F40E94C5910E94C9918C
:1055EE000E94E89021F40E94CD910E94536619C248
:1055FE00A091B50BA03271F50E94168F9397F1F41E
:10560E00E091D40BE1501E2FE0918207E11730F0AC
:10561E000E948E93A0E2A0831F5FF6CFE091570DFC
:10562E00E03059F4E2E0E093570DE5EAF9E00E942C
:10563E009393A9E6BAE00E94024209C026FE07C073
:10564E000E942193E0919807E160E0939807E89417
:10565E0026F8E7C1A091B50BA13121F4E091400CE1
:10566E00E03009F032C1E2E0E093510DE0E0E0936A
:10567E00EB0B0E945391C9F50E94868F0E9499935D
:10568E000E949E930E9498A220F4ABECBCE00E9474
:10569E00538D0E949E93179720F0E6E0F0E00E9453
:1056AE0099930E94A393A4E8B7E0EC91EF70EC936A
:1056BE00A5E8B7E0EC91EF70EC930E94AF9310F079
:1056CE000E94C2930E94C993A6E8B7E0EC91EF70D6
:1056DE00EC93A7E8B7E0EC91EF70EC930E94D593B2
:1056EE0010F00E94EA930E94F193E0919507E0304A
:1056FE0009F475C0DB980E94168F939779F50E9476
:10570E002193E0918207E150A091D40BEA1710F596
:10571E00E091570DE03041F4E4E00E9427930E949F
:10572E00B1910E94B79116C0A091570DA23069F4A5
:10573E000E940B93E1E0E093570DE4E0E093D40B6D
:10574E000E94B1910E94B79105C0E0918207E1508D
:10575E00E093D40BE0E0E093D70B40C0E0E0E093A1
:10576E0094070E947E9019F00E941B8F21F4E09105
:10577E00570DE0934B0D0E940B93E0E0E0934B0D21
:10578E000E947E9019F00E941B8F19F4E0E0E093C6
:10579E00570DE0919907E03019F00E947E9009F0C4
:1057AE0002C00E942B64E0919907E03019F00E942C
:1057BE001B8F09F002C00E949A640E94E89021F4A7
:1057CE000E94CD910E9437660E9432420E94168F2F
:1057DE00939711F40E94B2610E94142074C0DB985A
:1057EE00A091D40BA63020F00E94168F939709F04B
:1057FE0003C00E94029367C0E0E0E09394070E940A
:10580E009C9079F00E94AB9061F00E94B39049F0A9
:10581E000E94BB9031F00E94C39019F00E94CB9071
:10582E0009F411C0A091570DA13019F4E1E0E093F5
:10583E004B0D0E947E9019F00E941B8F21F4E09177
:10584E00570DE0934B0D0E940B93E0919907E030BA
:10585E0019F00E947E9009F002C00E942B64E09124
:10586E009907E03019F00E941B8F09F002C00E94C8
:10587E009A64E8E0E0938207E0E0E0934B0D0E942B
:10588E007E9019F00E941B8F19F4E0E0E093570D03
:10589E00A091570DA23031F40E94468F0E941693AC
:1058AE000E941B930E948A9321F40E94CD910E9424
:1058BE0037660E9432420E94168F939711F40E940F
:1058CE00B2610E941420DB9AACC0A091B50BA63138
:1058DE0009F04BC0E0E0E093A0070E949C90C1F05D
:1058EE000E94AB90A9F00E94B39091F00E94BB90E1
:1058FE0079F00E94C39061F00E94589149F00E9485
:10590E00609131F00E94CB9019F00E94609119F4D1
:10591E000E94378F89D00E94168F939729F5DB98B6
:10592E00E0E0E0939407A091570DA23049F4E09384
:10593E004B0D0E940B930E94468F0E94089404C048
:10594E00E091570DE03019F0E1E0E0934B0D0E942D
:10595E000B93E0E0E0934B0DE093570D0E94324223
:10596E000E94B2610E9414205CC00E94168F939711
:10597E0099F40E944D8D1BD1E0E0E093D50BE0939E
:10598E000E0C0E947790E081E093D60B0E944C2083
:10599E00E1E0E093BC0B45C00E944D8D0E94E89063
:1059AE0041F4A091440CA03021F4A091450CA030FC
:1059BE0009F002C010E001C011E00E94E89009F069
:1059CE0010E00E947E9029F00E941B8F11F0113082
:1059DE0009F408C0A091D40BA13019F40E94378F9E
:1059EE0023D042D00E947E9019F00E941B8F21F48A
:1059FE00A091B50BA23009F014C00E94208F0E9416
:105A0E006C63E091570DEF5FE093570DA091570D2A
:105A1E00A63018F0E0E0E093570D0E94208F0E9410
:105A2E00B791099119910895AA931A93EC81E150B7
:105A3E001E2FE9811E1730F40E940C94E0E2EC93C5
:105A4E001F5FF7CF0EC0AA931A9310E0E9811E17BD
:105A5E0040F40E940C94E12F0E94328FEC931F5F52
:105A6E00F5CF1881259608951A93A091B50BA13004
:105A7E0010F0AB3010F024FE96C0A091B50BAA30FA
:105A8E0019F4E0E0E093B50B24FE43C00E948F9121
:105A9E0019F00E94609109F439C0A091570DA13000
:105AAE0011F4EAEF13C0A091570DA23011F4E3EFF9
:105ABE000DC0A091570DA33011F4E6E307C0A091DD
:105ACE00570DA43011F4EAE001C0EDEFE093B50BF1
