:020000020000FC
:020000000C945E
:100002007B120C9400000C9400000C9400000C94E1
:1000120000000C9400000C9400000C9400000C945E
:1000220000000C94C0540C9400000C9400000C943A
:10003200C0490C9400000C9400000C9400000C9435
:10004200B2540C9400000C94594C0C94934C0C94A4
:100052006C4C0C9400000C9400000C9400000C9466
:1000620000000C9400000C9400000C9400000C940E
:1000720000000C9400000C94A04C0C9400000C9412
:100082008C540C9400000C940000042105211121D1
:1000920011211C21292134213F214F215921622183
:1000A200742187219821A721B821C821809A9041E3
:1000B2008E418F804545454949498E8F9092924F96
:1000C200994F555559999A9B9C9D9E9F41494F55D1
:1000D200A5A5A6A7A8A9AAABAC21AEAFB0B1B2B3F1
:1000E200B4B5B6B7B8B9BABBBCBDBEBFC0C1C2C356
:1000F200C4C5C6C7C8C9CACBCCCDCECFD0D1D2D346
:10010200D4D5D6D7D8D9DADBDCDDDEDFE0E1E2E335
:10011200E4E5E6E7E8E9EAEBECEDEEEFF0F1F2F325
:10012200F4F5F6F7F8F9FAFBFCFDFEFF1027E803F9
:1001320064000A000100001000011000010000002C
:1001420054535420004241434B555000563138001D
:1001520044617461346B204F6B004572617365209A
:100162004F6B0020465720000D0A006572617365CF
:1001720020646F6E65206F6B0D0A0077726974657B
:1001820020646F6E65206F6B0D0A007265616420DA
:1001920020646F6E65206F6B0D0A00726561647773
:1001A2006B6661696C6564200D0A0072656164208A
:1001B200206661696C6564200D0A004E414D453030
:1001C200303031004E414D45303030340052656E92
:1001D200616D65206661696C65640072656E616D52
:1001E2006531206661696C65640A0052656E616DF5
:1001F20065204F6B0072656E616D653120706173B1
:100202007365640A0052656E616D6520636865639B
:100212006B204F6B0052656E616D652063686B20C9
:100222004661696C00757064617420646F6E65204C
:100232006F6B0D0A00757064617465206661696C8C
:1002420065640D0A007468697320697320757064AF
:100252006174652E00757064742066696C6C20662A
:1002620061696C0D0A00757064742066696C6C209B
:10027200646F6E650D0A0044617461346B204661DF
:10028200696C003000202020202020202000313204
:10029200333435362020202020202020202020002A
:1002A200202020202020202020202020202020204C
:1002B2000035006170702E2072696E67696E67206A
:1002C200202020004F66666963652052696E6720B0
:1002D200202020200054656E616E742052696E6782
:1002E2002020202020005472792043616C6C204F22
:1002F2007468657220200020EEF6ECF6EC20ECE348
:10030200E9F8E4203330200020EEF6ECF6EC20ECA5
:10031200EEF9F8E3203330200020EEF6ECF6EC2084
:10032200ECE3E9E9F820333020002020EEF0F1E49C
:1003320020EEF1F4F820E0E7F8200053656C6563E5
:1003420074206170702E20202020200053656C657F
:100352006374204F666669636520200053656C658F
:100362006374656420202020202020202000507209
:10037200657373204220746F2063616C6C002020CF
:10038200F0E1E7F8E420E3E9F8E42033302000204C
:1003920020F0E1E7F820EEF9F8E3202033302000E6
:1003A2002020F0E1E7F820E3E9E9F82020333020CB
:1003B200002D2D2D2D2D20454E44202D2D2D2D2D62
:1003C2002D2000202D2D2D2D20F1E5F3202D2D2D7A
:1003D2002D2D2D2000202020202020202020202014
:1003E2002020202020200045584954203C2D202A3E
:1003F200202023202D3E0020E9F6E9E0E43E2D20D6
:100402002320202A202D3C00457261736520616CF7
:100412006C2050727879210020506C6561736520E0
:100422005761697421210020EEE7E9F7E420EBE54A
:10043200ECECFA21212120002020F0E020ECE4EE77
:10044200FAE9EF202121212000312F36204E657854
:10045200743F50726573732A005072657373322051
:10046200746F2045726173650020362F3120ECE1F4
:10047200E02D20E4F7F9202A20002020ECEEE7E925
:10048200F7E420E4F7F920322020005072657373FC
:100492002A20746F204572617365002020ECEEE71C
:1004A200E9F7E420E4F7F9202A2020002020417215
:1004B2006520796F7520737572653F0050726573A0
:1004C200732A20746F207374617274002020E4E038
:1004D200ED20E0FAE420E1E8E5E73F2000202020DB
:1004E200ECE4F2E1F8E420E4F7F9202A20006F704E
:1004F20074696F6E206E756D62657220310042798B
:10050200207465737420202B2F2D203120006F70F2
:1005120074696F6E206E756D6265722032004D6176
:10052200782073656E736174697665300042657315
:10053200742D2062792074657374210070756C7358
:10054200657320696E203530206D53004C6F772023
:1005520066726571206C6576656C20004279207444
:1005620065737420202D3130202020007570657253
:100572002066726571206C6576656C004279207424
:1005820065737420202B3130202020004272656177
:100592006B206F6E2043616C6C202000426173659A
:1005A2002074696D65203530206D5300546F206EC4
:1005B2006578742070686F6E652E2E0030203D774E
:1005C200697468206E6F207465737400746F20689C
:1005D200616E672070686F6E652E2E007265636FA4
:1005E2006D6D2030382074696D65200020E0F4F9CB
:1005F200F8E5FA20EEF12720312020200020ECF44B
:10060200E920E4F0EEE3E3202B2F2D20310020E05F
:10061200F4F9F8E5FA20EEF127202032202000201C
:10062200302020F8E2E9F9E5FA20EEF8E1E9FA00F3
:1006320020EEE5EEECF520ECF4E920E4F0EEE3E365
:100642000020EEF120F4E5ECF120E1303520EEEC73
:10065200E9002020F7E520E2E9ECE5E920FAE7FAF3
:10066200E5EF002020ECF4E920E4F0EEE3E32030B3
:10067200312D20002020F7E520E2E9ECE5E920F227
:10068200ECE9E5EF002020ECF4E920E4F0EEE3E30E
:100692002030312B200020E4F4F1F7E420E1E9EFEF
:1006A20020F6ECF6E5EC0020E1F1E9F120E6EEEFD0
:1006B20020303520EEECE90020ECE8ECF4E5EF2008
:1006C200E4E1E0202E2E2E20002030202020ECEC31
:1006D200E020E1E3E9F7E420200020ECF0E9FAE58C
:1006E200F720E4F9E9E7E42E2E2E0020EEE5EEEC09
:1006F200F520383020F4F2EEE9ED2000446F206E50
:100702006F742073656C6563742030006F7220759E
:10071200736520646F6F72206B65790020F0E020B2
:10072200ECE020ECE1E7E5F820EEF7F900203020DC
:10073200E0E520EEF7F920E3ECFA312F32004448ED
:10074200484D4D203C3C3C444953504C5900536861
:100752006F772076616C75653E3E5345540020FAF2
:10076200F6E5E2E43A202020204D4D48484400209E
:10077200E4F2F8EA20E4EEE5F6E220E9F9EEF80028
:1007820056616C75653020416E792043616C6C0056
:1007920031206F722032206F7220333D312B3200B4
:1007A2002020F2F8EA203020EBEC20F7F8E9E0E430
:1007B20000203120E0E5203220E0E520333D312BDE
:1007C2003200444444444444443C3C444953504C25
:1007D2005900313D53756E646179373D53617465DB
:1007E200720020FAF6E5E2E43A202044444444440C
:1007F20044440020313D20E9E5ED20E02720373D4B
:10080200F927200048484D4D7878783C3C444953BC
:10081200504C59005374617274202F53746F7020BE
:1008220074696D0020FAF6E5E2E43A2020787878DF
:100832004D4D48480020E6EEEF20E4FAE7ECE420D4
:100842002FF1E9E5ED00303D4164642056616C20F2
:10085200312D31303020005374657020323D4E65A9
:1008620077333D344447200020E4E5F1F320F2F8E9
:10087200EA3D3020313DEBEC002030303120323D7A
:10088200E7E3F920333D34F1F4004D6178207370D1
:10089200656564203D2030200020EEF7F1E9EEE5A9
:1008A200ED20F2F8EA203D302000303030203D6E5D
:1008B2006F742061637469766520002030303020C7
:1008C2003D20ECE020F4F2E9EC2020005665723382
:1008D20032332030352F30392F32340026205269FE
:1008E2006E67204E616D6520447370004D617852D1
:1008F20065636F56616C756530357300204D696EA6
:100902002056616C7565203120002054696D652088
:10091200696E207365632020200020312F342073FC
:100922006563206261736520003C34207265706CDF
:10093200616365206279340054696D653D31302010
:10094200582076616C7565004E4F5420494E2055F3
:100952005345204E4F57210030207265706C616301
:1009620065206279310020E5FAF6E5E2FA20F9ED38
:1009720020EEF6ECF6EC0020EEE5EEECF52035305C
:1009820020F9F0E9E5FA200020EEE9F0E9EEE5EDE4
:1009920020F2F8EA203D31200020202020F2F8EA5F
:1009A20020E1F9F0E9E5FA20200020F7E8EF20EE57
:1009B2003420E9E5E7ECF320E1340020E1F1E9F14C
:1009C20020342F3120F9F0E9E420200020EEE9F074
:1009D200E9EEE5ED20F2F8EA203D20310020E6EED6
:1009E200EF203D203031205820F2F8EA200020ECA0
:1009F200E020E1F9E9EEE5F920EBF2FA212000200E
:100A0200F2F8EA203020EEE5E7ECF320EC203100AA
:100A1200536574204C617374206170702020202013
:100A2200002020746F207468697320666C6F6F7287
:100A3200200020E3E9F8E420E0E7F8E5F0E42020F4
:100A420020200020202020202020ECF7E5EEE420CA
:100A5200E6E520004D617820323520626F617264D4
:100A6200732E2E0020EEF7F12720353220EEF2E22F
:100A7200ECE9ED20004368616E67653F4E616D658C
:100A8200456E747200312D392D3E59657320302D1B
:100A92003E4E6F200020F9E5F0E43FE4EBF0F12058
:100AA200ECF9EEE5FA0020312D393D592DEBEF201E
:100AB200303D4E2DECE000456E7465722041707041
:100AC200206E756D627200456E746572204F6666A7
:100AD200696365204E6F00456E7465722054656EC1
:100AE200616E74204E6F007468656E20707265735B
:100AF200732042454C4C0020436F6E6E65637465F3
:100B0200642F696E6720200020E4F7F920EEF1F4EB
:100B1200F820E3E9F8E420200020E4F7F920EEF1E0
:100B2200F4F820EEF9F8E320200020E4F7F920EEB3
:100B3200F1F4F820E3E9E9F820200020E5ECE7F5FC
:100B420020F2EC20E4F4F2EEE5EF200020EEFAE7EA
:100B5200E1F82FEEE7E5E1F8212121200055736548
:100B6200642145726173652F4D6F76650020FAF43A
:100B7200E5F121212DF0F7E42FF2E1E5F800416CD7
:100B82006C726561647920696E204D454D004C6F31
:100B9200636174696F6E3A202F202020200020218B
:100BA20021F7E9E9ED20E1E6E9EBF8E5EF210020A4
:100BB2002020E1EEE9F7E5ED3A2020202F20200069
:100BC20054616773205174793A202020202020201C
:100BD200005573652042656C6C20546F43616C6CE8
:100BE200200020ECE7E9E5E220E4F7F920F4F2EE58
:100BF200E5EF00330020202020202020202020505C
:100C02005247002020202020466163746F727920B1
:100C12005265736574202020506C6561736520579E
:100C22006169740020202020204E616D652F54657B
:100C32006C2053746179202020506C6561736520AB
:100C42005761697400313233202020202020200097
:100C52003435362020202020202000323532353213
:100C6200352020202020202020202020003030008D
:100C72003035003032003939003330003430003141
:100C82003000303800303600323000202020202062
:100C920020E3E9F8E4203120202020002020202039
:100CA2002020E3E9F8E42032202020200020202028
:100CB200202020E3E9F8E420332020202000202017
:100CC200204150502E20232031202020202000209F
:100CD20020204150502E202320322020202020008E
:100CE2002020204150502E2023203320202020205D
:100CF200004E002D003700323530003230310030E6
:100D0200303030003030380030313200303136008F
:100D12003132303000313330300031363030003152
:100D22003730300031383030003139303000323134
:100D32000032320032330034350035370025007777
:100D42006169742E2E2E2020202020202020004F8A
:100D52007267616E697A696E67206E616D65004DBA
:100D620061792074616B6520666577202020002000
:100D72002020202020206D696E757465730020206C
:100D8200EEE0F8E2EF20F9EEE5FA20202020002044
:100D920020E0F0E020E4EEFAEF20202020202000E6
:100DA2002020E1F1E1ECF0E5FA20202020202020B3
:100DB2000000546865206C61746368202020202044
:100DC2002000546865206C61746368203220202002
:100DD2002000546865206C617463682031263220DB
:100DE20020002020F4FAE720E0FA20E4E3ECFA20E5
:100DF2002020002020F4FAE720E0FA20E4E3ECFAD5
:100E0200203220002020F4FAE720E0FA20E4E3EC8C
:100E1200FAE5FA2000202020576169742074696C79
:100E22006C202020200020E4EEFAEF20ECF1E9E52E
:100E3200ED2E2E2E202000427573792F204E4F204A
:100E4200416E73776572004D6F64656D436F6E6EB0
:100E5200656374696F6E0020E1FAF4E5F120E0E960
:100E6200EF20EEF2F0E4200020E1E4FAF7F9F8E5F1
:100E7200FA20EEE5E3ED2000557365206172726F92
:100E8200777320202020002048454C4F2E2E2E2004
:100E92002020746F20200020E3F4E3F320E1E7E94F
:100EA200F6E9ED2020202000202020202020F9EC4F
:100EB200E5ED202020202020002020202049732042
:100EC200756E6C6F636B65642000202020202020EB
:100ED20020202020202020202020002020456E6479
:100EE200206F662064656C6179202000202020201C
:100EF20020202020E4E4F9E4E9E420200048616EA7
:100F020067206279207573696E67202A2000446F1A
:100F1200204E6F7420546F7563682121210020F0E8
:100F2200FAF720E1EBE5EBE1E9FA20292A28002093
:100F3200F0E020ECE020ECE2F2FA20212121200076
:100F4200746F20736561726368206E616D652E0037
:100F520020ECE0E9FAE5F820E4E3E9E9F82FFA0009
:100F6200746F20636F6E6E65637420417070002031
:100F7200ECE4FAF7F9F8E5FA20ECE3E9F8E420000A
:100F820020ECE0E9FAE5F820E4EEF9F8E300636F1B
:100F92006E6E656374206F6666696365200020EC7F
:100FA200E4FAF7F9F8E5FA20ECEEF9F8E320007438
:100FB2006F207365617263682054656E616E7400A0
:100FC200636F6E746163742054656E616E74002089
:100FD200ECE0E9FAE5F820E3E9E9F8200020ECEE9C
:100FE200FAF7F9F8E5FA20ECE3E9E9F80050524F94
:100FF200472E204D454E55202D2020200020FAF46A
:10100200F8E9E820F8E0F9E9202D202000416363A7
:1010120065737320636F64657320200020F8F9E91B
:10102200EEFA20E4F7E5E3E9ED00436F6E666972DC
:101032006D20627920546F6E650020E0E9F9E5F8D1
:1010420020F9E9E7E420E1E8E5EF00536574526531
:1010520061642054696D6D6572730020E4F6E22FBD
:10106200F9F0E420E8E9E9EEF8E9ED00536574529D
:101072006561642044617954696D650020E4F6E29B
:101082002FF9F0E420E9E5ED2FF9F2E40052656D65
:101092006F74652054454C20546F6E650020E8E55E
:1010A200EF20F4FAE9E7E420EEF8E7E5F700236F32
:1010B200662072696E672F616E737765720020EE2B
:1010C200F120F6ECF6E5ECE9ED2DEEF2F0E4004568
:1010D2006E74657220427573792043616C6C2000D6
:1010E20020F0FAE5EF20F6ECF6E5EC20FAF4E5F173
:1010F2000054656C6570686F6E65204E6F2E3120EE
:101102000020EEF1F4F8E920E8ECF4E5EF203120DC
:101112000054656C6570686F6E65204E6F2E3220CC
:101122000020EEF1F4F8E920E8ECF4E5EF203220BB
:101132000054656C6570686F6E65204E6F2E3320AB
:101142000020EEF1F4F8E920E8ECF4E5EF2033209A
:101152000054656C6570686F6E65204E6F2E34208A
:101162000020EEF1F4F8E920E8ECF4E5EF20342079
:101172000054656C6570686F6E65204E6F2E352069
:101182000020EEF1F4F8E920E8ECF4E5EF20352058
:101192000054656C6570686F6E65204E6F2E362048
:1011A2000020EEF1F4F8E920E8ECF4E5EF20362037
:1011B20000537065656368204C6576656C2000207D
:1011C200F2E5F6EEFA20E3E9E1E5F82000274641F0
:1011D2005354272073772E2053746570200020F714
:1011E200F6E120F7E9E3E5ED20EEE4E9F8004D61F0
:1011F2007374657220636F6465002020F7E5E32055
:10120200E8EBF0E0E920005573657220636F6465D6
:10121200002020F7E5E320ECF7E5E720002020207E
:101222002054656E616E747320202020200020F906
:10123200EEE5FA20E4E3E9E9F8E9ED200043726F14
:10124200737320746F2041706172740020E4F6ECB5
:10125200E1E420ECF4E920E3E9F8E5FA0053572051
:10126200626F61726420457874656E640020EEF2EC
:10127200E2EC20E4F8E7E1FA20EEF4F1F700507234
:101282007879204C65726E204D6F6465310020EBD9
:10129200F8E8E9F1E920F7E9F8E1E42031005072D9
:1012A2007879202D20696E206F726465720020E4C7
:1012B200FAE2E9ED20E0E5F8E2F0E52121005072E2
:1012C2007879204C65726E204D6F6465320020EB98
:1012D200F8E8E9F1E920F7E9F8E1E42032005365A2
:1012E2007420466C6F6F722056616C756520002009
:1012F200F7E1F220F2F8EA20ECF7E5EEE420004311
:1013020068616E676520416C6C56616C7565002082
:10131200F9E9F0E5E920F2F8EBE9ED2021212100DD
:101322004D657373616765204F6E2F4F66662000AF
:1013320020E4F4F2EC2FEBE1E420E4E5E3F2E40054
:101342005965732F4E6F20416E737761726520006D
:1013520020FAF9E5E1E5FA20EBEF20E5ECE02000E8
:1013620052656C61797320636F6E74726F6C2000CA
:1013720020F9ECE9E8E420E1EEEEF1F8E9ED2000F5
:1013820053656C20547970652F4E756D72696300D8
:1013920020E1E7F820F1E5E22FEEF1F4F8E9004E62
:1013A200657720417070204E756D72696320002050
:1013B200EEF1F4E5F820E7E3F920ECE3E9F8E400E4
:1013C20053657276696365204D656E752000202035
:1013D200FAF4F8E9E820F9F8E5FA20202000546947
:1013E2006D696E6773202873656329200020E6EE1D
:1013F200F0E9ED2029F9F0E9E5FA2820004C434410
:101402002046616D696C79204E6F2E200020F9E92B
:10141200E5EA20EEF9F4E7FAE92044434C00436F91
:101422006D6D205370656564200020EEE4E9F8E5F7
:10143200FA20FAF7F9E5F8FA2020005479706520CD
:101442002F4164642076616C7565200020F1E5E22D
:10145200202F20F2F8EA20EEE5F1F3200053657424
:10146200204C636446616D696C7920230020F7E1AA
:10147200F220F9E9E5EA20EEF9F4E7FAE90053652A
:101482007420436F6D6D2053706565640020F7E131
:10149200F220EEE4E9F8E5FA20F7F9F82000436FCC
:1014A2006E6669726D20746F6E652069730020E844
:1014B200E5EF20E0E9F9E5F820E4E5E03A20007202
:1014C200656D6F746520636F64652069733A0020EF
:1014D200F7E5E320F4FAE9E7E420EEF8E7E5F700C0
:1014E20023206F662052696E6773546F416E7300DA
:1014F20020EEF120F6ECF6E5EC20ECEEF2F0E43A28
:10150200004275737920746F6E652054797065316D
:101512000020202020FAF4E5F120F1E5E22031203C
:1015220020004275737920746F6E6520547970655E
:10153200320020202020FAF4E5F120F1E5E2203209
:101542002020004275737920746F6E652056616C9D
:101552002E200020202020FAF4E5F120F2E5F6EE1C
:10156200E42020004275737920746F6E6520467204
:10157200657120002020202020FAF4E5F120FAE312
:10158200F82020200043616C6C206C6F772046723B
:10159200657120200020F6ECF6E5EC20FAE3F82055
:1015A200FAE7FAE5EF0043616C6C2068696768202E
:1015B20046726571200020F6ECF6E5EC20FAE3F8BD
:1015C20020F2ECE9E5EF00427265616B206F6E205C
:1015D20063616C6C20200020E4F4F1F7E420E1E97F
:1015E200EF20F6ECF6E5EC0043616C6C7320746F4F
:1015F200207061737320200020EEF12720F6ECF6B4
:10160200E5EC20ECEEF2E1F8004E6F206F6620620E
:10161200757373792074696C0020EEF12720F4F25F
:10162200EEE9ED20ECFAF4E5F1006170702E206E27
:10163200756D626572230020E3E9F8E420EEF1F4AF
:10164200F8202300456E74657220636F6465202361
:101652000020E4EBF0F120F7E5E32300312D456EA5
:101662007465722054656C230020312DE4EBF0F197
:1016720020E8EC27202300322D456E746572205439
:10168200656C230020322DE4EBF0F120E8EC2720FA
:101692002300332D456E7465722054656C2300203F
:1016A200332DE4EBF0F120E8EC27202300342D4524
:1016B2006E7465722054656C230020342DE4EBF0C7
:1016C200F120E8EC27202300352D456E7465722049
:1016D20054656C230020352DE4EBF0F120E8EC2773
:1016E200202300362D456E7465722054656C2300EC
:1016F20020362DE4EBF0F120E8EC27202300456EA4
:1017020074657220496E666F20230020E4EBF0F1CD
:1017120020F0FAE5F0E9ED23004C6561726E20508D
:1017220072787931230020ECEEE320F7E9F8E1E466
:10173200203123004C6561726E2050727879322319
:101742000020ECEEE320F7E9F8E1E4203223005434
:1017520068697320666C6F6F7220230020F7E5EED4
:10176200E420E6E5202D3C20230052656C617931AE
:10177200207570746F204170700020EEEEF1F82039
:101782003120F2E320E3E9F8E4200052656C61794C
:10179200322066726F6D204170700020EEEEF1F81B
:1017A200203220EEE3E9F8E42000536574207370E0
:1017B20065656368204C65766C0020F7E1F220F2E3
:1017C200E5F6EEFA20E3E9E1E5F800536574202737
:1017D2004641535427205374657020002020F7E1BE
:1017E200F220F7F6E120F7E9E3E5ED005365742016
:1017F2006D617374657220636F64650020E4EBF0C1
:10180200F120F7E5E320E2E9F9E42000456E746592
:101812007220626F617264205174790020E4EBF0EF
:10182200F120EBEEE5FA20EEF2E2EC2700446179DA
:1018320020262054696D65206172653A0020E4E932
:10184200E5ED20E5E4F9F2E420E4ED3A0054696DB7
:10185200657231284449414C29204461790020E8CD
:10186200E9EEF83120E7E9E5E22DE9EEE9ED005491
:10187200696D65724E302E3120537461727400208E
:10188200E8E9E9EEF8203120202D20E4FAE7EC0027
:1018920054696D65724E302E312053746F70002082
:1018A200E8E9E9EEF82031202D20F1E9E9ED200008
:1018B20054696D657232284449414C29204461794A
:1018C2000020E8E9EEF83220E7E9E5E22DE9EEE969
:1018D200ED0054696D65724E302E32205374617280
:1018E200740020E8E9E9EEF8203220202D20E4FA05
:1018F200E7EC0054696D65724E302E322053746FDE
:10190200700020E8E9E9EEF82032202D20F1E9E923
:10191200ED200054696D65723328524C59312920EB
:101922004461790020E8E9EEF83320524C59312D18
:10193200E9EEE9ED0054696D65724E302E332053A5
:10194200746172740020E8E9E9EEF8203320202D5A
:1019520020E4FAE7EC0054696D65724E302E3320B4
:1019620053746F700020E8E9E9EEF82033202D204F
:10197200F1E9E9ED200054696D65723428524C5941
:101982003229204461790020E8E9EEF83420524CF3
:1019920059322DE9EEE9ED0054696D65724E302E33
:1019A200342053746172740020E8E9E9EEF82034BF
:1019B20020202D20E4FAE7EC0054696D65724E3068
:1019C2002E342053746F700020E8E9E9EEF82034D9
:1019D200202D20F1E9E9ED20004572656173652053
:1019E200414C4C636F6465200020EEE7F720EBEC7E
:1019F20020E4F7E5E3E9ED202000457261736520FC
:101A0200616C6C2050727879310020EEE7F720EBA0
:101A1200EC20F7E9F8E1E4203120005072787954A3
:101A2200616773204572617365640020E4FAE2E93C
:101A3200ED20F0EEE7F7E5202121004572617365A4
:101A420020616C6C2050727879320020EEE7F7202A
:101A5200EBEC20F7E9F8E1E420322000444546208F
:101A62004E616D652F54454C204E4300204645443F
:101A7200F9E5EEF820E8EC20F9EEE5FA00526563AC
:101A8200206461746146726F6D2053440020EEF74A
:101A9200E1EC204154414420EEE42D4453005365CF
:101AA2006E64204461746120746F2044530020F9F5
:101AB200E5ECE7204154414420EC202D44530045FD
:101AC2006E747279206D6573736167653E232000C1
:101AD20020F4FAE9E720E1F2E6F8FA2023200053A5
:101AE20074616765206D657373616765200020E42A
:101AF200E5E3F2FA20F7E5EEE4202000436C6F7391
:101B02006520646F6F72204D65732E200020E4E51E
:101B1200E3F2FA20F1E2E5F820E3ECFA20004E616C
:101B22006D652020416E6E6F756E6365202000200A
:101B3200ECE4F7F8E9E020F9EEE5FA202000446F42
:101B42006F7220666F726765744D455320200020C6
:101B520020F9E9EBE7FA20E3ECFA202020005765B0
:101B62006C636F6D652062792044657420200020CB
:101B7200F4FAE9E720EEE2ECE0E9202020005269E5
:101B82006E67696E67204D65732E2020200020E469
:101B9200E5E3F2FA20F6ECF6E5EC202020004F70A7
:101BA200656E20646F6F72204D657320200020E403
:101BB200E5E3F2FA20F4FAE720E3ECFA20004170C0
:101BC200703D30204F66666963653D31200020E339
:101BD200E9F8E43D3020EEF9F8E33D3120004465B8
:101BE200742041637469766520422E4C200020E205
:101BF200ECE0E920ECFAE0E5F8E420E0E72E005022
:101C0200726F78792031202D3E526C79203120007C
:101C120020F7E9F8E1E4312D3C20EEEEF1F8312035
:101C22000050726F78792031202D3E526C7920322B
:101C3200200020F7E9F8E1E4312D3C20EEEEF1F846
:101C420032200050726F78792032202D3E526C790A
:101C52002031200020F7E9F8E1E4322D3C20EEEEBD
:101C6200F1F831200050726F78792032202D3E52E7
:101C72006C792032200020F7E9F8E1E4322D3C2093
:101C8200EEEEF1F832200050726F78792B50696EC7
:101C920020436F6465200020E4F4F2ECE420F7E9CD
:101CA200F8E1E42BF7E5E3004170704E616D6520C9
:101CB200627920412D4220200020F9EEE5FA20EC45
:101CC200F4E920E02DE12020200045787472726E44
:101CD200616C2050726F787920200020F7E9F8E1DA
:101CE200E420E7E9F6E5F0E9202000456C65766539
:101CF200746F7220426F61726420200020F4E9F751
:101D0200E5E320EEF2ECE9E5FA2020005265616C91
:101D1200542E432E20757365656420200020F9E956
:101D2200EEE5F920E1F9F2E5EF2020200053686F9B
:101D3200772074656C20646174612020200020E4A7
:101D4200F6E220F0FAE5F0E920E8EC272020004254
:101D520065657020696E20756E6C6F636B20200064
:101D620020E1E6F820E1F4FAE9E7FA20E3ECFA20D0
:101D7200006E6F206170702F6F6666696365202048
:101D8200200020ECECE020E3E9F8E42FEEF9F8E3A0
:101D92002000446972656374204469616C4D6F640C
:101DA2006520002020EEF6E120E7E9E5E220E9F9EE
:101DB200E9F82000202046756C6C206D656E752058
:101DC20020202000202020FAF4F8E9E820EEECE0C0
:101DD20020202020002053657420757365722063D3
:101DE2006F64650020E4EBF0F120F7E5E320ECF707
:101DF200E5E720005365744E616D65230020E4EB36
:101E0200F0F120F9ED230043726F7373546F204198
:101E12007070230020E4F6ECE1E420ECE3E9F8E45E
:101E2200230044656C61792054696D65202020008F
:101E32002020E6EEEF20E4EEFAF0E42000446F6F9B
:101E420072204F70656E696E67200020E6EEEF200B
:101E5200F4FAE9E7FA20E3ECFA200052656C6179C2
:101E62003220446C792074696D650020E62E20E4EE
:101E7200F9E4E9E420EEEEF1F820320052656C61FB
:101E82007932204F706E2074696D650020E62E2035
:101E9200F4FAE9E7E420EEEEF1F8203200496C6C46
:101EA200756D696E6174696F6E2020002020E6EE08
:101EB200EF20FAE0E5F8E4200052696E67696E6788
:101EC2002054696D652020200020E6EEEF20E4F624
:101ED200E2FA20E3E9E9F820004E657874204469CB
:101EE200616C2054696D6520002020E6EEEF20EC45
:101EF200E7E9E5E220E4E1E0200050696E2B2050A2
:101F0200726F78792074696D65200020E62EEEF6F6
:101F1200E120F7E5E32BF7E9F8E1E400446F6F72A3
:101F220020666F726765743E4D6573200020F9E983
:101F3200EBE7FA20E3ECFA2DE4E5E3F2E400446592
:101F4200743E77656C6C636F6D204D657320002065
:101F5200E62E20EEE2E9ECE5E920ECF4FAE9E7000E
:101F6200542E746F206E616D6520616E6E6F7520E8
:101F72000020E6EEEF20ECE4E5E3F2FA20F9EEE5EC
:101F8200FA00542E746F20666C6F6F72204D657369
:101F92002E200020E6EEEF20ECE4E5E3F2FA20F753
:101FA200E5EEE400542E746F20646973702E206C89
:101FB200697374200020E6EEEF20ECE4F6E2FA20EA
:101FC200F8F9E9EEE4005570546F446973702073B8
:101FD200656C656374002020F2E320ECE4F6E2FA1B
:101FE20020F0E1E7F800546F446973702053656C88
:101FF20065637465640020E6EEEF20E4F6E2FA2001
:10200200F0E1E7F8200074616C6B2074696D652063
:1020120078313053270020E6EEEF20E3E9E1E5F8DE
:1020220020783031F9270042737579202D6E6F7454
:1020320020757365640020E6EEEF20FAF4E5F12DD9
:1020420020F2FAE9E3E900436F6E6669726D2D4E84
:102052006F74207573650020E6EEEF20E0E9F9E584
:10206200F82DF2FAE9E3E90041545345323D3032AA
:102072005345333D30305345343D31325346343D80
:1020820034620D0041545346343D30620D004154D8
:102092005346343D34620D00415441300D004154E9
:1020A20044540041540D00415445300D0041540048
:1020B2005346353D30300D005346363D30300D002D
:1020C2005346373D30300D005336323D30300D002F
:1020D20041545345343D30325345323D30325346FC
:1020E200343D30330D0041544D320D0041545330D4
:1020F200373D3036410D00003535414136364242DA
:1021020043430046525F4449534B5F455252004697
:10211200525F494E545F4552520046525F4E4F54F1
:102122005F52454144590046525F4E4F5F46494C0B
:10213200450046525F4E4F5F504154480046525F41
:10214200494E56414C49445F4E414D450046525F0F
:1021520044454E4945440046525F45584953540050
:1021620046525F494E56414C49445F4F424A4543AD
:10217200540046525F57524954455F50524F54459E
:10218200435445440046525F494E56414C49445FD0
:1021920044524956450046525F4E4F545F454E41A8
:1021A200424C45440046525F4E4F5F46494C4553B0
:1021B200595354454D0046525F4D4B46535F414281
:1021C2004F525445440046525F54494D454F555471
:1021D200004552524F523A005344204F4B3A20008E
:1021E2005344204552524F523A20002C004C6F6704
:1021F2006963616C20647269766520303A206D6F84
:10220200756E746564204F4B0D0A0044415441348D
:102212004B0046494E4420545259003400545259FE
:1022220034003300545259330032005452593200B0
:102232003100545259310046494C452045584953C2
:1022420054530046494C45204E4F5420455849535B
:10225200540046494E44204241434B5550004649A2
:102262004E44205550444154450055504241434B41
:10227200555000444F4E450046696C652044415418
:1022820041344B206F70656E6564204F4B0D0A0020
:10229200526561642044415441344B204F4B0D0A36
:1022A2000057726974652044415441344B204F4BAE
:1022B2000D0A0046696C6520555044415445206F13
:1022C20070656E6564204F4B0D0A00577269746524
:1022D20020555044415445204F4B0D0A0054525949
:1022E20035004E414D4531004E414D45320054536B
:1022F200542055504441544520563135005265739F
:10230200756C743A0020202020004641494C002080
:1023120052454E414D45005465737420646F6E659D
:102322002E0080C001002D4E414E00494E46000055
:1023320002000200400109000005BD010900090573
:10234200C60101001205460109001305BD01010085
:102352001C05460109001D05C60111002605A20241
:1023620011003705A20211004805A2021100590509
:10237200A20211006A05A20207007B05D321010017
:10238200820504211E008305EF210100A10504211D
:102392000100A20504210700A3050D221E00AA05C3
:1023A200EF210100C80504210100C905042105002F
:1023B200CA051F220100CF0504210500D0052622EF
:1023C2000100D50504210500D6052D220100DB05FB
:1023D20004210500DC0534220100E1050421070087
:1023E200E20559220100E90504210700EA056522F8
:1023F2000700F10559220900F8056C2207000106C1
:10240200652207000806592209000F066C22070000
:102412001806652204001F061922050023067522EC
:102422001E002806EF210100460604211E00470671
:10243200EF21010065060421070066060D2218003F
:102442006D067A2201008506042111008606922279
:102452000100970604211E009806EF210100B6062E
:1024620004210700B7060D221800BE067A220100D9
:10247200D60604211200D706A3220100E906042190
:102482001E00EA06EF2101000807042107000907E0
:10249200652218001007B522010028070421120046
:1024A2002907CD2201003B0704211E003C07EF2132
:1024B20001005A07042101005B0704211E005C078A
:1024C200EF2101007A07042101007B0704210500A6
:1024D2007C07752205008107DF2206008607E422B9
:1024E20006008C07EA220200D20F24230100D90F32
:1024F20026230000F894EE27ECBBF1E0F5BFE5BF20
:10250200E0936C00F8E1F1BDE1BD8DE0A2E0BB27F4
:10251200ED938A95E9F780E090E1A0E0B1E0ED93D8
:102522000197E9F7E2E3F3E285919591009761F073
:10253200A591B59105901590BF01F00105900D92FE
:102542000197E1F7FB01F0CF8BBFEFEFEDBFE0E1C9
:10255200EEBFC0E0D5E00C94AE12A097E0E0E093AD
:10256200AC07EFE1E1BDEFE0E1BDE8E4EBBBE9E59B
:10257200EABBE8E0E8BBE7E0E7BBE0E0E5BBEFEFA2
:10258200E4BBE0E8E2BBE1E6E1BBE6E0E3B9EEEFA3
:10259200E2B9E0E1E0936200E0E9E0936100ECE19E
:1025A200E0936500E7E0E0936400E6E0E3BFE0E08B
:1025B200E0BFEBE4E2BFE0E0E1BFEFBDEEBDEDBDA9
:1025C200ECBDE1E0EBBDEFE3EABDE0E0E9BDE8BD73
:1025D200E0937900E0937800E4BDECE9E3BDECE040
:1025E200E5BDE3E4E0938B00E0E0E0938A00E09352
:1025F2008900E0938800E0938700E0938600E093EF
:102602008500E0938400E0938300E0938200E093EE
:102612006A00EABFE9BFE7B7E469E7BFE0E0E09339
:102622007D00E2E0EBB9E8E5EAB9EEE0E09395007F
:10263200E0E0E0939000E1E8E9B90E94F18CE6E085
:10264200E0939D00E2E0E0939800E5EBE0939900CF
:10265200E0E0E0939B00E0939A00E0939D00E0931A
:102662009900E0939800E0E8E8B9E0E0E0BD7894F2
:10267200A0E10E94948C0E94448CA2E4B1E00E94EA
:10268200818CA7E4B1E00E94818CA5E4B1E00E94B4
:10269200818CAEE4B1E00E94F88C0E94D77D1E2F9F
:1026A200E03009F0FBC00E94448CA2E5B1E00E9438
:1026B200F88CE0E0F0E160E070E00E949AA2A0E213
:1026C2000E94927F1E2FE03009F0E7C00E94448CE6
:1026D200ACE5B1E00E94F88C0E94FE8CA7E4B1E068
:1026E2000E94028DA5E6B1E00E94058DAEE4B1E044
:1026F2000E94058DAAE6B1E00E94058D0E94088D18
:102702000E94158DADE6B1E00E94028DEFE0F0E08F
:1027120060E070E00E94188DADE7B1E00E94028D8A
:10272200EEE1F0E060E070E00E94188DEEE1F0E092
:1027320060E070E00E94218D0E94D87E1E2FE03062
:10274200C9F4A881A73719F4AC85AB3609F005C0E6
:102752000E94FE8CADE8B1E004C00E94FE8CADE99F
:10276200B1E00E94E18B0E94FE8C0E942A8D0E94A1
:10277200117F0AC00E94FE8CADEAB1E00E94028D78
:102782000E942A8D0E94117FE0E0F5E0FA93EA931D
:10279200A9E0B5E00E94737FE03059F00E94448CBA
:1027A200AFECB1E00E94F88C0E94FE8CADEDB1E07E
:1027B2000AC00E94448CADEEB1E00E94F88C0E94E7
:1027C200FE8CA7EFB1E00E94E18B0E94FE8CECE34D
:1027D200F0E060E070E00E94218D0E94117FE2E152
:1027E200F5E0FA93EA93E3E1F5E00E942F8D49F4D4
:1027F200ECE1F5E0FA93EA93EDE1F5E00E942F8D2A
:1028020009F405C00E94448CA7E0B2E004C00E9413
:10281200448CA7E1B2E00E94818C0E94368D0E9416
:10282200F47D1E2F103029F40E94FE8CA7E2B2E044
:1028320004C00E94FE8CA7E3B2E00E94E18B0E94DA
:10284200FE8CEBE4F0E060E070E00E94218D0E94DB
:10285200117F103011F50E94FE8CA7E4B2E00E94B5
:10286200028D0E94088D0E94417F1E2FE03029F0C8
:102872000E94FE8CA7E5B2E004C00E94FE8CA8E68E
:10288200B2E00E94E18B0E94FE8CEAE5F0E060E09B
:1028920070E00E94218D0E94117F06C00E94448C2C
:1028A200A9E7B2E00E94F88C0E94BF660E942475DC
:1028B2000E943A8DE0E1E09399070E949162689448
:1028C20022F8E89421F820F8E3EBE093C30B0E948E
:1028D200035AE1E0F0E0E093B80CF093B90CE3EBBB
:1028E200E093C30BE7B7EE7FE7BF0E942A22E1E045
:1028F200E093F10BEFEFE093CF0BE8E3F0E0E0932E
:10290200B60CF093B70C689422F8919AE0E0E09349
:102912002E0CC19AE4E0E0936F0CE1E0F0E0E0936A
:10292200DA0CF093DB0C0E940464E0E0E093AC0765
:10293200879907C000000000879903C0E1E0E09397
:10294200AC07A89AE4B7E77041F00E94418DE5E038
:10295200E093940D0E94115A02C0E3E3BE2EE0E020
:10296200E4BFE093100DE093110DE0934C0DE09362
:102972004D0DE093430C0E94478DE0E0E093930DF0
:102982000E9455422197A895E091920DE03001F105
:10299200E150E093920DA091920DA530C9F40E94EE
:1029A2004D8D0E94558DE0919A07EF70E093540C83
:1029B2000E945A8DE6E00E94648DE091540CA3E0DF
:1029C200EA9FF001E15F0E946C8DE0918E0AECB902
:1029D200E091730DE03019F0E150E093730DE09156
:1029E2009207E03019F0E150E0939207E091DF0B9B
:1029F200E03011F41A9A01C01A98A091DF0BA130AD
:102A020061F40E94788DAC3DE5E0BE0718F40E94A7
:102A12007D8D02C00E94858D08C00E94788DA03DE8
:102A2200E7E0BE0710F40E947D8DE091770DE03063
:102A320019F0E150E093770DE091B40BF091B50BF2
:102A42003097B9F0A4EBBBE00E948B8DE091B40B00
:102A5200F091B50B309721F4E091770CE03009F456
:102A620008C00E94918DA091AF07E2E0EA27E093AF
:102A7200AF07ACE1BDE00E94988DE091540DF0915A
:102A8200550D309711F00000F8CFA0911C0DB091B8
:102A92001D0D1C9708F4A5C0E0E0E0931C0DE09327
:102AA2001D0D0E949E8D3A970E94A38DEA17FB0787
:102AB20040F40E949E8D3A960E94A38DAE17BF07E6
:102AC20008F00CC0A091240DB091250DAF3FE0E0BD
:102AD200BE0720F4A4E2BDE00E94988DE0912C0D87
:102AE200F0912D0D0E94A38DEA17FB07A0F4E0914F
:102AF2002E0DF0912F0D0E94A38DAE17BF0758F433
:102B0200E0912C0DF0912D0DA0912E0DB0912F0D75
:102B1200EA17FB0708F039C0A0911E0DB0911F0DF6
:102B2200AF3FE0E0BE0720F4AEE1BDE00E94988D29
:102B3200E091300DF091310D0E94A88DEA17FB074C
:102B420030F40E94A88DAA3FE0E0BE0708F006C05C
:102B5200E091200DF091210D309709F40CC0A09165
:102B6200220DB091230DAF3FE0E0BE0720F4A2E2B8
:102B7200BDE00E94988D0E94AD8DE093260DE093FA
:102B8200270DE0E00E94B38D2AC0A091240DB091E0
:102B9200250D149710F00E94B88DE0E0E093240D0B
:102BA200E093250DA0911E0DB0911F0D149730F0EA
:102BB200E1E0F0E0E093200DF093210D0E94BF8D43
:102BC2000E94A38D159730F40E94A88DAF3FE0E0DC
:102BD200BE0708F004C0A2E0BDE00E94988D0E94EA
:102BE200C58D0E94CB8D309721F4E091700DE030BD
:102BF20011F0DB9801C0DB9AA091B309AA3010F45E
:102C02000E94F8790E9430780E949E8D309711F4CC
:102C12000E94B88DE0914A0DF0914B0DA091900C5D
:102C2200B091910CEA17FB0738F0A091840CB09197
:102C3200850CEA17FB0720F4E091BB09E030A1F014
:102C4200E091D80CF091D90C309771F4E091320DEB
:102C5200F091330DA091220DB091230DAE17BF0755
:102C620010F0309709F4E6C00E94D08DE091D40CA8
:102C7200F091D50C309769F00E94D68D50F40E94E5
:102C8200DC8D31F4E091D80CF091D90C309709F039
:102C920001C0B6C0A6EDBCE00E94988DE0E0E093D2
:102CA200D80CE093D90C0E94E28D0E94E88D0E941C
:102CB200D68D09F040C0E0910E0DE17019F0ECE5FF
:102CC200F7ED02C0EAE6FBEAE0939607F093970776
:102CD200EFE0E09399070E94EE8DA33220F0A091DD
:102CE2009A07A73608F014C00E94F58D309711F0AC
:102CF2000E94FA8D0E94008E11F00E94068E0E94A0
:102D0200F58D309711F00E94148E0E941A8E13C016
:102D12000E94F58D309711F00E94FA8D0E94008E6C
:102D220011F00E94248E0E94F58D309711F00E94BE
:102D3200148E0E942A8EA091D60CB091D70C1197B6
:102D420009F05EC0E0910E0DE17019F0E6EBF8ECCF
:102D520002C0E4ECFCE9E0939607F0939707EFE0FA
:102D6200E09399070E94EE8DA03209F045C0A6EDCE
:102D7200BCE00E94988DE0910E0DE17019F0ECE537
:102D8200F7ED02C0EAE6FBEAE0939607F0939707B5
:102D9200EFE0E09399070E94EE8DA33220F0A0911C
:102DA2009A07A73608F014C00E94F58D309711F0EB
:102DB2000E94FA8D0E94008E11F00E94068E0E94DF
:102DC200F58D309711F00E94148E0E941A8E13C056
:102DD2000E94F58D309711F00E94FA8D0E94008EAC
:102DE20011F00E94248E0E94F58D309711F00E94FE
:102DF200148E0E942A8E04C0E2E0F0E00E94318E1E
:102E0200E1E0E093020C0E94368E0E943F8E0E9407
:102E1200558E0E945B8E0E94618EE0E0E0933C0D35
:102E2200E0933D0DE0933E0DE0933F0DE093400DA6
:102E3200E093410DE091C60CF091C70C309711F070
:102E4200C99B01C008C00E94678EE0E0E093C60CF7
:102E5200E093C70C04C0C99902C00E94678EC99B47
:102E62000AC0E091C80CF091C90C309721F0E091B2
:102E7200B809E03009F4F4C1A6ECBCE00E94988DD8
:102E8200E0916200EF77E0936200A091C60CB091EE
:102E9200C70C1B9708F4E4C1DE98E0E0E093C80C8D
:102EA200E093C90CA091C40CB091C50C129730F0FC
:102EB200E093C40CE093C50C0E946D8E0E94798E43
:102EC200E0B1EF70F0E0ED93FC93E091090CF0912A
:102ED2000A0C309779F0A091AC0CB091AD0C0E9425
:102EE200F58DEA1BFB0BA091090CB0910A0CAE17F1
:102EF200BF0708F01DC0A091D20CB091D30C9D97D2
:102F020059F00E94798E0E947EA2A091D20CB091BB
:102F1200D30CEA17FB0761F4E0E0E093090CE093BD
:102F22000A0C0E94E88D0E94848EA3E00E945A63DC
:102F3200A0917E0DB0917F0D9D9741F40E94798EF4
:102F42000E947EA2E093860DF093870DE091800DA2
:102F5200F091810DED32A0E0FA0741F40E94798EE2
:102F62000E947EA2E093840DF093850D0E94798EDB
:102F72000E947EA2ED30A0E0FA0729F4AAECBCE0A0
:102F82000E94988D02C00E94618E0E94798E0E94DA
:102F92007EA2EE30A0E0FA0729F4ACE3BDE00E9485
:102FA200988D05C0E0E0E0933C0DE0933D0D0E945A
:102FB200798E0E947EA2EF30A0E0FA0729F4AEE3F8
:102FC200BDE00E94988D05C0E0E0E0933E0DE093E5
:102FD2003F0D0E94798E0E947EA2309729F4A0E4D0
:102FE200BDE00E94988D05C0E0E0E093400DE093C3
:102FF200410DA091CA0CB091CB0C129790F4A09104
:103002003C0DB0913D0D129760F4A0913E0DB09130
:103012003F0D129730F4A091400DB091410D1297DF
:10302200C0F1A091CA0CB091CB0C129718F0E1E05C
:10303200F0E01AC0A0913C0DB0913D0D129718F02E
:10304200E2E0F0E011C0A0913E0DB0913F0D129769
:1030520018F0E3E0F0E008C0A091400DB091410DFE
:10306200129730F0E4E0F0E0E093B00CF093B10C92
:103072000E948A8E19F0A2E00E945A630E94908EEA
:103082000E94618EE2E0E093260C0E94978E0E94DD
:103092009E8EE0E0E093CC0CE093CD0CE091840DA9
:1030A200F091850DA0917E0DB0917F0DEA17FB077F
:1030B20031F4E1E0F0E0E093CC0CF093CD0CA09180
:1030C200800DB091810DE091840DF091850DEA178C
:1030D200FB0731F4E2E0F0E0E093CC0CF093CD0C8E
:1030E2000E94A18E1A9731F00E94A68EEA30A0E0CB
:1030F200FA0771F40E94E88D0E94E28DE1E0E0930C
:10310200020C0E94978E0E94AB8EA2E00E945A632C
:10311200E091CC0CF091CD0C309709F480C0A091D5
:10312200CC0CB091CD0C119771F5DD20D1F40E9439
:10313200B18E0E94558DA0919A07A03349F40E9446
:10314200B18E0E94B98E0E94C08E0E94C66608C0CF
:103152000E94B18E0E94B98E0E94CA8E0E94D066D1
:103162000DC00E94D48EE091700CE07819F0E2E973
:10317200E0938C0D0E94AB8E0E94D98E0E94E28D4C
:103182000E94E88D39C0E091590CE030D1F40E94E0
:10319200E08E0E94558DA0919A07A03349F40E94B7
:1031A200E08E0E94B98E0E94C08E0E94C06608C046
:1031B2000E94E08E0E94B98E0E94CA8E0E94CA6648
:1031C20017C00E94C066E091590CE0935F0CE09139
:1031D200700CE07819F0E2E9E0938C0D0E94AB8E5E
:1031E200E0E0E093150CE0935D0CE1E0E093600C0D
:1031F2000E94E88D0E94E28DE1E0E093AE07E1E0FB
:10320200F0E0E093CE0CF093CF0CED2DE95FF0E00F
:103212000E94E88EE1E0E093020C0E949E8E0E94E2
:10322200A18E1B9771F00E94A18E1C9751F00E94F3
:10323200A68E3B9731F00E94A68EEC30A0E0FA07F2
:1032420021F40E94978E0E949E8EA4ECBCE00E9404
:10325200988DDE9AE2E3F0E0E093D00CF093D10C8B
:10326200C99906C0E1E0F0E0E093C80CF093C90C04
:103272000E94ED8E31F4E091D00CF091D10C309798
:1032820029F0E0E0E093C80CE093C90C049B0AC06B
:10329200A091680CA23328F4E091680CEF5FE093F0
:1032A200680C07C0E091680CE03019F0E150E0933F
:1032B200680CA091680CA23318F0E1E0E093690C6D
:1032C200E091680CE03011F40E94F38EE091690CF9
:1032D200E03089F0E091DF0BE03021F4E091700CF6
:1032E200E07109F408C0E0916A0CE03021F4E09149
:1032F200630CE0936A0C059B0AC0A091650CA23393
:1033020028F4E091650CEF5FE093650C07C0E09153
:10331200650CE03019F0E150E093650CA091650C6A
:10332200A23328F0E091660CE160E093660CE09134
:10333200650CE03029F4E0E0E093660CE093670C62
:10334200A091660CA13091F4E091660CE260E093EA
:10335200660CE091DF0BE03021F4E091700CE0723A
:1033620009F404C0E091300CE093670CE091620C28
:10337200E27021F0E091660CE03009F405C0CC2047
:1033820019F0C092A90BA89AE091B809E03019F09F
:103392000E946D7B0FC0E0914C0DF0914D0D309766
:1033A20021F4E0916500E26003C0E0916500ED7FE9
:1033B200E09365000E945365E091440CE03009F40B
:1033C200BEC1E0E0E093440CCF9904C0A091700D1F
:1033D200A33208F007C00000CF9904C0E0E0E093F8
:1033E200700DDC98E091700DE03031F0E150E09327
:1033F200700DE03009F4DC98E091940DE03051F06A
:10340200E150E093940DE03029F4E0916200E06134
:10341200E0936200E091DF0BE03011F00E94478DF3
:10342200A0916C0DAA3F28F4E0916C0DEF5FE09340
:103432006C0DE0916300E87021F4E0916300E071AB
:1034420009F423C0A0916C0DAE31F0F00E94F98E08
:10345200A53010F0A0E001C0A7E00E945A63A0913D
:103462006D0DA63028F0EFE1E1BDE0E0E1BDFFCF58
:10347200A091930DA33040F0E0E0E093930D0E9401
:10348200418DE4E0E093940D19C0A0916C0DA03F32
:10349200A8F00E94F98EA03F28F0EFE1E1BDE0E044
:1034A200E1BDFFCFA091930DA23040F0E0E0E093A8
:1034B200930D0E94418DE4E0E093940DE091B507F5
:1034C200E03009F459C0A091B507A33018F0E150DB
:1034D200E093B507A091B507A83209F04DC0E0E02E
:1034E200E0937C0DE0937D0DA091B607A13019F415
:1034F200EBE4FCE202C0EBE2FBE5E0939607F0931B
:1035020097070E94108FE0E0E093620DA091620D98
:10351200A63020F50E94178FA091B607AB3FD8F4D2
:10352200DB98E1E0E093710DE0E0E8830E94C46380
:10353200A091A107A03320F0A091A107A73408F021
:1035420004C0ACE7BDE00E94988DE091B607EF5F42
:10355200E093B607E1CF0E941E8FD8CFE0E0E09360
:10356200620DEFE0E093760DE0E0E093720DE09300
:10357200750DE5E0E093B507E0918F0DE03061F065
:10358200E150E0938F0DE03039F4E091910DE0309D
:1035920019F4EFE8E0938C0DA091900DA53118F08D
:1035A200E4E1E093900DE091900DE03019F0E150EC
:1035B200E093900DE0916B0CE03009F47DC0E15096
:1035C200E0936B0CE03009F077C00E94248FE3E0B7
:1035D200E0939907E1E0E883A881AD3308F060C089
:1035E2000E942B8FA03320F0A0919A07AA3308F0F3
:1035F20013C0A0919B07A03320F0A0919B07AA3390
:1036020008F00AC0A0919C07A03320F0A0919C076B
:10361200AA3308F001C001C006C00E94308FEA0F31
:10362200E0938C0D26C0A0919A07A03310F0AA3324
:1036320008F00AC0A0919B07A03320F0A0919B073D
:10364200AA3308F001C001C005C00E94428FE09376
:103652008C0D0FC0A0919A07A03310F0AA3308F086
:1036620006C0E0919A07EF70E0938C0D02C0E1E48E
:10367200E883E0912F0CA0918C0DAE1768F0E881E1
:10368200E359E0938C0DA0918C0DAE3619F4E6EA65
:10369200E0938C0DE1E4E883E881EF5FE8839CCF5F
:1036A200A0918C0DAF3618F4E0E0E0938C0DE0E0D1
:1036B200E093160DE093170DE0918C0DE03021F0B0
:1036C200E091540CE03009F416C0DC9A0E945A8D45
:1036D200E3E00E94648DE0918C0D0E946C8DE0E02D
:1036E200E093450CE0918E0AECB9E0E0E0938C0D9A
:1036F200E4E1E093700DE091BB09E03019F0E15094
:10370200E093BB09E0914C0CE03031F0E150E093E2
:103712004C0CE0E0E0936C0DA091B007A23010F0E9
:10372200A43108F005C0E091B007E150E093B00782
:10373200A091B007AA3019F4E0E0E093B007E0915D
:103742004C0CE03051F00E944E8FA53FE0E0BE07E6
:1037520019F00E94538F09F401C0BBC0E091770DAC
:10376200E03041F4A091400CA03320F0A091400C35
:10377200A73408F0AEC0E091730DE03009F0A9C0A3
:103782000E94588F0E94C463A091A107A03320F029
:10379200A091A107A73408F00CC0E5E0E093750DF5
:1037A200E0E0E093720D0E945F8FE3E0E093730D1F
:1037B20055C0E1E0E093730DE0E0E093620DA0916B
:1037C200620DA63008F04AC00E94178FA091B6077A
:1037D200AB3F08F040C0E1E0E093710DE0E0E88328
:1037E200DB980E94C463A881A83020F4E091710D97
:1037F200E03009F404C0E0914C0CE03009F40FC051
:10380200E8810E94658FE8810E946A8FEA1719F0A9
:10381200E0E0E093710DE881EF5FE883E4CFE091AF
:10382200710DE03091F0E091620DEF5FE0936A0D6F
:10383200E091B607E0936B0DEBEFE093B607EAE099
:10384200E093620DE2E0E093730DE091B607EF5F63
:10385200E093B607BBCF0E941E8FB1CFA091730D2C
:10386200A13009F50E946F8F0E944D2DA5E00E94A4
:103872005A63EEE1E093770DE4E0E093B0070E9433
:10388200588F0E94798FA091AD07AE1720F4E09176
:10389200AD07EF5F01C0E1E0E093AD070E94588FF2
:1038A2000E94C46310C0A091730DA23079F4E5E0C8
:1038B200E093720DE0E0E093750D0E945F8F0E942D
:1038C2007E8F0E94838FE0E0E093620DEAEFE09347
:1038D200730DA091020CA13009F0D6C0E2E0F0E035
:1038E200E093580DF093590DA0917D0CA43009F08E
:1038F20062C0A091730CA43029F00E94878FE093DC
:103902006F0D59C00E94918F0E949F8F0E94A88FB5
:10391200E1E0E883A881A031B0F50E94AE8F19F4EE
:103922000E94BE8F10C0A0919C07A03221F40E9479
:10393200428FF0E008C00E94BE8F0E94C38F0E9497
:10394200C88F0E94CD8FE093210CF093220C0E942D
:10395200C88FA436E0E0BE0720F0E3E6F0E00E9464
:10396200C38F0E94E28F29F4E881E0936F0DE0E1BA
:10397200E883A881AF3019F4E0E0E0936F0DE881AD
:10398200EF5FE883C7CF0E94E98F0E94EE8F0E940B
:10399200F38FE093B909E0916F0DE03021F0A0912F
:1039A2006F0DA03118F00E94878F01C0E3E6E0930B
:1039B2006F0D0E94A88F0E94FF8F0E940790309780
:1039C20029F4A0917D0CA43009F05CC00E940D90F6
:1039D200A0917D0CA43021F4A0916F0DA33609F0C3
:1039E2001DC0E091F40BEF70F0E0A8EEB3E00E948E
:1039F200EDA1BF01E091F50BEF70A4E6EA9FF001A3
:103A0200F0E0E60FF71F0E9416900E94F38F0E94CB
:103A12001B90F0E0EA0FFB1F0E941690A0917D0C14
:103A2200A33041F5E1E0E883A881AB3F18F50E949D
:103A3200AE8F19F40E94BE8F0CC0A0919C07A032D9
:103A420021F40E94428FF0E004C00E94BE8F0E94C7
:103A52002090E093210CF093220C0E94239031F4E9
:103A6200E881F0E00E94C38FEBEFE883E881EF5F2B
:103A7200E883DACFE0917B0CE093760CE0E0E09310
:103A8200770C02C00E942890E0916300E07129F453
:103A9200E3E3BE1608F4B39401C0BB24E2E3EB15E2
:103AA20079F40E942E90EAE00E94B98EA0E9B2E079
:103AB2000E94E18B1A980E943190A5E00E945A63FD
:103AC200CA9906C0E0915A0DF0915B0D309709F04A
:103AD2000AC0A091A80BA23328F4E091A80BEF5FD3
:103AE200E093A80B13C0E091A80BE03019F0E1506D
:103AF200E093A80BE0E0E0935A0DE0935B0DE091B8
:103B0200A80BE03019F4E0E0E0932B0CA091A80B95
:103B1200A23330F0E0912B0CE03011F4DD2009F0FB
:103B22001FC00E94B18E0E94558DA0919A07A033AA
:103B320061F40E94B18E0E94B98E0E943690A2E07A
:103B42000E945A630E94C66608C00E94B18E0E94FB
:103B5200B98E0E94CA8E0E94D066E1E0E0932B0CDF
:103B6200A091A80BA23330F0E091AD0BE03011F43C
:103B7200DD2009F41CC0E091700CE07819F0E2E954
:103B8200E0938C0D0E943D900E94D48EE0E0E09381
:103B92006C0DE093150CED2DEF5FF0E0E0935A0D04
:103BA200F0935B0DE1E0E093AD0BE093D30BE0917A
:103BB200AA0BE03021F4E091AB0BE03009F42FC006
:103BC200E0E0E093AB0BE0936C0DDD20D1F40E94BA
:103BD200B18E0E94558DA0919A07A03349F40E949C
:103BE200B18E0E94B98E0E94C08E0E94C66608C025
:103BF2000E94B18E0E94B98E0E94CA8E0E94D06627
:103C02000BC0E091700CE07819F0E2E9E0938C0DC2
:103C12000E94D48E0E94D98EE1E0E093D30BE09112
:103C22005E0CE03021F4E0915D0CE03009F437C025
:103C3200E0E0E0935D0CE0936C0DE091590CE03014
:103C4200D1F40E94E08E0E94558DA0919A07A03374
:103C520049F40E94E08E0E94B98E0E94C08E0E949A
:103C6200C06608C00E94E08E0E94B98E0E94CA8E71
:103C72000E94CA6611C0E091700CE07819F0E2E986
:103C8200E0938C0DE091590CE0935F0C0E944790F9
:103C9200E093600C0E94C066E1E0E093D30BE091F8
:103CA200AC0BE03021F4E091AD0BE03009F409C037
:103CB2000E94D066E0E0E093AD0BE6E0E093780C82
:103CC200C8D3E0915F0CE03021F4E091600CE03069
:103CD20009F409C00E94CA66E0E0E093600CE6E0E5
:103CE200E093780CB6D3882009F08824772009F075
:103CF200B3C0E4E17E2E0E940876E093CC0B0E94D2
:103D02004C9019F0E0E0E093CC0BE091CC0BE0306A
:103D120079F0E0E0E0936C0DCC2019F0C092A90B91
:103D2200A89A0E94529019F0E4EBE093260C94C0FA
:103D3200E091340DF091350D309721F0E0917F0C38
:103D4200E03009F484C0E091360DF091370D3097E0
:103D520031F4E091340DF091350D309709F464C0DF
:103D62000E945B901A9760F4E091340DE093F80B97
:103D7200E091340DE093F40BE1E0E093750C3DC06B
:103D82000E945B90A436E0E0BE0780F40E945B9044
:103D92000E946090E093F80B0E945B900E946590F5
:103DA2000E946A90E2E0E093750C27C00E945B904B
:103DB200A83CE0E0BE0718F50E945B900E94759057
:103DC200E093F80B0E945B900E947A90E093F90BCB
:103DD200A091F90BEAE00E9466A2E093FA0BA0918F
:103DE200F90BEAE00E9420A20E946A90E091FA0B8D
:103DF200E093F60BE3E0E093750CE093730C0E9402
:103E02005B90A83CE0E0BE0770F4E6E1E093CC0BE7
:103E1200CC2019F0C092A90BA89A0E94529019F0D6
:103E2200E4EBE093260C04C0A8E3BDE00E94988D69
:103E3200A091380DB091390DA837E0E0BE0730F0FF
:103E42000E947F90E093380DE093390D05C0E0E0C9
:103E5200E093380DE093390D35FE12C0E091C70BA7
:103E6200EF5FE093C70BA091C70BA43618F0E0E018
:103E7200E093C70BE091560CE03011F40E941A3126
:103E8200E091BE0CF091BF0C309789F0AEEBBCE034
:103E92000E948B8DE091BE0CF091BF0C309739F4EB
:103EA2000E948490E0939C00A1E00E945A63E091FA
:103EB200420DF091430D3097B1F1E1E0F0E0E09373
:103EC200440DF093450DA091420DB091430DA237E0
:103ED200E0E0BE07B1F4E0E0E883A881A03350F44B
:103EE200B0E0AB54B74FE881E05DEC93E881EF5F5F
:103EF200E883F3CFEDE0E093E508E0E0E093E60845
:103F02000AC0E091420DE093B508EDE0E093B608F7
:103F1200E0E0E093B708E0E00E948B90E0E0E093FD
:103F2200420DE093430DE091C00CF091C10C30972B
:103F320009F445C0E0E0E093C00CE093C10C0E949C
:103F42004C9071F1AEEABCE00E948B8D0E944C90C5
:103F520031F0E091560DF091570D309709F1E0E004
:103F6200E093560DE093570DE093B00CE093B10C43
:103F7200E093BA0CE093BB0C0E9492900E94368EA2
:103F82000E9499900E9455420E94D561E1E0F0E0C2
:103F9200E093540DF093550D0E94EC790E949E908F
:103FA200A091AE0CB091AF0C109719F40E94A4909E
:103FB20009F405C0E0E0E093BA0CE093BB0CA091D9
:103FC200B60CB091B70CDD9740F0E0E0E093B60C90
:103FD200E093B70CEFEFE093CF0BE091DE0BE03014
:103FE20031F0E0E0E093DE0BE1E0E093D30BE0910F
:103FF200260CE03021F4A091DF0BA13008F401C0BF
:1040020028D2E091900DE03021F0E0E0E093B30996
:104012000DC037FE04C0A091B309AA3009F006C052
:10402200E89437F8A0918A0D0E94597BE091A00C88
:10403200F091A10C309711F00E942678A091250CE6
:10404200A13220F0A091DF0BA23008F407C0E0E01B
:10405200E093250C43D0E1E0E093D30B27FEFECFA3
:10406200E89427F821960C94C314FFCFE091E00B5B
:10407200E03051F4E091680DE03011F4EAD103C070
:10408200E5E6E093680D29C0E1E0E093DF0BE09103
:10409200E00BE150E093E00BF0E0EC51F44FE081F3
:1040A200E093E10B0E944E8FE3E2F0E00E942EA229
:1040B2000E94AA90E091E10BA091CA0BB091CB0BA8
:1040C200F0E0AE1BBF0BA093C80BB093C90BE0E0AE
:1040D200E093AD07E1E0E093D30B0895E091EC0BA0
:1040E200E03091F00E94AF90E081E093ED0BA0915F
:1040F200ED0BAE3221F40E94AF90A0E203C00E9409
:10410200AF90AEE2A08305C00E94AF90A091ED0BEC
:10411200A083A091EC0BE1E0EA27E093EC0BE091A5
:104122004C0CE03039F00E94B69019F00E94538F87
:1041320009F401C009C0E091DF0BE03029F00E94D0
:10414200AF90A091740DA0830895E0E0E093250C58
:104152000E94BB9039F40E94C090EAEF0E94C39083
:104162000E94C9900E94D49021F40E94D9900E948A
:10417200DC900E94E39021F40E94E8900E94DC907F
:104182000E94EB9021F40E94F0900E94DC900E9429
:10419200F39021F40E94F8900E94DC900E94FB9020
:1041A20021F40E9400910E94DC900E94039121F46C
:1041B2000E9408910E94DC900E944E8FA637E2E096
:1041C200BE0731F40E940B910E940E910E94C99089
:1041D2000E94159141F40E941A91E1E0E093EF0BE5
:1041E200E4E00E941D910E94209151F4E3EEFAE86E
:1041F2000E94EE8FECE0E093EF0BE6E00E941D914F
:104202000E94259141F40E942A91E2E0E093EF0B93
:10421200E3E00E941D910E942D9141F40E94248F9F
:10422200ECE3E093EF0BE3E00E941D910E94B69055
:1042320049F40E9432910E94108F0E94C990E0E0DE
:10424200E0936E0D0E94538F49F40E9435910E94B3
:10425200108F0E94C990E0E0E0936E0D0E943891A9
:1042620039F4EDEDFAE80E94EE8FE6E00E943D910E
:104272000E944D9129F40E945291E8E00E943D91E2
:104282000E94559129F40E945A91E0E10E943D91C9
:104292000E945D9121F40E9462910E943D910E94D0
:1042A200679131F40E946C910E946F910E94769105
:1042B2000E94819121F40E9486910E943D910E9468
:1042C2008B9161F4E9E1F6EE0E94EE8FE1E0E0937A
:1042D200EF0BE5E0E09399070E9476910E9490919E
:1042E20051F40E949591ECE0E093EF0BE7E0E0934C
:1042F20099070E9476910E94989121F40E949D91C3
:104302000E943D910E944E8FA73CE1E0BE0721F43E
:104312000E944D8D0E943D910E944E8FA43AE1E091
:10432200BE0721F40E94A2910E943D910E944E8FED
:10433200A936E0E0BE0739F40E942E90E1E00E9427
:10434200C3900E9476910E944E8FAC38E0E0BE0787
:1043520069F40E94A791E1E00E94C390E8E00E9404
:10436200AA91E1E0E093EB0BE093EC0B0E944E8FFD
:104372009397B1F40E943A8DEAEFE093EF0BE0E1FC
:10438200E0939907E3E00E94AA910E94B09119F08C
:10439200E4E0E093EB0B0E94B791EEE2E093720C43
:1043A2000E944E8FA13BE3E0BE0749F40E94C091F8
:1043B2000E946F91E6E00E94AA910E94C3910E941E
:1043C200C79149F40E94CC910E946F91E5E00E944E
:1043D200AA910E94C3910E94CF9139F40E94D49174
:1043E200E9E00E94D7910E94C3910E944E8FA23DA4
:1043F200E0E0BE0749F40E94DE910E940E91E5E0E2
:104402000E94AA910E94C3910E94E19139F40E94F4
:10441200E691E2E10E94D7910E94C391E091AD073B
:10442200E030B1F00E944E8F939749F40E94E991D7
:104432000E94EF910E94F59111F40E94FD910E9459
:1044420001920E94209121F40E9405920E947666B8
:104452000895E0E00E941392E1E0F0E00E94AA9049
:104462000E941892E093AD07E0E0E093E00BE09346
:10447200DF0B089522970E94EBA2A091CC0BA131F1
:1044820089F4E091700CE17021F0E091300CE0933E
:10449200670C0E94848E0E94E88D0E94E28D0E9429
:1044A2001D9216C4A091CC0BA93119F5EBE00E9424
:1044B20024920E9427920E942D920E94319211F022
:1044C2000E943C92A0917D0CA43080F4E0912C0CCF
:1044D200E03031F0E091610CEE0F6E0E961410F4A4
:1044E200E1E06E2E0E9441920E9445920E944F92FC
:1044F200EFC3A091CC0BA53111F5EAE00E94249202
:104502000E9427920E942D920E9491620E943192F3
:1045120011F00E943C92A0917D0CA43068F4E091CD
:104522002C0CE03019F06394961410F4E1E06E2E36
:104532000E9441920E9445920E944F92C9C3A0914B
:10454200CC0BA73109F044C0EAE00E9424920E94F9
:1045520027920E942D920E9491620E94319211F044
:104562000E943C92A0917D0CA43078F5E0912C0C35
:10457200E03049F40E9457920E9441920E94459273
:104582000E94619219C0E1E0E61521F4692C0E94B3
:10459200579201C06A94662011F00E944192E62D62
:1045A200EF5F11F00E944592E62DEE5F11F00E943E
:1045B2006192E62DED5F49F0A62DAD5F0E94BF61CD
:1045C200F0E0E093BD0BF093BE0B0E944F9280C3CC
:1045D200A091CC0BA63109F05DC2E091730CE030E2
:1045E20021F4E0915C0DE093730CE0E0E0935C0D4C
:1045F200E0935D0DA0917D0CA43009F061C0E093C1
:104602006F0DA091730CA43029F00E947F90E0936B
:10461200730C56C00E94918F0E94A88F0E949F8F98
:1046220001E0003178F50E940B910E946B9219F41F
:104632000E94BE8F0CC0A0919C07A03221F40E9460
:10464200428FF0E004C00E94BE8F0E942090E0934F
:10465200210CF093220C0E94C88FA436E0E0BE0722
:1046620020F0E3E6F0E00E94C38F0E94E28F19F48B
:1046720000936F0D00E10F3019F4E0E0E0936F0D4D
:104682000F5FCFCF0E94E98F0E94EE8F0E94F38FBF
:10469200E093B909E0916F0DE03021F0A0916F0D28
:1046A200A03148F00E947F90E093730CE0E0E09329
:1046B200F70BE0936F0DE0E0E093210CE093220C06
:1046C2000E94FF8FE03031F0A0917D0CA43010F4F5
:1046D200E1E001C0E0E00E940790309721F4A09150
:1046E2007D0CA53008F009C0A0917D0CA43021F406
:1046F200E0916F0DE03009F4C5C10E940D90E09188
:10470200700CE07439F0E8E0E093900DE1E9E09399
:104712008C0D03C0E0E0E093900DE1E08E2EEBE41F
:10472200F0E0E0930F0CF093100CE091B009E093ED
:10473200AE07E0E0E093760C0E947592E093B30935
:10474200689437F80E942A8EE091050CF091060CCD
:10475200E093030CF093040C0E94D08D0E94AD8D67
:104762000E94B38D0E94BF8D0E94C58DE091B70B50
:10477200E093CE0BE0910E0DE17019F0E6EBF8EC50
:1047820002C0E4ECFCE9E0939607F0939707EFE0B0
:10479200E0939907A091CE0B0E94C463E0E0E093FE
:1047A200160CA0919A07A33210F0A73608F012C097
:1047B2000E94F58D309711F00E94FA8D0E94008EB2
:1047C20011F00E94068E0E94F58D309711F00E9422
:1047D200148E11C00E94F58D309711F00E94FA8D4F
:1047E2000E94008E11F00E94248E0E94F58D309757
:1047F20011F00E94148EE0E0E093D60CE093D70C07
:10480200E093730CA0917D0CA43008F4D5C0A430C1
:1048120009F079C0E0916F0DE093B9090E94F38F1E
:10482200E0936F0DE1E0F0E00E941690A091B909CB
:10483200A73050F4E0916F0DE0938A0DE03019F447
:10484200E4E6E0938A0D5EC0A091B909A73010F0AA
:10485200AD3008F00EC0E091B909E650E093B90915
:10486200E0916F0D0E947D9219F4E8ECE0938A0DBD
:1048720049C0A091B909AD3010F0A03108F042C092
:10488200A0916F0DA33320F4E0916F0DE03009F495
:104892001AC0A091B909AD3011F4E1E00BC0A091AA
:1048A200B909AE3011F4E3E005C0A091B909AF3007
:1048B20019F4E5E0E093B909E9ECE0938A0DE0919F
:1048C2006F0DE8531DC0A091B909AD3011F4E2E0BB
:1048D2000BC0A091B909AE3011F4E4E005C0A0917B
:1048E200B909AF3019F4E6E0E093B909E0916F0D30
:1048F200EA56E0938A0DA0918A0DA63919F4EAEFDF
:10490200E0938A0D59C0A0917D0CA530C9F40E9494
:10491200E98F309729F4E5E0E093B909E1E00DC0B1
:104922000E941B90EAEFF0E00E942EA2EF5F0E942D
:104932008492EAEFF0E00E9469A2E0938A0D3CC003
:10494200A0917D0CA630C1F50E948792309761F448
:10495200E4E00E9484920E947A900E947D9219F46F
:10496200E8ECE0938A0D28C00E948792379770F492
:104972000E9487920E9484920E947A90E0938A0D0C
:10498200E03019F4E4E6E0938A0D16C00E948792A3
:10499200DF01379718F0FD013A9708F00DC00E9429
:1049A2008792E6500E9484920E947A900E947D92A1
:1049B20019F4E8ECE0938A0DA0917D0CA33051F537
:1049C20001E00B3F10F50E940B910E946B9219F4CB
:1049D2000E94BE8F0CC0A0919C07A03221F40E94BD
:1049E200428FF0E004C00E94BE8F0E942090E093AC
:1049F200210CF093220C0E94239029F4E02FF0E086
:104A02000E94C38F0BEF0F5FDCCFE091210CE0938C
:104A12008A0D25C0E0917D0CE03029F4E091B70BBE
:104A2200E0938A0D1CC0A0917D0CA13029F40E9454
:104A32008992E0938A0D13C0A0917D0CA23079F483
:104A42000E94879231970E948F92DA010E94EDA113
:104A5200AF010E9495923E2F340F30938A0DA091A0
:104A62008A0D0E942B63AE2F0E94BE660E9497920F
:104A72000E94999219F0969A689431F8E0E0E093D6
:104A82002A0C07C00E947592E093730CA2E00E9468
:104A92005A631EC1A091CC0BA83109F0B3C0E0E06B
:104AA200E0938B0DE093B107E093B207E093020C21
:104AB200E093F70B0E94848E0E94E88D0E94E28DA3
:104AC200A091B307B091B407129788F0E1E0F0E04B
:104AD2000E94E88EE091B809E03031F0E1E0F0E0C8
:104AE200E093A40CF093A50CE0E0E093B309E0E0BE
:104AF200E093760CE0932C0C0E949F920E946949ED
:104B02001E2FE0E0E093730C113009F044C0E093F3
:104B1200750C0E94A492E091620CE074AE2F21F019
:104B2200E0919307E03019F4EA2FE03099F5E09133
:104B32005B0CA0915A0CEA1740F0A092AA0B0E94BB
:104B420047900E94AA920E94B592E0915C0CA091BB
:104B52005A0CAE1730F00E94BA920E94BF920E9485
:104B6200B592E0915D0CE03021F0E091AB0BE030CA
:104B720009F404C00E94CA920E943D90E0915D0C2B
:104B8200E03021F4E091AB0BE03009F003C0A3E088
:104B92000E945A6336C0123059F40E94A4920E94B5
:104BA200D292E0E0E0932E0CA1E00E945A6329C069
:104BB200133041F40E94A4920E94D292E1E0E09369
:104BC2002E0C1FC0E1E0E093700DE0E0E093020CD8
:104BD200E093740C0E947F90E093750CE0E0E09308
:104BE200730C0E941D92E4E1F0E0E093120DF09349
:104BF200130DE1E0E093690DE0E0E093AE070E945F
:104C0200554266C0A091CC0BA13010F0AB3008F039
:104C12005FC0A091730CA43019F4E0E0E093730C30
:104C2200A091730CA33021F4A0917D0CA43009F063
:104C32000EC0E091CC0BE093F70BA091F70BAA30DA
:104C420019F4E0E0E093F70BE4E0E093730CA09139
:104C5200730CA330B0F40E94EB92A091CC0BA08312
:104C62000E94EB92A081AA3021F40E94EB92A0E074
:104C7200A083E091730CEF5FE093730CE0E0E093AC
:104C8200F70BE0917A0CEF5FE093020CA091CC0B52
:104C9200AA3019F4E0E0E093CC0BE091750CF0E05F
:104CA200E850F44FA091CC0BA083A091750CAA30D0
:104CB20028F4E091750CEF5FE093750CECE3E09360
:104CC200740CE091690DE03019F0EAE0E093690DAF
:104CD2000E94F2A2289608951A930A9300E0E091A6
:104CE200DF0BE03031F4A1E00E945A63C3DB0C9485
:104CF2003B2DA091DF0BA13009F040C1E091CC0B1C
:104D0200E03079F0A091CC0BA83149F40E94B69022
:104D120019F00E94538F19F4E1E0E093670D0E94AD
:104D2200858DA1E00E945A63E0E0E093020CA0911D
:104D3200CC0BA53109F067C00E94F192C1F0E0915D
:104D4200E10BE13011F4E2E00FC0E23011F4E5E1F1
:104D52000BC0E53111F4E6E107C0E63111F4E7E1F9
:104D620003C0E73119F4E1E0E093E10B49C0E091BF
:104D72007E0CE074C1F5E091E10BE13011F4E2E068
:104D82002FC0E23011F4E3E02BC0E33011F4E4E091
:104D920027C0E43011F4E5E023C0E53011F4E5E189
:104DA2001FC0E53111F4E6E11BC0E63111F4E6E083
:104DB20017C0E63011F4E7E013C0E73011F4EEE07B
:104DC2000FC0EE3011F4E0E10BC0E03111F4EBE181
:104DD20007C0EB3111F4EDE103C0ED3119F4E1E06C
:104DE200E093E10B0DC0E091E20BA091E10BEA1719
:104DF20011F4E1E003C0E091E10BEF5FE093E10B1E
:104E02000E94FA92BAC0A091CC0BA73109F066C0F9
:104E12000E94F192C1F0E091E10BE13011F4E7E17F
:104E22000FC0E73111F4E6E10BC0E63111F4E5E120
:104E320007C0E53111F4E2E003C0E23019F4E1E029
:104E4200E093E10B48C0E0917E0CE074C1F5E09183
:104E5200E10BE13011F4EDE12FC0ED3111F4EBE1A2
:104E62002BC0EB3111F4E0E127C0E03111F4EEE0A8
:104E720023C0EE3011F4E7E01FC0E73011F4E6E0A2
:104E82001BC0E63011F4E6E117C0E63111F4E5E1AA
:104E920013C0E53111F4E5E00FC0E53011F4E4E0B0
:104EA2000BC0E43011F4E3E007C0E33011F4E2E0B8
:104EB20003C0E23019F4E1E0E093E10B0CC0A091F1
:104EC200E10BA13019F4E091E20B03C0E091E10B98
:104ED200E150E093E10B0E94FA924FC0A091CC0BFB
:104EE200A631E1F50E940193E091E30BE150A0911C
:104EF200E00BAE17E8F4E091E00BF0E0EC51F44F78
:104F0200A091E10BA083E091E00BEF5FE093E00B57
:104F1200E1E0E093E10BA091CA0BB091CB0BE3E28D
:104F22000E9415A2E093C80BF093C90B0E94FA925B
:104F32000CD90E948B9131F40E9404640E94079361
:104F4200E89425F80E94909119F00E948B9129F41F
:104F52000E943093E0610E9435930FC0A091CC0B68
:104F6200A13159F40E940193E0E0E093020CE8942D
:104F720026F87CD8E1E0E093770C7CC5A1E00E94A2
:104F82005A63E091EC0BE03009F4A8D8A091CC0B65
:104F9200A83169F40E944E8F939719F0A3E00E9402
:104FA2005A63E4EFF1E0E0937A0DF0937B0DA09168
:104FB200CC0BA23011F40E94858D0E94B69019F09C
:104FC2000E94538F69F4A091CC0BA23011F4E8E156
:104FD20005C0A091CC0BA83119F4E2E0E093CC0B10
:104FE200A091CC0BA83109F0BEC1E0E0E093B70775
:104FF2000E94D490A9F00E94E39091F00E94EB905D
:1050020079F00E94F39061F00E94FB9049F00E94B7
:10501200039131F00E94C79119F00E94989161F4B6
:10502200E091AF07E17011F4689424F846D5E0915D
:10503200AF07EE7FE093AF070E944E8F939709F080
:105042005BC0E091AC07E03051F1A091EB0BA530D1
:1050520018F00E943A9322C0E0E0E093AB07A091DF
:105062006E0DA13019F4E1E0E093620D0E944393CA
:105072000E94479331F40E947E8F0E944E930E94B9
:105082005393E0E0E0936E0D0E9455420E944E8FD2
:10509200939711F40E94D5610E9437202CC00E9480
:1050A2005993E0919907A091EB0BEA1708F5E0916B
:1050B2006E0DE03041F4E5E00E945F930E94E991B9
:1050C2000E94EF9115C0A0916E0DA23069F40E946A
:1050D2004393E1E0E0936E0DE5E0E093EB0B0E9479
:1050E200E9910E94EF9104C0E0919907E093EB0BE4
:1050F200E0E0E093EE0B36C10E94B69019F00E94F8
:10510200538FA9F4E1E0E093EB0B0E946F8FB5D4CB
:105112000E947E8F0E94838F0E94588F0E948F630D
:10512200E1E0E093B007E0E0E093620D1BC10E9472
:10513200BB9061F00E94209141F4A0915B0CA030E1
:1051420021F4A0915C0CA03009F00AC0E1E0E093E8
:10515200EB0B0E946F8F91D4E1E0E093B00702C1A4
:105162000E94389109F0FEC0A091AD07A53018F455
:10517200E4E0E093570CA1E00E945A63DB98A0910F
:10518200AD07A13079F40E94C090EAE0E09399075C
:1051920011E01B3F30F40E947E8F0E9465931F5FD7
:1051A200F8CF87C0A091AD07A230B9F50E946C93E9
:1051B200A091640DA53428F40E9474930E947C93FC
:1051C200F7CF0E9482930E943291E8E0E093990720
:1051D20011E01B3FF0F40F5F033010F40E94726382
:1051E200063021F4A3E00E945A6300E00E947E8F01
:1051F2000E94838FE0E0E093620DA091620DA630E1
:1052020030F4A12F0E948F630E941E8FF6CF1F5F82
:10521200E0CFE0E0E093620D4CC0A091AD07A33077
:10522200B9F50E946C93A091640DA53428F40E94F4
:1052320074930E947C93F7CF0E9482930E943591CF
:10524200E8E0E093990711E01B3FF0F40F5F0330B1
:1052520010F40E947263063021F4A3E00E945A63A4
:1052620000E00E947E8F0E94838FE0E0E093620D57
:10527200A091620DA63030F4A12F0E948F630E948C
:105282001E8FF6CF1F5FE0CFE0E0E093620D11C00A
:10529200A091AD07A43069F40E9499930E94B98E3F
:1052A200A3EBB2E00E949E930000A1E00E945A6329
:1052B200FBCFA091AD07A53009F03EC0A895C198DB
:1052C200C2980E948063E0E0E093600DE093610D7C
:1052D200A091600DB091610D1A9770F40000B3991E
:1052E20005C0A0E6BDE00E94988D05C0E0E0E09315
:1052F200600DE093610DECCFA8950000A1E00E9443
:105302005A63DB98E6E0F0E00E94A3930E94A89320
:1053120029F027FEFECF0E94AE93F8CFEFEFF0E028
:105322000E94A393DB9A0E94A89329F027FEFECF46
:105332000E94AE93F8CFE0CFA091AD07A63049F41A
:10534200C198C29A0E9480630000A1E00E945A6341
:10535200FBCFDB9AE0E0E093100DE093110DA1E0AA
:105362000E945A6387C3A091CC0BA93109F06EC089
:105372000E94858D0E94B69019F00E94538FA9F465
:105382000E94588F0E94798FE950A091AD07AE1705
:1053920020F4E091AD07E65F01C0E1E0E093AD07E4
:1053A2000E94588F0E94EF9150C00E94B39379F0EF
:1053B2000E94E39061F00E94EB9049F00E94F3900A
:1053C20031F00E94FB9019F00E94039109F407C08A
:1053D200A0916E0DA13019F4E1E0E093620D0E94FC
:1053E20043930E94479331F40E947E8F0E944E9312
:1053F2000E945393E0E0E0936E0DE091EF0BE950D1
:10540200A091AD07AE1720F4E091AD07E65F01C0B1
:10541200E1E0E093AD070E944E8F939749F40E941A
:10542200E9910E94EF910E94F59111F40E94FD9181
:105432000E9401920E94B69331F40E94B09119F039
:10544200E4E0E093EB0B0E94BC9314C3A091CC0B5D
:10545200A53109F077C00E94858D0E94B69019F09F
:105462000E94538FA1F40E94588F0E94798FA091BD
:10547200AD07AE1720F4E091AD07EF5F01C0E1E0A8
:10548200E093AD070E94588F0E94EF915AC00E948C
:10549200B39379F00E94E39061F00E94EB9049F09F
:1054A2000E94F39031F00E94FB9019F00E94039148
:1054B20009F407C0A0916E0DA13019F4E1E0E09368
:1054C200620D0E9443930E94479331F40E947E8FA3
:1054D2000E944E930E9453930E94C29321F40E9411
:1054E20005920E945A66E091EF0BA091AD07AE17AC
:1054F20020F4E091AD07EF5F01C0E1E0E093AD077A
:105502000E944E8F939749F40E94E9910E94EF9175
:105512000E94F59111F40E94FD910E9401920E9455
:10552200209121F40E9405920E9476660E94B69311
:1055320031F40E94B09119F0E4E0E093EB0B0E9489
:10554200BC9398C2A091CC0BA73109F07AC00E94FB
:10555200858D0E94B69019F00E94538FC1F40E946B
:10556200588F0E948F63A091AD07A23020F0E09186
:10557200AD07E15002C0E091EF0BE093AD07E1E02F
:10558200E093EB0B0E94588F0E94EF9159C00E944A
:10559200B39379F00E94E39061F00E94EB9049F09E
:1055A2000E94F39031F00E94FB9019F00E94039147
:1055B20009F407C0A0916E0DA13019F4E1E0E09367
:1055C200620D0E9443930E94479331F40E947E8FA2
:1055D2000E944E930E9453930E94C29321F40E9410
:1055E20005920E945A66A091AD07A23020F0E09188
:1055F200AD07E15002C0E091EF0BE093AD070E94CE
:10560200B69331F40E94B09119F0E4E0E093EB0B11
:105612000E94BC930E944E8F939749F40E94E99195
:105622000E94EF910E94F59111F40E94FD910E9457
:1056320001920E94209121F40E9405920E947666B6
:1056420019C2A091CC0BA03271F50E944E8F939794
:10565200F1F4E091EB0BE1501E2FE0919907E11775
:1056620030F00E94C693A0E2A0831F5FF6CFE091C4
:105672006E0DE03059F4E2E0E0936E0DECEBF9E0F0
:105682000E94CB93A0E8BAE00E94254209C026FE00
:1056920007C00E945993E091AF07E160E093AF0722
:1056A200E89426F8E7C1A091CC0BA13121F4E09156
:1056B200570CE03009F032C1E2E0E093680DE0E01F
:1056C200E093020C0E948B91C9F50E94BE8F0E944A
:1056D200D1930E94D6930E94D2A220F4A2EEBCE003
:1056E2000E948B8D0E94D693179720F0E6E0F0E09F
:1056F2000E94D1930E94DB93ABE9B7E0EC91EF708B
:10570200EC93ACE9B7E0EC91EF70EC930E94E79375
:1057120010F00E94FA930E940194ADE9B7E0EC9177
:10572200EF70EC93AEE9B7E0EC91EF70EC930E946E
:105732000D9410F00E9422940E942994E091AC07EB
:10574200E03009F475C0DB980E944E8F939779F58B
:105752000E945993E0919907E150A091EB0BEA174F
:1057620010F5E0916E0DE03041F4E4E00E945F93A9
:105772000E94E9910E94EF9116C0A0916E0DA23095
:1057820069F40E944393E1E0E0936E0DE4E0E0935C
:10579200EB0B0E94E9910E94EF9105C0E0919907FD
:1057A200E150E093EB0BE0E0E093EE0B40C0E0E071
:1057B200E093AB070E94B69019F00E94538F21F438
:1057C200E0916E0DE093620D0E944393E0E0E0935E
:1057D200620D0E94B69019F00E94538F19F4E0E016
:1057E200E0936E0DE091B007E03019F00E94B690A0
:1057F20009F002C00E944E64E091B007E03019F057
:105802000E94538F09F002C00E94BD640E94209141
:1058120021F40E9405920E945A660E9455420E94FB
:105822004E8F939711F40E94D5610E94372074C065
:10583200DB98A091EB0BA63020F00E944E8F93973D
:1058420009F003C00E943A9367C0E0E0E093AB071F
:105852000E94D49079F00E94E39061F00E94EB9054
:1058620049F00E94F39031F00E94FB9019F00E94DF
:10587200039109F411C0A0916E0DA13019F4E1E079
:10588200E093620D0E94B69019F00E94538F21F4AA
:10589200E0916E0DE093620D0E944393E091B00798
:1058A200E03019F00E94B69009F002C00E944E64E6
:1058B200E091B007E03019F00E94538F09F002C066
:1058C2000E94BD64E8E0E0939907E0E0E093620D96
:1058D2000E94B69019F00E94538F19F4E0E0E09311
:1058E2006E0DA0916E0DA23031F40E947E8F0E9447
:1058F2004E930E9453930E94C29321F40E940592F8
:105902000E945A660E9455420E944E8F939711F44C
:105912000E94D5610E943720DB9AACC0A091CC0BCB
:10592200A63109F04BC0E0E0E093B7070E94D490A3
:10593200C1F00E94E390A9F00E94EB9091F00E94C6
:10594200F39079F00E94FB9061F00E94909149F0EF
:105952000E94989131F00E94039119F00E9498914F
:1059620019F40E946F8F89D00E944E8F939729F568
:10597200DB98E0E0E093AB07A0916E0DA23049F412
:10598200E093620D0E9443930E947E8F0E94409496
:1059920004C0E0916E0DE03019F0E1E0E093620D99
:1059A2000E944393E0E0E093620DE0936E0D0E944B
:1059B20055420E94D5610E9437205CC00E944E8FE2
:1059C200939799F40E94858D1BD1E0E0E093EC0B54
:1059D200E093250C0E94AF90E081E093ED0B0E94D2
:1059E2006F20E1E0E093D30B45C00E94858D0E94B9
:1059F200209141F4A0915B0CA03021F4A0915C0CA9
:105A0200A03009F002C010E001C011E00E94209114
:105A120009F010E00E94B69029F00E94538F11F015
:105A2200113009F408C0A091EB0BA13019F40E94C7
:105A32006F8F23D042D00E94B69019F00E94538FEC
:105A420021F4A091CC0BA23009F014C00E94588F0F
:105A52000E948F63E0916E0DEF5FE0936E0DA09157
:105A62006E0DA63018F0E0E0E0936E0D0E94588FA4
:105A72000E94EF91099119910895AA931A93EC81CA
:105A8200E1501E2FE9811E1730F40E944494E0E297
:105A9200EC931F5FF7CF0EC0AA931A9310E0E9812F
:105AA2001E1740F40E944494E12F0E946A8FEC93E7
:105AB2001F5FF5CF1881259608951A93A091CC0BFC
:105AC200A13010F0AB3010F024FE96C0A091CC0BA8
